{
  "address": "0x18f5C1AdF4A32D362b2885D4b00b67e14DB60885",
  "abi": [
    {
      "anonymous": false,
      "inputs": [
        {
          "indexed": true,
          "internalType": "address",
          "name": "owner",
          "type": "address"
        },
        {
          "indexed": true,
          "internalType": "address",
          "name": "approved",
          "type": "address"
        },
        {
          "indexed": true,
          "internalType": "uint256",
          "name": "tokenId",
          "type": "uint256"
        }
      ],
      "name": "Approval",
      "type": "event"
    },
    {
      "anonymous": false,
      "inputs": [
        {
          "indexed": true,
          "internalType": "address",
          "name": "owner",
          "type": "address"
        },
        {
          "indexed": true,
          "internalType": "address",
          "name": "operator",
          "type": "address"
        },
        {
          "indexed": false,
          "internalType": "bool",
          "name": "approved",
          "type": "bool"
        }
      ],
      "name": "ApprovalForAll",
      "type": "event"
    },
    {
      "anonymous": false,
      "inputs": [
        {
          "indexed": true,
          "internalType": "address",
          "name": "previousOwner",
          "type": "address"
        },
        {
          "indexed": true,
          "internalType": "address",
          "name": "newOwner",
          "type": "address"
        }
      ],
      "name": "OwnershipTransferred",
      "type": "event"
    },
    {
      "anonymous": false,
      "inputs": [
        {
          "indexed": true,
          "internalType": "address",
          "name": "from",
          "type": "address"
        },
        {
          "indexed": true,
          "internalType": "address",
          "name": "to",
          "type": "address"
        },
        {
          "indexed": true,
          "internalType": "uint256",
          "name": "tokenId",
          "type": "uint256"
        }
      ],
      "name": "Transfer",
      "type": "event"
    },
    {
      "inputs": [
        {
          "internalType": "string",
          "name": "_name",
          "type": "string"
        },
        {
          "internalType": "string",
          "name": "_symbol",
          "type": "string"
        },
        {
          "internalType": "address",
          "name": "_oracle",
          "type": "address"
        },
        {
          "internalType": "address",
          "name": "_owner",
          "type": "address"
        },
        {
          "internalType": "uint256",
          "name": "_updateInterval",
          "type": "uint256"
        },
        {
          "internalType": "int256",
          "name": "_threshold",
          "type": "int256"
        },
        {
          "internalType": "uint32",
          "name": "_stateCount",
          "type": "uint32"
        }
      ],
      "name": "CMCLayer_init",
      "outputs": [],
      "stateMutability": "nonpayable",
      "type": "function"
    },
    {
      "inputs": [
        {
          "internalType": "address",
          "name": "to",
          "type": "address"
        },
        {
          "internalType": "uint256",
          "name": "tokenId",
          "type": "uint256"
        }
      ],
      "name": "approve",
      "outputs": [],
      "stateMutability": "nonpayable",
      "type": "function"
    },
    {
      "inputs": [
        {
          "internalType": "address",
          "name": "owner",
          "type": "address"
        }
      ],
      "name": "balanceOf",
      "outputs": [
        {
          "internalType": "uint256",
          "name": "",
          "type": "uint256"
        }
      ],
      "stateMutability": "view",
      "type": "function"
    },
    {
      "inputs": [
        {
          "internalType": "address",
          "name": "_to",
          "type": "address"
        },
        {
          "internalType": "string[]",
          "name": "_cids",
          "type": "string[]"
        },
        {
          "internalType": "uint32",
          "name": "_currentState",
          "type": "uint32"
        },
        {
          "internalType": "bytes",
          "name": "_data",
          "type": "bytes"
        }
      ],
      "name": "create",
      "outputs": [],
      "stateMutability": "nonpayable",
      "type": "function"
    },
    {
      "inputs": [
        {
          "internalType": "uint256",
          "name": "tokenId",
          "type": "uint256"
        }
      ],
      "name": "getApproved",
      "outputs": [
        {
          "internalType": "address",
          "name": "",
          "type": "address"
        }
      ],
      "stateMutability": "view",
      "type": "function"
    },
    {
      "inputs": [
        {
          "internalType": "uint256",
          "name": "id",
          "type": "uint256"
        }
      ],
      "name": "getLayer",
      "outputs": [
        {
          "internalType": "uint32",
          "name": "stateCount",
          "type": "uint32"
        },
        {
          "internalType": "uint32",
          "name": "currentState",
          "type": "uint32"
        }
      ],
      "stateMutability": "view",
      "type": "function"
    },
    {
      "inputs": [],
      "name": "id",
      "outputs": [
        {
          "internalType": "uint256",
          "name": "_value",
          "type": "uint256"
        }
      ],
      "stateMutability": "view",
      "type": "function"
    },
    {
      "inputs": [
        {
          "internalType": "address",
          "name": "owner",
          "type": "address"
        },
        {
          "internalType": "address",
          "name": "operator",
          "type": "address"
        }
      ],
      "name": "isApprovedForAll",
      "outputs": [
        {
          "internalType": "bool",
          "name": "",
          "type": "bool"
        }
      ],
      "stateMutability": "view",
      "type": "function"
    },
    {
      "inputs": [],
      "name": "lastPrice",
      "outputs": [
        {
          "internalType": "int256",
          "name": "",
          "type": "int256"
        }
      ],
      "stateMutability": "view",
      "type": "function"
    },
    {
      "inputs": [],
      "name": "lastUpdatedAt",
      "outputs": [
        {
          "internalType": "uint256",
          "name": "",
          "type": "uint256"
        }
      ],
      "stateMutability": "view",
      "type": "function"
    },
    {
      "inputs": [],
      "name": "name",
      "outputs": [
        {
          "internalType": "string",
          "name": "",
          "type": "string"
        }
      ],
      "stateMutability": "view",
      "type": "function"
    },
    {
      "inputs": [],
      "name": "owner",
      "outputs": [
        {
          "internalType": "address",
          "name": "",
          "type": "address"
        }
      ],
      "stateMutability": "view",
      "type": "function"
    },
    {
      "inputs": [
        {
          "internalType": "uint256",
          "name": "tokenId",
          "type": "uint256"
        }
      ],
      "name": "ownerOf",
      "outputs": [
        {
          "internalType": "address",
          "name": "",
          "type": "address"
        }
      ],
      "stateMutability": "view",
      "type": "function"
    },
    {
      "inputs": [],
      "name": "renounceOwnership",
      "outputs": [],
      "stateMutability": "nonpayable",
      "type": "function"
    },
    {
      "inputs": [
        {
          "internalType": "address",
          "name": "from",
          "type": "address"
        },
        {
          "internalType": "address",
          "name": "to",
          "type": "address"
        },
        {
          "internalType": "uint256",
          "name": "tokenId",
          "type": "uint256"
        }
      ],
      "name": "safeTransferFrom",
      "outputs": [],
      "stateMutability": "nonpayable",
      "type": "function"
    },
    {
      "inputs": [
        {
          "internalType": "address",
          "name": "from",
          "type": "address"
        },
        {
          "internalType": "address",
          "name": "to",
          "type": "address"
        },
        {
          "internalType": "uint256",
          "name": "tokenId",
          "type": "uint256"
        },
        {
          "internalType": "bytes",
          "name": "_data",
          "type": "bytes"
        }
      ],
      "name": "safeTransferFrom",
      "outputs": [],
      "stateMutability": "nonpayable",
      "type": "function"
    },
    {
      "inputs": [
        {
          "internalType": "address",
          "name": "operator",
          "type": "address"
        },
        {
          "internalType": "bool",
          "name": "approved",
          "type": "bool"
        }
      ],
      "name": "setApprovalForAll",
      "outputs": [],
      "stateMutability": "nonpayable",
      "type": "function"
    },
    {
      "inputs": [
        {
          "internalType": "int256",
          "name": "_threshold",
          "type": "int256"
        }
      ],
      "name": "setThreshold",
      "outputs": [],
      "stateMutability": "nonpayable",
      "type": "function"
    },
    {
      "inputs": [
        {
          "internalType": "bytes4",
          "name": "interfaceId",
          "type": "bytes4"
        }
      ],
      "name": "supportsInterface",
      "outputs": [
        {
          "internalType": "bool",
          "name": "",
          "type": "bool"
        }
      ],
      "stateMutability": "view",
      "type": "function"
    },
    {
      "inputs": [],
      "name": "symbol",
      "outputs": [
        {
          "internalType": "string",
          "name": "",
          "type": "string"
        }
      ],
      "stateMutability": "view",
      "type": "function"
    },
    {
      "inputs": [],
      "name": "threshold",
      "outputs": [
        {
          "internalType": "int256",
          "name": "",
          "type": "int256"
        }
      ],
      "stateMutability": "view",
      "type": "function"
    },
    {
      "inputs": [
        {
          "internalType": "uint256",
          "name": "tokenId",
          "type": "uint256"
        }
      ],
      "name": "tokenURI",
      "outputs": [
        {
          "internalType": "string",
          "name": "",
          "type": "string"
        }
      ],
      "stateMutability": "view",
      "type": "function"
    },
    {
      "inputs": [
        {
          "internalType": "address",
          "name": "from",
          "type": "address"
        },
        {
          "internalType": "address",
          "name": "to",
          "type": "address"
        },
        {
          "internalType": "uint256",
          "name": "tokenId",
          "type": "uint256"
        }
      ],
      "name": "transferFrom",
      "outputs": [],
      "stateMutability": "nonpayable",
      "type": "function"
    },
    {
      "inputs": [
        {
          "internalType": "address",
          "name": "newOwner",
          "type": "address"
        }
      ],
      "name": "transferOwnership",
      "outputs": [],
      "stateMutability": "nonpayable",
      "type": "function"
    },
    {
      "inputs": [],
      "name": "updateAll",
      "outputs": [],
      "stateMutability": "nonpayable",
      "type": "function"
    },
    {
      "inputs": [],
      "name": "updateInterval",
      "outputs": [
        {
          "internalType": "uint256",
          "name": "",
          "type": "uint256"
        }
      ],
      "stateMutability": "view",
      "type": "function"
    },
    {
      "inputs": [
        {
          "internalType": "uint256",
          "name": "_id",
          "type": "uint256"
        },
        {
          "internalType": "uint256",
          "name": "_index",
          "type": "uint256"
        }
      ],
      "name": "verifyCid",
      "outputs": [
        {
          "internalType": "string",
          "name": "",
          "type": "string"
        }
      ],
      "stateMutability": "view",
      "type": "function"
    }
  ],
  "transactionHash": "0x61aabdcfe29a75920fcf55c68854e820b1cb2feed15781b5b9a171c63493993f",
  "args": [],
  "solcInputHash": "4faf2968e16dbbb636089e4621345c82",
  "bytecode": "0x608060405234801561001057600080fd5b506124f8806100206000396000f3fe608060405234801561001057600080fd5b50600436106101a95760003560e01c806370a08231116100f9578063c87b56dd11610097578063f2fde38b11610071578063f2fde38b14610381578063f781e3ae14610394578063f78db1e6146103d9578063fd2c80ae146103ec57600080fd5b8063c87b56dd1461031f578063e985e9c514610332578063ef0fb5581461036e57600080fd5b806395d89b41116100d357806395d89b41146102e7578063a22cb465146102ef578063af640d0f14610302578063b88d4fde1461030c57600080fd5b806370a08231146102bb578063715018a6146102ce5780638da5cb5b146102d657600080fd5b806323b872dd1161016657806353d786931161014057806353d786931461028457806354aea1271461028c5780636352211e146102955780636ccf77d3146102a857600080fd5b806323b872dd1461025557806342842e0e1461026857806342cde4e81461027b57600080fd5b806301ffc9a7146101ae578063053f14da146101d657806306fdde03146101ed578063081812fc14610202578063095ea7b31461022d5780632196277514610242575b600080fd5b6101c16101bc366004611e96565b6103f5565b60405190151581526020015b60405180910390f35b6101df60cd5481565b6040519081526020016101cd565b6101f5610420565b6040516101cd9190612094565b610215610210366004611ece565b6104b2565b6040516001600160a01b0390911681526020016101cd565b61024061023b366004611e6d565b61054c565b005b610240610250366004611d79565b610662565b610240610263366004611cc5565b6107e0565b610240610276366004611cc5565b610811565b6101df60cf5481565b61024061082c565b6101df60cc5481565b6102156102a3366004611ece565b6109b7565b6101f56102b6366004611f8c565b610a2e565b6101df6102c9366004611c79565b610b4f565b610240610bd6565b6033546001600160a01b0316610215565b6101f5610c4a565b6102406102fd366004611e33565b610c59565b60c9546101df9081565b61024061031a366004611d00565b610d1e565b6101f561032d366004611ece565b610d56565b6101c1610340366004611c93565b6001600160a01b039182166000908152609c6020908152604080832093909416825291909152205460ff1690565b61024061037c366004611ece565b610e3e565b61024061038f366004611c79565b610e6d565b6103bc6103a2366004611ece565b5060d05463ffffffff808216926401000000009092041690565b6040805163ffffffff9384168152929091166020830152016101cd565b6102406103e7366004611ee6565b610f58565b6101df60ce5481565b60006001600160e01b03198216637bc0f1d760e11b148061041a575061041a82611030565b92915050565b60606097805461042f906123e6565b80601f016020809104026020016040519081016040528092919081815260200182805461045b906123e6565b80156104a85780601f1061047d576101008083540402835291602001916104a8565b820191906000526020600020905b81548152906001019060200180831161048b57829003601f168201915b5050505050905090565b6000818152609960205260408120546001600160a01b03166105305760405162461bcd60e51b815260206004820152602c60248201527f4552433732313a20617070726f76656420717565727920666f72206e6f6e657860448201526b34b9ba32b73a103a37b5b2b760a11b60648201526084015b60405180910390fd5b506000908152609b60205260409020546001600160a01b031690565b6000610557826109b7565b9050806001600160a01b0316836001600160a01b031614156105c55760405162461bcd60e51b815260206004820152602160248201527f4552433732313a20617070726f76616c20746f2063757272656e74206f776e656044820152603960f91b6064820152608401610527565b336001600160a01b03821614806105e157506105e18133610340565b6106535760405162461bcd60e51b815260206004820152603860248201527f4552433732313a20617070726f76652063616c6c6572206973206e6f74206f7760448201527f6e6572206e6f7220617070726f76656420666f7220616c6c00000000000000006064820152608401610527565b61065d8383611080565b505050565b6033546001600160a01b0316331461068c5760405162461bcd60e51b815260040161052790612147565b600384146106eb5760405162461bcd60e51b815260206004820152602660248201527f4572723a204d7573742070726f76696465203320436f6e74656e74204964656e6044820152653a34b334b2b960d11b6064820152608401610527565b60d05463ffffffff908116908416106107465760405162461bcd60e51b815260206004820181905260248201527f4572723a2043757272656e74205374617465206d7573742062652076616c69646044820152606401610527565b60006107506110ee565b9050604051806020016040528087879061076a9190612331565b9052600082815260ca6020908152604090912082518051919261079292849290910190611a28565b509050506107d7878285858080601f01602080910402602001604051908101604052809392919081815260200183838082843760009201919091525061110592505050565b50505050505050565b6107ea3382611138565b6108065760405162461bcd60e51b81526004016105279061217c565b61065d83838361122f565b61065d83838360405180602001604052806000815250610d1e565b600061083760c95490565b1161087c5760405162461bcd60e51b8152602060048201526015602482015274115c9c8e881b9bc81b185e595c8818dc99585d1959605a1b6044820152606401610527565b6000806108876113cf565b9150915060cd54600014156108b25760d0805467ffffffff000000001916905560cd9190915560cc55565b60ce5460cc546108c291906121fe565b81101561091d5760405162461bcd60e51b815260206004820152602360248201527f4572723a206d757374207570646174652061667465722073657420696e7465726044820152621d985b60ea1b6064820152608401610527565b600061092883611465565b60d05490915063ffffffff908116908216106109865760405162461bcd60e51b815260206004820181905260248201527f4572723a206e65772073746174652061626f766520737461746520636f756e746044820152606401610527565b60d0805463ffffffff9092166401000000000267ffffffff000000001990921691909117905560cd9190915560cc55565b6000818152609960205260408120546001600160a01b03168061041a5760405162461bcd60e51b815260206004820152602960248201527f4552433732313a206f776e657220717565727920666f72206e6f6e657869737460448201526832b73a103a37b5b2b760b91b6064820152608401610527565b600082815260ca60205260409020546060908390610a855760405162461bcd60e51b81526020600482015260146024820152731b185e595c881a5cc81b9bdd0818dc99585d195960621b6044820152606401610527565b600084815260ca60205260409020805484908110610ab357634e487b7160e01b600052603260045260246000fd5b906000526020600020018054610ac8906123e6565b80601f0160208091040260200160405190810160405280929190818152602001828054610af4906123e6565b8015610b415780601f10610b1657610100808354040283529160200191610b41565b820191906000526020600020905b815481529060010190602001808311610b2457829003601f168201915b505050505091505092915050565b60006001600160a01b038216610bba5760405162461bcd60e51b815260206004820152602a60248201527f4552433732313a2062616c616e636520717565727920666f7220746865207a65604482015269726f206164647265737360b01b6064820152608401610527565b506001600160a01b03166000908152609a602052604090205490565b6033546001600160a01b03163314610c005760405162461bcd60e51b815260040161052790612147565b6033546040516000916001600160a01b0316907f8be0079c531659141344cd1fd0a4f28419497f9722a3daafe3b4186f6b6457e0908390a3603380546001600160a01b0319169055565b60606098805461042f906123e6565b6001600160a01b038216331415610cb25760405162461bcd60e51b815260206004820152601960248201527f4552433732313a20617070726f766520746f2063616c6c6572000000000000006044820152606401610527565b336000818152609c602090815260408083206001600160a01b03871680855290835292819020805460ff191686151590811790915590519081529192917f17307eab39ab6107e8899845ad3d59bd9653f200f220920489ca2b5937696c31910160405180910390a35050565b610d283383611138565b610d445760405162461bcd60e51b81526004016105279061217c565b610d50848484846114dd565b50505050565b6000818152609960205260409020546060906001600160a01b0316610dd55760405162461bcd60e51b815260206004820152602f60248201527f4552433732314d657461646174613a2055524920717565727920666f72206e6f60448201526e3732bc34b9ba32b73a103a37b5b2b760891b6064820152608401610527565b6000610dec60408051602081019091526000815290565b90506000815111610e0c5760405180602001604052806000815250610e37565b80610e1684611510565b604051602001610e27929190612028565b6040516020818303038152906040525b9392505050565b6033546001600160a01b03163314610e685760405162461bcd60e51b815260040161052790612147565b60cf55565b6033546001600160a01b03163314610e975760405162461bcd60e51b815260040161052790612147565b6001600160a01b038116610efc5760405162461bcd60e51b815260206004820152602660248201527f4f776e61626c653a206e6577206f776e657220697320746865207a65726f206160448201526564647265737360d01b6064820152608401610527565b6033546040516001600160a01b038084169216907f8be0079c531659141344cd1fd0a4f28419497f9722a3daafe3b4186f6b6457e090600090a3603380546001600160a01b0319166001600160a01b0392909216919091179055565b600054610100900460ff1680610f71575060005460ff16155b610f8d5760405162461bcd60e51b8152600401610527906120f9565b600054610100900460ff16158015610faf576000805461ffff19166101011790555b610fb761162a565b610fbf6116d9565b610fc76116d9565b610fd18888611744565b60cb80546001600160a01b0319166001600160a01b03881617905560ce84905560d0805463ffffffff191663ffffffff841617905560cf83905561101485610e6d565b8015611026576000805461ff00191690555b5050505050505050565b60006001600160e01b031982166380ac58cd60e01b148061106157506001600160e01b03198216635b5e139f60e01b145b8061041a57506301ffc9a760e01b6001600160e01b031983161461041a565b6000818152609b6020526040902080546001600160a01b0319166001600160a01b03841690811790915581906110b5826109b7565b6001600160a01b03167f8c5be1e5ebec7d5bd14f71427d1e84f3dd0314c0f7b2291e5b200ac8c7c3b92560405160405180910390a45050565b60006110fe60c980546001019055565b5060c95490565b61110f83836117d9565b61111c600084848461191b565b61065d5760405162461bcd60e51b8152600401610527906120a7565b6000818152609960205260408120546001600160a01b03166111b15760405162461bcd60e51b815260206004820152602c60248201527f4552433732313a206f70657261746f7220717565727920666f72206e6f6e657860448201526b34b9ba32b73a103a37b5b2b760a11b6064820152608401610527565b60006111bc836109b7565b9050806001600160a01b0316846001600160a01b031614806111f75750836001600160a01b03166111ec846104b2565b6001600160a01b0316145b8061122757506001600160a01b038082166000908152609c602090815260408083209388168352929052205460ff165b949350505050565b826001600160a01b0316611242826109b7565b6001600160a01b0316146112aa5760405162461bcd60e51b815260206004820152602960248201527f4552433732313a207472616e73666572206f6620746f6b656e2074686174206960448201526839903737ba1037bbb760b91b6064820152608401610527565b6001600160a01b03821661130c5760405162461bcd60e51b8152602060048201526024808201527f4552433732313a207472616e7366657220746f20746865207a65726f206164646044820152637265737360e01b6064820152608401610527565b611317600082611080565b6001600160a01b0383166000908152609a6020526040812080546001929061134090849061231a565b90915550506001600160a01b0382166000908152609a6020526040812080546001929061136e9084906121fe565b909155505060008181526099602052604080822080546001600160a01b0319166001600160a01b0386811691821790925591518493918716917fddf252ad1be2c89b69c2b068fc378daa952ba7f163c4a11628f55a4df523b3ef91a4505050565b60008060cb60009054906101000a90046001600160a01b03166001600160a01b031663feaf968c6040518163ffffffff1660e01b815260040160a06040518083038186803b15801561142057600080fd5b505afa158015611434573d6000803e3d6000fd5b505050506040513d601f19601f820116820180604052508101906114589190611fad565b5091959194509092505050565b60008060cd548361147691906122db565b9050600060cd548261271061148b9190612258565b6114959190612216565b905060008213156114b85760cf5481126114b3575060019392505050565b6114d3565b60cf546114c482612450565b126114d3575060029392505050565b5060009392505050565b6114e884848461122f565b6114f48484848461191b565b610d505760405162461bcd60e51b8152600401610527906120a7565b6060816115345750506040805180820190915260018152600360fc1b602082015290565b8160005b811561155e578061154881612421565b91506115579050600a83612244565b9150611538565b60008167ffffffffffffffff81111561158757634e487b7160e01b600052604160045260246000fd5b6040519080825280601f01601f1916602001820160405280156115b1576020820181803683370190505b5090505b8415611227576115c660018361231a565b91506115d3600a8661243c565b6115de9060306121fe565b60f81b81838151811061160157634e487b7160e01b600052603260045260246000fd5b60200101906001600160f81b031916908160001a905350611623600a86612244565b94506115b5565b600054610100900460ff1680611643575060005460ff16155b61165f5760405162461bcd60e51b8152600401610527906120f9565b600054610100900460ff16158015611681576000805461ffff19166101011790555b603380546001600160a01b0319163390811790915560405181906000907f8be0079c531659141344cd1fd0a4f28419497f9722a3daafe3b4186f6b6457e0908290a35080156116d6576000805461ff00191690555b50565b600054610100900460ff16806116f2575060005460ff16155b61170e5760405162461bcd60e51b8152600401610527906120f9565b600054610100900460ff16158015611730576000805461ffff19166101011790555b80156116d6576000805461ff001916905550565b600054610100900460ff168061175d575060005460ff16155b6117795760405162461bcd60e51b8152600401610527906120f9565b600054610100900460ff1615801561179b576000805461ffff19166101011790555b82516117ae906097906020860190611a85565b5081516117c2906098906020850190611a85565b50801561065d576000805461ff0019169055505050565b6001600160a01b03821661182f5760405162461bcd60e51b815260206004820181905260248201527f4552433732313a206d696e7420746f20746865207a65726f20616464726573736044820152606401610527565b6000818152609960205260409020546001600160a01b0316156118945760405162461bcd60e51b815260206004820152601c60248201527f4552433732313a20746f6b656e20616c7265616479206d696e746564000000006044820152606401610527565b6001600160a01b0382166000908152609a602052604081208054600192906118bd9084906121fe565b909155505060008181526099602052604080822080546001600160a01b0319166001600160a01b03861690811790915590518392907fddf252ad1be2c89b69c2b068fc378daa952ba7f163c4a11628f55a4df523b3ef908290a45050565b60006001600160a01b0384163b15611a1d57604051630a85bd0160e11b81526001600160a01b0385169063150b7a029061195f903390899088908890600401612057565b602060405180830381600087803b15801561197957600080fd5b505af19250505080156119a9575060408051601f3d908101601f191682019092526119a691810190611eb2565b60015b611a03573d8080156119d7576040519150601f19603f3d011682016040523d82523d6000602084013e6119dc565b606091505b5080516119fb5760405162461bcd60e51b8152600401610527906120a7565b805181602001fd5b6001600160e01b031916630a85bd0160e11b149050611227565b506001949350505050565b828054828255906000526020600020908101928215611a75579160200282015b82811115611a755782518051611a65918491602090910190611a85565b5091602001919060010190611a48565b50611a81929150611b05565b5090565b828054611a91906123e6565b90600052602060002090601f016020900481019282611ab35760008555611af9565b82601f10611acc57805160ff1916838001178555611af9565b82800160010185558215611af9579182015b82811115611af9578251825591602001919060010190611ade565b50611a81929150611b22565b80821115611a81576000611b198282611b37565b50600101611b05565b5b80821115611a815760008155600101611b23565b508054611b43906123e6565b6000825580601f10611b53575050565b601f0160209004906000526020600020908101906116d69190611b22565b600067ffffffffffffffff831115611b8b57611b8b612496565b611b9e601f8401601f19166020016121cd565b9050828152838383011115611bb257600080fd5b828260208301376000602084830101529392505050565b80356001600160a01b0381168114611be057600080fd5b919050565b60008083601f840112611bf6578182fd5b50813567ffffffffffffffff811115611c0d578182fd5b602083019150836020828501011115611c2557600080fd5b9250929050565b600082601f830112611c3c578081fd5b610e3783833560208501611b71565b803563ffffffff81168114611be057600080fd5b805169ffffffffffffffffffff81168114611be057600080fd5b600060208284031215611c8a578081fd5b610e3782611bc9565b60008060408385031215611ca5578081fd5b611cae83611bc9565b9150611cbc60208401611bc9565b90509250929050565b600080600060608486031215611cd9578081fd5b611ce284611bc9565b9250611cf060208501611bc9565b9150604084013590509250925092565b60008060008060808587031215611d15578081fd5b611d1e85611bc9565b9350611d2c60208601611bc9565b925060408501359150606085013567ffffffffffffffff811115611d4e578182fd5b8501601f81018713611d5e578182fd5b611d6d87823560208401611b71565b91505092959194509250565b60008060008060008060808789031215611d91578182fd5b611d9a87611bc9565b9550602087013567ffffffffffffffff80821115611db6578384fd5b818901915089601f830112611dc9578384fd5b813581811115611dd7578485fd5b8a60208260051b8501011115611deb578485fd5b6020830197509550611dff60408a01611c4b565b94506060890135915080821115611e14578384fd5b50611e2189828a01611be5565b979a9699509497509295939492505050565b60008060408385031215611e45578182fd5b611e4e83611bc9565b915060208301358015158114611e62578182fd5b809150509250929050565b60008060408385031215611e7f578182fd5b611e8883611bc9565b946020939093013593505050565b600060208284031215611ea7578081fd5b8135610e37816124ac565b600060208284031215611ec3578081fd5b8151610e37816124ac565b600060208284031215611edf578081fd5b5035919050565b600080600080600080600060e0888a031215611f00578485fd5b873567ffffffffffffffff80821115611f17578687fd5b611f238b838c01611c2c565b985060208a0135915080821115611f38578687fd5b50611f458a828b01611c2c565b965050611f5460408901611bc9565b9450611f6260608901611bc9565b93506080880135925060a08801359150611f7e60c08901611c4b565b905092959891949750929550565b60008060408385031215611f9e578182fd5b50508035926020909101359150565b600080600080600060a08688031215611fc4578283fd5b611fcd86611c5f565b9450602086015193506040860151925060608601519150611ff060808701611c5f565b90509295509295909350565b600081518084526120148160208601602086016123ba565b601f01601f19169290920160200192915050565b6000835161203a8184602088016123ba565b83519083019061204e8183602088016123ba565b01949350505050565b6001600160a01b038581168252841660208201526040810183905260806060820181905260009061208a90830184611ffc565b9695505050505050565b602081526000610e376020830184611ffc565b60208082526032908201527f4552433732313a207472616e7366657220746f206e6f6e20455243373231526560408201527131b2b4bb32b91034b6b83632b6b2b73a32b960711b606082015260800190565b6020808252602e908201527f496e697469616c697a61626c653a20636f6e747261637420697320616c72656160408201526d191e481a5b9a5d1a585b1a5e995960921b606082015260800190565b6020808252818101527f4f776e61626c653a2063616c6c6572206973206e6f7420746865206f776e6572604082015260600190565b60208082526031908201527f4552433732313a207472616e736665722063616c6c6572206973206e6f74206f6040820152701ddb995c881b9bdc88185c1c1c9bdd9959607a1b606082015260800190565b604051601f8201601f1916810167ffffffffffffffff811182821017156121f6576121f6612496565b604052919050565b600082198211156122115761221161246a565b500190565b60008261222557612225612480565b600160ff1b82146000198414161561223f5761223f61246a565b500590565b60008261225357612253612480565b500490565b60006001600160ff1b038184138284138082168684048611161561227e5761227e61246a565b600160ff1b8487128281168783058912161561229c5761229c61246a565b8587129250878205871284841616156122b7576122b761246a565b878505871281841616156122cd576122cd61246a565b505050929093029392505050565b60008083128015600160ff1b8501841216156122f9576122f961246a565b6001600160ff1b03840183138116156123145761231461246a565b50500390565b60008282101561232c5761232c61246a565b500390565b600067ffffffffffffffff8084111561234c5761234c612496565b8360051b602061235d8183016121cd565b8681528181019086368582011115612373578687fd5b8694505b888510156123ae5780358681111561238d578788fd5b61239936828b01611c2c565b84525060019490940193918301918301612377565b50979650505050505050565b60005b838110156123d55781810151838201526020016123bd565b83811115610d505750506000910152565b600181811c908216806123fa57607f821691505b6020821081141561241b57634e487b7160e01b600052602260045260246000fd5b50919050565b60006000198214156124355761243561246a565b5060010190565b60008261244b5761244b612480565b500690565b6000600160ff1b8214156124665761246661246a565b0390565b634e487b7160e01b600052601160045260246000fd5b634e487b7160e01b600052601260045260246000fd5b634e487b7160e01b600052604160045260246000fd5b6001600160e01b0319811681146116d657600080fdfea26469706673582212205ab8412b4b16771856064eee843899c95e2c8328996ccec6ffc918c0dd7d30f864736f6c63430008040033",
  "devdoc": {
    "kind": "dev",
    "methods": {
      "approve(address,uint256)": {
        "details": "See {IERC721-approve}."
      },
      "balanceOf(address)": {
        "details": "See {IERC721-balanceOf}."
      },
      "create(address,string[],uint32,bytes)": {
        "details": "creates a layer with states"
      },
      "getApproved(uint256)": {
        "details": "See {IERC721-getApproved}."
      },
      "getLayer(uint256)": {
        "details": "layer getter method"
      },
      "isApprovedForAll(address,address)": {
        "details": "See {IERC721-isApprovedForAll}."
      },
      "name()": {
        "details": "See {IERC721Metadata-name}."
      },
      "owner()": {
        "details": "Returns the address of the current owner."
      },
      "ownerOf(uint256)": {
        "details": "See {IERC721-ownerOf}."
      },
      "renounceOwnership()": {
        "details": "Leaves the contract without owner. It will not be possible to call `onlyOwner` functions anymore. Can only be called by the current owner. NOTE: Renouncing ownership will leave the contract without an owner, thereby removing any functionality that is only available to the owner."
      },
      "safeTransferFrom(address,address,uint256)": {
        "details": "See {IERC721-safeTransferFrom}."
      },
      "safeTransferFrom(address,address,uint256,bytes)": {
        "details": "See {IERC721-safeTransferFrom}."
      },
      "setApprovalForAll(address,bool)": {
        "details": "See {IERC721-setApprovalForAll}."
      },
      "setThreshold(int256)": {
        "details": "set threshold",
        "params": {
          "_threshold": "a new threshold value in bp"
        }
      },
      "supportsInterface(bytes4)": {
        "details": "See {IERC165-supportsInterface}."
      },
      "symbol()": {
        "details": "See {IERC721Metadata-symbol}."
      },
      "tokenURI(uint256)": {
        "details": "See {IERC721Metadata-tokenURI}."
      },
      "transferFrom(address,address,uint256)": {
        "details": "See {IERC721-transferFrom}."
      },
      "transferOwnership(address)": {
        "details": "Transfers ownership of the contract to a new account (`newOwner`). Can only be called by the current owner."
      },
      "updateAll()": {
        "details": "update all CMC layer's shared currentState;"
      }
    },
    "version": 1
  },
  "userdoc": {
    "kind": "user",
    "methods": {},
    "version": 1
  },
  "storageLayout": {
    "storage": [
      {
        "astId": 182,
        "contract": "contracts/Layer/CMCLayerV0.sol:CMCLayerV0",
        "label": "_initialized",
        "offset": 0,
        "slot": "0",
        "type": "t_bool"
      },
      {
        "astId": 185,
        "contract": "contracts/Layer/CMCLayerV0.sol:CMCLayerV0",
        "label": "_initializing",
        "offset": 1,
        "slot": "0",
        "type": "t_bool"
      },
      {
        "astId": 2757,
        "contract": "contracts/Layer/CMCLayerV0.sol:CMCLayerV0",
        "label": "__gap",
        "offset": 0,
        "slot": "1",
        "type": "t_array(t_uint256)50_storage"
      },
      {
        "astId": 56,
        "contract": "contracts/Layer/CMCLayerV0.sol:CMCLayerV0",
        "label": "_owner",
        "offset": 0,
        "slot": "51",
        "type": "t_address"
      },
      {
        "astId": 175,
        "contract": "contracts/Layer/CMCLayerV0.sol:CMCLayerV0",
        "label": "__gap",
        "offset": 0,
        "slot": "52",
        "type": "t_array(t_uint256)49_storage"
      },
      {
        "astId": 3211,
        "contract": "contracts/Layer/CMCLayerV0.sol:CMCLayerV0",
        "label": "__gap",
        "offset": 0,
        "slot": "101",
        "type": "t_array(t_uint256)50_storage"
      },
      {
        "astId": 1489,
        "contract": "contracts/Layer/CMCLayerV0.sol:CMCLayerV0",
        "label": "_name",
        "offset": 0,
        "slot": "151",
        "type": "t_string_storage"
      },
      {
        "astId": 1491,
        "contract": "contracts/Layer/CMCLayerV0.sol:CMCLayerV0",
        "label": "_symbol",
        "offset": 0,
        "slot": "152",
        "type": "t_string_storage"
      },
      {
        "astId": 1495,
        "contract": "contracts/Layer/CMCLayerV0.sol:CMCLayerV0",
        "label": "_owners",
        "offset": 0,
        "slot": "153",
        "type": "t_mapping(t_uint256,t_address)"
      },
      {
        "astId": 1499,
        "contract": "contracts/Layer/CMCLayerV0.sol:CMCLayerV0",
        "label": "_balances",
        "offset": 0,
        "slot": "154",
        "type": "t_mapping(t_address,t_uint256)"
      },
      {
        "astId": 1503,
        "contract": "contracts/Layer/CMCLayerV0.sol:CMCLayerV0",
        "label": "_tokenApprovals",
        "offset": 0,
        "slot": "155",
        "type": "t_mapping(t_uint256,t_address)"
      },
      {
        "astId": 1509,
        "contract": "contracts/Layer/CMCLayerV0.sol:CMCLayerV0",
        "label": "_operatorApprovals",
        "offset": 0,
        "slot": "156",
        "type": "t_mapping(t_address,t_mapping(t_address,t_bool))"
      },
      {
        "astId": 2307,
        "contract": "contracts/Layer/CMCLayerV0.sol:CMCLayerV0",
        "label": "__gap",
        "offset": 0,
        "slot": "157",
        "type": "t_array(t_uint256)44_storage"
      },
      {
        "astId": 4902,
        "contract": "contracts/Layer/CMCLayerV0.sol:CMCLayerV0",
        "label": "id",
        "offset": 0,
        "slot": "201",
        "type": "t_struct(Counter)2764_storage"
      },
      {
        "astId": 4908,
        "contract": "contracts/Layer/CMCLayerV0.sol:CMCLayerV0",
        "label": "layers",
        "offset": 0,
        "slot": "202",
        "type": "t_mapping(t_uint256,t_struct(Layer)4898_storage)"
      },
      {
        "astId": 4912,
        "contract": "contracts/Layer/CMCLayerV0.sol:CMCLayerV0",
        "label": "priceFeed",
        "offset": 0,
        "slot": "203",
        "type": "t_contract(AggregatorV3Interface)45"
      },
      {
        "astId": 4915,
        "contract": "contracts/Layer/CMCLayerV0.sol:CMCLayerV0",
        "label": "lastUpdatedAt",
        "offset": 0,
        "slot": "204",
        "type": "t_uint256"
      },
      {
        "astId": 4918,
        "contract": "contracts/Layer/CMCLayerV0.sol:CMCLayerV0",
        "label": "lastPrice",
        "offset": 0,
        "slot": "205",
        "type": "t_int256"
      },
      {
        "astId": 4921,
        "contract": "contracts/Layer/CMCLayerV0.sol:CMCLayerV0",
        "label": "updateInterval",
        "offset": 0,
        "slot": "206",
        "type": "t_uint256"
      },
      {
        "astId": 4924,
        "contract": "contracts/Layer/CMCLayerV0.sol:CMCLayerV0",
        "label": "threshold",
        "offset": 0,
        "slot": "207",
        "type": "t_int256"
      },
      {
        "astId": 4926,
        "contract": "contracts/Layer/CMCLayerV0.sol:CMCLayerV0",
        "label": "globalStateCount",
        "offset": 0,
        "slot": "208",
        "type": "t_uint32"
      },
      {
        "astId": 4928,
        "contract": "contracts/Layer/CMCLayerV0.sol:CMCLayerV0",
        "label": "globalCurrentState",
        "offset": 4,
        "slot": "208",
        "type": "t_uint32"
      }
    ],
    "types": {
      "t_address": {
        "encoding": "inplace",
        "label": "address",
        "numberOfBytes": "20"
      },
      "t_array(t_string_storage)dyn_storage": {
        "base": "t_string_storage",
        "encoding": "dynamic_array",
        "label": "string[]",
        "numberOfBytes": "32"
      },
      "t_array(t_uint256)44_storage": {
        "base": "t_uint256",
        "encoding": "inplace",
        "label": "uint256[44]",
        "numberOfBytes": "1408"
      },
      "t_array(t_uint256)49_storage": {
        "base": "t_uint256",
        "encoding": "inplace",
        "label": "uint256[49]",
        "numberOfBytes": "1568"
      },
      "t_array(t_uint256)50_storage": {
        "base": "t_uint256",
        "encoding": "inplace",
        "label": "uint256[50]",
        "numberOfBytes": "1600"
      },
      "t_bool": {
        "encoding": "inplace",
        "label": "bool",
        "numberOfBytes": "1"
      },
      "t_contract(AggregatorV3Interface)45": {
        "encoding": "inplace",
        "label": "contract AggregatorV3Interface",
        "numberOfBytes": "20"
      },
      "t_int256": {
        "encoding": "inplace",
        "label": "int256",
        "numberOfBytes": "32"
      },
      "t_mapping(t_address,t_bool)": {
        "encoding": "mapping",
        "key": "t_address",
        "label": "mapping(address => bool)",
        "numberOfBytes": "32",
        "value": "t_bool"
      },
      "t_mapping(t_address,t_mapping(t_address,t_bool))": {
        "encoding": "mapping",
        "key": "t_address",
        "label": "mapping(address => mapping(address => bool))",
        "numberOfBytes": "32",
        "value": "t_mapping(t_address,t_bool)"
      },
      "t_mapping(t_address,t_uint256)": {
        "encoding": "mapping",
        "key": "t_address",
        "label": "mapping(address => uint256)",
        "numberOfBytes": "32",
        "value": "t_uint256"
      },
      "t_mapping(t_uint256,t_address)": {
        "encoding": "mapping",
        "key": "t_uint256",
        "label": "mapping(uint256 => address)",
        "numberOfBytes": "32",
        "value": "t_address"
      },
      "t_mapping(t_uint256,t_struct(Layer)4898_storage)": {
        "encoding": "mapping",
        "key": "t_uint256",
        "label": "mapping(uint256 => struct CMCLayerStorageV0.Layer)",
        "numberOfBytes": "32",
        "value": "t_struct(Layer)4898_storage"
      },
      "t_string_storage": {
        "encoding": "bytes",
        "label": "string",
        "numberOfBytes": "32"
      },
      "t_struct(Counter)2764_storage": {
        "encoding": "inplace",
        "label": "struct CountersUpgradeable.Counter",
        "members": [
          {
            "astId": 2763,
            "contract": "contracts/Layer/CMCLayerV0.sol:CMCLayerV0",
            "label": "_value",
            "offset": 0,
            "slot": "0",
            "type": "t_uint256"
          }
        ],
        "numberOfBytes": "32"
      },
      "t_struct(Layer)4898_storage": {
        "encoding": "inplace",
        "label": "struct CMCLayerStorageV0.Layer",
        "members": [
          {
            "astId": 4897,
            "contract": "contracts/Layer/CMCLayerV0.sol:CMCLayerV0",
            "label": "cids",
            "offset": 0,
            "slot": "0",
            "type": "t_array(t_string_storage)dyn_storage"
          }
        ],
        "numberOfBytes": "32"
      },
      "t_uint256": {
        "encoding": "inplace",
        "label": "uint256",
        "numberOfBytes": "32"
      },
      "t_uint32": {
        "encoding": "inplace",
        "label": "uint32",
        "numberOfBytes": "4"
      }
    }
  }
}