{
  "address": "0x8467E7fb4e2b8414Ee153eD51B2ECEc29E4D05Ae",
  "abi": [
    {
      "anonymous": false,
      "inputs": [
        {
          "indexed": true,
          "internalType": "address",
          "name": "account",
          "type": "address"
        },
        {
          "indexed": true,
          "internalType": "address",
          "name": "operator",
          "type": "address"
        },
        {
          "indexed": false,
          "internalType": "bool",
          "name": "approved",
          "type": "bool"
        }
      ],
      "name": "ApprovalForAll",
      "type": "event"
    },
    {
      "anonymous": false,
      "inputs": [
        {
          "indexed": true,
          "internalType": "address",
          "name": "operator",
          "type": "address"
        },
        {
          "indexed": true,
          "internalType": "address",
          "name": "to",
          "type": "address"
        },
        {
          "indexed": false,
          "internalType": "uint256",
          "name": "id",
          "type": "uint256"
        },
        {
          "indexed": false,
          "internalType": "uint256",
          "name": "value",
          "type": "uint256"
        },
        {
          "indexed": true,
          "internalType": "uint256",
          "name": "nonce",
          "type": "uint256"
        }
      ],
      "name": "CybertinoMint",
      "type": "event"
    },
    {
      "anonymous": false,
      "inputs": [
        {
          "indexed": true,
          "internalType": "address",
          "name": "previousOwner",
          "type": "address"
        },
        {
          "indexed": true,
          "internalType": "address",
          "name": "newOwner",
          "type": "address"
        }
      ],
      "name": "OwnershipTransferred",
      "type": "event"
    },
    {
      "anonymous": false,
      "inputs": [
        {
          "indexed": true,
          "internalType": "address",
          "name": "operator",
          "type": "address"
        },
        {
          "indexed": true,
          "internalType": "address",
          "name": "from",
          "type": "address"
        },
        {
          "indexed": true,
          "internalType": "address",
          "name": "to",
          "type": "address"
        },
        {
          "indexed": false,
          "internalType": "uint256[]",
          "name": "ids",
          "type": "uint256[]"
        },
        {
          "indexed": false,
          "internalType": "uint256[]",
          "name": "values",
          "type": "uint256[]"
        }
      ],
      "name": "TransferBatch",
      "type": "event"
    },
    {
      "anonymous": false,
      "inputs": [
        {
          "indexed": true,
          "internalType": "address",
          "name": "operator",
          "type": "address"
        },
        {
          "indexed": true,
          "internalType": "address",
          "name": "from",
          "type": "address"
        },
        {
          "indexed": true,
          "internalType": "address",
          "name": "to",
          "type": "address"
        },
        {
          "indexed": false,
          "internalType": "uint256",
          "name": "id",
          "type": "uint256"
        },
        {
          "indexed": false,
          "internalType": "uint256",
          "name": "value",
          "type": "uint256"
        }
      ],
      "name": "TransferSingle",
      "type": "event"
    },
    {
      "anonymous": false,
      "inputs": [
        {
          "indexed": false,
          "internalType": "string",
          "name": "value",
          "type": "string"
        },
        {
          "indexed": true,
          "internalType": "uint256",
          "name": "id",
          "type": "uint256"
        }
      ],
      "name": "URI",
      "type": "event"
    },
    {
      "inputs": [
        {
          "internalType": "string",
          "name": "_name",
          "type": "string"
        },
        {
          "internalType": "string",
          "name": "_uri",
          "type": "string"
        },
        {
          "internalType": "string",
          "name": "_symbol",
          "type": "string"
        },
        {
          "internalType": "address",
          "name": "_signer",
          "type": "address"
        },
        {
          "internalType": "address",
          "name": "_manager",
          "type": "address"
        }
      ],
      "name": "CybertinoNFT_init",
      "outputs": [],
      "stateMutability": "nonpayable",
      "type": "function"
    },
    {
      "inputs": [
        {
          "internalType": "string",
          "name": "_name",
          "type": "string"
        },
        {
          "internalType": "string",
          "name": "_symbol",
          "type": "string"
        },
        {
          "internalType": "address",
          "name": "_signer",
          "type": "address"
        },
        {
          "internalType": "address",
          "name": "_manager",
          "type": "address"
        }
      ],
      "name": "CybertinoNFT_init_unchained",
      "outputs": [],
      "stateMutability": "nonpayable",
      "type": "function"
    },
    {
      "inputs": [
        {
          "internalType": "address",
          "name": "account",
          "type": "address"
        },
        {
          "internalType": "uint256",
          "name": "id",
          "type": "uint256"
        }
      ],
      "name": "balanceOf",
      "outputs": [
        {
          "internalType": "uint256",
          "name": "",
          "type": "uint256"
        }
      ],
      "stateMutability": "view",
      "type": "function"
    },
    {
      "inputs": [
        {
          "internalType": "address[]",
          "name": "accounts",
          "type": "address[]"
        },
        {
          "internalType": "uint256[]",
          "name": "ids",
          "type": "uint256[]"
        }
      ],
      "name": "balanceOfBatch",
      "outputs": [
        {
          "internalType": "uint256[]",
          "name": "",
          "type": "uint256[]"
        }
      ],
      "stateMutability": "view",
      "type": "function"
    },
    {
      "inputs": [
        {
          "internalType": "string[]",
          "name": "_cids",
          "type": "string[]"
        },
        {
          "internalType": "bytes[]",
          "name": "_datas",
          "type": "bytes[]"
        },
        {
          "internalType": "uint256[]",
          "name": "_maxSupplys",
          "type": "uint256[]"
        }
      ],
      "name": "batchCreate",
      "outputs": [
        {
          "internalType": "uint256",
          "name": "_id",
          "type": "uint256"
        }
      ],
      "stateMutability": "nonpayable",
      "type": "function"
    },
    {
      "inputs": [
        {
          "internalType": "address",
          "name": "_to",
          "type": "address"
        },
        {
          "internalType": "uint256[]",
          "name": "_ids",
          "type": "uint256[]"
        },
        {
          "internalType": "uint256[]",
          "name": "_amounts",
          "type": "uint256[]"
        },
        {
          "internalType": "uint256[]",
          "name": "_nonces",
          "type": "uint256[]"
        },
        {
          "internalType": "bytes[]",
          "name": "_signatures",
          "type": "bytes[]"
        },
        {
          "internalType": "bytes[]",
          "name": "_data",
          "type": "bytes[]"
        }
      ],
      "name": "batchMint",
      "outputs": [],
      "stateMutability": "nonpayable",
      "type": "function"
    },
    {
      "inputs": [
        {
          "internalType": "string",
          "name": "_cid",
          "type": "string"
        },
        {
          "internalType": "bytes",
          "name": "_data",
          "type": "bytes"
        },
        {
          "internalType": "uint256",
          "name": "_maxSupply",
          "type": "uint256"
        }
      ],
      "name": "create",
      "outputs": [
        {
          "internalType": "uint256",
          "name": "_id",
          "type": "uint256"
        }
      ],
      "stateMutability": "nonpayable",
      "type": "function"
    },
    {
      "inputs": [
        {
          "internalType": "bytes32",
          "name": "",
          "type": "bytes32"
        }
      ],
      "name": "executed",
      "outputs": [
        {
          "internalType": "bool",
          "name": "",
          "type": "bool"
        }
      ],
      "stateMutability": "view",
      "type": "function"
    },
    {
      "inputs": [
        {
          "internalType": "address",
          "name": "_to",
          "type": "address"
        },
        {
          "internalType": "uint256",
          "name": "_tokenId",
          "type": "uint256"
        },
        {
          "internalType": "uint256",
          "name": "_amount",
          "type": "uint256"
        },
        {
          "internalType": "uint256",
          "name": "_nonce",
          "type": "uint256"
        }
      ],
      "name": "getMessageHash",
      "outputs": [
        {
          "internalType": "bytes32",
          "name": "",
          "type": "bytes32"
        }
      ],
      "stateMutability": "pure",
      "type": "function"
    },
    {
      "inputs": [],
      "name": "id",
      "outputs": [
        {
          "internalType": "uint256",
          "name": "_value",
          "type": "uint256"
        }
      ],
      "stateMutability": "view",
      "type": "function"
    },
    {
      "inputs": [
        {
          "internalType": "address",
          "name": "account",
          "type": "address"
        },
        {
          "internalType": "address",
          "name": "operator",
          "type": "address"
        }
      ],
      "name": "isApprovedForAll",
      "outputs": [
        {
          "internalType": "bool",
          "name": "",
          "type": "bool"
        }
      ],
      "stateMutability": "view",
      "type": "function"
    },
    {
      "inputs": [
        {
          "internalType": "uint256",
          "name": "_id",
          "type": "uint256"
        }
      ],
      "name": "maxSupply",
      "outputs": [
        {
          "internalType": "uint256",
          "name": "",
          "type": "uint256"
        }
      ],
      "stateMutability": "view",
      "type": "function"
    },
    {
      "inputs": [
        {
          "internalType": "address",
          "name": "_to",
          "type": "address"
        },
        {
          "internalType": "uint256",
          "name": "_id",
          "type": "uint256"
        },
        {
          "internalType": "uint256",
          "name": "_amount",
          "type": "uint256"
        },
        {
          "internalType": "uint256",
          "name": "_nonce",
          "type": "uint256"
        },
        {
          "internalType": "bytes",
          "name": "_signature",
          "type": "bytes"
        },
        {
          "internalType": "bytes",
          "name": "_data",
          "type": "bytes"
        }
      ],
      "name": "mint",
      "outputs": [],
      "stateMutability": "nonpayable",
      "type": "function"
    },
    {
      "inputs": [],
      "name": "name",
      "outputs": [
        {
          "internalType": "string",
          "name": "",
          "type": "string"
        }
      ],
      "stateMutability": "view",
      "type": "function"
    },
    {
      "inputs": [],
      "name": "owner",
      "outputs": [
        {
          "internalType": "address",
          "name": "",
          "type": "address"
        }
      ],
      "stateMutability": "view",
      "type": "function"
    },
    {
      "inputs": [],
      "name": "pause",
      "outputs": [],
      "stateMutability": "nonpayable",
      "type": "function"
    },
    {
      "inputs": [],
      "name": "paused",
      "outputs": [
        {
          "internalType": "bool",
          "name": "",
          "type": "bool"
        }
      ],
      "stateMutability": "view",
      "type": "function"
    },
    {
      "inputs": [],
      "name": "renounceOwnership",
      "outputs": [],
      "stateMutability": "nonpayable",
      "type": "function"
    },
    {
      "inputs": [
        {
          "internalType": "address",
          "name": "from",
          "type": "address"
        },
        {
          "internalType": "address",
          "name": "to",
          "type": "address"
        },
        {
          "internalType": "uint256[]",
          "name": "ids",
          "type": "uint256[]"
        },
        {
          "internalType": "uint256[]",
          "name": "amounts",
          "type": "uint256[]"
        },
        {
          "internalType": "bytes",
          "name": "data",
          "type": "bytes"
        }
      ],
      "name": "safeBatchTransferFrom",
      "outputs": [],
      "stateMutability": "nonpayable",
      "type": "function"
    },
    {
      "inputs": [
        {
          "internalType": "address",
          "name": "from",
          "type": "address"
        },
        {
          "internalType": "address",
          "name": "to",
          "type": "address"
        },
        {
          "internalType": "uint256",
          "name": "id",
          "type": "uint256"
        },
        {
          "internalType": "uint256",
          "name": "amount",
          "type": "uint256"
        },
        {
          "internalType": "bytes",
          "name": "data",
          "type": "bytes"
        }
      ],
      "name": "safeTransferFrom",
      "outputs": [],
      "stateMutability": "nonpayable",
      "type": "function"
    },
    {
      "inputs": [
        {
          "internalType": "address",
          "name": "operator",
          "type": "address"
        },
        {
          "internalType": "bool",
          "name": "approved",
          "type": "bool"
        }
      ],
      "name": "setApprovalForAll",
      "outputs": [],
      "stateMutability": "nonpayable",
      "type": "function"
    },
    {
      "inputs": [
        {
          "internalType": "string",
          "name": "_uri",
          "type": "string"
        }
      ],
      "name": "setURI",
      "outputs": [],
      "stateMutability": "nonpayable",
      "type": "function"
    },
    {
      "inputs": [],
      "name": "signer",
      "outputs": [
        {
          "internalType": "address",
          "name": "",
          "type": "address"
        }
      ],
      "stateMutability": "view",
      "type": "function"
    },
    {
      "inputs": [
        {
          "internalType": "bytes4",
          "name": "interfaceId",
          "type": "bytes4"
        }
      ],
      "name": "supportsInterface",
      "outputs": [
        {
          "internalType": "bool",
          "name": "",
          "type": "bool"
        }
      ],
      "stateMutability": "view",
      "type": "function"
    },
    {
      "inputs": [],
      "name": "symbol",
      "outputs": [
        {
          "internalType": "string",
          "name": "",
          "type": "string"
        }
      ],
      "stateMutability": "view",
      "type": "function"
    },
    {
      "inputs": [
        {
          "internalType": "uint256",
          "name": "_id",
          "type": "uint256"
        }
      ],
      "name": "totalSupply",
      "outputs": [
        {
          "internalType": "uint256",
          "name": "",
          "type": "uint256"
        }
      ],
      "stateMutability": "view",
      "type": "function"
    },
    {
      "inputs": [
        {
          "internalType": "address",
          "name": "newOwner",
          "type": "address"
        }
      ],
      "name": "transferOwnership",
      "outputs": [],
      "stateMutability": "nonpayable",
      "type": "function"
    },
    {
      "inputs": [
        {
          "internalType": "address",
          "name": "_signer",
          "type": "address"
        }
      ],
      "name": "updateSigner",
      "outputs": [],
      "stateMutability": "nonpayable",
      "type": "function"
    },
    {
      "inputs": [
        {
          "internalType": "uint256",
          "name": "_id",
          "type": "uint256"
        }
      ],
      "name": "uri",
      "outputs": [
        {
          "internalType": "string",
          "name": "",
          "type": "string"
        }
      ],
      "stateMutability": "view",
      "type": "function"
    }
  ],
  "transactionHash": "0x9d3d99743655f24cbff7ee3935fc9f539c438a7c2b5c63ac7265d6e8fef82689",
  "args": [],
  "solcInputHash": "fdb9704f2b3319cb143a33ad65a6ae3d",
  "bytecode": "0x608060405260d0805460ff1916905534801561001a57600080fd5b50612fd68061002a6000396000f3fe608060405234801561001057600080fd5b50600436106101ce5760003560e01c80638ccdf15c11610104578063bd85b039116100a2578063f242432a11610071578063f242432a1461041b578063f2fde38b1461042e578063f440be0414610441578063fbce33241461045457600080fd5b8063bd85b03914610399578063d7c4f92a146103b9578063e985e9c5146103cc578063ed2ee92a1461040857600080fd5b8063a22cb465116100de578063a22cb46514610346578063a7ecd37e14610359578063a9fcfb331461036c578063af640d0f1461038f57600080fd5b80638ccdf15c1461031a5780638da5cb5b1461032d57806395d89b411461033e57600080fd5b80632eb2c2d6116101715780636b0f40f41161014b5780636b0f40f4146102d7578063715018a6146102ea5780638456cb59146102f2578063869f7594146102fa57600080fd5b80632eb2c2d6146102975780634e1273f4146102aa5780635c975abb146102ca57600080fd5b806306fdde03116101ad57806306fdde03146102315780630e89341c14610246578063238ac933146102595780632a74a4841461028457600080fd5b8062fdd58e146101d357806301ffc9a7146101f957806302fe53051461021c575b600080fd5b6101e66101e13660046125b0565b610467565b6040519081526020015b60405180910390f35b61020c610207366004612821565b610500565b60405190151581526020016101f0565b61022f61022a3660046128c9565b610523565b005b610239610559565b6040516101f09190612c0e565b610239610254366004612809565b6105e7565b60cb5461026c906001600160a01b031681565b6040516001600160a01b0390911681526020016101f0565b6101e6610292366004612859565b610659565b61022f6102a536600461236f565b610794565b6102bd6102b83660046126aa565b610a5e565b6040516101f09190612bd6565b60d05461020c9060ff1681565b61022f6102e5366004612903565b610bbf565b61022f610c7b565b61022f610cef565b6101e6610308366004612809565b600090815260cd602052604090205490565b61022f610328366004612611565b610d2d565b6097546001600160a01b031661026c565b610239611060565b61022f610354366004612576565b61106d565b61022f61036736600461231c565b611144565b61020c61037a366004612809565b60cf6020526000908152604090205460ff1681565b60ca546101e69081565b6101e66103a7366004612809565b600090815260ce602052604090205490565b61022f6103c7366004612476565b611190565b61020c6103da36600461233d565b6001600160a01b03918216600090815260666020908152604080832093909416825291909152205460ff1690565b6101e6610416366004612774565b6112d4565b61022f610429366004612414565b6113c2565b61022f61043c36600461231c565b61156f565b6101e661044f3660046125d9565b61165a565b61022f610462366004612984565b6116b1565b60006001600160a01b0383166104d85760405162461bcd60e51b815260206004820152602b60248201527f455243313135353a2062616c616e636520717565727920666f7220746865207a60448201526a65726f206164647265737360a81b60648201526084015b60405180910390fd5b5060009081526065602090815260408083206001600160a01b03949094168352929052205490565b60006001600160e01b03198216158061051d575061051d8261174e565b92915050565b6097546001600160a01b0316331461054d5760405162461bcd60e51b81526004016104cf90612d46565b6105568161179e565b50565b60c9805461056690612e41565b80601f016020809104026020016040519081016040528092919081815260200182805461059290612e41565b80156105df5780601f106105b4576101008083540402835291602001916105df565b820191906000526020600020905b8154815290600101906020018083116105c257829003601f168201915b505050505081565b606060006105f560006117b5565b9050805160001415610617575050604080516020810190915260008152919050565b8060cc600085815260200190815260200160002060405160200161063c929190612a8f565b604051602081830303815290604052915050919050565b50919050565b6097546000906001600160a01b031633146106865760405162461bcd60e51b81526004016104cf90612d46565b846106d35760405162461bcd60e51b815260206004820152601f60248201527f4572723a204d697373696e6720436f6e74656e74204964656e7469666965720060448201526064016104cf565b6106db611849565b90506107203382600087878080601f01602080910402602001604051908101604052809392919081815260200183838082843760009201919091525061186092505050565b600081815260cc60205260409020610739908787612089565b50600081815260cd60205260409020829055807f6bb7ff708619ba0610cba295a58592e0451dee2622938c8755667688daf3529b610776826105e7565b6040516107839190612c0e565b60405180910390a295945050505050565b81518351146107f65760405162461bcd60e51b815260206004820152602860248201527f455243313135353a2069647320616e6420616d6f756e7473206c656e677468206044820152670dad2e6dac2e8c6d60c31b60648201526084016104cf565b6001600160a01b03841661081c5760405162461bcd60e51b81526004016104cf90612c69565b6001600160a01b038516331480610838575061083885336103da565b61089f5760405162461bcd60e51b815260206004820152603260248201527f455243313135353a207472616e736665722063616c6c6572206973206e6f74206044820152711bdddb995c881b9bdc88185c1c1c9bdd995960721b60648201526084016104cf565b3360005b84518110156109f05760008582815181106108ce57634e487b7160e01b600052603260045260246000fd5b6020026020010151905060008583815181106108fa57634e487b7160e01b600052603260045260246000fd5b60209081029190910181015160008481526065835260408082206001600160a01b038e16835290935291909120549091508181101561094b5760405162461bcd60e51b81526004016104cf90612cfc565b6109558282612dfa565b6065600085815260200190815260200160002060008c6001600160a01b03166001600160a01b0316815260200190815260200160002081905550816065600085815260200190815260200160002060008b6001600160a01b03166001600160a01b0316815260200190815260200160002060008282546109d59190612de2565b92505081905550505050806109e990612ea2565b90506108a3565b50846001600160a01b0316866001600160a01b0316826001600160a01b03167f4a39dc06d4c0dbc64b70af90fd698a233a518aa5d07e595d983b8c0526c8f7fb8787604051610a40929190612be9565b60405180910390a4610a56818787878787611963565b505050505050565b60608151835114610ac35760405162461bcd60e51b815260206004820152602960248201527f455243313135353a206163636f756e747320616e6420696473206c656e677468604482015268040dad2e6dac2e8c6d60bb1b60648201526084016104cf565b600083516001600160401b03811115610aec57634e487b7160e01b600052604160045260246000fd5b604051908082528060200260200182016040528015610b15578160200160208202803683370190505b50905060005b8451811015610bb757610b7c858281518110610b4757634e487b7160e01b600052603260045260246000fd5b6020026020010151858381518110610b6f57634e487b7160e01b600052603260045260246000fd5b6020026020010151610467565b828281518110610b9c57634e487b7160e01b600052603260045260246000fd5b6020908102919091010152610bb081612ea2565b9050610b1b565b509392505050565b600054610100900460ff1680610bd8575060005460ff16155b610bf45760405162461bcd60e51b81526004016104cf90612cae565b600054610100900460ff16158015610c16576000805461ffff19166101011790555b8451610c299060c990602088019061210d565b508351610c3d9060d190602087019061210d565b5060cb80546001600160a01b0319166001600160a01b038516179055610c628261156f565b8015610c74576000805461ff00191690555b5050505050565b6097546001600160a01b03163314610ca55760405162461bcd60e51b81526004016104cf90612d46565b6097546040516000916001600160a01b0316907f8be0079c531659141344cd1fd0a4f28419497f9722a3daafe3b4186f6b6457e0908390a3609780546001600160a01b0319169055565b6097546001600160a01b03163314610d195760405162461bcd60e51b81526004016104cf90612d46565b60d0805460ff19811660ff90911615179055565b60d05460ff1615610d695760405162461bcd60e51b815260206004820152600660248201526514185d5cd95960d21b60448201526064016104cf565b610d7287611ace565b610dbe5760405162461bcd60e51b815260206004820152601860248201527f437962657274696e6f4e46543a20696e76616c6964204944000000000000000060448201526064016104cf565b6001861015610e1b5760405162461bcd60e51b8152602060048201526024808201527f437962657274696e6f4e46543a206d757374206d696e74206174206c65617374604482015263206f6e6560e01b60648201526084016104cf565b600087815260cd602090815260408083205460ce90925290912054610e41908890612de2565b1115610e8f5760405162461bcd60e51b815260206004820181905260248201527f437962657274696e6f4e46543a2065786365656473206d617820737570706c7960448201526064016104cf565b6000610e9d8989898961165a565b600081815260cf602052604090205490915060ff1615610eff5760405162461bcd60e51b815260206004820152601c60248201527f437962657274696e6f4e46543a20616c7265616479206d696e7465640000000060448201526064016104cf565b610f3f8186868080601f016020809104026020016040519081016040528093929190818152602001838380828437600092019190915250611af492505050565b610f8b5760405162461bcd60e51b815260206004820152601f60248201527f437962657274696e6f4e46543a20696e76616c6964207369676e61747572650060448201526064016104cf565b600081815260cf6020908152604091829020805460ff191660011790558151601f8501829004820281018201909252838252610fe7918b918b918b91889088908190840183828082843760009201919091525061186092505050565b600088815260ce602052604081208054899290611005908490612de2565b90915550506040805189815260208101899052339188916001600160a01b038d169184917f3371a470b65adaccbbfff3b30557ce52af697d6131c10f13cb4c8f93de646a03910160405180910390a450505050505050505050565b60d1805461056690612e41565b336001600160a01b03831614156110d85760405162461bcd60e51b815260206004820152602960248201527f455243313135353a2073657474696e6720617070726f76616c20737461747573604482015268103337b91039b2b63360b91b60648201526084016104cf565b3360008181526066602090815260408083206001600160a01b03871680855290835292819020805460ff191686151590811790915590519081529192917f17307eab39ab6107e8899845ad3d59bd9653f200f220920489ca2b5937696c31910160405180910390a35050565b6097546001600160a01b0316331461116e5760405162461bcd60e51b81526004016104cf90612d46565b60cb80546001600160a01b0319166001600160a01b0392909216919091179055565b60d05460ff16156111cc5760405162461bcd60e51b815260206004820152600660248201526514185d5cd95960d21b60448201526064016104cf565b60005b898110156112c6576112b48c8c8c848181106111fb57634e487b7160e01b600052603260045260246000fd5b905060200201358b8b8581811061122257634e487b7160e01b600052603260045260246000fd5b905060200201358a8a8681811061124957634e487b7160e01b600052603260045260246000fd5b9050602002013589898781811061127057634e487b7160e01b600052603260045260246000fd5b90506020028101906112829190612d7b565b8989898181106112a257634e487b7160e01b600052603260045260246000fd5b90506020028101906103289190612d7b565b806112be81612ea2565b9150506111cf565b505050505050505050505050565b6097546000906001600160a01b031633146113015760405162461bcd60e51b81526004016104cf90612d46565b60005b868110156113b25761139f88888381811061132f57634e487b7160e01b600052603260045260246000fd5b90506020028101906113419190612d7b565b88888581811061136157634e487b7160e01b600052603260045260246000fd5b90506020028101906113739190612d7b565b88888781811061139357634e487b7160e01b600052603260045260246000fd5b90506020020135610659565b50806113aa81612ea2565b915050611304565b5060ca545b979650505050505050565b6001600160a01b0384166113e85760405162461bcd60e51b81526004016104cf90612c69565b6001600160a01b038516331480611404575061140485336103da565b6114625760405162461bcd60e51b815260206004820152602960248201527f455243313135353a2063616c6c6572206973206e6f74206f776e6572206e6f7260448201526808185c1c1c9bdd995960ba1b60648201526084016104cf565b3361147b81878761147288611b79565b610c7488611b79565b60008481526065602090815260408083206001600160a01b038a168452909152902054838110156114be5760405162461bcd60e51b81526004016104cf90612cfc565b6114c88482612dfa565b60008681526065602090815260408083206001600160a01b038c81168552925280832093909355881681529081208054869290611506908490612de2565b909155505060408051868152602081018690526001600160a01b03808916928a821692918616917fc3d58168c5ae7397731d063d5bbf3d657854427343f4c083240f7aacaa2d0f62910160405180910390a4611566828888888888611bd2565b50505050505050565b6097546001600160a01b031633146115995760405162461bcd60e51b81526004016104cf90612d46565b6001600160a01b0381166115fe5760405162461bcd60e51b815260206004820152602660248201527f4f776e61626c653a206e6577206f776e657220697320746865207a65726f206160448201526564647265737360d01b60648201526084016104cf565b6097546040516001600160a01b038084169216907f8be0079c531659141344cd1fd0a4f28419497f9722a3daafe3b4186f6b6457e090600090a3609780546001600160a01b0319166001600160a01b0392909216919091179055565b6040516bffffffffffffffffffffffff19606086901b166020820152603481018490526054810183905260748101829052600090609401604051602081830303815290604052805190602001209050949350505050565b600054610100900460ff16806116ca575060005460ff16155b6116e65760405162461bcd60e51b81526004016104cf90612cae565b600054610100900460ff16158015611708576000805461ffff19166101011790555b611710611c9c565b611718611c9c565b611720611d07565b61172985611db5565b61173586858585610bbf565b8015610a56576000805461ff0019169055505050505050565b60006001600160e01b03198216636cdb3d1360e11b148061177f57506001600160e01b031982166303a24d0760e21b145b8061051d57506301ffc9a760e01b6001600160e01b031983161461051d565b80516117b190606790602084019061210d565b5050565b6060606780546117c490612e41565b80601f01602080910402602001604051908101604052809291908181526020018280546117f090612e41565b801561183d5780601f106118125761010080835404028352916020019161183d565b820191906000526020600020905b81548152906001019060200180831161182057829003601f168201915b50505050509050919050565b600061185960ca80546001019055565b5060ca5490565b6001600160a01b0384166118c05760405162461bcd60e51b815260206004820152602160248201527f455243313135353a206d696e7420746f20746865207a65726f206164647265736044820152607360f81b60648201526084016104cf565b336118d18160008761147288611b79565b60008481526065602090815260408083206001600160a01b038916845290915281208054859290611903908490612de2565b909155505060408051858152602081018590526001600160a01b0380881692600092918516917fc3d58168c5ae7397731d063d5bbf3d657854427343f4c083240f7aacaa2d0f62910160405180910390a4610c7481600087878787611bd2565b6001600160a01b0384163b15610a565760405163bc197c8160e01b81526001600160a01b0385169063bc197c81906119a79089908990889088908890600401612b3e565b602060405180830381600087803b1580156119c157600080fd5b505af19250505080156119f1575060408051601f3d908101601f191682019092526119ee9181019061283d565b60015b611a9e576119fd612ee9565b806308c379a01415611a375750611a12612f01565b80611a1d5750611a39565b8060405162461bcd60e51b81526004016104cf9190612c0e565b505b60405162461bcd60e51b815260206004820152603460248201527f455243313135353a207472616e7366657220746f206e6f6e20455243313135356044820152732932b1b2b4bb32b91034b6b83632b6b2b73a32b960611b60648201526084016104cf565b6001600160e01b0319811663bc197c8160e01b146115665760405162461bcd60e51b81526004016104cf90612c21565b600081815260cc602052604081208054829190611aea90612e41565b9050119050919050565b600080611b4e846040517f19457468657265756d205369676e6564204d6573736167653a0a3332000000006020820152603c8101829052600090605c01604051602081830303815290604052805190602001209050919050565b60cb549091506001600160a01b0316611b678285611e2a565b6001600160a01b031614949350505050565b60408051600180825281830190925260609160009190602080830190803683370190505090508281600081518110611bc157634e487b7160e01b600052603260045260246000fd5b602090810291909101015292915050565b6001600160a01b0384163b15610a565760405163f23a6e6160e01b81526001600160a01b0385169063f23a6e6190611c169089908990889088908890600401612b9c565b602060405180830381600087803b158015611c3057600080fd5b505af1925050508015611c60575060408051601f3d908101601f19168201909252611c5d9181019061283d565b60015b611c6c576119fd612ee9565b6001600160e01b0319811663f23a6e6160e01b146115665760405162461bcd60e51b81526004016104cf90612c21565b600054610100900460ff1680611cb5575060005460ff16155b611cd15760405162461bcd60e51b81526004016104cf90612cae565b600054610100900460ff16158015611cf3576000805461ffff19166101011790555b8015610556576000805461ff001916905550565b600054610100900460ff1680611d20575060005460ff16155b611d3c5760405162461bcd60e51b81526004016104cf90612cae565b600054610100900460ff16158015611d5e576000805461ffff19166101011790555b609780546001600160a01b0319163390811790915560405181906000907f8be0079c531659141344cd1fd0a4f28419497f9722a3daafe3b4186f6b6457e0908290a3508015610556576000805461ff001916905550565b600054610100900460ff1680611dce575060005460ff16155b611dea5760405162461bcd60e51b81526004016104cf90612cae565b600054610100900460ff16158015611e0c576000805461ffff19166101011790555b611e158261179e565b80156117b1576000805461ff00191690555050565b600080600080845160411415611e545750505060208201516040830151606084015160001a611eca565b845160401415611e825750505060408201516020830151906001600160ff1b0381169060ff1c601b01611eca565b60405162461bcd60e51b815260206004820152601f60248201527f45434453413a20696e76616c6964207369676e6174757265206c656e6774680060448201526064016104cf565b611ed686828585611ee0565b9695505050505050565b60007f7fffffffffffffffffffffffffffffff5d576e7357a4501ddfe92f46681b20a0821115611f5d5760405162461bcd60e51b815260206004820152602260248201527f45434453413a20696e76616c6964207369676e6174757265202773272076616c604482015261756560f01b60648201526084016104cf565b8360ff16601b1480611f7257508360ff16601c145b611fc95760405162461bcd60e51b815260206004820152602260248201527f45434453413a20696e76616c6964207369676e6174757265202776272076616c604482015261756560f01b60648201526084016104cf565b6040805160008082526020820180845288905260ff871692820192909252606081018590526080810184905260019060a0016020604051602081039080840390855afa15801561201d573d6000803e3d6000fd5b5050604051601f1901519150506001600160a01b0381166120805760405162461bcd60e51b815260206004820152601860248201527f45434453413a20696e76616c6964207369676e6174757265000000000000000060448201526064016104cf565b95945050505050565b82805461209590612e41565b90600052602060002090601f0160209004810192826120b757600085556120fd565b82601f106120d05782800160ff198235161785556120fd565b828001600101855582156120fd579182015b828111156120fd5782358255916020019190600101906120e2565b50612109929150612181565b5090565b82805461211990612e41565b90600052602060002090601f01602090048101928261213b57600085556120fd565b82601f1061215457805160ff19168380011785556120fd565b828001600101855582156120fd579182015b828111156120fd578251825591602001919060010190612166565b5b808211156121095760008155600101612182565b80356001600160a01b03811681146121ad57600080fd5b919050565b60008083601f8401126121c3578182fd5b5081356001600160401b038111156121d9578182fd5b6020830191508360208260051b85010111156121f457600080fd5b9250929050565b600082601f83011261220b578081fd5b8135602061221882612dbf565b6040516122258282612e76565b8381528281019150858301600585901b87018401881015612244578586fd5b855b8581101561226257813584529284019290840190600101612246565b5090979650505050505050565b60008083601f840112612280578182fd5b5081356001600160401b03811115612296578182fd5b6020830191508360208285010111156121f457600080fd5b600082601f8301126122be578081fd5b81356001600160401b038111156122d7576122d7612ed3565b6040516122ee601f8301601f191660200182612e76565b818152846020838601011115612302578283fd5b816020850160208301379081016020019190915292915050565b60006020828403121561232d578081fd5b61233682612196565b9392505050565b6000806040838503121561234f578081fd5b61235883612196565b915061236660208401612196565b90509250929050565b600080600080600060a08688031215612386578081fd5b61238f86612196565b945061239d60208701612196565b935060408601356001600160401b03808211156123b8578283fd5b6123c489838a016121fb565b945060608801359150808211156123d9578283fd5b6123e589838a016121fb565b935060808801359150808211156123fa578283fd5b50612407888289016122ae565b9150509295509295909350565b600080600080600060a0868803121561242b578081fd5b61243486612196565b945061244260208701612196565b9350604086013592506060860135915060808601356001600160401b0381111561246a578182fd5b612407888289016122ae565b600080600080600080600080600080600060c08c8e031215612496578889fd5b61249f8c612196565b9a506001600160401b038060208e013511156124b957898afd5b6124c98e60208f01358f016121b2565b909b50995060408d01358110156124de578687fd5b6124ee8e60408f01358f016121b2565b909950975060608d0135811015612503578687fd5b6125138e60608f01358f016121b2565b909750955060808d0135811015612528578485fd5b6125388e60808f01358f016121b2565b909550935060a08d013581101561254d578283fd5b5061255e8d60a08e01358e016121b2565b81935080925050509295989b509295989b9093969950565b60008060408385031215612588578182fd5b61259183612196565b9150602083013580151581146125a5578182fd5b809150509250929050565b600080604083850312156125c2578182fd5b6125cb83612196565b946020939093013593505050565b600080600080608085870312156125ee578182fd5b6125f785612196565b966020860135965060408601359560600135945092505050565b60008060008060008060008060c0898b03121561262c578182fd5b61263589612196565b975060208901359650604089013595506060890135945060808901356001600160401b0380821115612665578384fd5b6126718c838d0161226f565b909650945060a08b0135915080821115612689578384fd5b506126968b828c0161226f565b999c989b5096995094979396929594505050565b600080604083850312156126bc578182fd5b82356001600160401b03808211156126d2578384fd5b818501915085601f8301126126e5578384fd5b813560206126f282612dbf565b6040516126ff8282612e76565b8381528281019150858301600585901b870184018b101561271e578889fd5b8896505b848710156127475761273381612196565b835260019690960195918301918301612722565b509650508601359250508082111561275d578283fd5b5061276a858286016121fb565b9150509250929050565b6000806000806000806060878903121561278c578384fd5b86356001600160401b03808211156127a2578586fd5b6127ae8a838b016121b2565b909850965060208901359150808211156127c6578586fd5b6127d28a838b016121b2565b909650945060408901359150808211156127ea578384fd5b506127f789828a016121b2565b979a9699509497509295939492505050565b60006020828403121561281a578081fd5b5035919050565b600060208284031215612832578081fd5b813561233681612f8a565b60006020828403121561284e578081fd5b815161233681612f8a565b600080600080600060608688031215612870578283fd5b85356001600160401b0380821115612886578485fd5b61289289838a0161226f565b909750955060208801359150808211156128aa578485fd5b506128b78882890161226f565b96999598509660400135949350505050565b6000602082840312156128da578081fd5b81356001600160401b038111156128ef578182fd5b6128fb848285016122ae565b949350505050565b60008060008060808587031215612918578182fd5b84356001600160401b038082111561292e578384fd5b61293a888389016122ae565b9550602087013591508082111561294f578384fd5b5061295c878288016122ae565b93505061296b60408601612196565b915061297960608601612196565b905092959194509250565b600080600080600060a0868803121561299b578283fd5b85356001600160401b03808211156129b1578485fd5b6129bd89838a016122ae565b965060208801359150808211156129d2578485fd5b6129de89838a016122ae565b955060408801359150808211156129f3578485fd5b50612a00888289016122ae565b935050612a0f60608701612196565b9150612a1d60808701612196565b90509295509295909350565b6000815180845260208085019450808401835b83811015612a5857815187529582019590820190600101612a3c565b509495945050505050565b60008151808452612a7b816020860160208601612e11565b601f01601f19169290920160200192915050565b600083516020612aa28285838901612e11565b8454918401918390600181811c9080831680612abf57607f831692505b858310811415612add57634e487b7160e01b88526022600452602488fd5b808015612af15760018114612b0257612b2e565b60ff19851688528388019550612b2e565b60008b815260209020895b85811015612b265781548a820152908401908801612b0d565b505083880195505b50939a9950505050505050505050565b6001600160a01b0386811682528516602082015260a060408201819052600090612b6a90830186612a29565b8281036060840152612b7c8186612a29565b90508281036080840152612b908185612a63565b98975050505050505050565b6001600160a01b03868116825285166020820152604081018490526060810183905260a0608082018190526000906113b790830184612a63565b6020815260006123366020830184612a29565b604081526000612bfc6040830185612a29565b82810360208401526120808185612a29565b6020815260006123366020830184612a63565b60208082526028908201527f455243313135353a204552433131353552656365697665722072656a656374656040820152676420746f6b656e7360c01b606082015260800190565b60208082526025908201527f455243313135353a207472616e7366657220746f20746865207a65726f206164604082015264647265737360d81b606082015260800190565b6020808252602e908201527f496e697469616c697a61626c653a20636f6e747261637420697320616c72656160408201526d191e481a5b9a5d1a585b1a5e995960921b606082015260800190565b6020808252602a908201527f455243313135353a20696e73756666696369656e742062616c616e636520666f60408201526939103a3930b739b332b960b11b606082015260800190565b6020808252818101527f4f776e61626c653a2063616c6c6572206973206e6f7420746865206f776e6572604082015260600190565b6000808335601e19843603018112612d91578283fd5b8301803591506001600160401b03821115612daa578283fd5b6020019150368190038213156121f457600080fd5b60006001600160401b03821115612dd857612dd8612ed3565b5060051b60200190565b60008219821115612df557612df5612ebd565b500190565b600082821015612e0c57612e0c612ebd565b500390565b60005b83811015612e2c578181015183820152602001612e14565b83811115612e3b576000848401525b50505050565b600181811c90821680612e5557607f821691505b6020821081141561065357634e487b7160e01b600052602260045260246000fd5b601f8201601f191681016001600160401b0381118282101715612e9b57612e9b612ed3565b6040525050565b6000600019821415612eb657612eb6612ebd565b5060010190565b634e487b7160e01b600052601160045260246000fd5b634e487b7160e01b600052604160045260246000fd5b600060033d1115612efe57600481823e5160e01c5b90565b600060443d1015612f0f5790565b6040516003193d81016004833e81513d6001600160401b038160248401118184111715612f3e57505050505090565b8285019150815181811115612f565750505050505090565b843d8701016020828501011115612f705750505050505090565b612f7f60208286010187612e76565b509095945050505050565b6001600160e01b03198116811461055657600080fdfea26469706673582212207c138fa3fc55c03a621e733bf8aec56550757b3ef321b6311b1144ea7cf8dc0f64736f6c63430008040033",
  "devdoc": {
    "kind": "dev",
    "methods": {
      "balanceOf(address,uint256)": {
        "details": "See {IERC1155-balanceOf}. Requirements: - `account` cannot be the zero address."
      },
      "balanceOfBatch(address[],uint256[])": {
        "details": "See {IERC1155-balanceOfBatch}. Requirements: - `accounts` and `ids` must have the same length."
      },
      "batchCreate(string[],bytes[],uint256[])": {
        "details": "Batch create new NFT types",
        "params": {
          "_cids": "Content identifiers",
          "_datas": "Datas to pass if receiver is contract",
          "_maxSupplys": "Max supplys of these  NFTs"
        },
        "returns": {
          "_id": "The latest token ID"
        }
      },
      "batchMint(address,uint256[],uint256[],uint256[],bytes[],bytes[])": {
        "details": "Batch mints multiple different existing NFT types",
        "params": {
          "_amounts": "numbers of NFTs of same type to mint",
          "_data": "Data to pass if receiver is contract",
          "_ids": "IDs of the type of NFT to mint",
          "_nonces": "platform nounces to prevent replay",
          "_signatures": "Verified signatures granting _account an NFT",
          "_to": "Account to mint NFT to (i.e. the owner)"
        }
      },
      "create(string,bytes,uint256)": {
        "details": "Creates a new NFT type",
        "params": {
          "_cid": "Content identifier",
          "_data": "Data to pass if receiver is contract",
          "_maxSupply": "Max supply of this NFT"
        },
        "returns": {
          "_id": "The newly created token ID"
        }
      },
      "getMessageHash(address,uint256,uint256,uint256)": {
        "details": "Create message hash to be signed"
      },
      "isApprovedForAll(address,address)": {
        "details": "See {IERC1155-isApprovedForAll}."
      },
      "maxSupply(uint256)": {
        "details": "Returns the max quantity for a token ID",
        "params": {
          "_id": "ID of the token to query"
        },
        "returns": {
          "_0": "amount of token in existence"
        }
      },
      "mint(address,uint256,uint256,uint256,bytes,bytes)": {
        "details": "Mints an existing NFT type",
        "params": {
          "_amount": "number of NFTs of same type to mint",
          "_data": "Data to pass if receiver is contract",
          "_id": "ID (i.e. type) of NFT to mint",
          "_nonce": "platform nounce to prevent replay",
          "_signature": "Verified signature granting _account an NFT",
          "_to": "Account to mint NFT to (i.e. the owner)"
        }
      },
      "owner()": {
        "details": "Returns the address of the current owner."
      },
      "pause()": {
        "details": "Pause or unpause the minting and creation of NFTs"
      },
      "renounceOwnership()": {
        "details": "Leaves the contract without owner. It will not be possible to call `onlyOwner` functions anymore. Can only be called by the current owner. NOTE: Renouncing ownership will leave the contract without an owner, thereby removing any functionality that is only available to the owner."
      },
      "safeBatchTransferFrom(address,address,uint256[],uint256[],bytes)": {
        "details": "See {IERC1155-safeBatchTransferFrom}."
      },
      "safeTransferFrom(address,address,uint256,uint256,bytes)": {
        "details": "See {IERC1155-safeTransferFrom}."
      },
      "setApprovalForAll(address,bool)": {
        "details": "See {IERC1155-setApprovalForAll}."
      },
      "setURI(string)": {
        "details": "Sets a new URI for all token types"
      },
      "supportsInterface(bytes4)": {
        "details": "See {IERC165-supportsInterface}."
      },
      "totalSupply(uint256)": {
        "details": "Returns the total quantity for a token ID",
        "params": {
          "_id": "ID of the token to query"
        },
        "returns": {
          "_0": "amount of token in existence"
        }
      },
      "transferOwnership(address)": {
        "details": "Transfers ownership of the contract to a new account (`newOwner`). Can only be called by the current owner."
      },
      "updateSigner(address)": {
        "details": "Update the signer"
      },
      "uri(uint256)": {
        "details": "Returns the uri of a token given its ID",
        "params": {
          "_id": "ID of the token to query"
        },
        "returns": {
          "_0": "uri of the token or an empty string if it does not exist"
        }
      }
    },
    "version": 1
  },
  "userdoc": {
    "kind": "user",
    "methods": {
      "batchMint(address,uint256[],uint256[],uint256[],bytes[],bytes[])": {
        "notice": "Enforces a maximum of 1 minting event per account per NFT type"
      },
      "mint(address,uint256,uint256,uint256,bytes,bytes)": {
        "notice": "Enforces a maximum of 1 minting event per NFT type per account"
      }
    },
    "version": 1
  },
  "storageLayout": {
    "storage": [
      {
        "astId": 532,
        "contract": "contracts/CybertinoNFT/CybertinoNFTV0.sol:CybertinoNFTV0",
        "label": "_initialized",
        "offset": 0,
        "slot": "0",
        "type": "t_bool"
      },
      {
        "astId": 535,
        "contract": "contracts/CybertinoNFT/CybertinoNFTV0.sol:CybertinoNFTV0",
        "label": "_initializing",
        "offset": 1,
        "slot": "0",
        "type": "t_bool"
      },
      {
        "astId": 3107,
        "contract": "contracts/CybertinoNFT/CybertinoNFTV0.sol:CybertinoNFTV0",
        "label": "__gap",
        "offset": 0,
        "slot": "1",
        "type": "t_array(t_uint256)50_storage"
      },
      {
        "astId": 3561,
        "contract": "contracts/CybertinoNFT/CybertinoNFTV0.sol:CybertinoNFTV0",
        "label": "__gap",
        "offset": 0,
        "slot": "51",
        "type": "t_array(t_uint256)50_storage"
      },
      {
        "astId": 601,
        "contract": "contracts/CybertinoNFT/CybertinoNFTV0.sol:CybertinoNFTV0",
        "label": "_balances",
        "offset": 0,
        "slot": "101",
        "type": "t_mapping(t_uint256,t_mapping(t_address,t_uint256))"
      },
      {
        "astId": 607,
        "contract": "contracts/CybertinoNFT/CybertinoNFTV0.sol:CybertinoNFTV0",
        "label": "_operatorApprovals",
        "offset": 0,
        "slot": "102",
        "type": "t_mapping(t_address,t_mapping(t_address,t_bool))"
      },
      {
        "astId": 609,
        "contract": "contracts/CybertinoNFT/CybertinoNFTV0.sol:CybertinoNFTV0",
        "label": "_uri",
        "offset": 0,
        "slot": "103",
        "type": "t_string_storage"
      },
      {
        "astId": 1631,
        "contract": "contracts/CybertinoNFT/CybertinoNFTV0.sol:CybertinoNFTV0",
        "label": "__gap",
        "offset": 0,
        "slot": "104",
        "type": "t_array(t_uint256)47_storage"
      },
      {
        "astId": 406,
        "contract": "contracts/CybertinoNFT/CybertinoNFTV0.sol:CybertinoNFTV0",
        "label": "_owner",
        "offset": 0,
        "slot": "151",
        "type": "t_address"
      },
      {
        "astId": 525,
        "contract": "contracts/CybertinoNFT/CybertinoNFTV0.sol:CybertinoNFTV0",
        "label": "__gap",
        "offset": 0,
        "slot": "152",
        "type": "t_array(t_uint256)49_storage"
      },
      {
        "astId": 7136,
        "contract": "contracts/CybertinoNFT/CybertinoNFTV0.sol:CybertinoNFTV0",
        "label": "name",
        "offset": 0,
        "slot": "201",
        "type": "t_string_storage"
      },
      {
        "astId": 7140,
        "contract": "contracts/CybertinoNFT/CybertinoNFTV0.sol:CybertinoNFTV0",
        "label": "id",
        "offset": 0,
        "slot": "202",
        "type": "t_struct(Counter)3114_storage"
      },
      {
        "astId": 7143,
        "contract": "contracts/CybertinoNFT/CybertinoNFTV0.sol:CybertinoNFTV0",
        "label": "signer",
        "offset": 0,
        "slot": "203",
        "type": "t_address"
      },
      {
        "astId": 7148,
        "contract": "contracts/CybertinoNFT/CybertinoNFTV0.sol:CybertinoNFTV0",
        "label": "idToUri",
        "offset": 0,
        "slot": "204",
        "type": "t_mapping(t_uint256,t_string_storage)"
      },
      {
        "astId": 7153,
        "contract": "contracts/CybertinoNFT/CybertinoNFTV0.sol:CybertinoNFTV0",
        "label": "maxTokenSupply",
        "offset": 0,
        "slot": "205",
        "type": "t_mapping(t_uint256,t_uint256)"
      },
      {
        "astId": 7158,
        "contract": "contracts/CybertinoNFT/CybertinoNFTV0.sol:CybertinoNFTV0",
        "label": "tokenSupply",
        "offset": 0,
        "slot": "206",
        "type": "t_mapping(t_uint256,t_uint256)"
      },
      {
        "astId": 7163,
        "contract": "contracts/CybertinoNFT/CybertinoNFTV0.sol:CybertinoNFTV0",
        "label": "executed",
        "offset": 0,
        "slot": "207",
        "type": "t_mapping(t_bytes32,t_bool)"
      },
      {
        "astId": 7167,
        "contract": "contracts/CybertinoNFT/CybertinoNFTV0.sol:CybertinoNFTV0",
        "label": "paused",
        "offset": 0,
        "slot": "208",
        "type": "t_bool"
      },
      {
        "astId": 7170,
        "contract": "contracts/CybertinoNFT/CybertinoNFTV0.sol:CybertinoNFTV0",
        "label": "symbol",
        "offset": 0,
        "slot": "209",
        "type": "t_string_storage"
      }
    ],
    "types": {
      "t_address": {
        "encoding": "inplace",
        "label": "address",
        "numberOfBytes": "20"
      },
      "t_array(t_uint256)47_storage": {
        "base": "t_uint256",
        "encoding": "inplace",
        "label": "uint256[47]",
        "numberOfBytes": "1504"
      },
      "t_array(t_uint256)49_storage": {
        "base": "t_uint256",
        "encoding": "inplace",
        "label": "uint256[49]",
        "numberOfBytes": "1568"
      },
      "t_array(t_uint256)50_storage": {
        "base": "t_uint256",
        "encoding": "inplace",
        "label": "uint256[50]",
        "numberOfBytes": "1600"
      },
      "t_bool": {
        "encoding": "inplace",
        "label": "bool",
        "numberOfBytes": "1"
      },
      "t_bytes32": {
        "encoding": "inplace",
        "label": "bytes32",
        "numberOfBytes": "32"
      },
      "t_mapping(t_address,t_bool)": {
        "encoding": "mapping",
        "key": "t_address",
        "label": "mapping(address => bool)",
        "numberOfBytes": "32",
        "value": "t_bool"
      },
      "t_mapping(t_address,t_mapping(t_address,t_bool))": {
        "encoding": "mapping",
        "key": "t_address",
        "label": "mapping(address => mapping(address => bool))",
        "numberOfBytes": "32",
        "value": "t_mapping(t_address,t_bool)"
      },
      "t_mapping(t_address,t_uint256)": {
        "encoding": "mapping",
        "key": "t_address",
        "label": "mapping(address => uint256)",
        "numberOfBytes": "32",
        "value": "t_uint256"
      },
      "t_mapping(t_bytes32,t_bool)": {
        "encoding": "mapping",
        "key": "t_bytes32",
        "label": "mapping(bytes32 => bool)",
        "numberOfBytes": "32",
        "value": "t_bool"
      },
      "t_mapping(t_uint256,t_mapping(t_address,t_uint256))": {
        "encoding": "mapping",
        "key": "t_uint256",
        "label": "mapping(uint256 => mapping(address => uint256))",
        "numberOfBytes": "32",
        "value": "t_mapping(t_address,t_uint256)"
      },
      "t_mapping(t_uint256,t_string_storage)": {
        "encoding": "mapping",
        "key": "t_uint256",
        "label": "mapping(uint256 => string)",
        "numberOfBytes": "32",
        "value": "t_string_storage"
      },
      "t_mapping(t_uint256,t_uint256)": {
        "encoding": "mapping",
        "key": "t_uint256",
        "label": "mapping(uint256 => uint256)",
        "numberOfBytes": "32",
        "value": "t_uint256"
      },
      "t_string_storage": {
        "encoding": "bytes",
        "label": "string",
        "numberOfBytes": "32"
      },
      "t_struct(Counter)3114_storage": {
        "encoding": "inplace",
        "label": "struct CountersUpgradeable.Counter",
        "members": [
          {
            "astId": 3113,
            "contract": "contracts/CybertinoNFT/CybertinoNFTV0.sol:CybertinoNFTV0",
            "label": "_value",
            "offset": 0,
            "slot": "0",
            "type": "t_uint256"
          }
        ],
        "numberOfBytes": "32"
      },
      "t_uint256": {
        "encoding": "inplace",
        "label": "uint256",
        "numberOfBytes": "32"
      }
    }
  }
}