{
  "address": "0x803058C958350FFC2a6c906722bb8f1006862CFC",
  "abi": [
    {
      "anonymous": false,
      "inputs": [
        {
          "indexed": true,
          "internalType": "address",
          "name": "owner",
          "type": "address"
        },
        {
          "indexed": true,
          "internalType": "address",
          "name": "approved",
          "type": "address"
        },
        {
          "indexed": true,
          "internalType": "uint256",
          "name": "tokenId",
          "type": "uint256"
        }
      ],
      "name": "Approval",
      "type": "event"
    },
    {
      "anonymous": false,
      "inputs": [
        {
          "indexed": true,
          "internalType": "address",
          "name": "owner",
          "type": "address"
        },
        {
          "indexed": true,
          "internalType": "address",
          "name": "operator",
          "type": "address"
        },
        {
          "indexed": false,
          "internalType": "bool",
          "name": "approved",
          "type": "bool"
        }
      ],
      "name": "ApprovalForAll",
      "type": "event"
    },
    {
      "anonymous": false,
      "inputs": [
        {
          "indexed": true,
          "internalType": "address",
          "name": "previousOwner",
          "type": "address"
        },
        {
          "indexed": true,
          "internalType": "address",
          "name": "newOwner",
          "type": "address"
        }
      ],
      "name": "OwnershipTransferred",
      "type": "event"
    },
    {
      "anonymous": false,
      "inputs": [
        {
          "indexed": true,
          "internalType": "address",
          "name": "from",
          "type": "address"
        },
        {
          "indexed": true,
          "internalType": "address",
          "name": "to",
          "type": "address"
        },
        {
          "indexed": true,
          "internalType": "uint256",
          "name": "tokenId",
          "type": "uint256"
        }
      ],
      "name": "Transfer",
      "type": "event"
    },
    {
      "inputs": [
        {
          "internalType": "string",
          "name": "_name",
          "type": "string"
        },
        {
          "internalType": "string",
          "name": "_symbol",
          "type": "string"
        },
        {
          "internalType": "string",
          "name": "_uri",
          "type": "string"
        },
        {
          "internalType": "uint256",
          "name": "_price",
          "type": "uint256"
        },
        {
          "internalType": "uint256",
          "name": "_whitelistPrice",
          "type": "uint256"
        },
        {
          "internalType": "uint256",
          "name": "_maxPurchaseNum",
          "type": "uint256"
        },
        {
          "internalType": "uint256",
          "name": "_maxSupply",
          "type": "uint256"
        },
        {
          "internalType": "uint256",
          "name": "_reserveNum",
          "type": "uint256"
        },
        {
          "internalType": "address",
          "name": "_owner",
          "type": "address"
        },
        {
          "internalType": "address",
          "name": "_signer",
          "type": "address"
        }
      ],
      "name": "__LaunchNFT_init",
      "outputs": [],
      "stateMutability": "nonpayable",
      "type": "function"
    },
    {
      "inputs": [
        {
          "internalType": "string",
          "name": "_uri",
          "type": "string"
        },
        {
          "internalType": "uint256",
          "name": "_price",
          "type": "uint256"
        },
        {
          "internalType": "uint256",
          "name": "_whitelistPrice",
          "type": "uint256"
        },
        {
          "internalType": "uint256",
          "name": "_maxPurchaseNum",
          "type": "uint256"
        },
        {
          "internalType": "uint256",
          "name": "_maxSupply",
          "type": "uint256"
        },
        {
          "internalType": "uint256",
          "name": "_reserveNum",
          "type": "uint256"
        },
        {
          "internalType": "address",
          "name": "_owner",
          "type": "address"
        },
        {
          "internalType": "address",
          "name": "_signer",
          "type": "address"
        }
      ],
      "name": "__LaunchNFT_init_unchained",
      "outputs": [],
      "stateMutability": "nonpayable",
      "type": "function"
    },
    {
      "inputs": [
        {
          "internalType": "address",
          "name": "to",
          "type": "address"
        },
        {
          "internalType": "uint256",
          "name": "tokenId",
          "type": "uint256"
        }
      ],
      "name": "approve",
      "outputs": [],
      "stateMutability": "nonpayable",
      "type": "function"
    },
    {
      "inputs": [
        {
          "internalType": "address",
          "name": "owner",
          "type": "address"
        }
      ],
      "name": "balanceOf",
      "outputs": [
        {
          "internalType": "uint256",
          "name": "",
          "type": "uint256"
        }
      ],
      "stateMutability": "view",
      "type": "function"
    },
    {
      "inputs": [],
      "name": "baseURI",
      "outputs": [
        {
          "internalType": "string",
          "name": "",
          "type": "string"
        }
      ],
      "stateMutability": "view",
      "type": "function"
    },
    {
      "inputs": [],
      "name": "flipMintingState",
      "outputs": [],
      "stateMutability": "nonpayable",
      "type": "function"
    },
    {
      "inputs": [
        {
          "internalType": "uint256",
          "name": "tokenId",
          "type": "uint256"
        }
      ],
      "name": "getApproved",
      "outputs": [
        {
          "internalType": "address",
          "name": "",
          "type": "address"
        }
      ],
      "stateMutability": "view",
      "type": "function"
    },
    {
      "inputs": [
        {
          "internalType": "address",
          "name": "_account",
          "type": "address"
        },
        {
          "internalType": "uint256",
          "name": "_whitelistID",
          "type": "uint256"
        }
      ],
      "name": "getMessageHash",
      "outputs": [
        {
          "internalType": "bytes32",
          "name": "",
          "type": "bytes32"
        }
      ],
      "stateMutability": "pure",
      "type": "function"
    },
    {
      "inputs": [
        {
          "internalType": "uint256",
          "name": "",
          "type": "uint256"
        }
      ],
      "name": "hasMinted",
      "outputs": [
        {
          "internalType": "bool",
          "name": "",
          "type": "bool"
        }
      ],
      "stateMutability": "view",
      "type": "function"
    },
    {
      "inputs": [],
      "name": "id",
      "outputs": [
        {
          "internalType": "uint256",
          "name": "_value",
          "type": "uint256"
        }
      ],
      "stateMutability": "view",
      "type": "function"
    },
    {
      "inputs": [
        {
          "internalType": "address",
          "name": "owner",
          "type": "address"
        },
        {
          "internalType": "address",
          "name": "operator",
          "type": "address"
        }
      ],
      "name": "isApprovedForAll",
      "outputs": [
        {
          "internalType": "bool",
          "name": "",
          "type": "bool"
        }
      ],
      "stateMutability": "view",
      "type": "function"
    },
    {
      "inputs": [],
      "name": "isMintingActive",
      "outputs": [
        {
          "internalType": "bool",
          "name": "",
          "type": "bool"
        }
      ],
      "stateMutability": "view",
      "type": "function"
    },
    {
      "inputs": [],
      "name": "maxPurchaseNum",
      "outputs": [
        {
          "internalType": "uint256",
          "name": "",
          "type": "uint256"
        }
      ],
      "stateMutability": "view",
      "type": "function"
    },
    {
      "inputs": [],
      "name": "maxSupply",
      "outputs": [
        {
          "internalType": "uint256",
          "name": "",
          "type": "uint256"
        }
      ],
      "stateMutability": "view",
      "type": "function"
    },
    {
      "inputs": [
        {
          "internalType": "uint256",
          "name": "_num",
          "type": "uint256"
        }
      ],
      "name": "mint",
      "outputs": [],
      "stateMutability": "payable",
      "type": "function"
    },
    {
      "inputs": [],
      "name": "mintedReserveNum",
      "outputs": [
        {
          "internalType": "uint256",
          "name": "",
          "type": "uint256"
        }
      ],
      "stateMutability": "view",
      "type": "function"
    },
    {
      "inputs": [],
      "name": "name",
      "outputs": [
        {
          "internalType": "string",
          "name": "",
          "type": "string"
        }
      ],
      "stateMutability": "view",
      "type": "function"
    },
    {
      "inputs": [],
      "name": "owner",
      "outputs": [
        {
          "internalType": "address",
          "name": "",
          "type": "address"
        }
      ],
      "stateMutability": "view",
      "type": "function"
    },
    {
      "inputs": [
        {
          "internalType": "uint256",
          "name": "tokenId",
          "type": "uint256"
        }
      ],
      "name": "ownerOf",
      "outputs": [
        {
          "internalType": "address",
          "name": "",
          "type": "address"
        }
      ],
      "stateMutability": "view",
      "type": "function"
    },
    {
      "inputs": [],
      "name": "price",
      "outputs": [
        {
          "internalType": "uint256",
          "name": "",
          "type": "uint256"
        }
      ],
      "stateMutability": "view",
      "type": "function"
    },
    {
      "inputs": [],
      "name": "renounceOwnership",
      "outputs": [],
      "stateMutability": "nonpayable",
      "type": "function"
    },
    {
      "inputs": [],
      "name": "reserve",
      "outputs": [],
      "stateMutability": "nonpayable",
      "type": "function"
    },
    {
      "inputs": [],
      "name": "reserveBatchNum",
      "outputs": [
        {
          "internalType": "uint256",
          "name": "",
          "type": "uint256"
        }
      ],
      "stateMutability": "view",
      "type": "function"
    },
    {
      "inputs": [],
      "name": "reserveNum",
      "outputs": [
        {
          "internalType": "uint256",
          "name": "",
          "type": "uint256"
        }
      ],
      "stateMutability": "view",
      "type": "function"
    },
    {
      "inputs": [
        {
          "internalType": "address",
          "name": "from",
          "type": "address"
        },
        {
          "internalType": "address",
          "name": "to",
          "type": "address"
        },
        {
          "internalType": "uint256",
          "name": "tokenId",
          "type": "uint256"
        }
      ],
      "name": "safeTransferFrom",
      "outputs": [],
      "stateMutability": "nonpayable",
      "type": "function"
    },
    {
      "inputs": [
        {
          "internalType": "address",
          "name": "from",
          "type": "address"
        },
        {
          "internalType": "address",
          "name": "to",
          "type": "address"
        },
        {
          "internalType": "uint256",
          "name": "tokenId",
          "type": "uint256"
        },
        {
          "internalType": "bytes",
          "name": "_data",
          "type": "bytes"
        }
      ],
      "name": "safeTransferFrom",
      "outputs": [],
      "stateMutability": "nonpayable",
      "type": "function"
    },
    {
      "inputs": [
        {
          "internalType": "address",
          "name": "operator",
          "type": "address"
        },
        {
          "internalType": "bool",
          "name": "approved",
          "type": "bool"
        }
      ],
      "name": "setApprovalForAll",
      "outputs": [],
      "stateMutability": "nonpayable",
      "type": "function"
    },
    {
      "inputs": [
        {
          "internalType": "string",
          "name": "_uri",
          "type": "string"
        }
      ],
      "name": "setBaseURI",
      "outputs": [],
      "stateMutability": "nonpayable",
      "type": "function"
    },
    {
      "inputs": [
        {
          "internalType": "bytes4",
          "name": "interfaceId",
          "type": "bytes4"
        }
      ],
      "name": "supportsInterface",
      "outputs": [
        {
          "internalType": "bool",
          "name": "",
          "type": "bool"
        }
      ],
      "stateMutability": "view",
      "type": "function"
    },
    {
      "inputs": [],
      "name": "symbol",
      "outputs": [
        {
          "internalType": "string",
          "name": "",
          "type": "string"
        }
      ],
      "stateMutability": "view",
      "type": "function"
    },
    {
      "inputs": [
        {
          "internalType": "uint256",
          "name": "tokenId",
          "type": "uint256"
        }
      ],
      "name": "tokenURI",
      "outputs": [
        {
          "internalType": "string",
          "name": "",
          "type": "string"
        }
      ],
      "stateMutability": "view",
      "type": "function"
    },
    {
      "inputs": [
        {
          "internalType": "address",
          "name": "from",
          "type": "address"
        },
        {
          "internalType": "address",
          "name": "to",
          "type": "address"
        },
        {
          "internalType": "uint256",
          "name": "tokenId",
          "type": "uint256"
        }
      ],
      "name": "transferFrom",
      "outputs": [],
      "stateMutability": "nonpayable",
      "type": "function"
    },
    {
      "inputs": [
        {
          "internalType": "address",
          "name": "newOwner",
          "type": "address"
        }
      ],
      "name": "transferOwnership",
      "outputs": [],
      "stateMutability": "nonpayable",
      "type": "function"
    },
    {
      "inputs": [
        {
          "internalType": "uint256[]",
          "name": "_whitelistIDs",
          "type": "uint256[]"
        },
        {
          "internalType": "bytes[]",
          "name": "_signatures",
          "type": "bytes[]"
        }
      ],
      "name": "whitelistMint",
      "outputs": [],
      "stateMutability": "payable",
      "type": "function"
    },
    {
      "inputs": [],
      "name": "whitelistPrice",
      "outputs": [
        {
          "internalType": "uint256",
          "name": "",
          "type": "uint256"
        }
      ],
      "stateMutability": "view",
      "type": "function"
    },
    {
      "inputs": [],
      "name": "whitelistSigner",
      "outputs": [
        {
          "internalType": "address",
          "name": "",
          "type": "address"
        }
      ],
      "stateMutability": "view",
      "type": "function"
    },
    {
      "inputs": [],
      "name": "withdraw",
      "outputs": [],
      "stateMutability": "nonpayable",
      "type": "function"
    }
  ],
  "transactionHash": "0xa565c7d52c48f064a0d8809ee89e85246a5ec4f1376553e6d863a7ba996a30f0",
  "args": [],
  "solcInputHash": "331ae6cf5e9394e782b1fb0f61807a75",
  "bytecode": "0x608060405260d1805460ff1916905534801561001a57600080fd5b50612cc18061002a6000396000f3fe60806040526004361061021a5760003560e01c80638da5cb5b11610123578063b88d4fde116100ab578063e985e9c51161006f578063e985e9c5146105cf578063ef81b4d414610618578063f2fde38b1461063d578063f655ff221461065d578063fc1a1c361461067257600080fd5b8063b88d4fde14610534578063c87b56dd14610554578063cd3293de14610574578063d5abeb0114610589578063e5b955951461059f57600080fd5b806395d89b41116100f257806395d89b41146104bf578063a035b1fe146104d4578063a0712d68146104ea578063a22cb465146104fd578063af640d0f1461051d57600080fd5b80638da5cb5b1461046257806390b180d314610480578063925b8e021461049357806392a04621146104a957600080fd5b806342842e0e116101a65780636352211e116101755780636352211e146103de5780636ac437b0146103fe5780636c0360eb1461041857806370a082311461042d578063715018a61461044d57600080fd5b806342842e0e1461035e578063512c91df1461037e57806355f804b31461039e5780635d6e1b90146103be57600080fd5b80630a32c276116101ed5780630a32c276146102d0578063123fecf8146102f457806323b872dd14610309578063378cbf24146103295780633ccfd60b1461034957600080fd5b806301ffc9a71461021f57806306fdde0314610254578063081812fc14610276578063095ea7b3146102ae575b600080fd5b34801561022b57600080fd5b5061023f61023a36600461272e565b610688565b60405190151581526020015b60405180910390f35b34801561026057600080fd5b506102696106da565b60405161024b91906129bd565b34801561028257600080fd5b506102966102913660046128fe565b61076c565b6040516001600160a01b03909116815260200161024b565b3480156102ba57600080fd5b506102ce6102c936600461269c565b610806565b005b3480156102dc57600080fd5b506102e660ce5481565b60405190815260200161024b565b34801561030057600080fd5b506102e6601e81565b34801561031557600080fd5b506102ce6103243660046125ae565b61091c565b34801561033557600080fd5b506102ce610344366004612871565b61094d565b34801561035557600080fd5b506102ce610a17565b34801561036a57600080fd5b506102ce6103793660046125ae565b610a74565b34801561038a57600080fd5b506102e661039936600461269c565b610a8f565b3480156103aa57600080fd5b506102ce6103b9366004612766565b610ad6565b3480156103ca57600080fd5b506102ce6103d9366004612799565b610b13565b3480156103ea57600080fd5b506102966103f93660046128fe565b610bab565b34801561040a57600080fd5b5060d15461023f9060ff1681565b34801561042457600080fd5b50610269610c22565b34801561043957600080fd5b506102e6610448366004612562565b610cb0565b34801561045957600080fd5b506102ce610d37565b34801561046e57600080fd5b506097546001600160a01b0316610296565b6102ce61048e3660046126c5565b610dab565b34801561049f57600080fd5b506102e660cf5481565b3480156104b557600080fd5b506102e660cb5481565b3480156104cb57600080fd5b50610269611069565b3480156104e057600080fd5b506102e660c95481565b6102ce6104f83660046128fe565b611078565b34801561050957600080fd5b506102ce610518366004612662565b6111fc565b34801561052957600080fd5b5060d0546102e69081565b34801561054057600080fd5b506102ce61054f3660046125e9565b6112c1565b34801561056057600080fd5b5061026961056f3660046128fe565b6112f9565b34801561058057600080fd5b506102ce6113d4565b34801561059557600080fd5b506102e660cc5481565b3480156105ab57600080fd5b5061023f6105ba3660046128fe565b60d26020526000908152604090205460ff1681565b3480156105db57600080fd5b5061023f6105ea36600461257c565b6001600160a01b039182166000908152606a6020908152604080832093909416825291909152205460ff1690565b34801561062457600080fd5b5060d1546102969061010090046001600160a01b031681565b34801561064957600080fd5b506102ce610658366004612562565b6114f3565b34801561066957600080fd5b506102ce6115de565b34801561067e57600080fd5b506102e660ca5481565b60006001600160e01b031982166380ac58cd60e01b14806106b957506001600160e01b03198216635b5e139f60e01b145b806106d457506301ffc9a760e01b6001600160e01b03198316145b92915050565b6060606580546106e990612bc9565b80601f016020809104026020016040519081016040528092919081815260200182805461071590612bc9565b80156107625780601f1061073757610100808354040283529160200191610762565b820191906000526020600020905b81548152906001019060200180831161074557829003601f168201915b5050505050905090565b6000818152606760205260408120546001600160a01b03166107ea5760405162461bcd60e51b815260206004820152602c60248201527f4552433732313a20617070726f76656420717565727920666f72206e6f6e657860448201526b34b9ba32b73a103a37b5b2b760a11b60648201526084015b60405180910390fd5b506000908152606960205260409020546001600160a01b031690565b600061081182610bab565b9050806001600160a01b0316836001600160a01b0316141561087f5760405162461bcd60e51b815260206004820152602160248201527f4552433732313a20617070726f76616c20746f2063757272656e74206f776e656044820152603960f91b60648201526084016107e1565b336001600160a01b038216148061089b575061089b81336105ea565b61090d5760405162461bcd60e51b815260206004820152603860248201527f4552433732313a20617070726f76652063616c6c6572206973206e6f74206f7760448201527f6e6572206e6f7220617070726f76656420666f7220616c6c000000000000000060648201526084016107e1565b610917838361161c565b505050565b610926338261168a565b6109425760405162461bcd60e51b81526004016107e190612aa5565b610917838383611781565b600054610100900460ff1680610966575060005460ff16155b6109825760405162461bcd60e51b81526004016107e190612a22565b600054610100900460ff161580156109a4576000805461ffff19166101011790555b88516109b79060cd9060208c01906123ce565b5060c988905560ca87905560cb86905560cc85905560ce84905560d18054610100600160a81b0319166101006001600160a01b038516021790556109fa836114f3565b8015610a0c576000805461ff00191690555b505050505050505050565b6097546001600160a01b03163314610a415760405162461bcd60e51b81526004016107e190612a70565b6040514790339082156108fc029083906000818181858888f19350505050158015610a70573d6000803e3d6000fd5b5050565b610917838383604051806020016040528060008152506112c1565b6040516bffffffffffffffffffffffff19606084901b1660208201526034810182905260009060540160405160208183030381529060405280519060200120905092915050565b6097546001600160a01b03163314610b005760405162461bcd60e51b81526004016107e190612a70565b8051610a709060cd9060208401906123ce565b600054610100900460ff1680610b2c575060005460ff16155b610b485760405162461bcd60e51b81526004016107e190612a22565b600054610100900460ff16158015610b6a576000805461ffff19166101011790555b610b748b8b611921565b610b7c6119a8565b610b8c898989898989898961094d565b8015610b9e576000805461ff00191690555b5050505050505050505050565b6000818152606760205260408120546001600160a01b0316806106d45760405162461bcd60e51b815260206004820152602960248201527f4552433732313a206f776e657220717565727920666f72206e6f6e657869737460448201526832b73a103a37b5b2b760b91b60648201526084016107e1565b60cd8054610c2f90612bc9565b80601f0160208091040260200160405190810160405280929190818152602001828054610c5b90612bc9565b8015610ca85780601f10610c7d57610100808354040283529160200191610ca8565b820191906000526020600020905b815481529060010190602001808311610c8b57829003601f168201915b505050505081565b60006001600160a01b038216610d1b5760405162461bcd60e51b815260206004820152602a60248201527f4552433732313a2062616c616e636520717565727920666f7220746865207a65604482015269726f206164647265737360b01b60648201526084016107e1565b506001600160a01b031660009081526068602052604090205490565b6097546001600160a01b03163314610d615760405162461bcd60e51b81526004016107e190612a70565b6097546040516000916001600160a01b0316907f8be0079c531659141344cd1fd0a4f28419497f9722a3daafe3b4186f6b6457e0908390a3609780546001600160a01b0319169055565b828114610df05760405162461bcd60e51b8152602060048201526013602482015272084c2e8c6d040e6d2f4ca40dad2e6dac2e8c6d606b1b60448201526064016107e1565b60cc5483610dfd60d05490565b610e079190612b3b565b1115610e555760405162461bcd60e51b815260206004820152601f60248201527f4d696e74696e6720776f756c6420657863656564206d617820737570706c790060448201526064016107e1565b60ca543490610e65908590612b67565b1115610eb35760405162461bcd60e51b815260206004820152601f60248201527f45746865722076616c75652073656e74206973206e6f7420636f72726563740060448201526064016107e1565b60005b838110156110625760d26000868684818110610ee257634e487b7160e01b600052603260045260246000fd5b602090810292909201358352508101919091526040016000205460ff1615610f4c5760405162461bcd60e51b815260206004820152601960248201527f57686974656c69737420616c726561647920636c61696d65640000000000000060448201526064016107e1565b610fb6610f7f33878785818110610f7357634e487b7160e01b600052603260045260246000fd5b90506020020135610a8f565b848484818110610f9f57634e487b7160e01b600052603260045260246000fd5b9050602002810190610fb19190612af6565b611a57565b610ff65760405162461bcd60e51b8152602060048201526011602482015270496e76616c6964205369676e617475726560781b60448201526064016107e1565b600160d2600087878581811061101c57634e487b7160e01b600052603260045260246000fd5b90506020020135815260200190815260200160002060006101000a81548160ff021916908315150217905550611050611b0c565b8061105a81612c04565b915050610eb6565b5050505050565b6060606680546106e990612bc9565b60d15460ff166110c35760405162461bcd60e51b81526020600482015260166024820152754d696e74696e67206d7573742062652061637469766560501b60448201526064016107e1565b60cb548111156111155760405162461bcd60e51b815260206004820152601f60248201527f43616e6e6f74206d696e742074686973206d616e7920617420612074696d650060448201526064016107e1565b60cc548161112260d05490565b61112c9190612b3b565b111561117a5760405162461bcd60e51b815260206004820152601f60248201527f4d696e74696e6720776f756c6420657863656564206d617820737570706c790060448201526064016107e1565b348160c9546111899190612b67565b11156111d75760405162461bcd60e51b815260206004820152601f60248201527f45746865722076616c75652073656e74206973206e6f7420636f72726563740060448201526064016107e1565b60005b81811015610a70576111ea611b0c565b806111f481612c04565b9150506111da565b6001600160a01b0382163314156112555760405162461bcd60e51b815260206004820152601960248201527f4552433732313a20617070726f766520746f2063616c6c65720000000000000060448201526064016107e1565b336000818152606a602090815260408083206001600160a01b03871680855290835292819020805460ff191686151590811790915590519081529192917f17307eab39ab6107e8899845ad3d59bd9653f200f220920489ca2b5937696c31910160405180910390a35050565b6112cb338361168a565b6112e75760405162461bcd60e51b81526004016107e190612aa5565b6112f384848484611b30565b50505050565b6000818152606760205260409020546060906001600160a01b03166113785760405162461bcd60e51b815260206004820152602f60248201527f4552433732314d657461646174613a2055524920717565727920666f72206e6f60448201526e3732bc34b9ba32b73a103a37b5b2b760891b60648201526084016107e1565b6000611382611b63565b905060008151116113a257604051806020016040528060008152506113cd565b806113ac84611b72565b6040516020016113bd929190612942565b6040516020818303038152906040525b9392505050565b6097546001600160a01b031633146113fe5760405162461bcd60e51b81526004016107e190612a70565b600060cf5460ce546114109190612b86565b9050600081601e106114225781611425565b601e5b9050600061143260d05490565b60cc549091506114428383612b3b565b111561149a5760405162461bcd60e51b815260206004820152602160248201527f526573657276696e6720776f756c6420657863656564206d617820737570706c6044820152607960f81b60648201526084016107e1565b60005b828110156114bf576114ad611b0c565b806114b781612c04565b91505061149d565b5060006114cb60d05490565b90506114d78282612b86565b60cf60008282546114e89190612b3b565b909155505050505050565b6097546001600160a01b0316331461151d5760405162461bcd60e51b81526004016107e190612a70565b6001600160a01b0381166115825760405162461bcd60e51b815260206004820152602660248201527f4f776e61626c653a206e6577206f776e657220697320746865207a65726f206160448201526564647265737360d01b60648201526084016107e1565b6097546040516001600160a01b038084169216907f8be0079c531659141344cd1fd0a4f28419497f9722a3daafe3b4186f6b6457e090600090a3609780546001600160a01b0319166001600160a01b0392909216919091179055565b6097546001600160a01b031633146116085760405162461bcd60e51b81526004016107e190612a70565b60d1805460ff19811660ff90911615179055565b600081815260696020526040902080546001600160a01b0319166001600160a01b038416908117909155819061165182610bab565b6001600160a01b03167f8c5be1e5ebec7d5bd14f71427d1e84f3dd0314c0f7b2291e5b200ac8c7c3b92560405160405180910390a45050565b6000818152606760205260408120546001600160a01b03166117035760405162461bcd60e51b815260206004820152602c60248201527f4552433732313a206f70657261746f7220717565727920666f72206e6f6e657860448201526b34b9ba32b73a103a37b5b2b760a11b60648201526084016107e1565b600061170e83610bab565b9050806001600160a01b0316846001600160a01b031614806117495750836001600160a01b031661173e8461076c565b6001600160a01b0316145b8061177957506001600160a01b038082166000908152606a602090815260408083209388168352929052205460ff165b949350505050565b826001600160a01b031661179482610bab565b6001600160a01b0316146117fc5760405162461bcd60e51b815260206004820152602960248201527f4552433732313a207472616e73666572206f6620746f6b656e2074686174206960448201526839903737ba1037bbb760b91b60648201526084016107e1565b6001600160a01b03821661185e5760405162461bcd60e51b8152602060048201526024808201527f4552433732313a207472616e7366657220746f20746865207a65726f206164646044820152637265737360e01b60648201526084016107e1565b61186960008261161c565b6001600160a01b0383166000908152606860205260408120805460019290611892908490612b86565b90915550506001600160a01b03821660009081526068602052604081208054600192906118c0908490612b3b565b909155505060008181526067602052604080822080546001600160a01b0319166001600160a01b0386811691821790925591518493918716917fddf252ad1be2c89b69c2b068fc378daa952ba7f163c4a11628f55a4df523b3ef91a4505050565b600054610100900460ff168061193a575060005460ff16155b6119565760405162461bcd60e51b81526004016107e190612a22565b600054610100900460ff16158015611978576000805461ffff19166101011790555b611980611c8c565b611988611c8c565b6119928383611cf7565b8015610917576000805461ff0019169055505050565b600054610100900460ff16806119c1575060005460ff16155b6119dd5760405162461bcd60e51b81526004016107e190612a22565b600054610100900460ff161580156119ff576000805461ffff19166101011790555b609780546001600160a01b0319163390811790915560405181906000907f8be0079c531659141344cd1fd0a4f28419497f9722a3daafe3b4186f6b6457e0908290a3508015611a54576000805461ff00191690555b50565b6000611a6284611d8c565b611779611abc856040517f19457468657265756d205369676e6564204d6573736167653a0a3332000000006020820152603c8101829052600090605c01604051602081830303815290604052805190602001209050919050565b84848080601f0160208091040260200160405190810160405280939291908181526020018383808284376000920191909152505060d1546001600160a01b03610100909104169392915050611dd1565b60cc5460d0541015611b2e576000611b22611e9b565b9050611a543382611eb2565b565b611b3b848484611781565b611b4784848484611ecc565b6112f35760405162461bcd60e51b81526004016107e1906129d0565b606060cd80546106e990612bc9565b606081611b965750506040805180820190915260018152600360fc1b602082015290565b8160005b8115611bc05780611baa81612c04565b9150611bb99050600a83612b53565b9150611b9a565b60008167ffffffffffffffff811115611be957634e487b7160e01b600052604160045260246000fd5b6040519080825280601f01601f191660200182016040528015611c13576020820181803683370190505b5090505b841561177957611c28600183612b86565b9150611c35600a86612c1f565b611c40906030612b3b565b60f81b818381518110611c6357634e487b7160e01b600052603260045260246000fd5b60200101906001600160f81b031916908160001a905350611c85600a86612b53565b9450611c17565b600054610100900460ff1680611ca5575060005460ff16155b611cc15760405162461bcd60e51b81526004016107e190612a22565b600054610100900460ff16158015611ce3576000805461ffff19166101011790555b8015611a54576000805461ff001916905550565b600054610100900460ff1680611d10575060005460ff16155b611d2c5760405162461bcd60e51b81526004016107e190612a22565b600054610100900460ff16158015611d4e576000805461ffff19166101011790555b8251611d619060659060208601906123ce565b508151611d759060669060208501906123ce565b508015610917576000805461ff0019169055505050565b611a5481604051602401611da291815260200190565b60408051601f198184030181529190526020810180516001600160e01b03166327b7cf8560e01b179052611fd9565b6000833b15611e7657604051630b135d3f60e11b81526001600160a01b03851690631626ba7e90611e0890869086906004016129a4565b60206040518083038186803b158015611e2057600080fd5b505afa925050508015611e50575060408051601f3d908101601f19168201909252611e4d9181019061274a565b60015b611e5c575060006113cd565b6001600160e01b031916630b135d3f60e11b1490506113cd565b836001600160a01b0316611e8a8484611ffa565b6001600160a01b03161490506113cd565b6000611eab60d080546001019055565b5060d05490565b610a708282604051806020016040528060008152506120b0565b60006001600160a01b0384163b15611fce57604051630a85bd0160e11b81526001600160a01b0385169063150b7a0290611f10903390899088908890600401612971565b602060405180830381600087803b158015611f2a57600080fd5b505af1925050508015611f5a575060408051601f3d908101601f19168201909252611f579181019061274a565b60015b611fb4573d808015611f88576040519150601f19603f3d011682016040523d82523d6000602084013e611f8d565b606091505b508051611fac5760405162461bcd60e51b81526004016107e1906129d0565b805181602001fd5b6001600160e01b031916630a85bd0160e11b149050611779565b506001949350505050565b80516a636f6e736f6c652e6c6f67602083016000808483855afa5050505050565b6000806000808451604114156120245750505060208201516040830151606084015160001a61209a565b8451604014156120525750505060408201516020830151906001600160ff1b0381169060ff1c601b0161209a565b60405162461bcd60e51b815260206004820152601f60248201527f45434453413a20696e76616c6964207369676e6174757265206c656e6774680060448201526064016107e1565b6120a6868285856120e3565b9695505050505050565b6120ba838361228c565b6120c76000848484611ecc565b6109175760405162461bcd60e51b81526004016107e1906129d0565b60007f7fffffffffffffffffffffffffffffff5d576e7357a4501ddfe92f46681b20a08211156121605760405162461bcd60e51b815260206004820152602260248201527f45434453413a20696e76616c6964207369676e6174757265202773272076616c604482015261756560f01b60648201526084016107e1565b8360ff16601b148061217557508360ff16601c145b6121cc5760405162461bcd60e51b815260206004820152602260248201527f45434453413a20696e76616c6964207369676e6174757265202776272076616c604482015261756560f01b60648201526084016107e1565b6040805160008082526020820180845288905260ff871692820192909252606081018590526080810184905260019060a0016020604051602081039080840390855afa158015612220573d6000803e3d6000fd5b5050604051601f1901519150506001600160a01b0381166122835760405162461bcd60e51b815260206004820152601860248201527f45434453413a20696e76616c6964207369676e6174757265000000000000000060448201526064016107e1565b95945050505050565b6001600160a01b0382166122e25760405162461bcd60e51b815260206004820181905260248201527f4552433732313a206d696e7420746f20746865207a65726f206164647265737360448201526064016107e1565b6000818152606760205260409020546001600160a01b0316156123475760405162461bcd60e51b815260206004820152601c60248201527f4552433732313a20746f6b656e20616c7265616479206d696e7465640000000060448201526064016107e1565b6001600160a01b0382166000908152606860205260408120805460019290612370908490612b3b565b909155505060008181526067602052604080822080546001600160a01b0319166001600160a01b03861690811790915590518392907fddf252ad1be2c89b69c2b068fc378daa952ba7f163c4a11628f55a4df523b3ef908290a45050565b8280546123da90612bc9565b90600052602060002090601f0160209004810192826123fc5760008555612442565b82601f1061241557805160ff1916838001178555612442565b82800160010185558215612442579182015b82811115612442578251825591602001919060010190612427565b5061244e929150612452565b5090565b5b8082111561244e5760008155600101612453565b600067ffffffffffffffff8084111561248257612482612c5f565b604051601f8501601f19908116603f011681019082821181831017156124aa576124aa612c5f565b816040528093508581528686860111156124c357600080fd5b858560208301376000602087830101525050509392505050565b80356001600160a01b03811681146124f457600080fd5b919050565b60008083601f84011261250a578081fd5b50813567ffffffffffffffff811115612521578182fd5b6020830191508360208260051b850101111561253c57600080fd5b9250929050565b600082601f830112612553578081fd5b6113cd83833560208501612467565b600060208284031215612573578081fd5b6113cd826124dd565b6000806040838503121561258e578081fd5b612597836124dd565b91506125a5602084016124dd565b90509250929050565b6000806000606084860312156125c2578081fd5b6125cb846124dd565b92506125d9602085016124dd565b9150604084013590509250925092565b600080600080608085870312156125fe578081fd5b612607856124dd565b9350612615602086016124dd565b925060408501359150606085013567ffffffffffffffff811115612637578182fd5b8501601f81018713612647578182fd5b61265687823560208401612467565b91505092959194509250565b60008060408385031215612674578182fd5b61267d836124dd565b915060208301358015158114612691578182fd5b809150509250929050565b600080604083850312156126ae578182fd5b6126b7836124dd565b946020939093013593505050565b600080600080604085870312156126da578384fd5b843567ffffffffffffffff808211156126f1578586fd5b6126fd888389016124f9565b90965094506020870135915080821115612715578384fd5b50612722878288016124f9565b95989497509550505050565b60006020828403121561273f578081fd5b81356113cd81612c75565b60006020828403121561275b578081fd5b81516113cd81612c75565b600060208284031215612777578081fd5b813567ffffffffffffffff81111561278d578182fd5b61177984828501612543565b6000806000806000806000806000806101408b8d0312156127b8578586fd5b8a3567ffffffffffffffff808211156127cf578788fd5b6127db8e838f01612543565b9b5060208d01359150808211156127f0578788fd5b6127fc8e838f01612543565b9a5060408d0135915080821115612811578788fd5b5061281e8d828e01612543565b98505060608b0135965060808b0135955060a08b0135945060c08b0135935060e08b013592506128516101008c016124dd565b91506128606101208c016124dd565b90509295989b9194979a5092959850565b600080600080600080600080610100898b03121561288d578182fd5b883567ffffffffffffffff8111156128a3578283fd5b6128af8b828c01612543565b9850506020890135965060408901359550606089013594506080890135935060a089013592506128e160c08a016124dd565b91506128ef60e08a016124dd565b90509295985092959890939650565b60006020828403121561290f578081fd5b5035919050565b6000815180845261292e816020860160208601612b9d565b601f01601f19169290920160200192915050565b60008351612954818460208801612b9d565b835190830190612968818360208801612b9d565b01949350505050565b6001600160a01b03858116825284166020820152604081018390526080606082018190526000906120a690830184612916565b8281526040602082015260006117796040830184612916565b6020815260006113cd6020830184612916565b60208082526032908201527f4552433732313a207472616e7366657220746f206e6f6e20455243373231526560408201527131b2b4bb32b91034b6b83632b6b2b73a32b960711b606082015260800190565b6020808252602e908201527f496e697469616c697a61626c653a20636f6e747261637420697320616c72656160408201526d191e481a5b9a5d1a585b1a5e995960921b606082015260800190565b6020808252818101527f4f776e61626c653a2063616c6c6572206973206e6f7420746865206f776e6572604082015260600190565b60208082526031908201527f4552433732313a207472616e736665722063616c6c6572206973206e6f74206f6040820152701ddb995c881b9bdc88185c1c1c9bdd9959607a1b606082015260800190565b6000808335601e19843603018112612b0c578283fd5b83018035915067ffffffffffffffff821115612b26578283fd5b60200191503681900382131561253c57600080fd5b60008219821115612b4e57612b4e612c33565b500190565b600082612b6257612b62612c49565b500490565b6000816000190483118215151615612b8157612b81612c33565b500290565b600082821015612b9857612b98612c33565b500390565b60005b83811015612bb8578181015183820152602001612ba0565b838111156112f35750506000910152565b600181811c90821680612bdd57607f821691505b60208210811415612bfe57634e487b7160e01b600052602260045260246000fd5b50919050565b6000600019821415612c1857612c18612c33565b5060010190565b600082612c2e57612c2e612c49565b500690565b634e487b7160e01b600052601160045260246000fd5b634e487b7160e01b600052601260045260246000fd5b634e487b7160e01b600052604160045260246000fd5b6001600160e01b031981168114611a5457600080fdfea264697066735822122062ca27285425cbd5423a9a31c439ea689a81a5fd6b7b7316fed7f6f6188068e064736f6c63430008040033",
  "devdoc": {
    "kind": "dev",
    "methods": {
      "approve(address,uint256)": {
        "details": "See {IERC721-approve}."
      },
      "balanceOf(address)": {
        "details": "See {IERC721-balanceOf}."
      },
      "getApproved(uint256)": {
        "details": "See {IERC721-getApproved}."
      },
      "isApprovedForAll(address,address)": {
        "details": "See {IERC721-isApprovedForAll}."
      },
      "mint(uint256)": {
        "details": "mint multiple"
      },
      "name()": {
        "details": "See {IERC721Metadata-name}."
      },
      "owner()": {
        "details": "Returns the address of the current owner."
      },
      "ownerOf(uint256)": {
        "details": "See {IERC721-ownerOf}."
      },
      "renounceOwnership()": {
        "details": "Leaves the contract without owner. It will not be possible to call `onlyOwner` functions anymore. Can only be called by the current owner. NOTE: Renouncing ownership will leave the contract without an owner, thereby removing any functionality that is only available to the owner."
      },
      "reserve()": {
        "details": "reserve some NFTs aside"
      },
      "safeTransferFrom(address,address,uint256)": {
        "details": "See {IERC721-safeTransferFrom}."
      },
      "safeTransferFrom(address,address,uint256,bytes)": {
        "details": "See {IERC721-safeTransferFrom}."
      },
      "setApprovalForAll(address,bool)": {
        "details": "See {IERC721-setApprovalForAll}."
      },
      "setBaseURI(string)": {
        "details": "set base URI"
      },
      "supportsInterface(bytes4)": {
        "details": "See {IERC165-supportsInterface}."
      },
      "symbol()": {
        "details": "See {IERC721Metadata-symbol}."
      },
      "tokenURI(uint256)": {
        "details": "See {IERC721Metadata-tokenURI}."
      },
      "transferFrom(address,address,uint256)": {
        "details": "See {IERC721-transferFrom}."
      },
      "transferOwnership(address)": {
        "details": "Transfers ownership of the contract to a new account (`newOwner`). Can only be called by the current owner."
      },
      "whitelistMint(uint256[],bytes[])": {
        "details": "whiltelist claim"
      },
      "withdraw()": {
        "details": "withdraw eth paid in mint and presale"
      }
    },
    "version": 1
  },
  "userdoc": {
    "kind": "user",
    "methods": {},
    "version": 1
  },
  "storageLayout": {
    "storage": [
      {
        "astId": 196,
        "contract": "contracts/CybertinoLaunch/LaunchNFTV0.sol:LaunchNFTV0",
        "label": "_initialized",
        "offset": 0,
        "slot": "0",
        "type": "t_bool"
      },
      {
        "astId": 199,
        "contract": "contracts/CybertinoLaunch/LaunchNFTV0.sol:LaunchNFTV0",
        "label": "_initializing",
        "offset": 1,
        "slot": "0",
        "type": "t_bool"
      },
      {
        "astId": 2771,
        "contract": "contracts/CybertinoLaunch/LaunchNFTV0.sol:LaunchNFTV0",
        "label": "__gap",
        "offset": 0,
        "slot": "1",
        "type": "t_array(t_uint256)50_storage"
      },
      {
        "astId": 3284,
        "contract": "contracts/CybertinoLaunch/LaunchNFTV0.sol:LaunchNFTV0",
        "label": "__gap",
        "offset": 0,
        "slot": "51",
        "type": "t_array(t_uint256)50_storage"
      },
      {
        "astId": 1503,
        "contract": "contracts/CybertinoLaunch/LaunchNFTV0.sol:LaunchNFTV0",
        "label": "_name",
        "offset": 0,
        "slot": "101",
        "type": "t_string_storage"
      },
      {
        "astId": 1505,
        "contract": "contracts/CybertinoLaunch/LaunchNFTV0.sol:LaunchNFTV0",
        "label": "_symbol",
        "offset": 0,
        "slot": "102",
        "type": "t_string_storage"
      },
      {
        "astId": 1509,
        "contract": "contracts/CybertinoLaunch/LaunchNFTV0.sol:LaunchNFTV0",
        "label": "_owners",
        "offset": 0,
        "slot": "103",
        "type": "t_mapping(t_uint256,t_address)"
      },
      {
        "astId": 1513,
        "contract": "contracts/CybertinoLaunch/LaunchNFTV0.sol:LaunchNFTV0",
        "label": "_balances",
        "offset": 0,
        "slot": "104",
        "type": "t_mapping(t_address,t_uint256)"
      },
      {
        "astId": 1517,
        "contract": "contracts/CybertinoLaunch/LaunchNFTV0.sol:LaunchNFTV0",
        "label": "_tokenApprovals",
        "offset": 0,
        "slot": "105",
        "type": "t_mapping(t_uint256,t_address)"
      },
      {
        "astId": 1523,
        "contract": "contracts/CybertinoLaunch/LaunchNFTV0.sol:LaunchNFTV0",
        "label": "_operatorApprovals",
        "offset": 0,
        "slot": "106",
        "type": "t_mapping(t_address,t_mapping(t_address,t_bool))"
      },
      {
        "astId": 2321,
        "contract": "contracts/CybertinoLaunch/LaunchNFTV0.sol:LaunchNFTV0",
        "label": "__gap",
        "offset": 0,
        "slot": "107",
        "type": "t_array(t_uint256)44_storage"
      },
      {
        "astId": 56,
        "contract": "contracts/CybertinoLaunch/LaunchNFTV0.sol:LaunchNFTV0",
        "label": "_owner",
        "offset": 0,
        "slot": "151",
        "type": "t_address"
      },
      {
        "astId": 175,
        "contract": "contracts/CybertinoLaunch/LaunchNFTV0.sol:LaunchNFTV0",
        "label": "__gap",
        "offset": 0,
        "slot": "152",
        "type": "t_array(t_uint256)49_storage"
      },
      {
        "astId": 5596,
        "contract": "contracts/CybertinoLaunch/LaunchNFTV0.sol:LaunchNFTV0",
        "label": "price",
        "offset": 0,
        "slot": "201",
        "type": "t_uint256"
      },
      {
        "astId": 5599,
        "contract": "contracts/CybertinoLaunch/LaunchNFTV0.sol:LaunchNFTV0",
        "label": "whitelistPrice",
        "offset": 0,
        "slot": "202",
        "type": "t_uint256"
      },
      {
        "astId": 5601,
        "contract": "contracts/CybertinoLaunch/LaunchNFTV0.sol:LaunchNFTV0",
        "label": "maxPurchaseNum",
        "offset": 0,
        "slot": "203",
        "type": "t_uint256"
      },
      {
        "astId": 5604,
        "contract": "contracts/CybertinoLaunch/LaunchNFTV0.sol:LaunchNFTV0",
        "label": "maxSupply",
        "offset": 0,
        "slot": "204",
        "type": "t_uint256"
      },
      {
        "astId": 5607,
        "contract": "contracts/CybertinoLaunch/LaunchNFTV0.sol:LaunchNFTV0",
        "label": "baseURI",
        "offset": 0,
        "slot": "205",
        "type": "t_string_storage"
      },
      {
        "astId": 5610,
        "contract": "contracts/CybertinoLaunch/LaunchNFTV0.sol:LaunchNFTV0",
        "label": "reserveNum",
        "offset": 0,
        "slot": "206",
        "type": "t_uint256"
      },
      {
        "astId": 5613,
        "contract": "contracts/CybertinoLaunch/LaunchNFTV0.sol:LaunchNFTV0",
        "label": "mintedReserveNum",
        "offset": 0,
        "slot": "207",
        "type": "t_uint256"
      },
      {
        "astId": 5617,
        "contract": "contracts/CybertinoLaunch/LaunchNFTV0.sol:LaunchNFTV0",
        "label": "id",
        "offset": 0,
        "slot": "208",
        "type": "t_struct(Counter)2778_storage"
      },
      {
        "astId": 5621,
        "contract": "contracts/CybertinoLaunch/LaunchNFTV0.sol:LaunchNFTV0",
        "label": "isMintingActive",
        "offset": 0,
        "slot": "209",
        "type": "t_bool"
      },
      {
        "astId": 5624,
        "contract": "contracts/CybertinoLaunch/LaunchNFTV0.sol:LaunchNFTV0",
        "label": "whitelistSigner",
        "offset": 1,
        "slot": "209",
        "type": "t_address"
      },
      {
        "astId": 5629,
        "contract": "contracts/CybertinoLaunch/LaunchNFTV0.sol:LaunchNFTV0",
        "label": "hasMinted",
        "offset": 0,
        "slot": "210",
        "type": "t_mapping(t_uint256,t_bool)"
      }
    ],
    "types": {
      "t_address": {
        "encoding": "inplace",
        "label": "address",
        "numberOfBytes": "20"
      },
      "t_array(t_uint256)44_storage": {
        "base": "t_uint256",
        "encoding": "inplace",
        "label": "uint256[44]",
        "numberOfBytes": "1408"
      },
      "t_array(t_uint256)49_storage": {
        "base": "t_uint256",
        "encoding": "inplace",
        "label": "uint256[49]",
        "numberOfBytes": "1568"
      },
      "t_array(t_uint256)50_storage": {
        "base": "t_uint256",
        "encoding": "inplace",
        "label": "uint256[50]",
        "numberOfBytes": "1600"
      },
      "t_bool": {
        "encoding": "inplace",
        "label": "bool",
        "numberOfBytes": "1"
      },
      "t_mapping(t_address,t_bool)": {
        "encoding": "mapping",
        "key": "t_address",
        "label": "mapping(address => bool)",
        "numberOfBytes": "32",
        "value": "t_bool"
      },
      "t_mapping(t_address,t_mapping(t_address,t_bool))": {
        "encoding": "mapping",
        "key": "t_address",
        "label": "mapping(address => mapping(address => bool))",
        "numberOfBytes": "32",
        "value": "t_mapping(t_address,t_bool)"
      },
      "t_mapping(t_address,t_uint256)": {
        "encoding": "mapping",
        "key": "t_address",
        "label": "mapping(address => uint256)",
        "numberOfBytes": "32",
        "value": "t_uint256"
      },
      "t_mapping(t_uint256,t_address)": {
        "encoding": "mapping",
        "key": "t_uint256",
        "label": "mapping(uint256 => address)",
        "numberOfBytes": "32",
        "value": "t_address"
      },
      "t_mapping(t_uint256,t_bool)": {
        "encoding": "mapping",
        "key": "t_uint256",
        "label": "mapping(uint256 => bool)",
        "numberOfBytes": "32",
        "value": "t_bool"
      },
      "t_string_storage": {
        "encoding": "bytes",
        "label": "string",
        "numberOfBytes": "32"
      },
      "t_struct(Counter)2778_storage": {
        "encoding": "inplace",
        "label": "struct CountersUpgradeable.Counter",
        "members": [
          {
            "astId": 2777,
            "contract": "contracts/CybertinoLaunch/LaunchNFTV0.sol:LaunchNFTV0",
            "label": "_value",
            "offset": 0,
            "slot": "0",
            "type": "t_uint256"
          }
        ],
        "numberOfBytes": "32"
      },
      "t_uint256": {
        "encoding": "inplace",
        "label": "uint256",
        "numberOfBytes": "32"
      }
    }
  }
}