{
  "address": "0x758B5C8F54AFc80BB811623B031E7Bd9066e44ff",
  "abi": [
    {
      "anonymous": false,
      "inputs": [
        {
          "indexed": true,
          "internalType": "address",
          "name": "owner",
          "type": "address"
        },
        {
          "indexed": true,
          "internalType": "address",
          "name": "approved",
          "type": "address"
        },
        {
          "indexed": true,
          "internalType": "uint256",
          "name": "tokenId",
          "type": "uint256"
        }
      ],
      "name": "Approval",
      "type": "event"
    },
    {
      "anonymous": false,
      "inputs": [
        {
          "indexed": true,
          "internalType": "address",
          "name": "owner",
          "type": "address"
        },
        {
          "indexed": true,
          "internalType": "address",
          "name": "operator",
          "type": "address"
        },
        {
          "indexed": false,
          "internalType": "bool",
          "name": "approved",
          "type": "bool"
        }
      ],
      "name": "ApprovalForAll",
      "type": "event"
    },
    {
      "anonymous": false,
      "inputs": [
        {
          "indexed": true,
          "internalType": "address",
          "name": "previousOwner",
          "type": "address"
        },
        {
          "indexed": true,
          "internalType": "address",
          "name": "newOwner",
          "type": "address"
        }
      ],
      "name": "OwnershipTransferred",
      "type": "event"
    },
    {
      "anonymous": false,
      "inputs": [
        {
          "indexed": true,
          "internalType": "address",
          "name": "from",
          "type": "address"
        },
        {
          "indexed": true,
          "internalType": "address",
          "name": "to",
          "type": "address"
        },
        {
          "indexed": true,
          "internalType": "uint256",
          "name": "tokenId",
          "type": "uint256"
        }
      ],
      "name": "Transfer",
      "type": "event"
    },
    {
      "inputs": [
        {
          "internalType": "string",
          "name": "_name",
          "type": "string"
        },
        {
          "internalType": "string",
          "name": "_symbol",
          "type": "string"
        },
        {
          "internalType": "address",
          "name": "_oracle",
          "type": "address"
        },
        {
          "internalType": "address",
          "name": "_owner",
          "type": "address"
        },
        {
          "internalType": "uint256",
          "name": "_updateInterval",
          "type": "uint256"
        },
        {
          "internalType": "int256",
          "name": "_threshold",
          "type": "int256"
        },
        {
          "internalType": "uint32",
          "name": "_stateCount",
          "type": "uint32"
        }
      ],
      "name": "CMCLayer_init",
      "outputs": [],
      "stateMutability": "nonpayable",
      "type": "function"
    },
    {
      "inputs": [
        {
          "internalType": "address",
          "name": "to",
          "type": "address"
        },
        {
          "internalType": "uint256",
          "name": "tokenId",
          "type": "uint256"
        }
      ],
      "name": "approve",
      "outputs": [],
      "stateMutability": "nonpayable",
      "type": "function"
    },
    {
      "inputs": [
        {
          "internalType": "address",
          "name": "owner",
          "type": "address"
        }
      ],
      "name": "balanceOf",
      "outputs": [
        {
          "internalType": "uint256",
          "name": "",
          "type": "uint256"
        }
      ],
      "stateMutability": "view",
      "type": "function"
    },
    {
      "inputs": [
        {
          "internalType": "address",
          "name": "_to",
          "type": "address"
        },
        {
          "internalType": "string[]",
          "name": "_cids",
          "type": "string[]"
        },
        {
          "internalType": "uint32",
          "name": "_currentState",
          "type": "uint32"
        },
        {
          "internalType": "bytes",
          "name": "_data",
          "type": "bytes"
        }
      ],
      "name": "create",
      "outputs": [],
      "stateMutability": "nonpayable",
      "type": "function"
    },
    {
      "inputs": [
        {
          "internalType": "uint256",
          "name": "tokenId",
          "type": "uint256"
        }
      ],
      "name": "getApproved",
      "outputs": [
        {
          "internalType": "address",
          "name": "",
          "type": "address"
        }
      ],
      "stateMutability": "view",
      "type": "function"
    },
    {
      "inputs": [
        {
          "internalType": "uint256",
          "name": "id",
          "type": "uint256"
        }
      ],
      "name": "getLayer",
      "outputs": [
        {
          "internalType": "uint32",
          "name": "stateCount",
          "type": "uint32"
        },
        {
          "internalType": "uint32",
          "name": "currentState",
          "type": "uint32"
        }
      ],
      "stateMutability": "view",
      "type": "function"
    },
    {
      "inputs": [],
      "name": "id",
      "outputs": [
        {
          "internalType": "uint256",
          "name": "_value",
          "type": "uint256"
        }
      ],
      "stateMutability": "view",
      "type": "function"
    },
    {
      "inputs": [
        {
          "internalType": "address",
          "name": "owner",
          "type": "address"
        },
        {
          "internalType": "address",
          "name": "operator",
          "type": "address"
        }
      ],
      "name": "isApprovedForAll",
      "outputs": [
        {
          "internalType": "bool",
          "name": "",
          "type": "bool"
        }
      ],
      "stateMutability": "view",
      "type": "function"
    },
    {
      "inputs": [],
      "name": "lastPrice",
      "outputs": [
        {
          "internalType": "int256",
          "name": "",
          "type": "int256"
        }
      ],
      "stateMutability": "view",
      "type": "function"
    },
    {
      "inputs": [],
      "name": "lastUpdatedAt",
      "outputs": [
        {
          "internalType": "uint256",
          "name": "",
          "type": "uint256"
        }
      ],
      "stateMutability": "view",
      "type": "function"
    },
    {
      "inputs": [],
      "name": "name",
      "outputs": [
        {
          "internalType": "string",
          "name": "",
          "type": "string"
        }
      ],
      "stateMutability": "view",
      "type": "function"
    },
    {
      "inputs": [],
      "name": "owner",
      "outputs": [
        {
          "internalType": "address",
          "name": "",
          "type": "address"
        }
      ],
      "stateMutability": "view",
      "type": "function"
    },
    {
      "inputs": [
        {
          "internalType": "uint256",
          "name": "tokenId",
          "type": "uint256"
        }
      ],
      "name": "ownerOf",
      "outputs": [
        {
          "internalType": "address",
          "name": "",
          "type": "address"
        }
      ],
      "stateMutability": "view",
      "type": "function"
    },
    {
      "inputs": [],
      "name": "renounceOwnership",
      "outputs": [],
      "stateMutability": "nonpayable",
      "type": "function"
    },
    {
      "inputs": [
        {
          "internalType": "address",
          "name": "from",
          "type": "address"
        },
        {
          "internalType": "address",
          "name": "to",
          "type": "address"
        },
        {
          "internalType": "uint256",
          "name": "tokenId",
          "type": "uint256"
        }
      ],
      "name": "safeTransferFrom",
      "outputs": [],
      "stateMutability": "nonpayable",
      "type": "function"
    },
    {
      "inputs": [
        {
          "internalType": "address",
          "name": "from",
          "type": "address"
        },
        {
          "internalType": "address",
          "name": "to",
          "type": "address"
        },
        {
          "internalType": "uint256",
          "name": "tokenId",
          "type": "uint256"
        },
        {
          "internalType": "bytes",
          "name": "_data",
          "type": "bytes"
        }
      ],
      "name": "safeTransferFrom",
      "outputs": [],
      "stateMutability": "nonpayable",
      "type": "function"
    },
    {
      "inputs": [
        {
          "internalType": "address",
          "name": "operator",
          "type": "address"
        },
        {
          "internalType": "bool",
          "name": "approved",
          "type": "bool"
        }
      ],
      "name": "setApprovalForAll",
      "outputs": [],
      "stateMutability": "nonpayable",
      "type": "function"
    },
    {
      "inputs": [
        {
          "internalType": "bytes4",
          "name": "interfaceId",
          "type": "bytes4"
        }
      ],
      "name": "supportsInterface",
      "outputs": [
        {
          "internalType": "bool",
          "name": "",
          "type": "bool"
        }
      ],
      "stateMutability": "view",
      "type": "function"
    },
    {
      "inputs": [],
      "name": "symbol",
      "outputs": [
        {
          "internalType": "string",
          "name": "",
          "type": "string"
        }
      ],
      "stateMutability": "view",
      "type": "function"
    },
    {
      "inputs": [],
      "name": "threshold",
      "outputs": [
        {
          "internalType": "int256",
          "name": "",
          "type": "int256"
        }
      ],
      "stateMutability": "view",
      "type": "function"
    },
    {
      "inputs": [
        {
          "internalType": "uint256",
          "name": "tokenId",
          "type": "uint256"
        }
      ],
      "name": "tokenURI",
      "outputs": [
        {
          "internalType": "string",
          "name": "",
          "type": "string"
        }
      ],
      "stateMutability": "view",
      "type": "function"
    },
    {
      "inputs": [
        {
          "internalType": "address",
          "name": "from",
          "type": "address"
        },
        {
          "internalType": "address",
          "name": "to",
          "type": "address"
        },
        {
          "internalType": "uint256",
          "name": "tokenId",
          "type": "uint256"
        }
      ],
      "name": "transferFrom",
      "outputs": [],
      "stateMutability": "nonpayable",
      "type": "function"
    },
    {
      "inputs": [
        {
          "internalType": "address",
          "name": "newOwner",
          "type": "address"
        }
      ],
      "name": "transferOwnership",
      "outputs": [],
      "stateMutability": "nonpayable",
      "type": "function"
    },
    {
      "inputs": [],
      "name": "updateAll",
      "outputs": [],
      "stateMutability": "nonpayable",
      "type": "function"
    },
    {
      "inputs": [],
      "name": "updateInterval",
      "outputs": [
        {
          "internalType": "uint256",
          "name": "",
          "type": "uint256"
        }
      ],
      "stateMutability": "view",
      "type": "function"
    },
    {
      "inputs": [
        {
          "internalType": "uint256",
          "name": "_id",
          "type": "uint256"
        },
        {
          "internalType": "uint256",
          "name": "_index",
          "type": "uint256"
        }
      ],
      "name": "verifyCid",
      "outputs": [
        {
          "internalType": "string",
          "name": "",
          "type": "string"
        }
      ],
      "stateMutability": "view",
      "type": "function"
    }
  ],
  "transactionHash": "0xfaaa241545a31d7815c0b9a4c10ea85e9803e863d9c00cb090afd6d6f2f2e3c6",
  "args": [],
  "solcInputHash": "0a2f01d0f1dcd6bd8b8a35fc2f9dcbf1",
  "bytecode": "0x608060405234801561001057600080fd5b5061262a806100206000396000f3fe608060405234801561001057600080fd5b506004361061018e5760003560e01c806370a08231116100de578063b88d4fde11610097578063f2fde38b11610071578063f2fde38b14610353578063f781e3ae14610366578063f78db1e6146103ab578063fd2c80ae146103be57600080fd5b8063b88d4fde146102f1578063c87b56dd14610304578063e985e9c51461031757600080fd5b806370a08231146102a0578063715018a6146102b35780638da5cb5b146102bb57806395d89b41146102cc578063a22cb465146102d4578063af640d0f146102e757600080fd5b806323b872dd1161014b57806353d786931161012557806353d786931461026957806354aea127146102715780636352211e1461027a5780636ccf77d31461028d57600080fd5b806323b872dd1461023a57806342842e0e1461024d57806342cde4e81461026057600080fd5b806301ffc9a714610193578063053f14da146101bb57806306fdde03146101d2578063081812fc146101e7578063095ea7b3146102125780632196277514610227575b600080fd5b6101a66101a1366004611fc8565b6103c7565b60405190151581526020015b60405180910390f35b6101c460cd5481565b6040519081526020016101b2565b6101da6103f2565b6040516101b291906121c6565b6101fa6101f53660046120a6565b610484565b6040516001600160a01b0390911681526020016101b2565b610225610220366004611f9f565b61051e565b005b610225610235366004611eab565b610634565b610225610248366004611df7565b6107b2565b61022561025b366004611df7565b6107e3565b6101c460cf5481565b6102256107fe565b6101c460cc5481565b6101fa6102883660046120a6565b6109ae565b6101da61029b3660046120be565b610a25565b6101c46102ae366004611dab565b610b46565b610225610bcd565b6033546001600160a01b03166101fa565b6101da610c41565b6102256102e2366004611f65565b610c50565b60c9546101c49081565b6102256102ff366004611e32565b610d15565b6101da6103123660046120a6565b610d4d565b6101a6610325366004611dc5565b6001600160a01b039182166000908152609c6020908152604080832093909416825291909152205460ff1690565b610225610361366004611dab565b610e35565b61038e6103743660046120a6565b5060d05463ffffffff808216926401000000009092041690565b6040805163ffffffff9384168152929091166020830152016101b2565b6102256103b9366004612000565b610f20565b6101c460ce5481565b60006001600160e01b03198216637bc0f1d760e11b14806103ec57506103ec82610ff8565b92915050565b60606097805461040190612518565b80601f016020809104026020016040519081016040528092919081815260200182805461042d90612518565b801561047a5780601f1061044f5761010080835404028352916020019161047a565b820191906000526020600020905b81548152906001019060200180831161045d57829003601f168201915b5050505050905090565b6000818152609960205260408120546001600160a01b03166105025760405162461bcd60e51b815260206004820152602c60248201527f4552433732313a20617070726f76656420717565727920666f72206e6f6e657860448201526b34b9ba32b73a103a37b5b2b760a11b60648201526084015b60405180910390fd5b506000908152609b60205260409020546001600160a01b031690565b6000610529826109ae565b9050806001600160a01b0316836001600160a01b031614156105975760405162461bcd60e51b815260206004820152602160248201527f4552433732313a20617070726f76616c20746f2063757272656e74206f776e656044820152603960f91b60648201526084016104f9565b336001600160a01b03821614806105b357506105b38133610325565b6106255760405162461bcd60e51b815260206004820152603860248201527f4552433732313a20617070726f76652063616c6c6572206973206e6f74206f7760448201527f6e6572206e6f7220617070726f76656420666f7220616c6c000000000000000060648201526084016104f9565b61062f8383611048565b505050565b6033546001600160a01b0316331461065e5760405162461bcd60e51b81526004016104f990612279565b600384146106bd5760405162461bcd60e51b815260206004820152602660248201527f4572723a204d7573742070726f76696465203320436f6e74656e74204964656e6044820152653a34b334b2b960d11b60648201526084016104f9565b60d05463ffffffff908116908416106107185760405162461bcd60e51b815260206004820181905260248201527f4572723a2043757272656e74205374617465206d7573742062652076616c696460448201526064016104f9565b60006107226110b6565b9050604051806020016040528087879061073c9190612463565b9052600082815260ca6020908152604090912082518051919261076492849290910190611b5a565b509050506107a9878285858080601f0160208091040260200160405190810160405280939291908181526020018383808284376000920191909152506110cd92505050565b50505050505050565b6107bc3382611100565b6107d85760405162461bcd60e51b81526004016104f9906122ae565b61062f8383836111f7565b61062f83838360405180602001604052806000815250610d15565b600061080960c95490565b1161084e5760405162461bcd60e51b8152602060048201526015602482015274115c9c8e881b9bc81b185e595c8818dc99585d1959605a1b60448201526064016104f9565b600080610859611397565b9150915060cd54600014156108a95761088d604051806040016040528060048152602001636865726560e01b81525061142d565b60d0805467ffffffff000000001916905560cd9190915560cc55565b60ce5460cc546108b99190612330565b8110156109145760405162461bcd60e51b815260206004820152602360248201527f4572723a206d757374207570646174652061667465722073657420696e7465726044820152621d985b60ea1b60648201526084016104f9565b600061091f83611473565b60d05490915063ffffffff9081169082161061097d5760405162461bcd60e51b815260206004820181905260248201527f4572723a206e65772073746174652061626f766520737461746520636f756e7460448201526064016104f9565b60d0805463ffffffff9092166401000000000267ffffffff000000001990921691909117905560cd9190915560cc55565b6000818152609960205260408120546001600160a01b0316806103ec5760405162461bcd60e51b815260206004820152602960248201527f4552433732313a206f776e657220717565727920666f72206e6f6e657869737460448201526832b73a103a37b5b2b760b91b60648201526084016104f9565b600082815260ca60205260409020546060908390610a7c5760405162461bcd60e51b81526020600482015260146024820152731b185e595c881a5cc81b9bdd0818dc99585d195960621b60448201526064016104f9565b600084815260ca60205260409020805484908110610aaa57634e487b7160e01b600052603260045260246000fd5b906000526020600020018054610abf90612518565b80601f0160208091040260200160405190810160405280929190818152602001828054610aeb90612518565b8015610b385780601f10610b0d57610100808354040283529160200191610b38565b820191906000526020600020905b815481529060010190602001808311610b1b57829003601f168201915b505050505091505092915050565b60006001600160a01b038216610bb15760405162461bcd60e51b815260206004820152602a60248201527f4552433732313a2062616c616e636520717565727920666f7220746865207a65604482015269726f206164647265737360b01b60648201526084016104f9565b506001600160a01b03166000908152609a602052604090205490565b6033546001600160a01b03163314610bf75760405162461bcd60e51b81526004016104f990612279565b6033546040516000916001600160a01b0316907f8be0079c531659141344cd1fd0a4f28419497f9722a3daafe3b4186f6b6457e0908390a3603380546001600160a01b0319169055565b60606098805461040190612518565b6001600160a01b038216331415610ca95760405162461bcd60e51b815260206004820152601960248201527f4552433732313a20617070726f766520746f2063616c6c65720000000000000060448201526064016104f9565b336000818152609c602090815260408083206001600160a01b03871680855290835292819020805460ff191686151590811790915590519081529192917f17307eab39ab6107e8899845ad3d59bd9653f200f220920489ca2b5937696c31910160405180910390a35050565b610d1f3383611100565b610d3b5760405162461bcd60e51b81526004016104f9906122ae565b610d47848484846115aa565b50505050565b6000818152609960205260409020546060906001600160a01b0316610dcc5760405162461bcd60e51b815260206004820152602f60248201527f4552433732314d657461646174613a2055524920717565727920666f72206e6f60448201526e3732bc34b9ba32b73a103a37b5b2b760891b60648201526084016104f9565b6000610de360408051602081019091526000815290565b90506000815111610e035760405180602001604052806000815250610e2e565b80610e0d846115dd565b604051602001610e1e92919061215a565b6040516020818303038152906040525b9392505050565b6033546001600160a01b03163314610e5f5760405162461bcd60e51b81526004016104f990612279565b6001600160a01b038116610ec45760405162461bcd60e51b815260206004820152602660248201527f4f776e61626c653a206e6577206f776e657220697320746865207a65726f206160448201526564647265737360d01b60648201526084016104f9565b6033546040516001600160a01b038084169216907f8be0079c531659141344cd1fd0a4f28419497f9722a3daafe3b4186f6b6457e090600090a3603380546001600160a01b0319166001600160a01b0392909216919091179055565b600054610100900460ff1680610f39575060005460ff16155b610f555760405162461bcd60e51b81526004016104f99061222b565b600054610100900460ff16158015610f77576000805461ffff19166101011790555b610f7f6116f7565b610f876117a5565b610f8f6117a5565b610f998888611810565b60cb80546001600160a01b0319166001600160a01b03881617905560ce84905560d0805463ffffffff191663ffffffff841617905560cf839055610fdc85610e35565b8015610fee576000805461ff00191690555b5050505050505050565b60006001600160e01b031982166380ac58cd60e01b148061102957506001600160e01b03198216635b5e139f60e01b145b806103ec57506301ffc9a760e01b6001600160e01b03198316146103ec565b6000818152609b6020526040902080546001600160a01b0319166001600160a01b038416908117909155819061107d826109ae565b6001600160a01b03167f8c5be1e5ebec7d5bd14f71427d1e84f3dd0314c0f7b2291e5b200ac8c7c3b92560405160405180910390a45050565b60006110c660c980546001019055565b5060c95490565b6110d783836118a5565b6110e460008484846119e7565b61062f5760405162461bcd60e51b81526004016104f9906121d9565b6000818152609960205260408120546001600160a01b03166111795760405162461bcd60e51b815260206004820152602c60248201527f4552433732313a206f70657261746f7220717565727920666f72206e6f6e657860448201526b34b9ba32b73a103a37b5b2b760a11b60648201526084016104f9565b6000611184836109ae565b9050806001600160a01b0316846001600160a01b031614806111bf5750836001600160a01b03166111b484610484565b6001600160a01b0316145b806111ef57506001600160a01b038082166000908152609c602090815260408083209388168352929052205460ff165b949350505050565b826001600160a01b031661120a826109ae565b6001600160a01b0316146112725760405162461bcd60e51b815260206004820152602960248201527f4552433732313a207472616e73666572206f6620746f6b656e2074686174206960448201526839903737ba1037bbb760b91b60648201526084016104f9565b6001600160a01b0382166112d45760405162461bcd60e51b8152602060048201526024808201527f4552433732313a207472616e7366657220746f20746865207a65726f206164646044820152637265737360e01b60648201526084016104f9565b6112df600082611048565b6001600160a01b0383166000908152609a6020526040812080546001929061130890849061244c565b90915550506001600160a01b0382166000908152609a60205260408120805460019290611336908490612330565b909155505060008181526099602052604080822080546001600160a01b0319166001600160a01b0386811691821790925591518493918716917fddf252ad1be2c89b69c2b068fc378daa952ba7f163c4a11628f55a4df523b3ef91a4505050565b60008060cb60009054906101000a90046001600160a01b03166001600160a01b031663feaf968c6040518163ffffffff1660e01b815260040160a06040518083038186803b1580156113e857600080fd5b505afa1580156113fc573d6000803e3d6000fd5b505050506040513d601f19601f8201168201806040525081019061142091906120df565b5091959194509092505050565b6114708160405160240161144191906121c6565b60408051601f198184030181529190526020810180516001600160e01b031663104c13eb60e21b179052611af4565b50565b60008060cd5483611484919061240d565b9050600060cd5482612710611499919061238a565b6114a39190612348565b90506114d06040518060400160405280600a8152602001694c61737420707269636560b01b81525061142d565b6114db60cd54611b15565b6115066040518060400160405280600a81526020016970657263656e7461676560b01b81525061142d565b61150f81611b15565b600082131561155a5761154260405180604001604052806009815260200168064656c7461203e20360bc1b81525061142d565b60cf548112611555575060019392505050565b6115a0565b6115856040518060400160405280600a815260200169064656c7461203c3d20360b41b81525061142d565b60cf5461159182612582565b126115a0575060029392505050565b5060009392505050565b6115b58484846111f7565b6115c1848484846119e7565b610d475760405162461bcd60e51b81526004016104f9906121d9565b6060816116015750506040805180820190915260018152600360fc1b602082015290565b8160005b811561162b578061161581612553565b91506116249050600a83612376565b9150611605565b60008167ffffffffffffffff81111561165457634e487b7160e01b600052604160045260246000fd5b6040519080825280601f01601f19166020018201604052801561167e576020820181803683370190505b5090505b84156111ef5761169360018361244c565b91506116a0600a8661256e565b6116ab906030612330565b60f81b8183815181106116ce57634e487b7160e01b600052603260045260246000fd5b60200101906001600160f81b031916908160001a9053506116f0600a86612376565b9450611682565b600054610100900460ff1680611710575060005460ff16155b61172c5760405162461bcd60e51b81526004016104f99061222b565b600054610100900460ff1615801561174e576000805461ffff19166101011790555b603380546001600160a01b0319163390811790915560405181906000907f8be0079c531659141344cd1fd0a4f28419497f9722a3daafe3b4186f6b6457e0908290a3508015611470576000805461ff001916905550565b600054610100900460ff16806117be575060005460ff16155b6117da5760405162461bcd60e51b81526004016104f99061222b565b600054610100900460ff161580156117fc576000805461ffff19166101011790555b8015611470576000805461ff001916905550565b600054610100900460ff1680611829575060005460ff16155b6118455760405162461bcd60e51b81526004016104f99061222b565b600054610100900460ff16158015611867576000805461ffff19166101011790555b825161187a906097906020860190611bb7565b50815161188e906098906020850190611bb7565b50801561062f576000805461ff0019169055505050565b6001600160a01b0382166118fb5760405162461bcd60e51b815260206004820181905260248201527f4552433732313a206d696e7420746f20746865207a65726f206164647265737360448201526064016104f9565b6000818152609960205260409020546001600160a01b0316156119605760405162461bcd60e51b815260206004820152601c60248201527f4552433732313a20746f6b656e20616c7265616479206d696e7465640000000060448201526064016104f9565b6001600160a01b0382166000908152609a60205260408120805460019290611989908490612330565b909155505060008181526099602052604080822080546001600160a01b0319166001600160a01b03861690811790915590518392907fddf252ad1be2c89b69c2b068fc378daa952ba7f163c4a11628f55a4df523b3ef908290a45050565b60006001600160a01b0384163b15611ae957604051630a85bd0160e11b81526001600160a01b0385169063150b7a0290611a2b903390899088908890600401612189565b602060405180830381600087803b158015611a4557600080fd5b505af1925050508015611a75575060408051601f3d908101601f19168201909252611a7291810190611fe4565b60015b611acf573d808015611aa3576040519150601f19603f3d011682016040523d82523d6000602084013e611aa8565b606091505b508051611ac75760405162461bcd60e51b81526004016104f9906121d9565b805181602001fd5b6001600160e01b031916630a85bd0160e11b1490506111ef565b506001949350505050565b80516a636f6e736f6c652e6c6f67602083016000808483855afa5050505050565b61147081604051602401611b2b91815260200190565b60408051601f198184030181529190526020810180516001600160e01b0316634e0c1d1d60e01b179052611af4565b828054828255906000526020600020908101928215611ba7579160200282015b82811115611ba75782518051611b97918491602090910190611bb7565b5091602001919060010190611b7a565b50611bb3929150611c37565b5090565b828054611bc390612518565b90600052602060002090601f016020900481019282611be55760008555611c2b565b82601f10611bfe57805160ff1916838001178555611c2b565b82800160010185558215611c2b579182015b82811115611c2b578251825591602001919060010190611c10565b50611bb3929150611c54565b80821115611bb3576000611c4b8282611c69565b50600101611c37565b5b80821115611bb35760008155600101611c55565b508054611c7590612518565b6000825580601f10611c85575050565b601f0160209004906000526020600020908101906114709190611c54565b600067ffffffffffffffff831115611cbd57611cbd6125c8565b611cd0601f8401601f19166020016122ff565b9050828152838383011115611ce457600080fd5b828260208301376000602084830101529392505050565b80356001600160a01b0381168114611d1257600080fd5b919050565b60008083601f840112611d28578182fd5b50813567ffffffffffffffff811115611d3f578182fd5b602083019150836020828501011115611d5757600080fd5b9250929050565b600082601f830112611d6e578081fd5b610e2e83833560208501611ca3565b803563ffffffff81168114611d1257600080fd5b805169ffffffffffffffffffff81168114611d1257600080fd5b600060208284031215611dbc578081fd5b610e2e82611cfb565b60008060408385031215611dd7578081fd5b611de083611cfb565b9150611dee60208401611cfb565b90509250929050565b600080600060608486031215611e0b578081fd5b611e1484611cfb565b9250611e2260208501611cfb565b9150604084013590509250925092565b60008060008060808587031215611e47578081fd5b611e5085611cfb565b9350611e5e60208601611cfb565b925060408501359150606085013567ffffffffffffffff811115611e80578182fd5b8501601f81018713611e90578182fd5b611e9f87823560208401611ca3565b91505092959194509250565b60008060008060008060808789031215611ec3578182fd5b611ecc87611cfb565b9550602087013567ffffffffffffffff80821115611ee8578384fd5b818901915089601f830112611efb578384fd5b813581811115611f09578485fd5b8a60208260051b8501011115611f1d578485fd5b6020830197509550611f3160408a01611d7d565b94506060890135915080821115611f46578384fd5b50611f5389828a01611d17565b979a9699509497509295939492505050565b60008060408385031215611f77578182fd5b611f8083611cfb565b915060208301358015158114611f94578182fd5b809150509250929050565b60008060408385031215611fb1578182fd5b611fba83611cfb565b946020939093013593505050565b600060208284031215611fd9578081fd5b8135610e2e816125de565b600060208284031215611ff5578081fd5b8151610e2e816125de565b600080600080600080600060e0888a03121561201a578485fd5b873567ffffffffffffffff80821115612031578687fd5b61203d8b838c01611d5e565b985060208a0135915080821115612052578687fd5b5061205f8a828b01611d5e565b96505061206e60408901611cfb565b945061207c60608901611cfb565b93506080880135925060a0880135915061209860c08901611d7d565b905092959891949750929550565b6000602082840312156120b7578081fd5b5035919050565b600080604083850312156120d0578182fd5b50508035926020909101359150565b600080600080600060a086880312156120f6578283fd5b6120ff86611d91565b945060208601519350604086015192506060860151915061212260808701611d91565b90509295509295909350565b600081518084526121468160208601602086016124ec565b601f01601f19169290920160200192915050565b6000835161216c8184602088016124ec565b8351908301906121808183602088016124ec565b01949350505050565b6001600160a01b03858116825284166020820152604081018390526080606082018190526000906121bc9083018461212e565b9695505050505050565b602081526000610e2e602083018461212e565b60208082526032908201527f4552433732313a207472616e7366657220746f206e6f6e20455243373231526560408201527131b2b4bb32b91034b6b83632b6b2b73a32b960711b606082015260800190565b6020808252602e908201527f496e697469616c697a61626c653a20636f6e747261637420697320616c72656160408201526d191e481a5b9a5d1a585b1a5e995960921b606082015260800190565b6020808252818101527f4f776e61626c653a2063616c6c6572206973206e6f7420746865206f776e6572604082015260600190565b60208082526031908201527f4552433732313a207472616e736665722063616c6c6572206973206e6f74206f6040820152701ddb995c881b9bdc88185c1c1c9bdd9959607a1b606082015260800190565b604051601f8201601f1916810167ffffffffffffffff81118282101715612328576123286125c8565b604052919050565b600082198211156123435761234361259c565b500190565b600082612357576123576125b2565b600160ff1b8214600019841416156123715761237161259c565b500590565b600082612385576123856125b2565b500490565b60006001600160ff1b03818413828413808216868404861116156123b0576123b061259c565b600160ff1b848712828116878305891216156123ce576123ce61259c565b8587129250878205871284841616156123e9576123e961259c565b878505871281841616156123ff576123ff61259c565b505050929093029392505050565b60008083128015600160ff1b85018412161561242b5761242b61259c565b6001600160ff1b03840183138116156124465761244661259c565b50500390565b60008282101561245e5761245e61259c565b500390565b600067ffffffffffffffff8084111561247e5761247e6125c8565b8360051b602061248f8183016122ff565b86815281810190863685820111156124a5578687fd5b8694505b888510156124e0578035868111156124bf578788fd5b6124cb36828b01611d5e565b845250600194909401939183019183016124a9565b50979650505050505050565b60005b838110156125075781810151838201526020016124ef565b83811115610d475750506000910152565b600181811c9082168061252c57607f821691505b6020821081141561254d57634e487b7160e01b600052602260045260246000fd5b50919050565b60006000198214156125675761256761259c565b5060010190565b60008261257d5761257d6125b2565b500690565b6000600160ff1b8214156125985761259861259c565b0390565b634e487b7160e01b600052601160045260246000fd5b634e487b7160e01b600052601260045260246000fd5b634e487b7160e01b600052604160045260246000fd5b6001600160e01b03198116811461147057600080fdfea2646970667358221220116464bd136fc70ea227afd3faebc62cfcbc15fd1fd1ead5e2693cabfcb3b41264736f6c63430008040033",
  "devdoc": {
    "kind": "dev",
    "methods": {
      "approve(address,uint256)": {
        "details": "See {IERC721-approve}."
      },
      "balanceOf(address)": {
        "details": "See {IERC721-balanceOf}."
      },
      "create(address,string[],uint32,bytes)": {
        "details": "creates a layer with states"
      },
      "getApproved(uint256)": {
        "details": "See {IERC721-getApproved}."
      },
      "getLayer(uint256)": {
        "details": "layer getter method"
      },
      "isApprovedForAll(address,address)": {
        "details": "See {IERC721-isApprovedForAll}."
      },
      "name()": {
        "details": "See {IERC721Metadata-name}."
      },
      "owner()": {
        "details": "Returns the address of the current owner."
      },
      "ownerOf(uint256)": {
        "details": "See {IERC721-ownerOf}."
      },
      "renounceOwnership()": {
        "details": "Leaves the contract without owner. It will not be possible to call `onlyOwner` functions anymore. Can only be called by the current owner. NOTE: Renouncing ownership will leave the contract without an owner, thereby removing any functionality that is only available to the owner."
      },
      "safeTransferFrom(address,address,uint256)": {
        "details": "See {IERC721-safeTransferFrom}."
      },
      "safeTransferFrom(address,address,uint256,bytes)": {
        "details": "See {IERC721-safeTransferFrom}."
      },
      "setApprovalForAll(address,bool)": {
        "details": "See {IERC721-setApprovalForAll}."
      },
      "supportsInterface(bytes4)": {
        "details": "See {IERC165-supportsInterface}."
      },
      "symbol()": {
        "details": "See {IERC721Metadata-symbol}."
      },
      "tokenURI(uint256)": {
        "details": "See {IERC721Metadata-tokenURI}."
      },
      "transferFrom(address,address,uint256)": {
        "details": "See {IERC721-transferFrom}."
      },
      "transferOwnership(address)": {
        "details": "Transfers ownership of the contract to a new account (`newOwner`). Can only be called by the current owner."
      },
      "updateAll()": {
        "details": "update all CMC layer's shared currentState;"
      }
    },
    "version": 1
  },
  "userdoc": {
    "kind": "user",
    "methods": {},
    "version": 1
  },
  "storageLayout": {
    "storage": [
      {
        "astId": 578,
        "contract": "contracts/Layer/CMCLayerV0.sol:CMCLayerV0",
        "label": "_initialized",
        "offset": 0,
        "slot": "0",
        "type": "t_bool"
      },
      {
        "astId": 581,
        "contract": "contracts/Layer/CMCLayerV0.sol:CMCLayerV0",
        "label": "_initializing",
        "offset": 1,
        "slot": "0",
        "type": "t_bool"
      },
      {
        "astId": 3153,
        "contract": "contracts/Layer/CMCLayerV0.sol:CMCLayerV0",
        "label": "__gap",
        "offset": 0,
        "slot": "1",
        "type": "t_array(t_uint256)50_storage"
      },
      {
        "astId": 452,
        "contract": "contracts/Layer/CMCLayerV0.sol:CMCLayerV0",
        "label": "_owner",
        "offset": 0,
        "slot": "51",
        "type": "t_address"
      },
      {
        "astId": 571,
        "contract": "contracts/Layer/CMCLayerV0.sol:CMCLayerV0",
        "label": "__gap",
        "offset": 0,
        "slot": "52",
        "type": "t_array(t_uint256)49_storage"
      },
      {
        "astId": 3607,
        "contract": "contracts/Layer/CMCLayerV0.sol:CMCLayerV0",
        "label": "__gap",
        "offset": 0,
        "slot": "101",
        "type": "t_array(t_uint256)50_storage"
      },
      {
        "astId": 1885,
        "contract": "contracts/Layer/CMCLayerV0.sol:CMCLayerV0",
        "label": "_name",
        "offset": 0,
        "slot": "151",
        "type": "t_string_storage"
      },
      {
        "astId": 1887,
        "contract": "contracts/Layer/CMCLayerV0.sol:CMCLayerV0",
        "label": "_symbol",
        "offset": 0,
        "slot": "152",
        "type": "t_string_storage"
      },
      {
        "astId": 1891,
        "contract": "contracts/Layer/CMCLayerV0.sol:CMCLayerV0",
        "label": "_owners",
        "offset": 0,
        "slot": "153",
        "type": "t_mapping(t_uint256,t_address)"
      },
      {
        "astId": 1895,
        "contract": "contracts/Layer/CMCLayerV0.sol:CMCLayerV0",
        "label": "_balances",
        "offset": 0,
        "slot": "154",
        "type": "t_mapping(t_address,t_uint256)"
      },
      {
        "astId": 1899,
        "contract": "contracts/Layer/CMCLayerV0.sol:CMCLayerV0",
        "label": "_tokenApprovals",
        "offset": 0,
        "slot": "155",
        "type": "t_mapping(t_uint256,t_address)"
      },
      {
        "astId": 1905,
        "contract": "contracts/Layer/CMCLayerV0.sol:CMCLayerV0",
        "label": "_operatorApprovals",
        "offset": 0,
        "slot": "156",
        "type": "t_mapping(t_address,t_mapping(t_address,t_bool))"
      },
      {
        "astId": 2703,
        "contract": "contracts/Layer/CMCLayerV0.sol:CMCLayerV0",
        "label": "__gap",
        "offset": 0,
        "slot": "157",
        "type": "t_array(t_uint256)44_storage"
      },
      {
        "astId": 8235,
        "contract": "contracts/Layer/CMCLayerV0.sol:CMCLayerV0",
        "label": "id",
        "offset": 0,
        "slot": "201",
        "type": "t_struct(Counter)3160_storage"
      },
      {
        "astId": 8241,
        "contract": "contracts/Layer/CMCLayerV0.sol:CMCLayerV0",
        "label": "layers",
        "offset": 0,
        "slot": "202",
        "type": "t_mapping(t_uint256,t_struct(Layer)8231_storage)"
      },
      {
        "astId": 8245,
        "contract": "contracts/Layer/CMCLayerV0.sol:CMCLayerV0",
        "label": "priceFeed",
        "offset": 0,
        "slot": "203",
        "type": "t_contract(AggregatorV3Interface)45"
      },
      {
        "astId": 8248,
        "contract": "contracts/Layer/CMCLayerV0.sol:CMCLayerV0",
        "label": "lastUpdatedAt",
        "offset": 0,
        "slot": "204",
        "type": "t_uint256"
      },
      {
        "astId": 8251,
        "contract": "contracts/Layer/CMCLayerV0.sol:CMCLayerV0",
        "label": "lastPrice",
        "offset": 0,
        "slot": "205",
        "type": "t_int256"
      },
      {
        "astId": 8254,
        "contract": "contracts/Layer/CMCLayerV0.sol:CMCLayerV0",
        "label": "updateInterval",
        "offset": 0,
        "slot": "206",
        "type": "t_uint256"
      },
      {
        "astId": 8257,
        "contract": "contracts/Layer/CMCLayerV0.sol:CMCLayerV0",
        "label": "threshold",
        "offset": 0,
        "slot": "207",
        "type": "t_int256"
      },
      {
        "astId": 8259,
        "contract": "contracts/Layer/CMCLayerV0.sol:CMCLayerV0",
        "label": "globalStateCount",
        "offset": 0,
        "slot": "208",
        "type": "t_uint32"
      },
      {
        "astId": 8261,
        "contract": "contracts/Layer/CMCLayerV0.sol:CMCLayerV0",
        "label": "globalCurrentState",
        "offset": 4,
        "slot": "208",
        "type": "t_uint32"
      }
    ],
    "types": {
      "t_address": {
        "encoding": "inplace",
        "label": "address",
        "numberOfBytes": "20"
      },
      "t_array(t_string_storage)dyn_storage": {
        "base": "t_string_storage",
        "encoding": "dynamic_array",
        "label": "string[]",
        "numberOfBytes": "32"
      },
      "t_array(t_uint256)44_storage": {
        "base": "t_uint256",
        "encoding": "inplace",
        "label": "uint256[44]",
        "numberOfBytes": "1408"
      },
      "t_array(t_uint256)49_storage": {
        "base": "t_uint256",
        "encoding": "inplace",
        "label": "uint256[49]",
        "numberOfBytes": "1568"
      },
      "t_array(t_uint256)50_storage": {
        "base": "t_uint256",
        "encoding": "inplace",
        "label": "uint256[50]",
        "numberOfBytes": "1600"
      },
      "t_bool": {
        "encoding": "inplace",
        "label": "bool",
        "numberOfBytes": "1"
      },
      "t_contract(AggregatorV3Interface)45": {
        "encoding": "inplace",
        "label": "contract AggregatorV3Interface",
        "numberOfBytes": "20"
      },
      "t_int256": {
        "encoding": "inplace",
        "label": "int256",
        "numberOfBytes": "32"
      },
      "t_mapping(t_address,t_bool)": {
        "encoding": "mapping",
        "key": "t_address",
        "label": "mapping(address => bool)",
        "numberOfBytes": "32",
        "value": "t_bool"
      },
      "t_mapping(t_address,t_mapping(t_address,t_bool))": {
        "encoding": "mapping",
        "key": "t_address",
        "label": "mapping(address => mapping(address => bool))",
        "numberOfBytes": "32",
        "value": "t_mapping(t_address,t_bool)"
      },
      "t_mapping(t_address,t_uint256)": {
        "encoding": "mapping",
        "key": "t_address",
        "label": "mapping(address => uint256)",
        "numberOfBytes": "32",
        "value": "t_uint256"
      },
      "t_mapping(t_uint256,t_address)": {
        "encoding": "mapping",
        "key": "t_uint256",
        "label": "mapping(uint256 => address)",
        "numberOfBytes": "32",
        "value": "t_address"
      },
      "t_mapping(t_uint256,t_struct(Layer)8231_storage)": {
        "encoding": "mapping",
        "key": "t_uint256",
        "label": "mapping(uint256 => struct CMCLayerStorageV0.Layer)",
        "numberOfBytes": "32",
        "value": "t_struct(Layer)8231_storage"
      },
      "t_string_storage": {
        "encoding": "bytes",
        "label": "string",
        "numberOfBytes": "32"
      },
      "t_struct(Counter)3160_storage": {
        "encoding": "inplace",
        "label": "struct CountersUpgradeable.Counter",
        "members": [
          {
            "astId": 3159,
            "contract": "contracts/Layer/CMCLayerV0.sol:CMCLayerV0",
            "label": "_value",
            "offset": 0,
            "slot": "0",
            "type": "t_uint256"
          }
        ],
        "numberOfBytes": "32"
      },
      "t_struct(Layer)8231_storage": {
        "encoding": "inplace",
        "label": "struct CMCLayerStorageV0.Layer",
        "members": [
          {
            "astId": 8230,
            "contract": "contracts/Layer/CMCLayerV0.sol:CMCLayerV0",
            "label": "cids",
            "offset": 0,
            "slot": "0",
            "type": "t_array(t_string_storage)dyn_storage"
          }
        ],
        "numberOfBytes": "32"
      },
      "t_uint256": {
        "encoding": "inplace",
        "label": "uint256",
        "numberOfBytes": "32"
      },
      "t_uint32": {
        "encoding": "inplace",
        "label": "uint32",
        "numberOfBytes": "4"
      }
    }
  }
}