{
  "address": "0x4CbFCacb6cFf8D45e8Fc98C5614b6399dC3319d3",
  "abi": [
    {
      "anonymous": false,
      "inputs": [
        {
          "indexed": true,
          "internalType": "address",
          "name": "account",
          "type": "address"
        },
        {
          "indexed": true,
          "internalType": "address",
          "name": "operator",
          "type": "address"
        },
        {
          "indexed": false,
          "internalType": "bool",
          "name": "approved",
          "type": "bool"
        }
      ],
      "name": "ApprovalForAll",
      "type": "event"
    },
    {
      "anonymous": false,
      "inputs": [
        {
          "indexed": true,
          "internalType": "address",
          "name": "operator",
          "type": "address"
        },
        {
          "indexed": true,
          "internalType": "address",
          "name": "to",
          "type": "address"
        },
        {
          "indexed": false,
          "internalType": "uint256",
          "name": "id",
          "type": "uint256"
        },
        {
          "indexed": false,
          "internalType": "uint256",
          "name": "value",
          "type": "uint256"
        },
        {
          "indexed": true,
          "internalType": "uint256",
          "name": "nonce",
          "type": "uint256"
        }
      ],
      "name": "CybertinoMint",
      "type": "event"
    },
    {
      "anonymous": false,
      "inputs": [
        {
          "indexed": true,
          "internalType": "address",
          "name": "previousOwner",
          "type": "address"
        },
        {
          "indexed": true,
          "internalType": "address",
          "name": "newOwner",
          "type": "address"
        }
      ],
      "name": "OwnershipTransferred",
      "type": "event"
    },
    {
      "anonymous": false,
      "inputs": [
        {
          "indexed": true,
          "internalType": "address",
          "name": "operator",
          "type": "address"
        },
        {
          "indexed": true,
          "internalType": "address",
          "name": "from",
          "type": "address"
        },
        {
          "indexed": true,
          "internalType": "address",
          "name": "to",
          "type": "address"
        },
        {
          "indexed": false,
          "internalType": "uint256[]",
          "name": "ids",
          "type": "uint256[]"
        },
        {
          "indexed": false,
          "internalType": "uint256[]",
          "name": "values",
          "type": "uint256[]"
        }
      ],
      "name": "TransferBatch",
      "type": "event"
    },
    {
      "anonymous": false,
      "inputs": [
        {
          "indexed": true,
          "internalType": "address",
          "name": "operator",
          "type": "address"
        },
        {
          "indexed": true,
          "internalType": "address",
          "name": "from",
          "type": "address"
        },
        {
          "indexed": true,
          "internalType": "address",
          "name": "to",
          "type": "address"
        },
        {
          "indexed": false,
          "internalType": "uint256",
          "name": "id",
          "type": "uint256"
        },
        {
          "indexed": false,
          "internalType": "uint256",
          "name": "value",
          "type": "uint256"
        }
      ],
      "name": "TransferSingle",
      "type": "event"
    },
    {
      "anonymous": false,
      "inputs": [
        {
          "indexed": false,
          "internalType": "string",
          "name": "value",
          "type": "string"
        },
        {
          "indexed": true,
          "internalType": "uint256",
          "name": "id",
          "type": "uint256"
        }
      ],
      "name": "URI",
      "type": "event"
    },
    {
      "inputs": [
        {
          "internalType": "string",
          "name": "_name",
          "type": "string"
        },
        {
          "internalType": "string",
          "name": "_uri",
          "type": "string"
        },
        {
          "internalType": "string",
          "name": "_symbol",
          "type": "string"
        },
        {
          "internalType": "address",
          "name": "_signer",
          "type": "address"
        },
        {
          "internalType": "address",
          "name": "_manager",
          "type": "address"
        }
      ],
      "name": "CybertinoNFT_init",
      "outputs": [],
      "stateMutability": "nonpayable",
      "type": "function"
    },
    {
      "inputs": [
        {
          "internalType": "string",
          "name": "_name",
          "type": "string"
        },
        {
          "internalType": "string",
          "name": "_symbol",
          "type": "string"
        },
        {
          "internalType": "address",
          "name": "_signer",
          "type": "address"
        },
        {
          "internalType": "address",
          "name": "_manager",
          "type": "address"
        }
      ],
      "name": "CybertinoNFT_init_unchained",
      "outputs": [],
      "stateMutability": "nonpayable",
      "type": "function"
    },
    {
      "inputs": [
        {
          "internalType": "address",
          "name": "account",
          "type": "address"
        },
        {
          "internalType": "uint256",
          "name": "id",
          "type": "uint256"
        }
      ],
      "name": "balanceOf",
      "outputs": [
        {
          "internalType": "uint256",
          "name": "",
          "type": "uint256"
        }
      ],
      "stateMutability": "view",
      "type": "function"
    },
    {
      "inputs": [
        {
          "internalType": "address[]",
          "name": "accounts",
          "type": "address[]"
        },
        {
          "internalType": "uint256[]",
          "name": "ids",
          "type": "uint256[]"
        }
      ],
      "name": "balanceOfBatch",
      "outputs": [
        {
          "internalType": "uint256[]",
          "name": "",
          "type": "uint256[]"
        }
      ],
      "stateMutability": "view",
      "type": "function"
    },
    {
      "inputs": [
        {
          "internalType": "address",
          "name": "_to",
          "type": "address"
        },
        {
          "internalType": "uint256[]",
          "name": "_ids",
          "type": "uint256[]"
        },
        {
          "internalType": "uint256[]",
          "name": "_amounts",
          "type": "uint256[]"
        },
        {
          "internalType": "uint256[]",
          "name": "_nonces",
          "type": "uint256[]"
        },
        {
          "internalType": "bytes[]",
          "name": "_signatures",
          "type": "bytes[]"
        },
        {
          "internalType": "bytes[]",
          "name": "_data",
          "type": "bytes[]"
        }
      ],
      "name": "batchMint",
      "outputs": [],
      "stateMutability": "nonpayable",
      "type": "function"
    },
    {
      "inputs": [
        {
          "internalType": "string",
          "name": "_cid",
          "type": "string"
        },
        {
          "internalType": "bytes",
          "name": "_data",
          "type": "bytes"
        },
        {
          "internalType": "uint256",
          "name": "_maxSupply",
          "type": "uint256"
        }
      ],
      "name": "create",
      "outputs": [
        {
          "internalType": "uint256",
          "name": "_id",
          "type": "uint256"
        }
      ],
      "stateMutability": "nonpayable",
      "type": "function"
    },
    {
      "inputs": [
        {
          "internalType": "bytes32",
          "name": "",
          "type": "bytes32"
        }
      ],
      "name": "executed",
      "outputs": [
        {
          "internalType": "bool",
          "name": "",
          "type": "bool"
        }
      ],
      "stateMutability": "view",
      "type": "function"
    },
    {
      "inputs": [
        {
          "internalType": "address",
          "name": "_to",
          "type": "address"
        },
        {
          "internalType": "uint256",
          "name": "_tokenId",
          "type": "uint256"
        },
        {
          "internalType": "uint256",
          "name": "_amount",
          "type": "uint256"
        },
        {
          "internalType": "uint256",
          "name": "_nonce",
          "type": "uint256"
        }
      ],
      "name": "getMessageHash",
      "outputs": [
        {
          "internalType": "bytes32",
          "name": "",
          "type": "bytes32"
        }
      ],
      "stateMutability": "pure",
      "type": "function"
    },
    {
      "inputs": [],
      "name": "id",
      "outputs": [
        {
          "internalType": "uint256",
          "name": "_value",
          "type": "uint256"
        }
      ],
      "stateMutability": "view",
      "type": "function"
    },
    {
      "inputs": [
        {
          "internalType": "address",
          "name": "account",
          "type": "address"
        },
        {
          "internalType": "address",
          "name": "operator",
          "type": "address"
        }
      ],
      "name": "isApprovedForAll",
      "outputs": [
        {
          "internalType": "bool",
          "name": "",
          "type": "bool"
        }
      ],
      "stateMutability": "view",
      "type": "function"
    },
    {
      "inputs": [
        {
          "internalType": "uint256",
          "name": "_id",
          "type": "uint256"
        }
      ],
      "name": "maxSupply",
      "outputs": [
        {
          "internalType": "uint256",
          "name": "",
          "type": "uint256"
        }
      ],
      "stateMutability": "view",
      "type": "function"
    },
    {
      "inputs": [
        {
          "internalType": "address",
          "name": "_to",
          "type": "address"
        },
        {
          "internalType": "uint256",
          "name": "_id",
          "type": "uint256"
        },
        {
          "internalType": "uint256",
          "name": "_amount",
          "type": "uint256"
        },
        {
          "internalType": "uint256",
          "name": "_nonce",
          "type": "uint256"
        },
        {
          "internalType": "bytes",
          "name": "_signature",
          "type": "bytes"
        },
        {
          "internalType": "bytes",
          "name": "_data",
          "type": "bytes"
        }
      ],
      "name": "mint",
      "outputs": [],
      "stateMutability": "nonpayable",
      "type": "function"
    },
    {
      "inputs": [],
      "name": "name",
      "outputs": [
        {
          "internalType": "string",
          "name": "",
          "type": "string"
        }
      ],
      "stateMutability": "view",
      "type": "function"
    },
    {
      "inputs": [],
      "name": "owner",
      "outputs": [
        {
          "internalType": "address",
          "name": "",
          "type": "address"
        }
      ],
      "stateMutability": "view",
      "type": "function"
    },
    {
      "inputs": [],
      "name": "pause",
      "outputs": [],
      "stateMutability": "nonpayable",
      "type": "function"
    },
    {
      "inputs": [],
      "name": "paused",
      "outputs": [
        {
          "internalType": "bool",
          "name": "",
          "type": "bool"
        }
      ],
      "stateMutability": "view",
      "type": "function"
    },
    {
      "inputs": [],
      "name": "renounceOwnership",
      "outputs": [],
      "stateMutability": "nonpayable",
      "type": "function"
    },
    {
      "inputs": [
        {
          "internalType": "address",
          "name": "from",
          "type": "address"
        },
        {
          "internalType": "address",
          "name": "to",
          "type": "address"
        },
        {
          "internalType": "uint256[]",
          "name": "ids",
          "type": "uint256[]"
        },
        {
          "internalType": "uint256[]",
          "name": "amounts",
          "type": "uint256[]"
        },
        {
          "internalType": "bytes",
          "name": "data",
          "type": "bytes"
        }
      ],
      "name": "safeBatchTransferFrom",
      "outputs": [],
      "stateMutability": "nonpayable",
      "type": "function"
    },
    {
      "inputs": [
        {
          "internalType": "address",
          "name": "from",
          "type": "address"
        },
        {
          "internalType": "address",
          "name": "to",
          "type": "address"
        },
        {
          "internalType": "uint256",
          "name": "id",
          "type": "uint256"
        },
        {
          "internalType": "uint256",
          "name": "amount",
          "type": "uint256"
        },
        {
          "internalType": "bytes",
          "name": "data",
          "type": "bytes"
        }
      ],
      "name": "safeTransferFrom",
      "outputs": [],
      "stateMutability": "nonpayable",
      "type": "function"
    },
    {
      "inputs": [
        {
          "internalType": "address",
          "name": "operator",
          "type": "address"
        },
        {
          "internalType": "bool",
          "name": "approved",
          "type": "bool"
        }
      ],
      "name": "setApprovalForAll",
      "outputs": [],
      "stateMutability": "nonpayable",
      "type": "function"
    },
    {
      "inputs": [
        {
          "internalType": "string",
          "name": "_uri",
          "type": "string"
        }
      ],
      "name": "setURI",
      "outputs": [],
      "stateMutability": "nonpayable",
      "type": "function"
    },
    {
      "inputs": [],
      "name": "signer",
      "outputs": [
        {
          "internalType": "address",
          "name": "",
          "type": "address"
        }
      ],
      "stateMutability": "view",
      "type": "function"
    },
    {
      "inputs": [
        {
          "internalType": "bytes4",
          "name": "interfaceId",
          "type": "bytes4"
        }
      ],
      "name": "supportsInterface",
      "outputs": [
        {
          "internalType": "bool",
          "name": "",
          "type": "bool"
        }
      ],
      "stateMutability": "view",
      "type": "function"
    },
    {
      "inputs": [],
      "name": "symbol",
      "outputs": [
        {
          "internalType": "string",
          "name": "",
          "type": "string"
        }
      ],
      "stateMutability": "view",
      "type": "function"
    },
    {
      "inputs": [
        {
          "internalType": "uint256",
          "name": "_id",
          "type": "uint256"
        }
      ],
      "name": "totalSupply",
      "outputs": [
        {
          "internalType": "uint256",
          "name": "",
          "type": "uint256"
        }
      ],
      "stateMutability": "view",
      "type": "function"
    },
    {
      "inputs": [
        {
          "internalType": "address",
          "name": "newOwner",
          "type": "address"
        }
      ],
      "name": "transferOwnership",
      "outputs": [],
      "stateMutability": "nonpayable",
      "type": "function"
    },
    {
      "inputs": [
        {
          "internalType": "address",
          "name": "_signer",
          "type": "address"
        }
      ],
      "name": "updateSigner",
      "outputs": [],
      "stateMutability": "nonpayable",
      "type": "function"
    },
    {
      "inputs": [
        {
          "internalType": "uint256",
          "name": "_id",
          "type": "uint256"
        }
      ],
      "name": "uri",
      "outputs": [
        {
          "internalType": "string",
          "name": "",
          "type": "string"
        }
      ],
      "stateMutability": "view",
      "type": "function"
    }
  ],
  "transactionHash": "0x2c6c62148332892aaf8103c80a976a070097eb739f1b2755bc2b52427417ebcd",
  "args": [],
  "solcInputHash": "bf5fd3b9f7d83c018f97ed0bb55f8854",
  "bytecode": "0x608060405260d0805460ff1916905534801561001a57600080fd5b50612e408061002a6000396000f3fe608060405234801561001057600080fd5b50600436106101c35760003560e01c80638ccdf15c116100f9578063bd85b03911610097578063f242432a11610071578063f242432a146103fd578063f2fde38b14610410578063f440be0414610423578063fbce33241461043657600080fd5b8063bd85b0391461038e578063d7c4f92a146103ae578063e985e9c5146103c157600080fd5b8063a22cb465116100d3578063a22cb4651461033b578063a7ecd37e1461034e578063a9fcfb3314610361578063af640d0f1461038457600080fd5b80638ccdf15c1461030f5780638da5cb5b1461032257806395d89b411461033357600080fd5b80632eb2c2d6116101665780636b0f40f4116101405780636b0f40f4146102cc578063715018a6146102df5780638456cb59146102e7578063869f7594146102ef57600080fd5b80632eb2c2d61461028c5780634e1273f41461029f5780635c975abb146102bf57600080fd5b806306fdde03116101a257806306fdde03146102265780630e89341c1461023b578063238ac9331461024e5780632a74a4841461027957600080fd5b8062fdd58e146101c857806301ffc9a7146101ee57806302fe530514610211575b600080fd5b6101db6101d63660046124a4565b610449565b6040519081526020015b60405180910390f35b6102016101fc366004612680565b6104e2565b60405190151581526020016101e5565b61022461021f366004612728565b610505565b005b61022e61053b565b6040516101e59190612a78565b61022e610249366004612668565b6105c9565b60cb54610261906001600160a01b031681565b6040516001600160a01b0390911681526020016101e5565b6101db6102873660046126b8565b61063b565b61022461029a366004612263565b610776565b6102b26102ad36600461259e565b610a40565b6040516101e59190612a40565b60d0546102019060ff1681565b6102246102da366004612762565b610ba1565b610224610c5d565b610224610cd1565b6101db6102fd366004612668565b600090815260cd602052604090205490565b61022461031d366004612505565b610d0f565b6097546001600160a01b0316610261565b61022e611042565b61022461034936600461246a565b61104f565b61022461035c366004612210565b611126565b61020161036f366004612668565b60cf6020526000908152604090205460ff1681565b60ca546101db9081565b6101db61039c366004612668565b600090815260ce602052604090205490565b6102246103bc36600461236a565b611172565b6102016103cf366004612231565b6001600160a01b03918216600090815260666020908152604080832093909416825291909152205460ff1690565b61022461040b366004612308565b6112b6565b61022461041e366004612210565b611463565b6101db6104313660046124cd565b61154e565b6102246104443660046127e3565b6115a5565b60006001600160a01b0383166104ba5760405162461bcd60e51b815260206004820152602b60248201527f455243313135353a2062616c616e636520717565727920666f7220746865207a60448201526a65726f206164647265737360a81b60648201526084015b60405180910390fd5b5060009081526065602090815260408083206001600160a01b03949094168352929052205490565b60006001600160e01b0319821615806104ff57506104ff82611642565b92915050565b6097546001600160a01b0316331461052f5760405162461bcd60e51b81526004016104b190612bb0565b61053881611692565b50565b60c9805461054890612cab565b80601f016020809104026020016040519081016040528092919081815260200182805461057490612cab565b80156105c15780601f10610596576101008083540402835291602001916105c1565b820191906000526020600020905b8154815290600101906020018083116105a457829003601f168201915b505050505081565b606060006105d760006116a9565b90508051600014156105f9575050604080516020810190915260008152919050565b8060cc600085815260200190815260200160002060405160200161061e9291906128ee565b604051602081830303815290604052915050919050565b50919050565b6097546000906001600160a01b031633146106685760405162461bcd60e51b81526004016104b190612bb0565b846106b55760405162461bcd60e51b815260206004820152601f60248201527f4572723a204d697373696e6720436f6e74656e74204964656e7469666965720060448201526064016104b1565b6106bd61173d565b90506107023382600087878080601f01602080910402602001604051908101604052809392919081815260200183838082843760009201919091525061175492505050565b600081815260cc6020526040902061071b908787611f7d565b50600081815260cd60205260409020829055807f6bb7ff708619ba0610cba295a58592e0451dee2622938c8755667688daf3529b610758826105c9565b6040516107659190612a78565b60405180910390a295945050505050565b81518351146107d85760405162461bcd60e51b815260206004820152602860248201527f455243313135353a2069647320616e6420616d6f756e7473206c656e677468206044820152670dad2e6dac2e8c6d60c31b60648201526084016104b1565b6001600160a01b0384166107fe5760405162461bcd60e51b81526004016104b190612ad3565b6001600160a01b03851633148061081a575061081a85336103cf565b6108815760405162461bcd60e51b815260206004820152603260248201527f455243313135353a207472616e736665722063616c6c6572206973206e6f74206044820152711bdddb995c881b9bdc88185c1c1c9bdd995960721b60648201526084016104b1565b3360005b84518110156109d25760008582815181106108b057634e487b7160e01b600052603260045260246000fd5b6020026020010151905060008583815181106108dc57634e487b7160e01b600052603260045260246000fd5b60209081029190910181015160008481526065835260408082206001600160a01b038e16835290935291909120549091508181101561092d5760405162461bcd60e51b81526004016104b190612b66565b6109378282612c64565b6065600085815260200190815260200160002060008c6001600160a01b03166001600160a01b0316815260200190815260200160002081905550816065600085815260200190815260200160002060008b6001600160a01b03166001600160a01b0316815260200190815260200160002060008282546109b79190612c4c565b92505081905550505050806109cb90612d0c565b9050610885565b50846001600160a01b0316866001600160a01b0316826001600160a01b03167f4a39dc06d4c0dbc64b70af90fd698a233a518aa5d07e595d983b8c0526c8f7fb8787604051610a22929190612a53565b60405180910390a4610a38818787878787611857565b505050505050565b60608151835114610aa55760405162461bcd60e51b815260206004820152602960248201527f455243313135353a206163636f756e747320616e6420696473206c656e677468604482015268040dad2e6dac2e8c6d60bb1b60648201526084016104b1565b600083516001600160401b03811115610ace57634e487b7160e01b600052604160045260246000fd5b604051908082528060200260200182016040528015610af7578160200160208202803683370190505b50905060005b8451811015610b9957610b5e858281518110610b2957634e487b7160e01b600052603260045260246000fd5b6020026020010151858381518110610b5157634e487b7160e01b600052603260045260246000fd5b6020026020010151610449565b828281518110610b7e57634e487b7160e01b600052603260045260246000fd5b6020908102919091010152610b9281612d0c565b9050610afd565b509392505050565b600054610100900460ff1680610bba575060005460ff16155b610bd65760405162461bcd60e51b81526004016104b190612b18565b600054610100900460ff16158015610bf8576000805461ffff19166101011790555b8451610c0b9060c9906020880190612001565b508351610c1f9060d1906020870190612001565b5060cb80546001600160a01b0319166001600160a01b038516179055610c4482611463565b8015610c56576000805461ff00191690555b5050505050565b6097546001600160a01b03163314610c875760405162461bcd60e51b81526004016104b190612bb0565b6097546040516000916001600160a01b0316907f8be0079c531659141344cd1fd0a4f28419497f9722a3daafe3b4186f6b6457e0908390a3609780546001600160a01b0319169055565b6097546001600160a01b03163314610cfb5760405162461bcd60e51b81526004016104b190612bb0565b60d0805460ff19811660ff90911615179055565b60d05460ff1615610d4b5760405162461bcd60e51b815260206004820152600660248201526514185d5cd95960d21b60448201526064016104b1565b610d54876119c2565b610da05760405162461bcd60e51b815260206004820152601860248201527f437962657274696e6f4e46543a20696e76616c6964204944000000000000000060448201526064016104b1565b6001861015610dfd5760405162461bcd60e51b8152602060048201526024808201527f437962657274696e6f4e46543a206d757374206d696e74206174206c65617374604482015263206f6e6560e01b60648201526084016104b1565b600087815260cd602090815260408083205460ce90925290912054610e23908890612c4c565b1115610e715760405162461bcd60e51b815260206004820181905260248201527f437962657274696e6f4e46543a2065786365656473206d617820737570706c7960448201526064016104b1565b6000610e7f8989898961154e565b600081815260cf602052604090205490915060ff1615610ee15760405162461bcd60e51b815260206004820152601c60248201527f437962657274696e6f4e46543a20616c7265616479206d696e7465640000000060448201526064016104b1565b610f218186868080601f0160208091040260200160405190810160405280939291908181526020018383808284376000920191909152506119e892505050565b610f6d5760405162461bcd60e51b815260206004820152601f60248201527f437962657274696e6f4e46543a20696e76616c6964207369676e61747572650060448201526064016104b1565b600081815260cf6020908152604091829020805460ff191660011790558151601f8501829004820281018201909252838252610fc9918b918b918b91889088908190840183828082843760009201919091525061175492505050565b600088815260ce602052604081208054899290610fe7908490612c4c565b90915550506040805189815260208101899052339188916001600160a01b038d169184917f3371a470b65adaccbbfff3b30557ce52af697d6131c10f13cb4c8f93de646a03910160405180910390a450505050505050505050565b60d1805461054890612cab565b336001600160a01b03831614156110ba5760405162461bcd60e51b815260206004820152602960248201527f455243313135353a2073657474696e6720617070726f76616c20737461747573604482015268103337b91039b2b63360b91b60648201526084016104b1565b3360008181526066602090815260408083206001600160a01b03871680855290835292819020805460ff191686151590811790915590519081529192917f17307eab39ab6107e8899845ad3d59bd9653f200f220920489ca2b5937696c31910160405180910390a35050565b6097546001600160a01b031633146111505760405162461bcd60e51b81526004016104b190612bb0565b60cb80546001600160a01b0319166001600160a01b0392909216919091179055565b60d05460ff16156111ae5760405162461bcd60e51b815260206004820152600660248201526514185d5cd95960d21b60448201526064016104b1565b60005b898110156112a8576112968c8c8c848181106111dd57634e487b7160e01b600052603260045260246000fd5b905060200201358b8b8581811061120457634e487b7160e01b600052603260045260246000fd5b905060200201358a8a8681811061122b57634e487b7160e01b600052603260045260246000fd5b9050602002013589898781811061125257634e487b7160e01b600052603260045260246000fd5b90506020028101906112649190612be5565b89898981811061128457634e487b7160e01b600052603260045260246000fd5b905060200281019061031d9190612be5565b806112a081612d0c565b9150506111b1565b505050505050505050505050565b6001600160a01b0384166112dc5760405162461bcd60e51b81526004016104b190612ad3565b6001600160a01b0385163314806112f857506112f885336103cf565b6113565760405162461bcd60e51b815260206004820152602960248201527f455243313135353a2063616c6c6572206973206e6f74206f776e6572206e6f7260448201526808185c1c1c9bdd995960ba1b60648201526084016104b1565b3361136f81878761136688611a6d565b610c5688611a6d565b60008481526065602090815260408083206001600160a01b038a168452909152902054838110156113b25760405162461bcd60e51b81526004016104b190612b66565b6113bc8482612c64565b60008681526065602090815260408083206001600160a01b038c811685529252808320939093558816815290812080548692906113fa908490612c4c565b909155505060408051868152602081018690526001600160a01b03808916928a821692918616917fc3d58168c5ae7397731d063d5bbf3d657854427343f4c083240f7aacaa2d0f62910160405180910390a461145a828888888888611ac6565b50505050505050565b6097546001600160a01b0316331461148d5760405162461bcd60e51b81526004016104b190612bb0565b6001600160a01b0381166114f25760405162461bcd60e51b815260206004820152602660248201527f4f776e61626c653a206e6577206f776e657220697320746865207a65726f206160448201526564647265737360d01b60648201526084016104b1565b6097546040516001600160a01b038084169216907f8be0079c531659141344cd1fd0a4f28419497f9722a3daafe3b4186f6b6457e090600090a3609780546001600160a01b0319166001600160a01b0392909216919091179055565b6040516bffffffffffffffffffffffff19606086901b166020820152603481018490526054810183905260748101829052600090609401604051602081830303815290604052805190602001209050949350505050565b600054610100900460ff16806115be575060005460ff16155b6115da5760405162461bcd60e51b81526004016104b190612b18565b600054610100900460ff161580156115fc576000805461ffff19166101011790555b611604611b90565b61160c611b90565b611614611bfb565b61161d85611ca9565b61162986858585610ba1565b8015610a38576000805461ff0019169055505050505050565b60006001600160e01b03198216636cdb3d1360e11b148061167357506001600160e01b031982166303a24d0760e21b145b806104ff57506301ffc9a760e01b6001600160e01b03198316146104ff565b80516116a5906067906020840190612001565b5050565b6060606780546116b890612cab565b80601f01602080910402602001604051908101604052809291908181526020018280546116e490612cab565b80156117315780601f1061170657610100808354040283529160200191611731565b820191906000526020600020905b81548152906001019060200180831161171457829003601f168201915b50505050509050919050565b600061174d60ca80546001019055565b5060ca5490565b6001600160a01b0384166117b45760405162461bcd60e51b815260206004820152602160248201527f455243313135353a206d696e7420746f20746865207a65726f206164647265736044820152607360f81b60648201526084016104b1565b336117c58160008761136688611a6d565b60008481526065602090815260408083206001600160a01b0389168452909152812080548592906117f7908490612c4c565b909155505060408051858152602081018590526001600160a01b0380881692600092918516917fc3d58168c5ae7397731d063d5bbf3d657854427343f4c083240f7aacaa2d0f62910160405180910390a4610c5681600087878787611ac6565b6001600160a01b0384163b15610a385760405163bc197c8160e01b81526001600160a01b0385169063bc197c819061189b908990899088908890889060040161299d565b602060405180830381600087803b1580156118b557600080fd5b505af19250505080156118e5575060408051601f3d908101601f191682019092526118e29181019061269c565b60015b611992576118f1612d53565b806308c379a0141561192b5750611906612d6b565b80611911575061192d565b8060405162461bcd60e51b81526004016104b19190612a78565b505b60405162461bcd60e51b815260206004820152603460248201527f455243313135353a207472616e7366657220746f206e6f6e20455243313135356044820152732932b1b2b4bb32b91034b6b83632b6b2b73a32b960611b60648201526084016104b1565b6001600160e01b0319811663bc197c8160e01b1461145a5760405162461bcd60e51b81526004016104b190612a8b565b600081815260cc6020526040812080548291906119de90612cab565b9050119050919050565b600080611a42846040517f19457468657265756d205369676e6564204d6573736167653a0a3332000000006020820152603c8101829052600090605c01604051602081830303815290604052805190602001209050919050565b60cb549091506001600160a01b0316611a5b8285611d1e565b6001600160a01b031614949350505050565b60408051600180825281830190925260609160009190602080830190803683370190505090508281600081518110611ab557634e487b7160e01b600052603260045260246000fd5b602090810291909101015292915050565b6001600160a01b0384163b15610a385760405163f23a6e6160e01b81526001600160a01b0385169063f23a6e6190611b0a90899089908890889088906004016129fb565b602060405180830381600087803b158015611b2457600080fd5b505af1925050508015611b54575060408051601f3d908101601f19168201909252611b519181019061269c565b60015b611b60576118f1612d53565b6001600160e01b0319811663f23a6e6160e01b1461145a5760405162461bcd60e51b81526004016104b190612a8b565b600054610100900460ff1680611ba9575060005460ff16155b611bc55760405162461bcd60e51b81526004016104b190612b18565b600054610100900460ff16158015611be7576000805461ffff19166101011790555b8015610538576000805461ff001916905550565b600054610100900460ff1680611c14575060005460ff16155b611c305760405162461bcd60e51b81526004016104b190612b18565b600054610100900460ff16158015611c52576000805461ffff19166101011790555b609780546001600160a01b0319163390811790915560405181906000907f8be0079c531659141344cd1fd0a4f28419497f9722a3daafe3b4186f6b6457e0908290a3508015610538576000805461ff001916905550565b600054610100900460ff1680611cc2575060005460ff16155b611cde5760405162461bcd60e51b81526004016104b190612b18565b600054610100900460ff16158015611d00576000805461ffff19166101011790555b611d0982611692565b80156116a5576000805461ff00191690555050565b600080600080845160411415611d485750505060208201516040830151606084015160001a611dbe565b845160401415611d765750505060408201516020830151906001600160ff1b0381169060ff1c601b01611dbe565b60405162461bcd60e51b815260206004820152601f60248201527f45434453413a20696e76616c6964207369676e6174757265206c656e6774680060448201526064016104b1565b611dca86828585611dd4565b9695505050505050565b60007f7fffffffffffffffffffffffffffffff5d576e7357a4501ddfe92f46681b20a0821115611e515760405162461bcd60e51b815260206004820152602260248201527f45434453413a20696e76616c6964207369676e6174757265202773272076616c604482015261756560f01b60648201526084016104b1565b8360ff16601b1480611e6657508360ff16601c145b611ebd5760405162461bcd60e51b815260206004820152602260248201527f45434453413a20696e76616c6964207369676e6174757265202776272076616c604482015261756560f01b60648201526084016104b1565b6040805160008082526020820180845288905260ff871692820192909252606081018590526080810184905260019060a0016020604051602081039080840390855afa158015611f11573d6000803e3d6000fd5b5050604051601f1901519150506001600160a01b038116611f745760405162461bcd60e51b815260206004820152601860248201527f45434453413a20696e76616c6964207369676e6174757265000000000000000060448201526064016104b1565b95945050505050565b828054611f8990612cab565b90600052602060002090601f016020900481019282611fab5760008555611ff1565b82601f10611fc45782800160ff19823516178555611ff1565b82800160010185558215611ff1579182015b82811115611ff1578235825591602001919060010190611fd6565b50611ffd929150612075565b5090565b82805461200d90612cab565b90600052602060002090601f01602090048101928261202f5760008555611ff1565b82601f1061204857805160ff1916838001178555611ff1565b82800160010185558215611ff1579182015b82811115611ff157825182559160200191906001019061205a565b5b80821115611ffd5760008155600101612076565b80356001600160a01b03811681146120a157600080fd5b919050565b60008083601f8401126120b7578182fd5b5081356001600160401b038111156120cd578182fd5b6020830191508360208260051b85010111156120e857600080fd5b9250929050565b600082601f8301126120ff578081fd5b8135602061210c82612c29565b6040516121198282612ce0565b8381528281019150858301600585901b87018401881015612138578586fd5b855b858110156121565781358452928401929084019060010161213a565b5090979650505050505050565b60008083601f840112612174578182fd5b5081356001600160401b0381111561218a578182fd5b6020830191508360208285010111156120e857600080fd5b600082601f8301126121b2578081fd5b81356001600160401b038111156121cb576121cb612d3d565b6040516121e2601f8301601f191660200182612ce0565b8181528460208386010111156121f6578283fd5b816020850160208301379081016020019190915292915050565b600060208284031215612221578081fd5b61222a8261208a565b9392505050565b60008060408385031215612243578081fd5b61224c8361208a565b915061225a6020840161208a565b90509250929050565b600080600080600060a0868803121561227a578081fd5b6122838661208a565b94506122916020870161208a565b935060408601356001600160401b03808211156122ac578283fd5b6122b889838a016120ef565b945060608801359150808211156122cd578283fd5b6122d989838a016120ef565b935060808801359150808211156122ee578283fd5b506122fb888289016121a2565b9150509295509295909350565b600080600080600060a0868803121561231f578081fd5b6123288661208a565b94506123366020870161208a565b9350604086013592506060860135915060808601356001600160401b0381111561235e578182fd5b6122fb888289016121a2565b600080600080600080600080600080600060c08c8e03121561238a578586fd5b6123938c61208a565b9a506001600160401b038060208e013511156123ad578687fd5b6123bd8e60208f01358f016120a6565b909b50995060408d01358110156123d2578687fd5b6123e28e60408f01358f016120a6565b909950975060608d01358110156123f7578687fd5b6124078e60608f01358f016120a6565b909750955060808d013581101561241c578485fd5b61242c8e60808f01358f016120a6565b909550935060a08d0135811015612441578283fd5b506124528d60a08e01358e016120a6565b81935080925050509295989b509295989b9093969950565b6000806040838503121561247c578182fd5b6124858361208a565b915060208301358015158114612499578182fd5b809150509250929050565b600080604083850312156124b6578182fd5b6124bf8361208a565b946020939093013593505050565b600080600080608085870312156124e2578182fd5b6124eb8561208a565b966020860135965060408601359560600135945092505050565b60008060008060008060008060c0898b031215612520578182fd5b6125298961208a565b975060208901359650604089013595506060890135945060808901356001600160401b0380821115612559578384fd5b6125658c838d01612163565b909650945060a08b013591508082111561257d578384fd5b5061258a8b828c01612163565b999c989b5096995094979396929594505050565b600080604083850312156125b0578182fd5b82356001600160401b03808211156125c6578384fd5b818501915085601f8301126125d9578384fd5b813560206125e682612c29565b6040516125f38282612ce0565b8381528281019150858301600585901b870184018b1015612612578889fd5b8896505b8487101561263b576126278161208a565b835260019690960195918301918301612616565b5096505086013592505080821115612651578283fd5b5061265e858286016120ef565b9150509250929050565b600060208284031215612679578081fd5b5035919050565b600060208284031215612691578081fd5b813561222a81612df4565b6000602082840312156126ad578081fd5b815161222a81612df4565b6000806000806000606086880312156126cf578283fd5b85356001600160401b03808211156126e5578485fd5b6126f189838a01612163565b90975095506020880135915080821115612709578485fd5b5061271688828901612163565b96999598509660400135949350505050565b600060208284031215612739578081fd5b81356001600160401b0381111561274e578182fd5b61275a848285016121a2565b949350505050565b60008060008060808587031215612777578182fd5b84356001600160401b038082111561278d578384fd5b612799888389016121a2565b955060208701359150808211156127ae578384fd5b506127bb878288016121a2565b9350506127ca6040860161208a565b91506127d86060860161208a565b905092959194509250565b600080600080600060a086880312156127fa578283fd5b85356001600160401b0380821115612810578485fd5b61281c89838a016121a2565b96506020880135915080821115612831578485fd5b61283d89838a016121a2565b95506040880135915080821115612852578485fd5b5061285f888289016121a2565b93505061286e6060870161208a565b915061287c6080870161208a565b90509295509295909350565b6000815180845260208085019450808401835b838110156128b75781518752958201959082019060010161289b565b509495945050505050565b600081518084526128da816020860160208601612c7b565b601f01601f19169290920160200192915050565b6000835160206129018285838901612c7b565b8454918401918390600181811c908083168061291e57607f831692505b85831081141561293c57634e487b7160e01b88526022600452602488fd5b80801561295057600181146129615761298d565b60ff1985168852838801955061298d565b60008b815260209020895b858110156129855781548a82015290840190880161296c565b505083880195505b50939a9950505050505050505050565b6001600160a01b0386811682528516602082015260a0604082018190526000906129c990830186612888565b82810360608401526129db8186612888565b905082810360808401526129ef81856128c2565b98975050505050505050565b6001600160a01b03868116825285166020820152604081018490526060810183905260a060808201819052600090612a35908301846128c2565b979650505050505050565b60208152600061222a6020830184612888565b604081526000612a666040830185612888565b8281036020840152611f748185612888565b60208152600061222a60208301846128c2565b60208082526028908201527f455243313135353a204552433131353552656365697665722072656a656374656040820152676420746f6b656e7360c01b606082015260800190565b60208082526025908201527f455243313135353a207472616e7366657220746f20746865207a65726f206164604082015264647265737360d81b606082015260800190565b6020808252602e908201527f496e697469616c697a61626c653a20636f6e747261637420697320616c72656160408201526d191e481a5b9a5d1a585b1a5e995960921b606082015260800190565b6020808252602a908201527f455243313135353a20696e73756666696369656e742062616c616e636520666f60408201526939103a3930b739b332b960b11b606082015260800190565b6020808252818101527f4f776e61626c653a2063616c6c6572206973206e6f7420746865206f776e6572604082015260600190565b6000808335601e19843603018112612bfb578283fd5b8301803591506001600160401b03821115612c14578283fd5b6020019150368190038213156120e857600080fd5b60006001600160401b03821115612c4257612c42612d3d565b5060051b60200190565b60008219821115612c5f57612c5f612d27565b500190565b600082821015612c7657612c76612d27565b500390565b60005b83811015612c96578181015183820152602001612c7e565b83811115612ca5576000848401525b50505050565b600181811c90821680612cbf57607f821691505b6020821081141561063557634e487b7160e01b600052602260045260246000fd5b601f8201601f191681016001600160401b0381118282101715612d0557612d05612d3d565b6040525050565b6000600019821415612d2057612d20612d27565b5060010190565b634e487b7160e01b600052601160045260246000fd5b634e487b7160e01b600052604160045260246000fd5b600060033d1115612d6857600481823e5160e01c5b90565b600060443d1015612d795790565b6040516003193d81016004833e81513d6001600160401b038160248401118184111715612da857505050505090565b8285019150815181811115612dc05750505050505090565b843d8701016020828501011115612dda5750505050505090565b612de960208286010187612ce0565b509095945050505050565b6001600160e01b03198116811461053857600080fdfea264697066735822122098d3a5f29921eae129a5def83b15f0aa2acdfb6849b9d8211956711004e7ded064736f6c63430008040033",
  "devdoc": {
    "kind": "dev",
    "methods": {
      "balanceOf(address,uint256)": {
        "details": "See {IERC1155-balanceOf}. Requirements: - `account` cannot be the zero address."
      },
      "balanceOfBatch(address[],uint256[])": {
        "details": "See {IERC1155-balanceOfBatch}. Requirements: - `accounts` and `ids` must have the same length."
      },
      "batchMint(address,uint256[],uint256[],uint256[],bytes[],bytes[])": {
        "details": "Batch mints multiple different existing NFT types",
        "params": {
          "_amounts": "numbers of NFTs of same type to mint",
          "_data": "Data to pass if receiver is contract",
          "_ids": "IDs of the type of NFT to mint",
          "_nonces": "platform nounces to prevent replay",
          "_signatures": "Verified signatures granting _account an NFT",
          "_to": "Account to mint NFT to (i.e. the owner)"
        }
      },
      "create(string,bytes,uint256)": {
        "details": "Creates a new NFT type",
        "params": {
          "_cid": "Content identifier",
          "_data": "Data to pass if receiver is contract"
        },
        "returns": {
          "_id": "The newly created token ID"
        }
      },
      "getMessageHash(address,uint256,uint256,uint256)": {
        "details": "Create message hash to be signed"
      },
      "isApprovedForAll(address,address)": {
        "details": "See {IERC1155-isApprovedForAll}."
      },
      "maxSupply(uint256)": {
        "details": "Returns the max quantity for a token ID",
        "params": {
          "_id": "ID of the token to query"
        },
        "returns": {
          "_0": "amount of token in existence"
        }
      },
      "mint(address,uint256,uint256,uint256,bytes,bytes)": {
        "details": "Mints an existing NFT type",
        "params": {
          "_amount": "number of NFTs of same type to mint",
          "_data": "Data to pass if receiver is contract",
          "_id": "ID (i.e. type) of NFT to mint",
          "_nonce": "platform nounce to prevent replay",
          "_signature": "Verified signature granting _account an NFT",
          "_to": "Account to mint NFT to (i.e. the owner)"
        }
      },
      "owner()": {
        "details": "Returns the address of the current owner."
      },
      "pause()": {
        "details": "Pause or unpause the minting and creation of NFTs"
      },
      "renounceOwnership()": {
        "details": "Leaves the contract without owner. It will not be possible to call `onlyOwner` functions anymore. Can only be called by the current owner. NOTE: Renouncing ownership will leave the contract without an owner, thereby removing any functionality that is only available to the owner."
      },
      "safeBatchTransferFrom(address,address,uint256[],uint256[],bytes)": {
        "details": "See {IERC1155-safeBatchTransferFrom}."
      },
      "safeTransferFrom(address,address,uint256,uint256,bytes)": {
        "details": "See {IERC1155-safeTransferFrom}."
      },
      "setApprovalForAll(address,bool)": {
        "details": "See {IERC1155-setApprovalForAll}."
      },
      "setURI(string)": {
        "details": "Sets a new URI for all token types"
      },
      "supportsInterface(bytes4)": {
        "details": "See {IERC165-supportsInterface}."
      },
      "totalSupply(uint256)": {
        "details": "Returns the total quantity for a token ID",
        "params": {
          "_id": "ID of the token to query"
        },
        "returns": {
          "_0": "amount of token in existence"
        }
      },
      "transferOwnership(address)": {
        "details": "Transfers ownership of the contract to a new account (`newOwner`). Can only be called by the current owner."
      },
      "updateSigner(address)": {
        "details": "Update the signer"
      },
      "uri(uint256)": {
        "details": "Returns the uri of a token given its ID",
        "params": {
          "_id": "ID of the token to query"
        },
        "returns": {
          "_0": "uri of the token or an empty string if it does not exist"
        }
      }
    },
    "version": 1
  },
  "userdoc": {
    "kind": "user",
    "methods": {
      "batchMint(address,uint256[],uint256[],uint256[],bytes[],bytes[])": {
        "notice": "Enforces a maximum of 1 minting event per account per NFT type"
      },
      "mint(address,uint256,uint256,uint256,bytes,bytes)": {
        "notice": "Enforces a maximum of 1 minting event per NFT type per account"
      }
    },
    "version": 1
  },
  "storageLayout": {
    "storage": [
      {
        "astId": 532,
        "contract": "contracts/CybertinoNFT/CybertinoNFTV0.sol:CybertinoNFTV0",
        "label": "_initialized",
        "offset": 0,
        "slot": "0",
        "type": "t_bool"
      },
      {
        "astId": 535,
        "contract": "contracts/CybertinoNFT/CybertinoNFTV0.sol:CybertinoNFTV0",
        "label": "_initializing",
        "offset": 1,
        "slot": "0",
        "type": "t_bool"
      },
      {
        "astId": 3107,
        "contract": "contracts/CybertinoNFT/CybertinoNFTV0.sol:CybertinoNFTV0",
        "label": "__gap",
        "offset": 0,
        "slot": "1",
        "type": "t_array(t_uint256)50_storage"
      },
      {
        "astId": 3561,
        "contract": "contracts/CybertinoNFT/CybertinoNFTV0.sol:CybertinoNFTV0",
        "label": "__gap",
        "offset": 0,
        "slot": "51",
        "type": "t_array(t_uint256)50_storage"
      },
      {
        "astId": 601,
        "contract": "contracts/CybertinoNFT/CybertinoNFTV0.sol:CybertinoNFTV0",
        "label": "_balances",
        "offset": 0,
        "slot": "101",
        "type": "t_mapping(t_uint256,t_mapping(t_address,t_uint256))"
      },
      {
        "astId": 607,
        "contract": "contracts/CybertinoNFT/CybertinoNFTV0.sol:CybertinoNFTV0",
        "label": "_operatorApprovals",
        "offset": 0,
        "slot": "102",
        "type": "t_mapping(t_address,t_mapping(t_address,t_bool))"
      },
      {
        "astId": 609,
        "contract": "contracts/CybertinoNFT/CybertinoNFTV0.sol:CybertinoNFTV0",
        "label": "_uri",
        "offset": 0,
        "slot": "103",
        "type": "t_string_storage"
      },
      {
        "astId": 1631,
        "contract": "contracts/CybertinoNFT/CybertinoNFTV0.sol:CybertinoNFTV0",
        "label": "__gap",
        "offset": 0,
        "slot": "104",
        "type": "t_array(t_uint256)47_storage"
      },
      {
        "astId": 406,
        "contract": "contracts/CybertinoNFT/CybertinoNFTV0.sol:CybertinoNFTV0",
        "label": "_owner",
        "offset": 0,
        "slot": "151",
        "type": "t_address"
      },
      {
        "astId": 525,
        "contract": "contracts/CybertinoNFT/CybertinoNFTV0.sol:CybertinoNFTV0",
        "label": "__gap",
        "offset": 0,
        "slot": "152",
        "type": "t_array(t_uint256)49_storage"
      },
      {
        "astId": 7089,
        "contract": "contracts/CybertinoNFT/CybertinoNFTV0.sol:CybertinoNFTV0",
        "label": "name",
        "offset": 0,
        "slot": "201",
        "type": "t_string_storage"
      },
      {
        "astId": 7093,
        "contract": "contracts/CybertinoNFT/CybertinoNFTV0.sol:CybertinoNFTV0",
        "label": "id",
        "offset": 0,
        "slot": "202",
        "type": "t_struct(Counter)3114_storage"
      },
      {
        "astId": 7096,
        "contract": "contracts/CybertinoNFT/CybertinoNFTV0.sol:CybertinoNFTV0",
        "label": "signer",
        "offset": 0,
        "slot": "203",
        "type": "t_address"
      },
      {
        "astId": 7101,
        "contract": "contracts/CybertinoNFT/CybertinoNFTV0.sol:CybertinoNFTV0",
        "label": "idToUri",
        "offset": 0,
        "slot": "204",
        "type": "t_mapping(t_uint256,t_string_storage)"
      },
      {
        "astId": 7106,
        "contract": "contracts/CybertinoNFT/CybertinoNFTV0.sol:CybertinoNFTV0",
        "label": "maxTokenSupply",
        "offset": 0,
        "slot": "205",
        "type": "t_mapping(t_uint256,t_uint256)"
      },
      {
        "astId": 7111,
        "contract": "contracts/CybertinoNFT/CybertinoNFTV0.sol:CybertinoNFTV0",
        "label": "tokenSupply",
        "offset": 0,
        "slot": "206",
        "type": "t_mapping(t_uint256,t_uint256)"
      },
      {
        "astId": 7116,
        "contract": "contracts/CybertinoNFT/CybertinoNFTV0.sol:CybertinoNFTV0",
        "label": "executed",
        "offset": 0,
        "slot": "207",
        "type": "t_mapping(t_bytes32,t_bool)"
      },
      {
        "astId": 7120,
        "contract": "contracts/CybertinoNFT/CybertinoNFTV0.sol:CybertinoNFTV0",
        "label": "paused",
        "offset": 0,
        "slot": "208",
        "type": "t_bool"
      },
      {
        "astId": 7123,
        "contract": "contracts/CybertinoNFT/CybertinoNFTV0.sol:CybertinoNFTV0",
        "label": "symbol",
        "offset": 0,
        "slot": "209",
        "type": "t_string_storage"
      }
    ],
    "types": {
      "t_address": {
        "encoding": "inplace",
        "label": "address",
        "numberOfBytes": "20"
      },
      "t_array(t_uint256)47_storage": {
        "base": "t_uint256",
        "encoding": "inplace",
        "label": "uint256[47]",
        "numberOfBytes": "1504"
      },
      "t_array(t_uint256)49_storage": {
        "base": "t_uint256",
        "encoding": "inplace",
        "label": "uint256[49]",
        "numberOfBytes": "1568"
      },
      "t_array(t_uint256)50_storage": {
        "base": "t_uint256",
        "encoding": "inplace",
        "label": "uint256[50]",
        "numberOfBytes": "1600"
      },
      "t_bool": {
        "encoding": "inplace",
        "label": "bool",
        "numberOfBytes": "1"
      },
      "t_bytes32": {
        "encoding": "inplace",
        "label": "bytes32",
        "numberOfBytes": "32"
      },
      "t_mapping(t_address,t_bool)": {
        "encoding": "mapping",
        "key": "t_address",
        "label": "mapping(address => bool)",
        "numberOfBytes": "32",
        "value": "t_bool"
      },
      "t_mapping(t_address,t_mapping(t_address,t_bool))": {
        "encoding": "mapping",
        "key": "t_address",
        "label": "mapping(address => mapping(address => bool))",
        "numberOfBytes": "32",
        "value": "t_mapping(t_address,t_bool)"
      },
      "t_mapping(t_address,t_uint256)": {
        "encoding": "mapping",
        "key": "t_address",
        "label": "mapping(address => uint256)",
        "numberOfBytes": "32",
        "value": "t_uint256"
      },
      "t_mapping(t_bytes32,t_bool)": {
        "encoding": "mapping",
        "key": "t_bytes32",
        "label": "mapping(bytes32 => bool)",
        "numberOfBytes": "32",
        "value": "t_bool"
      },
      "t_mapping(t_uint256,t_mapping(t_address,t_uint256))": {
        "encoding": "mapping",
        "key": "t_uint256",
        "label": "mapping(uint256 => mapping(address => uint256))",
        "numberOfBytes": "32",
        "value": "t_mapping(t_address,t_uint256)"
      },
      "t_mapping(t_uint256,t_string_storage)": {
        "encoding": "mapping",
        "key": "t_uint256",
        "label": "mapping(uint256 => string)",
        "numberOfBytes": "32",
        "value": "t_string_storage"
      },
      "t_mapping(t_uint256,t_uint256)": {
        "encoding": "mapping",
        "key": "t_uint256",
        "label": "mapping(uint256 => uint256)",
        "numberOfBytes": "32",
        "value": "t_uint256"
      },
      "t_string_storage": {
        "encoding": "bytes",
        "label": "string",
        "numberOfBytes": "32"
      },
      "t_struct(Counter)3114_storage": {
        "encoding": "inplace",
        "label": "struct CountersUpgradeable.Counter",
        "members": [
          {
            "astId": 3113,
            "contract": "contracts/CybertinoNFT/CybertinoNFTV0.sol:CybertinoNFTV0",
            "label": "_value",
            "offset": 0,
            "slot": "0",
            "type": "t_uint256"
          }
        ],
        "numberOfBytes": "32"
      },
      "t_uint256": {
        "encoding": "inplace",
        "label": "uint256",
        "numberOfBytes": "32"
      }
    }
  }
}