{
  "address": "0xa8251468EFBFce6a9baCAfEE8703aB12bb99c55B",
  "abi": [
    {
      "anonymous": false,
      "inputs": [
        {
          "indexed": true,
          "internalType": "address",
          "name": "account",
          "type": "address"
        },
        {
          "indexed": true,
          "internalType": "address",
          "name": "operator",
          "type": "address"
        },
        {
          "indexed": false,
          "internalType": "bool",
          "name": "approved",
          "type": "bool"
        }
      ],
      "name": "ApprovalForAll",
      "type": "event"
    },
    {
      "anonymous": false,
      "inputs": [
        {
          "indexed": true,
          "internalType": "address",
          "name": "operator",
          "type": "address"
        },
        {
          "indexed": true,
          "internalType": "address",
          "name": "to",
          "type": "address"
        },
        {
          "indexed": false,
          "internalType": "uint256",
          "name": "id",
          "type": "uint256"
        },
        {
          "indexed": false,
          "internalType": "uint256",
          "name": "value",
          "type": "uint256"
        },
        {
          "indexed": true,
          "internalType": "uint256",
          "name": "nonce",
          "type": "uint256"
        }
      ],
      "name": "CybertinoMint",
      "type": "event"
    },
    {
      "anonymous": false,
      "inputs": [
        {
          "indexed": true,
          "internalType": "address",
          "name": "previousOwner",
          "type": "address"
        },
        {
          "indexed": true,
          "internalType": "address",
          "name": "newOwner",
          "type": "address"
        }
      ],
      "name": "OwnershipTransferred",
      "type": "event"
    },
    {
      "anonymous": false,
      "inputs": [
        {
          "indexed": true,
          "internalType": "address",
          "name": "operator",
          "type": "address"
        },
        {
          "indexed": true,
          "internalType": "address",
          "name": "from",
          "type": "address"
        },
        {
          "indexed": true,
          "internalType": "address",
          "name": "to",
          "type": "address"
        },
        {
          "indexed": false,
          "internalType": "uint256[]",
          "name": "ids",
          "type": "uint256[]"
        },
        {
          "indexed": false,
          "internalType": "uint256[]",
          "name": "values",
          "type": "uint256[]"
        }
      ],
      "name": "TransferBatch",
      "type": "event"
    },
    {
      "anonymous": false,
      "inputs": [
        {
          "indexed": true,
          "internalType": "address",
          "name": "operator",
          "type": "address"
        },
        {
          "indexed": true,
          "internalType": "address",
          "name": "from",
          "type": "address"
        },
        {
          "indexed": true,
          "internalType": "address",
          "name": "to",
          "type": "address"
        },
        {
          "indexed": false,
          "internalType": "uint256",
          "name": "id",
          "type": "uint256"
        },
        {
          "indexed": false,
          "internalType": "uint256",
          "name": "value",
          "type": "uint256"
        }
      ],
      "name": "TransferSingle",
      "type": "event"
    },
    {
      "anonymous": false,
      "inputs": [
        {
          "indexed": false,
          "internalType": "string",
          "name": "value",
          "type": "string"
        },
        {
          "indexed": true,
          "internalType": "uint256",
          "name": "id",
          "type": "uint256"
        }
      ],
      "name": "URI",
      "type": "event"
    },
    {
      "inputs": [
        {
          "internalType": "string",
          "name": "_name",
          "type": "string"
        },
        {
          "internalType": "string",
          "name": "_uri",
          "type": "string"
        },
        {
          "internalType": "string",
          "name": "_symbol",
          "type": "string"
        },
        {
          "internalType": "address",
          "name": "_signer",
          "type": "address"
        },
        {
          "internalType": "address",
          "name": "_owner",
          "type": "address"
        }
      ],
      "name": "CybertinoCanvas_init",
      "outputs": [],
      "stateMutability": "nonpayable",
      "type": "function"
    },
    {
      "inputs": [
        {
          "internalType": "string",
          "name": "_name",
          "type": "string"
        },
        {
          "internalType": "string",
          "name": "_symbol",
          "type": "string"
        },
        {
          "internalType": "address",
          "name": "_signer",
          "type": "address"
        },
        {
          "internalType": "address",
          "name": "_owner",
          "type": "address"
        }
      ],
      "name": "CybertinoCanvas_init_unchained",
      "outputs": [],
      "stateMutability": "nonpayable",
      "type": "function"
    },
    {
      "inputs": [
        {
          "internalType": "address",
          "name": "account",
          "type": "address"
        },
        {
          "internalType": "uint256",
          "name": "id",
          "type": "uint256"
        }
      ],
      "name": "balanceOf",
      "outputs": [
        {
          "internalType": "uint256",
          "name": "",
          "type": "uint256"
        }
      ],
      "stateMutability": "view",
      "type": "function"
    },
    {
      "inputs": [
        {
          "internalType": "address[]",
          "name": "accounts",
          "type": "address[]"
        },
        {
          "internalType": "uint256[]",
          "name": "ids",
          "type": "uint256[]"
        }
      ],
      "name": "balanceOfBatch",
      "outputs": [
        {
          "internalType": "uint256[]",
          "name": "",
          "type": "uint256[]"
        }
      ],
      "stateMutability": "view",
      "type": "function"
    },
    {
      "inputs": [
        {
          "internalType": "address",
          "name": "_to",
          "type": "address"
        },
        {
          "internalType": "uint256[]",
          "name": "_ids",
          "type": "uint256[]"
        },
        {
          "internalType": "uint256[]",
          "name": "_amounts",
          "type": "uint256[]"
        },
        {
          "internalType": "uint256[]",
          "name": "_nonces",
          "type": "uint256[]"
        },
        {
          "internalType": "bytes[]",
          "name": "_signatures",
          "type": "bytes[]"
        },
        {
          "internalType": "bytes[]",
          "name": "_data",
          "type": "bytes[]"
        }
      ],
      "name": "batchMint",
      "outputs": [],
      "stateMutability": "nonpayable",
      "type": "function"
    },
    {
      "inputs": [
        {
          "internalType": "string",
          "name": "_cid",
          "type": "string"
        },
        {
          "internalType": "bytes",
          "name": "_data",
          "type": "bytes"
        },
        {
          "components": [
            {
              "internalType": "contract ILayer",
              "name": "layer",
              "type": "address"
            },
            {
              "internalType": "uint256",
              "name": "layerID",
              "type": "uint256"
            }
          ],
          "internalType": "struct InfluencerStorageV0.LayerToken[]",
          "name": "_tokens",
          "type": "tuple[]"
        },
        {
          "internalType": "uint256",
          "name": "_maxSupply",
          "type": "uint256"
        }
      ],
      "name": "createCanvas",
      "outputs": [
        {
          "internalType": "uint256",
          "name": "_id",
          "type": "uint256"
        }
      ],
      "stateMutability": "nonpayable",
      "type": "function"
    },
    {
      "inputs": [
        {
          "internalType": "bytes32",
          "name": "",
          "type": "bytes32"
        }
      ],
      "name": "executed",
      "outputs": [
        {
          "internalType": "bool",
          "name": "",
          "type": "bool"
        }
      ],
      "stateMutability": "view",
      "type": "function"
    },
    {
      "inputs": [
        {
          "internalType": "address",
          "name": "_to",
          "type": "address"
        },
        {
          "internalType": "uint256",
          "name": "_tokenId",
          "type": "uint256"
        },
        {
          "internalType": "uint256",
          "name": "_amount",
          "type": "uint256"
        },
        {
          "internalType": "uint256",
          "name": "_nonce",
          "type": "uint256"
        }
      ],
      "name": "getMessageHash",
      "outputs": [
        {
          "internalType": "bytes32",
          "name": "",
          "type": "bytes32"
        }
      ],
      "stateMutability": "pure",
      "type": "function"
    },
    {
      "inputs": [],
      "name": "id",
      "outputs": [
        {
          "internalType": "uint256",
          "name": "_value",
          "type": "uint256"
        }
      ],
      "stateMutability": "view",
      "type": "function"
    },
    {
      "inputs": [
        {
          "internalType": "address",
          "name": "account",
          "type": "address"
        },
        {
          "internalType": "address",
          "name": "operator",
          "type": "address"
        }
      ],
      "name": "isApprovedForAll",
      "outputs": [
        {
          "internalType": "bool",
          "name": "",
          "type": "bool"
        }
      ],
      "stateMutability": "view",
      "type": "function"
    },
    {
      "inputs": [
        {
          "internalType": "uint256",
          "name": "_id",
          "type": "uint256"
        }
      ],
      "name": "maxSupply",
      "outputs": [
        {
          "internalType": "uint256",
          "name": "",
          "type": "uint256"
        }
      ],
      "stateMutability": "view",
      "type": "function"
    },
    {
      "inputs": [
        {
          "internalType": "address",
          "name": "_to",
          "type": "address"
        },
        {
          "internalType": "uint256",
          "name": "_id",
          "type": "uint256"
        },
        {
          "internalType": "uint256",
          "name": "_amount",
          "type": "uint256"
        },
        {
          "internalType": "uint256",
          "name": "_nonce",
          "type": "uint256"
        },
        {
          "internalType": "bytes",
          "name": "_signature",
          "type": "bytes"
        },
        {
          "internalType": "bytes",
          "name": "_data",
          "type": "bytes"
        }
      ],
      "name": "mint",
      "outputs": [],
      "stateMutability": "nonpayable",
      "type": "function"
    },
    {
      "inputs": [],
      "name": "name",
      "outputs": [
        {
          "internalType": "string",
          "name": "",
          "type": "string"
        }
      ],
      "stateMutability": "view",
      "type": "function"
    },
    {
      "inputs": [],
      "name": "owner",
      "outputs": [
        {
          "internalType": "address",
          "name": "",
          "type": "address"
        }
      ],
      "stateMutability": "view",
      "type": "function"
    },
    {
      "inputs": [],
      "name": "pause",
      "outputs": [],
      "stateMutability": "nonpayable",
      "type": "function"
    },
    {
      "inputs": [],
      "name": "paused",
      "outputs": [
        {
          "internalType": "bool",
          "name": "",
          "type": "bool"
        }
      ],
      "stateMutability": "view",
      "type": "function"
    },
    {
      "inputs": [],
      "name": "renounceOwnership",
      "outputs": [],
      "stateMutability": "nonpayable",
      "type": "function"
    },
    {
      "inputs": [
        {
          "internalType": "address",
          "name": "from",
          "type": "address"
        },
        {
          "internalType": "address",
          "name": "to",
          "type": "address"
        },
        {
          "internalType": "uint256[]",
          "name": "ids",
          "type": "uint256[]"
        },
        {
          "internalType": "uint256[]",
          "name": "amounts",
          "type": "uint256[]"
        },
        {
          "internalType": "bytes",
          "name": "data",
          "type": "bytes"
        }
      ],
      "name": "safeBatchTransferFrom",
      "outputs": [],
      "stateMutability": "nonpayable",
      "type": "function"
    },
    {
      "inputs": [
        {
          "internalType": "address",
          "name": "from",
          "type": "address"
        },
        {
          "internalType": "address",
          "name": "to",
          "type": "address"
        },
        {
          "internalType": "uint256",
          "name": "id",
          "type": "uint256"
        },
        {
          "internalType": "uint256",
          "name": "amount",
          "type": "uint256"
        },
        {
          "internalType": "bytes",
          "name": "data",
          "type": "bytes"
        }
      ],
      "name": "safeTransferFrom",
      "outputs": [],
      "stateMutability": "nonpayable",
      "type": "function"
    },
    {
      "inputs": [
        {
          "internalType": "address",
          "name": "operator",
          "type": "address"
        },
        {
          "internalType": "bool",
          "name": "approved",
          "type": "bool"
        }
      ],
      "name": "setApprovalForAll",
      "outputs": [],
      "stateMutability": "nonpayable",
      "type": "function"
    },
    {
      "inputs": [
        {
          "internalType": "string",
          "name": "_uri",
          "type": "string"
        }
      ],
      "name": "setURI",
      "outputs": [],
      "stateMutability": "nonpayable",
      "type": "function"
    },
    {
      "inputs": [],
      "name": "signer",
      "outputs": [
        {
          "internalType": "address",
          "name": "",
          "type": "address"
        }
      ],
      "stateMutability": "view",
      "type": "function"
    },
    {
      "inputs": [
        {
          "internalType": "bytes4",
          "name": "interfaceId",
          "type": "bytes4"
        }
      ],
      "name": "supportsInterface",
      "outputs": [
        {
          "internalType": "bool",
          "name": "",
          "type": "bool"
        }
      ],
      "stateMutability": "view",
      "type": "function"
    },
    {
      "inputs": [],
      "name": "symbol",
      "outputs": [
        {
          "internalType": "string",
          "name": "",
          "type": "string"
        }
      ],
      "stateMutability": "view",
      "type": "function"
    },
    {
      "inputs": [
        {
          "internalType": "uint256",
          "name": "_id",
          "type": "uint256"
        }
      ],
      "name": "totalSupply",
      "outputs": [
        {
          "internalType": "uint256",
          "name": "",
          "type": "uint256"
        }
      ],
      "stateMutability": "view",
      "type": "function"
    },
    {
      "inputs": [
        {
          "internalType": "address",
          "name": "newOwner",
          "type": "address"
        }
      ],
      "name": "transferOwnership",
      "outputs": [],
      "stateMutability": "nonpayable",
      "type": "function"
    },
    {
      "inputs": [
        {
          "internalType": "address",
          "name": "_signer",
          "type": "address"
        }
      ],
      "name": "updateSigner",
      "outputs": [],
      "stateMutability": "nonpayable",
      "type": "function"
    },
    {
      "inputs": [
        {
          "internalType": "uint256",
          "name": "_id",
          "type": "uint256"
        }
      ],
      "name": "uri",
      "outputs": [
        {
          "internalType": "string",
          "name": "",
          "type": "string"
        }
      ],
      "stateMutability": "view",
      "type": "function"
    }
  ],
  "transactionHash": "0x4d82fa4c6448e5b19a6665422828c62ae55b9509ad5cd33ac2e4ca72f75e5593",
  "args": [],
  "solcInputHash": "7b07b5faaba68a3e79b24fdaba3c6067",
  "bytecode": "0x608060405260d2805460ff1916905534801561001a57600080fd5b50612f998061002a6000396000f3fe608060405234801561001057600080fd5b50600436106101c35760003560e01c80638ccdf15c116100f9578063b4d9757811610097578063e985e9c511610071578063e985e9c5146103d4578063f242432a14610410578063f2fde38b14610423578063f440be041461043657600080fd5b8063b4d975781461038e578063bd85b039146103a1578063d7c4f92a146103c157600080fd5b8063a22cb465116100d3578063a22cb4651461033b578063a7ecd37e1461034e578063a9fcfb3314610361578063af640d0f1461038457600080fd5b80638ccdf15c1461030f5780638da5cb5b1461032257806395d89b411461033357600080fd5b80632eb2c2d611610166578063715018a611610140578063715018a6146102cc578063780c51bb146102d45780638456cb59146102e7578063869f7594146102ef57600080fd5b80632eb2c2d61461028c5780634e1273f41461029f5780635c975abb146102bf57600080fd5b80630656abb3116101a25780630656abb31461022657806306fdde03146102395780630e89341c1461024e578063238ac9331461026157600080fd5b8062fdd58e146101c857806301ffc9a7146101ee57806302fe530514610211575b600080fd5b6101db6101d6366004612544565b610449565b6040519081526020015b60405180910390f35b6102016101fc366004612728565b6104e2565b60405190151581526020016101e5565b61022461021f36600461282c565b610505565b005b610224610234366004612866565b61053b565b6102416105f7565b6040516101e59190612b86565b61024161025c366004612710565b610685565b60cd54610274906001600160a01b031681565b6040516001600160a01b0390911681526020016101e5565b61022461029a366004612304565b6106f7565b6102b26102ad366004612644565b6109c1565b6040516101e59190612b4e565b60d2546102019060ff1681565b610224610b22565b6101db6102e2366004612760565b610b96565b610224610d5b565b6101db6102fd366004612710565b600090815260cf602052604090205490565b61022461031d3660046125a9565b610d99565b6097546001600160a01b0316610274565b6102416110e7565b610224610349366004612513565b6110f4565b61022461035c3660046122a9565b6111cb565b61020161036f366004612710565b60d16020526000908152604090205460ff1681565b60cb546101db9081565b61022461039c3660046128eb565b611217565b6101db6103af366004612710565b600090815260d0602052604090205490565b6102246103cf366004612413565b6112b4565b6102016103e23660046122cc565b6001600160a01b03918216600090815260666020908152604080832093909416825291909152205460ff1690565b61022461041e3660046123ad565b6113f8565b6102246104313660046122a9565b6115a5565b6101db61044436600461256f565b611690565b60006001600160a01b0383166104ba5760405162461bcd60e51b815260206004820152602b60248201527f455243313135353a2062616c616e636520717565727920666f7220746865207a60448201526a65726f206164647265737360a81b60648201526084015b60405180910390fd5b5060009081526065602090815260408083206001600160a01b03949094168352929052205490565b60006001600160e01b0319821615806104ff57506104ff826116e7565b92915050565b6097546001600160a01b0316331461052f5760405162461bcd60e51b81526004016104b190612cbe565b61053881611737565b50565b600054610100900460ff1680610554575060005460ff16155b6105705760405162461bcd60e51b81526004016104b190612c26565b600054610100900460ff16158015610592576000805461ffff19166101011790555b84516105a59060c9906020880190612022565b5083516105b99060ca906020870190612022565b5060cd80546001600160a01b0319166001600160a01b0385161790556105de826115a5565b80156105f0576000805461ff00191690555b5050505050565b60c9805461060490612db9565b80601f016020809104026020016040519081016040528092919081815260200182805461063090612db9565b801561067d5780601f106106525761010080835404028352916020019161067d565b820191906000526020600020905b81548152906001019060200180831161066057829003601f168201915b505050505081565b60606000610693600061174e565b90508051600014156106b5575050604080516020810190915260008152919050565b8060ce60008581526020019081526020016000206040516020016106da9291906129fc565b604051602081830303815290604052915050919050565b50919050565b81518351146107595760405162461bcd60e51b815260206004820152602860248201527f455243313135353a2069647320616e6420616d6f756e7473206c656e677468206044820152670dad2e6dac2e8c6d60c31b60648201526084016104b1565b6001600160a01b03841661077f5760405162461bcd60e51b81526004016104b190612be1565b6001600160a01b03851633148061079b575061079b85336103e2565b6108025760405162461bcd60e51b815260206004820152603260248201527f455243313135353a207472616e736665722063616c6c6572206973206e6f74206044820152711bdddb995c881b9bdc88185c1c1c9bdd995960721b60648201526084016104b1565b3360005b845181101561095357600085828151811061083157634e487b7160e01b600052603260045260246000fd5b60200260200101519050600085838151811061085d57634e487b7160e01b600052603260045260246000fd5b60209081029190910181015160008481526065835260408082206001600160a01b038e1683529093529190912054909150818110156108ae5760405162461bcd60e51b81526004016104b190612c74565b6108b88282612d72565b6065600085815260200190815260200160002060008c6001600160a01b03166001600160a01b0316815260200190815260200160002081905550816065600085815260200190815260200160002060008b6001600160a01b03166001600160a01b0316815260200190815260200160002060008282546109389190612d5a565b925050819055505050508061094c90612e1a565b9050610806565b50846001600160a01b0316866001600160a01b0316826001600160a01b03167f4a39dc06d4c0dbc64b70af90fd698a233a518aa5d07e595d983b8c0526c8f7fb87876040516109a3929190612b61565b60405180910390a46109b98187878787876117e2565b505050505050565b60608151835114610a265760405162461bcd60e51b815260206004820152602960248201527f455243313135353a206163636f756e747320616e6420696473206c656e677468604482015268040dad2e6dac2e8c6d60bb1b60648201526084016104b1565b600083516001600160401b03811115610a4f57634e487b7160e01b600052604160045260246000fd5b604051908082528060200260200182016040528015610a78578160200160208202803683370190505b50905060005b8451811015610b1a57610adf858281518110610aaa57634e487b7160e01b600052603260045260246000fd5b6020026020010151858381518110610ad257634e487b7160e01b600052603260045260246000fd5b6020026020010151610449565b828281518110610aff57634e487b7160e01b600052603260045260246000fd5b6020908102919091010152610b1381612e1a565b9050610a7e565b509392505050565b6097546001600160a01b03163314610b4c5760405162461bcd60e51b81526004016104b190612cbe565b6097546040516000916001600160a01b0316907f8be0079c531659141344cd1fd0a4f28419497f9722a3daafe3b4186f6b6457e0908390a3609780546001600160a01b0319169055565b6097546000906001600160a01b03163314610bc35760405162461bcd60e51b81526004016104b190612cbe565b86610c105760405162461bcd60e51b815260206004820152601f60248201527f4572723a204d697373696e6720436f6e74656e74204964656e7469666965720060448201526064016104b1565b610c1861194d565b600081815260cc602052604081208281556001018590559091505b83811015610ca157848482818110610c5b57634e487b7160e01b600052603260045260246000fd5b600085815260cc6020908152604080832087845260020190915290819020910292909201919050610c8c8282612f02565b50819050610c9981612e1a565b915050610c33565b50610ce53382600089898080601f01602080910402602001604051908101604052809392919081815260200183838082843760009201919091525061196492505050565b600081815260ce60205260409020610cfe9089896120a6565b50600081815260cf60205260409020829055807f6bb7ff708619ba0610cba295a58592e0451dee2622938c8755667688daf3529b610d3b82610685565b604051610d489190612b86565b60405180910390a2979650505050505050565b6097546001600160a01b03163314610d855760405162461bcd60e51b81526004016104b190612cbe565b60d2805460ff19811660ff90911615179055565b60d25460ff1615610dd55760405162461bcd60e51b815260206004820152600660248201526514185d5cd95960d21b60448201526064016104b1565b610dde87611a67565b610e2a5760405162461bcd60e51b815260206004820152601b60248201527f437962657274696e6f43616e7661733a20696e76616c6964204944000000000060448201526064016104b1565b6001861015610e8b5760405162461bcd60e51b815260206004820152602760248201527f437962657274696e6f43616e7661733a206d757374206d696e74206174206c65604482015266617374206f6e6560c81b60648201526084016104b1565b600087815260cf602090815260408083205460d090925290912054610eb1908890612d5a565b1115610f0b5760405162461bcd60e51b815260206004820152602360248201527f437962657274696e6f43616e7661733a2065786365656473206d617820737570604482015262706c7960e81b60648201526084016104b1565b6000610f1989898989611690565b600081815260d1602052604090205490915060ff1615610f7b5760405162461bcd60e51b815260206004820152601f60248201527f437962657274696e6f43616e7661733a20616c7265616479206d696e7465640060448201526064016104b1565b610fbb8186868080601f016020809104026020016040519081016040528093929190818152602001838380828437600092019190915250611a8d92505050565b6110125760405162461bcd60e51b815260206004820152602260248201527f437962657274696e6f43616e7661733a20696e76616c6964207369676e617475604482015261726560f01b60648201526084016104b1565b600081815260d16020908152604091829020805460ff191660011790558151601f850182900482028101820190925283825261106e918b918b918b91889088908190840183828082843760009201919091525061196492505050565b600088815260d060205260408120805489929061108c908490612d5a565b90915550506040805189815260208101899052339188916001600160a01b038d169184917f3371a470b65adaccbbfff3b30557ce52af697d6131c10f13cb4c8f93de646a03910160405180910390a450505050505050505050565b60ca805461060490612db9565b336001600160a01b038316141561115f5760405162461bcd60e51b815260206004820152602960248201527f455243313135353a2073657474696e6720617070726f76616c20737461747573604482015268103337b91039b2b63360b91b60648201526084016104b1565b3360008181526066602090815260408083206001600160a01b03871680855290835292819020805460ff191686151590811790915590519081529192917f17307eab39ab6107e8899845ad3d59bd9653f200f220920489ca2b5937696c31910160405180910390a35050565b6097546001600160a01b031633146111f55760405162461bcd60e51b81526004016104b190612cbe565b60cd80546001600160a01b0319166001600160a01b0392909216919091179055565b600054610100900460ff1680611230575060005460ff16155b61124c5760405162461bcd60e51b81526004016104b190612c26565b600054610100900460ff1615801561126e576000805461ffff19166101011790555b611276611b12565b61127e611b12565b611286611b7d565b61128f85611c2b565b61129b8685858561053b565b80156109b9576000805461ff0019169055505050505050565b60d25460ff16156112f05760405162461bcd60e51b815260206004820152600660248201526514185d5cd95960d21b60448201526064016104b1565b60005b898110156113ea576113d88c8c8c8481811061131f57634e487b7160e01b600052603260045260246000fd5b905060200201358b8b8581811061134657634e487b7160e01b600052603260045260246000fd5b905060200201358a8a8681811061136d57634e487b7160e01b600052603260045260246000fd5b9050602002013589898781811061139457634e487b7160e01b600052603260045260246000fd5b90506020028101906113a69190612cf3565b8989898181106113c657634e487b7160e01b600052603260045260246000fd5b905060200281019061031d9190612cf3565b806113e281612e1a565b9150506112f3565b505050505050505050505050565b6001600160a01b03841661141e5760405162461bcd60e51b81526004016104b190612be1565b6001600160a01b03851633148061143a575061143a85336103e2565b6114985760405162461bcd60e51b815260206004820152602960248201527f455243313135353a2063616c6c6572206973206e6f74206f776e6572206e6f7260448201526808185c1c1c9bdd995960ba1b60648201526084016104b1565b336114b18187876114a888611ca0565b6105f088611ca0565b60008481526065602090815260408083206001600160a01b038a168452909152902054838110156114f45760405162461bcd60e51b81526004016104b190612c74565b6114fe8482612d72565b60008681526065602090815260408083206001600160a01b038c8116855292528083209390935588168152908120805486929061153c908490612d5a565b909155505060408051868152602081018690526001600160a01b03808916928a821692918616917fc3d58168c5ae7397731d063d5bbf3d657854427343f4c083240f7aacaa2d0f62910160405180910390a461159c828888888888611cf9565b50505050505050565b6097546001600160a01b031633146115cf5760405162461bcd60e51b81526004016104b190612cbe565b6001600160a01b0381166116345760405162461bcd60e51b815260206004820152602660248201527f4f776e61626c653a206e6577206f776e657220697320746865207a65726f206160448201526564647265737360d01b60648201526084016104b1565b6097546040516001600160a01b038084169216907f8be0079c531659141344cd1fd0a4f28419497f9722a3daafe3b4186f6b6457e090600090a3609780546001600160a01b0319166001600160a01b0392909216919091179055565b6040516bffffffffffffffffffffffff19606086901b166020820152603481018490526054810183905260748101829052600090609401604051602081830303815290604052805190602001209050949350505050565b60006001600160e01b03198216636cdb3d1360e11b148061171857506001600160e01b031982166303a24d0760e21b145b806104ff57506301ffc9a760e01b6001600160e01b03198316146104ff565b805161174a906067906020840190612022565b5050565b60606067805461175d90612db9565b80601f016020809104026020016040519081016040528092919081815260200182805461178990612db9565b80156117d65780601f106117ab576101008083540402835291602001916117d6565b820191906000526020600020905b8154815290600101906020018083116117b957829003601f168201915b50505050509050919050565b6001600160a01b0384163b156109b95760405163bc197c8160e01b81526001600160a01b0385169063bc197c81906118269089908990889088908890600401612aab565b602060405180830381600087803b15801561184057600080fd5b505af1925050508015611870575060408051601f3d908101601f1916820190925261186d91810190612744565b60015b61191d5761187c612e61565b806308c379a014156118b65750611891612e79565b8061189c57506118b8565b8060405162461bcd60e51b81526004016104b19190612b86565b505b60405162461bcd60e51b815260206004820152603460248201527f455243313135353a207472616e7366657220746f206e6f6e20455243313135356044820152732932b1b2b4bb32b91034b6b83632b6b2b73a32b960611b60648201526084016104b1565b6001600160e01b0319811663bc197c8160e01b1461159c5760405162461bcd60e51b81526004016104b190612b99565b600061195d60cb80546001019055565b5060cb5490565b6001600160a01b0384166119c45760405162461bcd60e51b815260206004820152602160248201527f455243313135353a206d696e7420746f20746865207a65726f206164647265736044820152607360f81b60648201526084016104b1565b336119d5816000876114a888611ca0565b60008481526065602090815260408083206001600160a01b038916845290915281208054859290611a07908490612d5a565b909155505060408051858152602081018590526001600160a01b0380881692600092918516917fc3d58168c5ae7397731d063d5bbf3d657854427343f4c083240f7aacaa2d0f62910160405180910390a46105f081600087878787611cf9565b600081815260ce602052604081208054829190611a8390612db9565b9050119050919050565b600080611ae7846040517f19457468657265756d205369676e6564204d6573736167653a0a3332000000006020820152603c8101829052600090605c01604051602081830303815290604052805190602001209050919050565b60cd549091506001600160a01b0316611b008285611dc3565b6001600160a01b031614949350505050565b600054610100900460ff1680611b2b575060005460ff16155b611b475760405162461bcd60e51b81526004016104b190612c26565b600054610100900460ff16158015611b69576000805461ffff19166101011790555b8015610538576000805461ff001916905550565b600054610100900460ff1680611b96575060005460ff16155b611bb25760405162461bcd60e51b81526004016104b190612c26565b600054610100900460ff16158015611bd4576000805461ffff19166101011790555b609780546001600160a01b0319163390811790915560405181906000907f8be0079c531659141344cd1fd0a4f28419497f9722a3daafe3b4186f6b6457e0908290a3508015610538576000805461ff001916905550565b600054610100900460ff1680611c44575060005460ff16155b611c605760405162461bcd60e51b81526004016104b190612c26565b600054610100900460ff16158015611c82576000805461ffff19166101011790555b611c8b82611737565b801561174a576000805461ff00191690555050565b60408051600180825281830190925260609160009190602080830190803683370190505090508281600081518110611ce857634e487b7160e01b600052603260045260246000fd5b602090810291909101015292915050565b6001600160a01b0384163b156109b95760405163f23a6e6160e01b81526001600160a01b0385169063f23a6e6190611d3d9089908990889088908890600401612b09565b602060405180830381600087803b158015611d5757600080fd5b505af1925050508015611d87575060408051601f3d908101601f19168201909252611d8491810190612744565b60015b611d935761187c612e61565b6001600160e01b0319811663f23a6e6160e01b1461159c5760405162461bcd60e51b81526004016104b190612b99565b600080600080845160411415611ded5750505060208201516040830151606084015160001a611e63565b845160401415611e1b5750505060408201516020830151906001600160ff1b0381169060ff1c601b01611e63565b60405162461bcd60e51b815260206004820152601f60248201527f45434453413a20696e76616c6964207369676e6174757265206c656e6774680060448201526064016104b1565b611e6f86828585611e79565b9695505050505050565b60007f7fffffffffffffffffffffffffffffff5d576e7357a4501ddfe92f46681b20a0821115611ef65760405162461bcd60e51b815260206004820152602260248201527f45434453413a20696e76616c6964207369676e6174757265202773272076616c604482015261756560f01b60648201526084016104b1565b8360ff16601b1480611f0b57508360ff16601c145b611f625760405162461bcd60e51b815260206004820152602260248201527f45434453413a20696e76616c6964207369676e6174757265202776272076616c604482015261756560f01b60648201526084016104b1565b6040805160008082526020820180845288905260ff871692820192909252606081018590526080810184905260019060a0016020604051602081039080840390855afa158015611fb6573d6000803e3d6000fd5b5050604051601f1901519150506001600160a01b0381166120195760405162461bcd60e51b815260206004820152601860248201527f45434453413a20696e76616c6964207369676e6174757265000000000000000060448201526064016104b1565b95945050505050565b82805461202e90612db9565b90600052602060002090601f0160209004810192826120505760008555612096565b82601f1061206957805160ff1916838001178555612096565b82800160010185558215612096579182015b8281111561209657825182559160200191906001019061207b565b506120a292915061211a565b5090565b8280546120b290612db9565b90600052602060002090601f0160209004810192826120d45760008555612096565b82601f106120ed5782800160ff19823516178555612096565b82800160010185558215612096579182015b828111156120965782358255916020019190600101906120ff565b5b808211156120a2576000815560010161211b565b803561213a81612f38565b919050565b60008083601f840112612150578182fd5b5081356001600160401b03811115612166578182fd5b6020830191508360208260051b850101111561218157600080fd5b9250929050565b600082601f830112612198578081fd5b813560206121a582612d37565b6040516121b28282612dee565b8381528281019150858301600585901b870184018810156121d1578586fd5b855b858110156121ef578135845292840192908401906001016121d3565b5090979650505050505050565b60008083601f84011261220d578182fd5b5081356001600160401b03811115612223578182fd5b60208301915083602082850101111561218157600080fd5b600082601f83011261224b578081fd5b81356001600160401b0381111561226457612264612e4b565b60405161227b601f8301601f191660200182612dee565b81815284602083860101111561228f578283fd5b816020850160208301379081016020019190915292915050565b6000602082840312156122ba578081fd5b81356122c581612f38565b9392505050565b600080604083850312156122de578081fd5b82356122e981612f38565b915060208301356122f981612f38565b809150509250929050565b600080600080600060a0868803121561231b578081fd5b853561232681612f38565b9450602086013561233681612f38565b935060408601356001600160401b0380821115612351578283fd5b61235d89838a01612188565b94506060880135915080821115612372578283fd5b61237e89838a01612188565b93506080880135915080821115612393578283fd5b506123a08882890161223b565b9150509295509295909350565b600080600080600060a086880312156123c4578081fd5b85356123cf81612f38565b945060208601356123df81612f38565b9350604086013592506060860135915060808601356001600160401b03811115612407578182fd5b6123a08882890161223b565b600080600080600080600080600080600060c08c8e031215612433578889fd5b61243c8c61212f565b9a506001600160401b038060208e0135111561245657898afd5b6124668e60208f01358f0161213f565b909b50995060408d013581101561247b578687fd5b61248b8e60408f01358f0161213f565b909950975060608d01358110156124a0578687fd5b6124b08e60608f01358f0161213f565b909750955060808d01358110156124c5578485fd5b6124d58e60808f01358f0161213f565b909550935060a08d01358110156124ea578283fd5b506124fb8d60a08e01358e0161213f565b81935080925050509295989b509295989b9093969950565b60008060408385031215612525578182fd5b823561253081612f38565b9150602083013580151581146122f9578182fd5b60008060408385031215612556578182fd5b823561256181612f38565b946020939093013593505050565b60008060008060808587031215612584578182fd5b843561258f81612f38565b966020860135965060408601359560600135945092505050565b60008060008060008060008060c0898b0312156125c4578182fd5b88356125cf81612f38565b975060208901359650604089013595506060890135945060808901356001600160401b03808211156125ff578384fd5b61260b8c838d016121fc565b909650945060a08b0135915080821115612623578384fd5b506126308b828c016121fc565b999c989b5096995094979396929594505050565b60008060408385031215612656578182fd5b82356001600160401b038082111561266c578384fd5b818501915085601f83011261267f578384fd5b8135602061268c82612d37565b6040516126998282612dee565b8381528281019150858301600585901b870184018b10156126b8578889fd5b8896505b848710156126e35780356126cf81612f38565b8352600196909601959183019183016126bc565b50965050860135925050808211156126f9578283fd5b5061270685828601612188565b9150509250929050565b600060208284031215612721578081fd5b5035919050565b600060208284031215612739578081fd5b81356122c581612f4d565b600060208284031215612755578081fd5b81516122c581612f4d565b60008060008060008060006080888a03121561277a578081fd5b87356001600160401b0380821115612790578283fd5b61279c8b838c016121fc565b909950975060208a01359150808211156127b4578283fd5b6127c08b838c016121fc565b909750955060408a01359150808211156127d8578283fd5b818a0191508a601f8301126127eb578283fd5b8135818111156127f9578384fd5b8b60208260061b850101111561280d578384fd5b6020830195508094505050506060880135905092959891949750929550565b60006020828403121561283d578081fd5b81356001600160401b03811115612852578182fd5b61285e8482850161223b565b949350505050565b6000806000806080858703121561287b578182fd5b84356001600160401b0380821115612891578384fd5b61289d8883890161223b565b955060208701359150808211156128b2578384fd5b506128bf8782880161223b565b93505060408501356128d081612f38565b915060608501356128e081612f38565b939692955090935050565b600080600080600060a08688031215612902578283fd5b85356001600160401b0380821115612918578485fd5b61292489838a0161223b565b96506020880135915080821115612939578485fd5b61294589838a0161223b565b9550604088013591508082111561295a578485fd5b506129678882890161223b565b935050606086013561297881612f38565b9150608086013561298881612f38565b809150509295509295909350565b6000815180845260208085019450808401835b838110156129c5578151875295820195908201906001016129a9565b509495945050505050565b600081518084526129e8816020860160208601612d89565b601f01601f19169290920160200192915050565b600083516020612a0f8285838901612d89565b8454918401918390600181811c9080831680612a2c57607f831692505b858310811415612a4a57634e487b7160e01b88526022600452602488fd5b808015612a5e5760018114612a6f57612a9b565b60ff19851688528388019550612a9b565b60008b815260209020895b85811015612a935781548a820152908401908801612a7a565b505083880195505b50939a9950505050505050505050565b6001600160a01b0386811682528516602082015260a060408201819052600090612ad790830186612996565b8281036060840152612ae98186612996565b90508281036080840152612afd81856129d0565b98975050505050505050565b6001600160a01b03868116825285166020820152604081018490526060810183905260a060808201819052600090612b43908301846129d0565b979650505050505050565b6020815260006122c56020830184612996565b604081526000612b746040830185612996565b82810360208401526120198185612996565b6020815260006122c560208301846129d0565b60208082526028908201527f455243313135353a204552433131353552656365697665722072656a656374656040820152676420746f6b656e7360c01b606082015260800190565b60208082526025908201527f455243313135353a207472616e7366657220746f20746865207a65726f206164604082015264647265737360d81b606082015260800190565b6020808252602e908201527f496e697469616c697a61626c653a20636f6e747261637420697320616c72656160408201526d191e481a5b9a5d1a585b1a5e995960921b606082015260800190565b6020808252602a908201527f455243313135353a20696e73756666696369656e742062616c616e636520666f60408201526939103a3930b739b332b960b11b606082015260800190565b6020808252818101527f4f776e61626c653a2063616c6c6572206973206e6f7420746865206f776e6572604082015260600190565b6000808335601e19843603018112612d09578283fd5b8301803591506001600160401b03821115612d22578283fd5b60200191503681900382131561218157600080fd5b60006001600160401b03821115612d5057612d50612e4b565b5060051b60200190565b60008219821115612d6d57612d6d612e35565b500190565b600082821015612d8457612d84612e35565b500390565b60005b83811015612da4578181015183820152602001612d8c565b83811115612db3576000848401525b50505050565b600181811c90821680612dcd57607f821691505b602082108114156106f157634e487b7160e01b600052602260045260246000fd5b601f8201601f191681016001600160401b0381118282101715612e1357612e13612e4b565b6040525050565b6000600019821415612e2e57612e2e612e35565b5060010190565b634e487b7160e01b600052601160045260246000fd5b634e487b7160e01b600052604160045260246000fd5b600060033d1115612e7657600481823e5160e01c5b90565b600060443d1015612e875790565b6040516003193d81016004833e81513d6001600160401b038160248401118184111715612eb657505050505090565b8285019150815181811115612ece5750505050505090565b843d8701016020828501011115612ee85750505050505090565b612ef760208286010187612dee565b509095945050505050565b8135612f0d81612f38565b81546001600160a01b0319166001600160a01b03919091161781556020919091013560019190910155565b6001600160a01b038116811461053857600080fd5b6001600160e01b03198116811461053857600080fdfea26469706673582212204bf84a5c34a4d216d04f97c139bb262c30e88d1611cc37a1c5758c6e6907533d64736f6c63430008040033",
  "devdoc": {
    "kind": "dev",
    "methods": {
      "balanceOf(address,uint256)": {
        "details": "See {IERC1155-balanceOf}. Requirements: - `account` cannot be the zero address."
      },
      "balanceOfBatch(address[],uint256[])": {
        "details": "See {IERC1155-balanceOfBatch}. Requirements: - `accounts` and `ids` must have the same length."
      },
      "batchMint(address,uint256[],uint256[],uint256[],bytes[],bytes[])": {
        "details": "Batch mints multiple different existing NFT types",
        "params": {
          "_amounts": "numbers of NFTs of same type to mint",
          "_data": "Data to pass if receiver is contract",
          "_ids": "IDs of the type of NFT to mint",
          "_nonces": "platform nounces to prevent replay",
          "_signatures": "Verified signatures granting _account an NFT",
          "_to": "Account to mint NFT to (i.e. the owner)"
        }
      },
      "createCanvas(string,bytes,(address,uint256)[],uint256)": {
        "details": "Creates a new Canvas type",
        "params": {
          "_cid": "Content identifier param _data Data to pass if receiver is contract"
        },
        "returns": {
          "_id": "the newly created token ID"
        }
      },
      "getMessageHash(address,uint256,uint256,uint256)": {
        "details": "Create message hash to be signed"
      },
      "isApprovedForAll(address,address)": {
        "details": "See {IERC1155-isApprovedForAll}."
      },
      "maxSupply(uint256)": {
        "details": "Returns the max quantity for a token ID",
        "params": {
          "_id": "ID of the token to query"
        },
        "returns": {
          "_0": "amount of token in existence"
        }
      },
      "mint(address,uint256,uint256,uint256,bytes,bytes)": {
        "details": "Mints an existing Canvas NFT",
        "params": {
          "_amount": "number of NFTs of same type to mint",
          "_data": "Data to pass if receiver is contract",
          "_id": "ID (i.e. type) of NFT to mint",
          "_nonce": "platform nounce to prevent replay",
          "_signature": "Verified signature granting _account an NFT",
          "_to": "Account to mint NFT to (i.e. the owner)"
        }
      },
      "owner()": {
        "details": "Returns the address of the current owner."
      },
      "pause()": {
        "details": "Pause or unpause the minting and creation of NFTs"
      },
      "renounceOwnership()": {
        "details": "Leaves the contract without owner. It will not be possible to call `onlyOwner` functions anymore. Can only be called by the current owner. NOTE: Renouncing ownership will leave the contract without an owner, thereby removing any functionality that is only available to the owner."
      },
      "safeBatchTransferFrom(address,address,uint256[],uint256[],bytes)": {
        "details": "See {IERC1155-safeBatchTransferFrom}."
      },
      "safeTransferFrom(address,address,uint256,uint256,bytes)": {
        "details": "See {IERC1155-safeTransferFrom}."
      },
      "setApprovalForAll(address,bool)": {
        "details": "See {IERC1155-setApprovalForAll}."
      },
      "setURI(string)": {
        "details": "Sets a new URI for all token types"
      },
      "supportsInterface(bytes4)": {
        "details": "See {IERC165-supportsInterface}."
      },
      "totalSupply(uint256)": {
        "details": "Returns the total quantity for a token ID",
        "params": {
          "_id": "ID of the token to query"
        },
        "returns": {
          "_0": "amount of token in existence"
        }
      },
      "transferOwnership(address)": {
        "details": "Transfers ownership of the contract to a new account (`newOwner`). Can only be called by the current owner."
      },
      "updateSigner(address)": {
        "details": "Update the signer"
      },
      "uri(uint256)": {
        "details": "Returns the uri of a token given its ID",
        "params": {
          "_id": "ID of the token to query"
        },
        "returns": {
          "_0": "uri of the token or an empty string if it does not exist"
        }
      }
    },
    "version": 1
  },
  "userdoc": {
    "kind": "user",
    "methods": {
      "batchMint(address,uint256[],uint256[],uint256[],bytes[],bytes[])": {
        "notice": "Enforces a maximum of 1 minting event per account per NFT type"
      },
      "mint(address,uint256,uint256,uint256,bytes,bytes)": {
        "notice": "Enforces a maximum of 1 minting event per NFT type per account"
      }
    },
    "version": 1
  },
  "storageLayout": {
    "storage": [
      {
        "astId": 578,
        "contract": "contracts/CybertinoCanvas/CybertinoCanvasV0.sol:CybertinoCanvasV0",
        "label": "_initialized",
        "offset": 0,
        "slot": "0",
        "type": "t_bool"
      },
      {
        "astId": 581,
        "contract": "contracts/CybertinoCanvas/CybertinoCanvasV0.sol:CybertinoCanvasV0",
        "label": "_initializing",
        "offset": 1,
        "slot": "0",
        "type": "t_bool"
      },
      {
        "astId": 3153,
        "contract": "contracts/CybertinoCanvas/CybertinoCanvasV0.sol:CybertinoCanvasV0",
        "label": "__gap",
        "offset": 0,
        "slot": "1",
        "type": "t_array(t_uint256)50_storage"
      },
      {
        "astId": 3607,
        "contract": "contracts/CybertinoCanvas/CybertinoCanvasV0.sol:CybertinoCanvasV0",
        "label": "__gap",
        "offset": 0,
        "slot": "51",
        "type": "t_array(t_uint256)50_storage"
      },
      {
        "astId": 647,
        "contract": "contracts/CybertinoCanvas/CybertinoCanvasV0.sol:CybertinoCanvasV0",
        "label": "_balances",
        "offset": 0,
        "slot": "101",
        "type": "t_mapping(t_uint256,t_mapping(t_address,t_uint256))"
      },
      {
        "astId": 653,
        "contract": "contracts/CybertinoCanvas/CybertinoCanvasV0.sol:CybertinoCanvasV0",
        "label": "_operatorApprovals",
        "offset": 0,
        "slot": "102",
        "type": "t_mapping(t_address,t_mapping(t_address,t_bool))"
      },
      {
        "astId": 655,
        "contract": "contracts/CybertinoCanvas/CybertinoCanvasV0.sol:CybertinoCanvasV0",
        "label": "_uri",
        "offset": 0,
        "slot": "103",
        "type": "t_string_storage"
      },
      {
        "astId": 1677,
        "contract": "contracts/CybertinoCanvas/CybertinoCanvasV0.sol:CybertinoCanvasV0",
        "label": "__gap",
        "offset": 0,
        "slot": "104",
        "type": "t_array(t_uint256)47_storage"
      },
      {
        "astId": 452,
        "contract": "contracts/CybertinoCanvas/CybertinoCanvasV0.sol:CybertinoCanvasV0",
        "label": "_owner",
        "offset": 0,
        "slot": "151",
        "type": "t_address"
      },
      {
        "astId": 571,
        "contract": "contracts/CybertinoCanvas/CybertinoCanvasV0.sol:CybertinoCanvasV0",
        "label": "__gap",
        "offset": 0,
        "slot": "152",
        "type": "t_array(t_uint256)49_storage"
      },
      {
        "astId": 8178,
        "contract": "contracts/CybertinoCanvas/CybertinoCanvasV0.sol:CybertinoCanvasV0",
        "label": "name",
        "offset": 0,
        "slot": "201",
        "type": "t_string_storage"
      },
      {
        "astId": 8181,
        "contract": "contracts/CybertinoCanvas/CybertinoCanvasV0.sol:CybertinoCanvasV0",
        "label": "symbol",
        "offset": 0,
        "slot": "202",
        "type": "t_string_storage"
      },
      {
        "astId": 8185,
        "contract": "contracts/CybertinoCanvas/CybertinoCanvasV0.sol:CybertinoCanvasV0",
        "label": "id",
        "offset": 0,
        "slot": "203",
        "type": "t_struct(Counter)3160_storage"
      },
      {
        "astId": 8207,
        "contract": "contracts/CybertinoCanvas/CybertinoCanvasV0.sol:CybertinoCanvasV0",
        "label": "canvases",
        "offset": 0,
        "slot": "204",
        "type": "t_mapping(t_uint256,t_struct(Canvas)8201_storage)"
      },
      {
        "astId": 8210,
        "contract": "contracts/CybertinoCanvas/CybertinoCanvasV0.sol:CybertinoCanvasV0",
        "label": "signer",
        "offset": 0,
        "slot": "205",
        "type": "t_address"
      },
      {
        "astId": 8215,
        "contract": "contracts/CybertinoCanvas/CybertinoCanvasV0.sol:CybertinoCanvasV0",
        "label": "idToUri",
        "offset": 0,
        "slot": "206",
        "type": "t_mapping(t_uint256,t_string_storage)"
      },
      {
        "astId": 8220,
        "contract": "contracts/CybertinoCanvas/CybertinoCanvasV0.sol:CybertinoCanvasV0",
        "label": "maxTokenSupply",
        "offset": 0,
        "slot": "207",
        "type": "t_mapping(t_uint256,t_uint256)"
      },
      {
        "astId": 8225,
        "contract": "contracts/CybertinoCanvas/CybertinoCanvasV0.sol:CybertinoCanvasV0",
        "label": "tokenSupply",
        "offset": 0,
        "slot": "208",
        "type": "t_mapping(t_uint256,t_uint256)"
      },
      {
        "astId": 8230,
        "contract": "contracts/CybertinoCanvas/CybertinoCanvasV0.sol:CybertinoCanvasV0",
        "label": "executed",
        "offset": 0,
        "slot": "209",
        "type": "t_mapping(t_bytes32,t_bool)"
      },
      {
        "astId": 8234,
        "contract": "contracts/CybertinoCanvas/CybertinoCanvasV0.sol:CybertinoCanvasV0",
        "label": "paused",
        "offset": 0,
        "slot": "210",
        "type": "t_bool"
      }
    ],
    "types": {
      "t_address": {
        "encoding": "inplace",
        "label": "address",
        "numberOfBytes": "20"
      },
      "t_array(t_uint256)47_storage": {
        "base": "t_uint256",
        "encoding": "inplace",
        "label": "uint256[47]",
        "numberOfBytes": "1504"
      },
      "t_array(t_uint256)49_storage": {
        "base": "t_uint256",
        "encoding": "inplace",
        "label": "uint256[49]",
        "numberOfBytes": "1568"
      },
      "t_array(t_uint256)50_storage": {
        "base": "t_uint256",
        "encoding": "inplace",
        "label": "uint256[50]",
        "numberOfBytes": "1600"
      },
      "t_bool": {
        "encoding": "inplace",
        "label": "bool",
        "numberOfBytes": "1"
      },
      "t_bytes32": {
        "encoding": "inplace",
        "label": "bytes32",
        "numberOfBytes": "32"
      },
      "t_contract(ILayer)7258": {
        "encoding": "inplace",
        "label": "contract ILayer",
        "numberOfBytes": "20"
      },
      "t_mapping(t_address,t_bool)": {
        "encoding": "mapping",
        "key": "t_address",
        "label": "mapping(address => bool)",
        "numberOfBytes": "32",
        "value": "t_bool"
      },
      "t_mapping(t_address,t_mapping(t_address,t_bool))": {
        "encoding": "mapping",
        "key": "t_address",
        "label": "mapping(address => mapping(address => bool))",
        "numberOfBytes": "32",
        "value": "t_mapping(t_address,t_bool)"
      },
      "t_mapping(t_address,t_uint256)": {
        "encoding": "mapping",
        "key": "t_address",
        "label": "mapping(address => uint256)",
        "numberOfBytes": "32",
        "value": "t_uint256"
      },
      "t_mapping(t_bytes32,t_bool)": {
        "encoding": "mapping",
        "key": "t_bytes32",
        "label": "mapping(bytes32 => bool)",
        "numberOfBytes": "32",
        "value": "t_bool"
      },
      "t_mapping(t_uint256,t_mapping(t_address,t_uint256))": {
        "encoding": "mapping",
        "key": "t_uint256",
        "label": "mapping(uint256 => mapping(address => uint256))",
        "numberOfBytes": "32",
        "value": "t_mapping(t_address,t_uint256)"
      },
      "t_mapping(t_uint256,t_string_storage)": {
        "encoding": "mapping",
        "key": "t_uint256",
        "label": "mapping(uint256 => string)",
        "numberOfBytes": "32",
        "value": "t_string_storage"
      },
      "t_mapping(t_uint256,t_struct(Canvas)8201_storage)": {
        "encoding": "mapping",
        "key": "t_uint256",
        "label": "mapping(uint256 => struct InfluencerStorageV0.Canvas)",
        "numberOfBytes": "32",
        "value": "t_struct(Canvas)8201_storage"
      },
      "t_mapping(t_uint256,t_struct(LayerToken)8191_storage)": {
        "encoding": "mapping",
        "key": "t_uint256",
        "label": "mapping(uint256 => struct InfluencerStorageV0.LayerToken)",
        "numberOfBytes": "32",
        "value": "t_struct(LayerToken)8191_storage"
      },
      "t_mapping(t_uint256,t_uint256)": {
        "encoding": "mapping",
        "key": "t_uint256",
        "label": "mapping(uint256 => uint256)",
        "numberOfBytes": "32",
        "value": "t_uint256"
      },
      "t_string_storage": {
        "encoding": "bytes",
        "label": "string",
        "numberOfBytes": "32"
      },
      "t_struct(Canvas)8201_storage": {
        "encoding": "inplace",
        "label": "struct InfluencerStorageV0.Canvas",
        "members": [
          {
            "astId": 8193,
            "contract": "contracts/CybertinoCanvas/CybertinoCanvasV0.sol:CybertinoCanvasV0",
            "label": "id",
            "offset": 0,
            "slot": "0",
            "type": "t_uint256"
          },
          {
            "astId": 8195,
            "contract": "contracts/CybertinoCanvas/CybertinoCanvasV0.sol:CybertinoCanvasV0",
            "label": "layerCount",
            "offset": 0,
            "slot": "1",
            "type": "t_uint256"
          },
          {
            "astId": 8200,
            "contract": "contracts/CybertinoCanvas/CybertinoCanvasV0.sol:CybertinoCanvasV0",
            "label": "layerTokens",
            "offset": 0,
            "slot": "2",
            "type": "t_mapping(t_uint256,t_struct(LayerToken)8191_storage)"
          }
        ],
        "numberOfBytes": "96"
      },
      "t_struct(Counter)3160_storage": {
        "encoding": "inplace",
        "label": "struct CountersUpgradeable.Counter",
        "members": [
          {
            "astId": 3159,
            "contract": "contracts/CybertinoCanvas/CybertinoCanvasV0.sol:CybertinoCanvasV0",
            "label": "_value",
            "offset": 0,
            "slot": "0",
            "type": "t_uint256"
          }
        ],
        "numberOfBytes": "32"
      },
      "t_struct(LayerToken)8191_storage": {
        "encoding": "inplace",
        "label": "struct InfluencerStorageV0.LayerToken",
        "members": [
          {
            "astId": 8188,
            "contract": "contracts/CybertinoCanvas/CybertinoCanvasV0.sol:CybertinoCanvasV0",
            "label": "layer",
            "offset": 0,
            "slot": "0",
            "type": "t_contract(ILayer)7258"
          },
          {
            "astId": 8190,
            "contract": "contracts/CybertinoCanvas/CybertinoCanvasV0.sol:CybertinoCanvasV0",
            "label": "layerID",
            "offset": 0,
            "slot": "1",
            "type": "t_uint256"
          }
        ],
        "numberOfBytes": "64"
      },
      "t_uint256": {
        "encoding": "inplace",
        "label": "uint256",
        "numberOfBytes": "32"
      }
    }
  }
}