{
  "address": "0x32f4EDdbFFB60E25C07d8098216E7D189B678D7B",
  "abi": [
    {
      "anonymous": false,
      "inputs": [
        {
          "indexed": true,
          "internalType": "address",
          "name": "account",
          "type": "address"
        },
        {
          "indexed": true,
          "internalType": "address",
          "name": "operator",
          "type": "address"
        },
        {
          "indexed": false,
          "internalType": "bool",
          "name": "approved",
          "type": "bool"
        }
      ],
      "name": "ApprovalForAll",
      "type": "event"
    },
    {
      "anonymous": false,
      "inputs": [
        {
          "indexed": true,
          "internalType": "address",
          "name": "previousOwner",
          "type": "address"
        },
        {
          "indexed": true,
          "internalType": "address",
          "name": "newOwner",
          "type": "address"
        }
      ],
      "name": "OwnershipTransferred",
      "type": "event"
    },
    {
      "anonymous": false,
      "inputs": [
        {
          "indexed": true,
          "internalType": "address",
          "name": "operator",
          "type": "address"
        },
        {
          "indexed": true,
          "internalType": "address",
          "name": "from",
          "type": "address"
        },
        {
          "indexed": true,
          "internalType": "address",
          "name": "to",
          "type": "address"
        },
        {
          "indexed": false,
          "internalType": "uint256[]",
          "name": "ids",
          "type": "uint256[]"
        },
        {
          "indexed": false,
          "internalType": "uint256[]",
          "name": "values",
          "type": "uint256[]"
        }
      ],
      "name": "TransferBatch",
      "type": "event"
    },
    {
      "anonymous": false,
      "inputs": [
        {
          "indexed": true,
          "internalType": "address",
          "name": "operator",
          "type": "address"
        },
        {
          "indexed": true,
          "internalType": "address",
          "name": "from",
          "type": "address"
        },
        {
          "indexed": true,
          "internalType": "address",
          "name": "to",
          "type": "address"
        },
        {
          "indexed": false,
          "internalType": "uint256",
          "name": "id",
          "type": "uint256"
        },
        {
          "indexed": false,
          "internalType": "uint256",
          "name": "value",
          "type": "uint256"
        }
      ],
      "name": "TransferSingle",
      "type": "event"
    },
    {
      "anonymous": false,
      "inputs": [
        {
          "indexed": false,
          "internalType": "string",
          "name": "value",
          "type": "string"
        },
        {
          "indexed": true,
          "internalType": "uint256",
          "name": "id",
          "type": "uint256"
        }
      ],
      "name": "URI",
      "type": "event"
    },
    {
      "inputs": [
        {
          "internalType": "string",
          "name": "_name",
          "type": "string"
        },
        {
          "internalType": "string",
          "name": "_uri",
          "type": "string"
        },
        {
          "internalType": "address",
          "name": "_signer",
          "type": "address"
        },
        {
          "internalType": "address",
          "name": "_manager",
          "type": "address"
        }
      ],
      "name": "CybertinoNFT_init",
      "outputs": [],
      "stateMutability": "nonpayable",
      "type": "function"
    },
    {
      "inputs": [
        {
          "internalType": "string",
          "name": "_name",
          "type": "string"
        },
        {
          "internalType": "address",
          "name": "_signer",
          "type": "address"
        },
        {
          "internalType": "address",
          "name": "_manager",
          "type": "address"
        }
      ],
      "name": "CybertinoNFT_init_unchained",
      "outputs": [],
      "stateMutability": "nonpayable",
      "type": "function"
    },
    {
      "inputs": [
        {
          "internalType": "address",
          "name": "account",
          "type": "address"
        },
        {
          "internalType": "uint256",
          "name": "id",
          "type": "uint256"
        }
      ],
      "name": "balanceOf",
      "outputs": [
        {
          "internalType": "uint256",
          "name": "",
          "type": "uint256"
        }
      ],
      "stateMutability": "view",
      "type": "function"
    },
    {
      "inputs": [
        {
          "internalType": "address[]",
          "name": "accounts",
          "type": "address[]"
        },
        {
          "internalType": "uint256[]",
          "name": "ids",
          "type": "uint256[]"
        }
      ],
      "name": "balanceOfBatch",
      "outputs": [
        {
          "internalType": "uint256[]",
          "name": "",
          "type": "uint256[]"
        }
      ],
      "stateMutability": "view",
      "type": "function"
    },
    {
      "inputs": [
        {
          "internalType": "address",
          "name": "_to",
          "type": "address"
        },
        {
          "internalType": "uint256[]",
          "name": "_ids",
          "type": "uint256[]"
        },
        {
          "internalType": "uint256[]",
          "name": "_amounts",
          "type": "uint256[]"
        },
        {
          "internalType": "uint256[]",
          "name": "_nonces",
          "type": "uint256[]"
        },
        {
          "internalType": "bytes[]",
          "name": "_signatures",
          "type": "bytes[]"
        },
        {
          "internalType": "bytes[]",
          "name": "_data",
          "type": "bytes[]"
        }
      ],
      "name": "batchMint",
      "outputs": [],
      "stateMutability": "nonpayable",
      "type": "function"
    },
    {
      "inputs": [
        {
          "internalType": "string",
          "name": "_cid",
          "type": "string"
        },
        {
          "internalType": "bytes",
          "name": "_data",
          "type": "bytes"
        },
        {
          "internalType": "uint256",
          "name": "_maxSupply",
          "type": "uint256"
        }
      ],
      "name": "create",
      "outputs": [
        {
          "internalType": "uint256",
          "name": "_id",
          "type": "uint256"
        }
      ],
      "stateMutability": "nonpayable",
      "type": "function"
    },
    {
      "inputs": [
        {
          "internalType": "bytes32",
          "name": "",
          "type": "bytes32"
        }
      ],
      "name": "executed",
      "outputs": [
        {
          "internalType": "bool",
          "name": "",
          "type": "bool"
        }
      ],
      "stateMutability": "view",
      "type": "function"
    },
    {
      "inputs": [
        {
          "internalType": "address",
          "name": "_to",
          "type": "address"
        },
        {
          "internalType": "uint256",
          "name": "_tokenId",
          "type": "uint256"
        },
        {
          "internalType": "uint256",
          "name": "_amount",
          "type": "uint256"
        },
        {
          "internalType": "uint256",
          "name": "_nonce",
          "type": "uint256"
        }
      ],
      "name": "getMessageHash",
      "outputs": [
        {
          "internalType": "bytes32",
          "name": "",
          "type": "bytes32"
        }
      ],
      "stateMutability": "pure",
      "type": "function"
    },
    {
      "inputs": [],
      "name": "id",
      "outputs": [
        {
          "internalType": "uint256",
          "name": "_value",
          "type": "uint256"
        }
      ],
      "stateMutability": "view",
      "type": "function"
    },
    {
      "inputs": [
        {
          "internalType": "address",
          "name": "account",
          "type": "address"
        },
        {
          "internalType": "address",
          "name": "operator",
          "type": "address"
        }
      ],
      "name": "isApprovedForAll",
      "outputs": [
        {
          "internalType": "bool",
          "name": "",
          "type": "bool"
        }
      ],
      "stateMutability": "view",
      "type": "function"
    },
    {
      "inputs": [
        {
          "internalType": "uint256",
          "name": "_id",
          "type": "uint256"
        }
      ],
      "name": "maxSupply",
      "outputs": [
        {
          "internalType": "uint256",
          "name": "",
          "type": "uint256"
        }
      ],
      "stateMutability": "view",
      "type": "function"
    },
    {
      "inputs": [
        {
          "internalType": "address",
          "name": "_to",
          "type": "address"
        },
        {
          "internalType": "uint256",
          "name": "_id",
          "type": "uint256"
        },
        {
          "internalType": "uint256",
          "name": "_amount",
          "type": "uint256"
        },
        {
          "internalType": "uint256",
          "name": "_nonce",
          "type": "uint256"
        },
        {
          "internalType": "bytes",
          "name": "_signature",
          "type": "bytes"
        },
        {
          "internalType": "bytes",
          "name": "_data",
          "type": "bytes"
        }
      ],
      "name": "mint",
      "outputs": [],
      "stateMutability": "nonpayable",
      "type": "function"
    },
    {
      "inputs": [],
      "name": "name",
      "outputs": [
        {
          "internalType": "string",
          "name": "",
          "type": "string"
        }
      ],
      "stateMutability": "view",
      "type": "function"
    },
    {
      "inputs": [],
      "name": "owner",
      "outputs": [
        {
          "internalType": "address",
          "name": "",
          "type": "address"
        }
      ],
      "stateMutability": "view",
      "type": "function"
    },
    {
      "inputs": [],
      "name": "pause",
      "outputs": [],
      "stateMutability": "nonpayable",
      "type": "function"
    },
    {
      "inputs": [],
      "name": "paused",
      "outputs": [
        {
          "internalType": "bool",
          "name": "",
          "type": "bool"
        }
      ],
      "stateMutability": "view",
      "type": "function"
    },
    {
      "inputs": [],
      "name": "renounceOwnership",
      "outputs": [],
      "stateMutability": "nonpayable",
      "type": "function"
    },
    {
      "inputs": [
        {
          "internalType": "address",
          "name": "from",
          "type": "address"
        },
        {
          "internalType": "address",
          "name": "to",
          "type": "address"
        },
        {
          "internalType": "uint256[]",
          "name": "ids",
          "type": "uint256[]"
        },
        {
          "internalType": "uint256[]",
          "name": "amounts",
          "type": "uint256[]"
        },
        {
          "internalType": "bytes",
          "name": "data",
          "type": "bytes"
        }
      ],
      "name": "safeBatchTransferFrom",
      "outputs": [],
      "stateMutability": "nonpayable",
      "type": "function"
    },
    {
      "inputs": [
        {
          "internalType": "address",
          "name": "from",
          "type": "address"
        },
        {
          "internalType": "address",
          "name": "to",
          "type": "address"
        },
        {
          "internalType": "uint256",
          "name": "id",
          "type": "uint256"
        },
        {
          "internalType": "uint256",
          "name": "amount",
          "type": "uint256"
        },
        {
          "internalType": "bytes",
          "name": "data",
          "type": "bytes"
        }
      ],
      "name": "safeTransferFrom",
      "outputs": [],
      "stateMutability": "nonpayable",
      "type": "function"
    },
    {
      "inputs": [
        {
          "internalType": "address",
          "name": "operator",
          "type": "address"
        },
        {
          "internalType": "bool",
          "name": "approved",
          "type": "bool"
        }
      ],
      "name": "setApprovalForAll",
      "outputs": [],
      "stateMutability": "nonpayable",
      "type": "function"
    },
    {
      "inputs": [
        {
          "internalType": "string",
          "name": "_name",
          "type": "string"
        }
      ],
      "name": "setName",
      "outputs": [],
      "stateMutability": "nonpayable",
      "type": "function"
    },
    {
      "inputs": [
        {
          "internalType": "string",
          "name": "_uri",
          "type": "string"
        }
      ],
      "name": "setURI",
      "outputs": [],
      "stateMutability": "nonpayable",
      "type": "function"
    },
    {
      "inputs": [],
      "name": "signer",
      "outputs": [
        {
          "internalType": "address",
          "name": "",
          "type": "address"
        }
      ],
      "stateMutability": "view",
      "type": "function"
    },
    {
      "inputs": [
        {
          "internalType": "bytes4",
          "name": "interfaceId",
          "type": "bytes4"
        }
      ],
      "name": "supportsInterface",
      "outputs": [
        {
          "internalType": "bool",
          "name": "",
          "type": "bool"
        }
      ],
      "stateMutability": "view",
      "type": "function"
    },
    {
      "inputs": [
        {
          "internalType": "uint256",
          "name": "_id",
          "type": "uint256"
        }
      ],
      "name": "totalSupply",
      "outputs": [
        {
          "internalType": "uint256",
          "name": "",
          "type": "uint256"
        }
      ],
      "stateMutability": "view",
      "type": "function"
    },
    {
      "inputs": [
        {
          "internalType": "address",
          "name": "newOwner",
          "type": "address"
        }
      ],
      "name": "transferOwnership",
      "outputs": [],
      "stateMutability": "nonpayable",
      "type": "function"
    },
    {
      "inputs": [
        {
          "internalType": "address",
          "name": "_signer",
          "type": "address"
        }
      ],
      "name": "updateSigner",
      "outputs": [],
      "stateMutability": "nonpayable",
      "type": "function"
    },
    {
      "inputs": [
        {
          "internalType": "uint256",
          "name": "_id",
          "type": "uint256"
        }
      ],
      "name": "uri",
      "outputs": [
        {
          "internalType": "string",
          "name": "",
          "type": "string"
        }
      ],
      "stateMutability": "view",
      "type": "function"
    }
  ],
  "transactionHash": "0x6d17e09328926b1f81bbfb7244038fa8fc155abd9210227810e8f55e7211dcf8",
  "args": [],
  "solcInputHash": "d5bd32595068c508f4c68b2aca3eb1b9",
  "bytecode": "0x608060405260d0805460ff1916905534801561001a57600080fd5b50612d128061002a6000396000f3fe608060405234801561001057600080fd5b50600436106101c35760003560e01c8063869f7594116100f9578063bd85b03911610097578063e985e9c511610071578063e985e9c5146103df578063f242432a1461041b578063f2fde38b1461042e578063f440be041461044157600080fd5b8063bd85b03914610399578063c47f0027146103b9578063d7c4f92a146103cc57600080fd5b8063a22cb465116100d3578063a22cb46514610346578063a7ecd37e14610359578063a9fcfb331461036c578063af640d0f1461038f57600080fd5b8063869f7594146103025780638ccdf15c146103225780638da5cb5b1461033557600080fd5b80632eb2c2d611610166578063690313e411610140578063690313e4146102cc578063715018a6146102df5780637b9bfafc146102e75780638456cb59146102fa57600080fd5b80632eb2c2d61461028c5780634e1273f41461029f5780635c975abb146102bf57600080fd5b806306fdde03116101a257806306fdde03146102265780630e89341c1461023b578063238ac9331461024e5780632a74a4841461027957600080fd5b8062fdd58e146101c857806301ffc9a7146101ee57806302fe530514610211575b600080fd5b6101db6101d636600461243e565b610454565b6040519081526020015b60405180910390f35b6102016101fc36600461261a565b6104ed565b60405190151581526020016101e5565b61022461021f3660046126c2565b610518565b005b61022e61054e565b6040516101e59190612948565b61022e610249366004612602565b6105dc565b60cb54610261906001600160a01b031681565b6040516001600160a01b0390911681526020016101e5565b6101db610287366004612652565b61067e565b61022461029a3660046121fd565b610800565b6102b26102ad366004612538565b610aca565b6040516101e59190612910565b60d0546102019060ff1681565b6102246102da366004612757565b610c2b565b610224610cc7565b6102246102f53660046126fc565b610d3b565b610224610de2565b6101db610310366004612602565b600090815260cd602052604090205490565b61022461033036600461249f565b610e20565b6097546001600160a01b0316610261565b610224610354366004612404565b611108565b6102246103673660046121aa565b6111df565b61020161037a366004612602565b60cf6020526000908152604090205460ff1681565b60ca546101db9081565b6101db6103a7366004612602565b600090815260ce602052604090205490565b6102246103c73660046126c2565b61122b565b6102246103da366004612304565b61126c565b6102016103ed3660046121cb565b6001600160a01b03918216600090815260666020908152604080832093909416825291909152205460ff1690565b6102246104293660046122a2565b6113b0565b61022461043c3660046121aa565b61155d565b6101db61044f366004612467565b611648565b60006001600160a01b0383166104c55760405162461bcd60e51b815260206004820152602b60248201527f455243313135353a2062616c616e636520717565727920666f7220746865207a60448201526a65726f206164647265737360a81b60648201526084015b60405180910390fd5b5060009081526065602090815260408083206001600160a01b03949094168352929052205490565b60006001600160e01b0319821663f2fde38b60e01b148061051257506105128261169f565b92915050565b6097546001600160a01b031633146105425760405162461bcd60e51b81526004016104bc90612a80565b61054b816116ef565b50565b60c9805461055b90612b77565b80601f016020809104026020016040519081016040528092919081815260200182805461058790612b77565b80156105d45780601f106105a9576101008083540402835291602001916105d4565b820191906000526020600020905b8154815290600101906020018083116105b757829003601f168201915b505050505081565b600081815260cc602052604090208054606091906105f990612b77565b80601f016020809104026020016040519081016040528092919081815260200182805461062590612b77565b80156106725780601f1061064757610100808354040283529160200191610672565b820191906000526020600020905b81548152906001019060200180831161065557829003601f168201915b50505050509050919050565b6097546000906001600160a01b031633146106ab5760405162461bcd60e51b81526004016104bc90612a80565b846106f85760405162461bcd60e51b815260206004820152601f60248201527f4572723a204d697373696e6720436f6e74656e74204964656e7469666965720060448201526064016104bc565b610700611702565b90506107453382600087878080601f01602080910402602001604051908101604052809392919081815260200183838082843760009201919091525061171992505050565b600061078687878080601f01602080910402602001604051908101604052809392919081815260200183838082843760009201919091525061181c92505050565b600083815260cc6020908152604090912082519293506107aa929091840190611f8b565b50600082815260cd6020526040908190208490555182907f6bb7ff708619ba0610cba295a58592e0451dee2622938c8755667688daf3529b906107ee908490612948565b60405180910390a25095945050505050565b81518351146108625760405162461bcd60e51b815260206004820152602860248201527f455243313135353a2069647320616e6420616d6f756e7473206c656e677468206044820152670dad2e6dac2e8c6d60c31b60648201526084016104bc565b6001600160a01b0384166108885760405162461bcd60e51b81526004016104bc906129a3565b6001600160a01b0385163314806108a457506108a485336103ed565b61090b5760405162461bcd60e51b815260206004820152603260248201527f455243313135353a207472616e736665722063616c6c6572206973206e6f74206044820152711bdddb995c881b9bdc88185c1c1c9bdd995960721b60648201526084016104bc565b3360005b8451811015610a5c57600085828151811061093a57634e487b7160e01b600052603260045260246000fd5b60200260200101519050600085838151811061096657634e487b7160e01b600052603260045260246000fd5b60209081029190910181015160008481526065835260408082206001600160a01b038e1683529093529190912054909150818110156109b75760405162461bcd60e51b81526004016104bc90612a36565b6109c18282612b34565b6065600085815260200190815260200160002060008c6001600160a01b03166001600160a01b0316815260200190815260200160002081905550816065600085815260200190815260200160002060008b6001600160a01b03166001600160a01b031681526020019081526020016000206000828254610a419190612b1c565b9250508190555050505080610a5590612bde565b905061090f565b50846001600160a01b0316866001600160a01b0316826001600160a01b03167f4a39dc06d4c0dbc64b70af90fd698a233a518aa5d07e595d983b8c0526c8f7fb8787604051610aac929190612923565b60405180910390a4610ac2818787878787611856565b505050505050565b60608151835114610b2f5760405162461bcd60e51b815260206004820152602960248201527f455243313135353a206163636f756e747320616e6420696473206c656e677468604482015268040dad2e6dac2e8c6d60bb1b60648201526084016104bc565b600083516001600160401b03811115610b5857634e487b7160e01b600052604160045260246000fd5b604051908082528060200260200182016040528015610b81578160200160208202803683370190505b50905060005b8451811015610c2357610be8858281518110610bb357634e487b7160e01b600052603260045260246000fd5b6020026020010151858381518110610bdb57634e487b7160e01b600052603260045260246000fd5b6020026020010151610454565b828281518110610c0857634e487b7160e01b600052603260045260246000fd5b6020908102919091010152610c1c81612bde565b9050610b87565b509392505050565b600054610100900460ff1680610c44575060005460ff16155b610c605760405162461bcd60e51b81526004016104bc906129e8565b600054610100900460ff16158015610c82576000805461ffff19166101011790555b610c8a6119c1565b610c926119c1565b610c9a611a2c565b610ca384611ada565b610cae858484610d3b565b8015610cc0576000805461ff00191690555b5050505050565b6097546001600160a01b03163314610cf15760405162461bcd60e51b81526004016104bc90612a80565b6097546040516000916001600160a01b0316907f8be0079c531659141344cd1fd0a4f28419497f9722a3daafe3b4186f6b6457e0908390a3609780546001600160a01b0319169055565b600054610100900460ff1680610d54575060005460ff16155b610d705760405162461bcd60e51b81526004016104bc906129e8565b600054610100900460ff16158015610d92576000805461ffff19166101011790555b8351610da59060c9906020870190611f8b565b5060cb80546001600160a01b0319166001600160a01b038516179055610dca8261155d565b8015610ddc576000805461ff00191690555b50505050565b6097546001600160a01b03163314610e0c5760405162461bcd60e51b81526004016104bc90612a80565b60d0805460ff19811660ff90911615179055565b60d05460ff1615610e5c5760405162461bcd60e51b815260206004820152600660248201526514185d5cd95960d21b60448201526064016104bc565b610e6587611b4f565b610eb15760405162461bcd60e51b815260206004820152601860248201527f437962657274696e6f4e46543a20696e76616c6964204944000000000000000060448201526064016104bc565b6001861015610f0e5760405162461bcd60e51b8152602060048201526024808201527f437962657274696e6f4e46543a206d757374206d696e74206174206c65617374604482015263206f6e6560e01b60648201526084016104bc565b600087815260cd602090815260408083205460ce90925290912054610f34908890612b1c565b1115610f825760405162461bcd60e51b815260206004820181905260248201527f437962657274696e6f4e46543a2065786365656473206d617820737570706c7960448201526064016104bc565b6000610f9089898989611648565b600081815260cf602052604090205490915060ff1615610ff25760405162461bcd60e51b815260206004820152601c60248201527f437962657274696e6f4e46543a20616c7265616479206d696e7465640000000060448201526064016104bc565b6110328186868080601f016020809104026020016040519081016040528093929190818152602001838380828437600092019190915250611b7592505050565b61107e5760405162461bcd60e51b815260206004820152601f60248201527f437962657274696e6f4e46543a20696e76616c6964207369676e61747572650060448201526064016104bc565b600081815260cf6020908152604091829020805460ff191660011790558151601f85018290048202810182019092528382526110da918b918b918b91889088908190840183828082843760009201919091525061171992505050565b600088815260ce6020526040812080548992906110f8908490612b1c565b9091555050505050505050505050565b336001600160a01b03831614156111735760405162461bcd60e51b815260206004820152602960248201527f455243313135353a2073657474696e6720617070726f76616c20737461747573604482015268103337b91039b2b63360b91b60648201526084016104bc565b3360008181526066602090815260408083206001600160a01b03871680855290835292819020805460ff191686151590811790915590519081529192917f17307eab39ab6107e8899845ad3d59bd9653f200f220920489ca2b5937696c31910160405180910390a35050565b6097546001600160a01b031633146112095760405162461bcd60e51b81526004016104bc90612a80565b60cb80546001600160a01b0319166001600160a01b0392909216919091179055565b6097546001600160a01b031633146112555760405162461bcd60e51b81526004016104bc90612a80565b80516112689060c9906020840190611f8b565b5050565b60d05460ff16156112a85760405162461bcd60e51b815260206004820152600660248201526514185d5cd95960d21b60448201526064016104bc565b60005b898110156113a2576113908c8c8c848181106112d757634e487b7160e01b600052603260045260246000fd5b905060200201358b8b858181106112fe57634e487b7160e01b600052603260045260246000fd5b905060200201358a8a8681811061132557634e487b7160e01b600052603260045260246000fd5b9050602002013589898781811061134c57634e487b7160e01b600052603260045260246000fd5b905060200281019061135e9190612ab5565b89898981811061137e57634e487b7160e01b600052603260045260246000fd5b90506020028101906103309190612ab5565b8061139a81612bde565b9150506112ab565b505050505050505050505050565b6001600160a01b0384166113d65760405162461bcd60e51b81526004016104bc906129a3565b6001600160a01b0385163314806113f257506113f285336103ed565b6114505760405162461bcd60e51b815260206004820152602960248201527f455243313135353a2063616c6c6572206973206e6f74206f776e6572206e6f7260448201526808185c1c1c9bdd995960ba1b60648201526084016104bc565b3361146981878761146088611bfa565b610cc088611bfa565b60008481526065602090815260408083206001600160a01b038a168452909152902054838110156114ac5760405162461bcd60e51b81526004016104bc90612a36565b6114b68482612b34565b60008681526065602090815260408083206001600160a01b038c811685529252808320939093558816815290812080548692906114f4908490612b1c565b909155505060408051868152602081018690526001600160a01b03808916928a821692918616917fc3d58168c5ae7397731d063d5bbf3d657854427343f4c083240f7aacaa2d0f62910160405180910390a4611554828888888888611c53565b50505050505050565b6097546001600160a01b031633146115875760405162461bcd60e51b81526004016104bc90612a80565b6001600160a01b0381166115ec5760405162461bcd60e51b815260206004820152602660248201527f4f776e61626c653a206e6577206f776e657220697320746865207a65726f206160448201526564647265737360d01b60648201526084016104bc565b6097546040516001600160a01b038084169216907f8be0079c531659141344cd1fd0a4f28419497f9722a3daafe3b4186f6b6457e090600090a3609780546001600160a01b0319166001600160a01b0392909216919091179055565b6040516bffffffffffffffffffffffff19606086901b166020820152603481018490526054810183905260748101829052600090609401604051602081830303815290604052805190602001209050949350505050565b60006001600160e01b03198216636cdb3d1360e11b14806116d057506001600160e01b031982166303a24d0760e21b145b8061051257506301ffc9a760e01b6001600160e01b0319831614610512565b8051611268906067906020840190611f8b565b600061171260ca80546001019055565b5060ca5490565b6001600160a01b0384166117795760405162461bcd60e51b815260206004820152602160248201527f455243313135353a206d696e7420746f20746865207a65726f206164647265736044820152607360f81b60648201526084016104bc565b3361178a8160008761146088611bfa565b60008481526065602090815260408083206001600160a01b0389168452909152812080548592906117bc908490612b1c565b909155505060408051858152602081018590526001600160a01b0380881692600092918516917fc3d58168c5ae7397731d063d5bbf3d657854427343f4c083240f7aacaa2d0f62910160405180910390a4610cc081600087878787611c53565b6060600061182a6000611d1d565b9050808360405160200161183f92919061283e565b604051602081830303815290604052915050919050565b6001600160a01b0384163b15610ac25760405163bc197c8160e01b81526001600160a01b0385169063bc197c819061189a908990899088908890889060040161286d565b602060405180830381600087803b1580156118b457600080fd5b505af19250505080156118e4575060408051601f3d908101601f191682019092526118e191810190612636565b60015b611991576118f0612c25565b806308c379a0141561192a5750611905612c3d565b80611910575061192c565b8060405162461bcd60e51b81526004016104bc9190612948565b505b60405162461bcd60e51b815260206004820152603460248201527f455243313135353a207472616e7366657220746f206e6f6e20455243313135356044820152732932b1b2b4bb32b91034b6b83632b6b2b73a32b960611b60648201526084016104bc565b6001600160e01b0319811663bc197c8160e01b146115545760405162461bcd60e51b81526004016104bc9061295b565b600054610100900460ff16806119da575060005460ff16155b6119f65760405162461bcd60e51b81526004016104bc906129e8565b600054610100900460ff16158015611a18576000805461ffff19166101011790555b801561054b576000805461ff001916905550565b600054610100900460ff1680611a45575060005460ff16155b611a615760405162461bcd60e51b81526004016104bc906129e8565b600054610100900460ff16158015611a83576000805461ffff19166101011790555b609780546001600160a01b0319163390811790915560405181906000907f8be0079c531659141344cd1fd0a4f28419497f9722a3daafe3b4186f6b6457e0908290a350801561054b576000805461ff001916905550565b600054610100900460ff1680611af3575060005460ff16155b611b0f5760405162461bcd60e51b81526004016104bc906129e8565b600054610100900460ff16158015611b31576000805461ffff19166101011790555b611b3a826116ef565b8015611268576000805461ff00191690555050565b600081815260cc602052604081208054829190611b6b90612b77565b9050119050919050565b600080611bcf846040517f19457468657265756d205369676e6564204d6573736167653a0a3332000000006020820152603c8101829052600090605c01604051602081830303815290604052805190602001209050919050565b60cb549091506001600160a01b0316611be88285611d2c565b6001600160a01b031614949350505050565b60408051600180825281830190925260609160009190602080830190803683370190505090508281600081518110611c4257634e487b7160e01b600052603260045260246000fd5b602090810291909101015292915050565b6001600160a01b0384163b15610ac25760405163f23a6e6160e01b81526001600160a01b0385169063f23a6e6190611c9790899089908890889088906004016128cb565b602060405180830381600087803b158015611cb157600080fd5b505af1925050508015611ce1575060408051601f3d908101601f19168201909252611cde91810190612636565b60015b611ced576118f0612c25565b6001600160e01b0319811663f23a6e6160e01b146115545760405162461bcd60e51b81526004016104bc9061295b565b6060606780546105f990612b77565b600080600080845160411415611d565750505060208201516040830151606084015160001a611dcc565b845160401415611d845750505060408201516020830151906001600160ff1b0381169060ff1c601b01611dcc565b60405162461bcd60e51b815260206004820152601f60248201527f45434453413a20696e76616c6964207369676e6174757265206c656e6774680060448201526064016104bc565b611dd886828585611de2565b9695505050505050565b60007f7fffffffffffffffffffffffffffffff5d576e7357a4501ddfe92f46681b20a0821115611e5f5760405162461bcd60e51b815260206004820152602260248201527f45434453413a20696e76616c6964207369676e6174757265202773272076616c604482015261756560f01b60648201526084016104bc565b8360ff16601b1480611e7457508360ff16601c145b611ecb5760405162461bcd60e51b815260206004820152602260248201527f45434453413a20696e76616c6964207369676e6174757265202776272076616c604482015261756560f01b60648201526084016104bc565b6040805160008082526020820180845288905260ff871692820192909252606081018590526080810184905260019060a0016020604051602081039080840390855afa158015611f1f573d6000803e3d6000fd5b5050604051601f1901519150506001600160a01b038116611f825760405162461bcd60e51b815260206004820152601860248201527f45434453413a20696e76616c6964207369676e6174757265000000000000000060448201526064016104bc565b95945050505050565b828054611f9790612b77565b90600052602060002090601f016020900481019282611fb95760008555611fff565b82601f10611fd257805160ff1916838001178555611fff565b82800160010185558215611fff579182015b82811115611fff578251825591602001919060010190611fe4565b5061200b92915061200f565b5090565b5b8082111561200b5760008155600101612010565b80356001600160a01b038116811461203b57600080fd5b919050565b60008083601f840112612051578182fd5b5081356001600160401b03811115612067578182fd5b6020830191508360208260051b850101111561208257600080fd5b9250929050565b600082601f830112612099578081fd5b813560206120a682612af9565b6040516120b38282612bb2565b8381528281019150858301600585901b870184018810156120d2578586fd5b855b858110156120f0578135845292840192908401906001016120d4565b5090979650505050505050565b60008083601f84011261210e578182fd5b5081356001600160401b03811115612124578182fd5b60208301915083602082850101111561208257600080fd5b600082601f83011261214c578081fd5b81356001600160401b0381111561216557612165612c0f565b60405161217c601f8301601f191660200182612bb2565b818152846020838601011115612190578283fd5b816020850160208301379081016020019190915292915050565b6000602082840312156121bb578081fd5b6121c482612024565b9392505050565b600080604083850312156121dd578081fd5b6121e683612024565b91506121f460208401612024565b90509250929050565b600080600080600060a08688031215612214578081fd5b61221d86612024565b945061222b60208701612024565b935060408601356001600160401b0380821115612246578283fd5b61225289838a01612089565b94506060880135915080821115612267578283fd5b61227389838a01612089565b93506080880135915080821115612288578283fd5b506122958882890161213c565b9150509295509295909350565b600080600080600060a086880312156122b9578081fd5b6122c286612024565b94506122d060208701612024565b9350604086013592506060860135915060808601356001600160401b038111156122f8578182fd5b6122958882890161213c565b600080600080600080600080600080600060c08c8e031215612324578586fd5b61232d8c612024565b9a506001600160401b038060208e01351115612347578687fd5b6123578e60208f01358f01612040565b909b50995060408d013581101561236c578687fd5b61237c8e60408f01358f01612040565b909950975060608d0135811015612391578687fd5b6123a18e60608f01358f01612040565b909750955060808d01358110156123b6578485fd5b6123c68e60808f01358f01612040565b909550935060a08d01358110156123db578283fd5b506123ec8d60a08e01358e01612040565b81935080925050509295989b509295989b9093969950565b60008060408385031215612416578182fd5b61241f83612024565b915060208301358015158114612433578182fd5b809150509250929050565b60008060408385031215612450578182fd5b61245983612024565b946020939093013593505050565b6000806000806080858703121561247c578182fd5b61248585612024565b966020860135965060408601359560600135945092505050565b60008060008060008060008060c0898b0312156124ba578182fd5b6124c389612024565b975060208901359650604089013595506060890135945060808901356001600160401b03808211156124f3578384fd5b6124ff8c838d016120fd565b909650945060a08b0135915080821115612517578384fd5b506125248b828c016120fd565b999c989b5096995094979396929594505050565b6000806040838503121561254a578182fd5b82356001600160401b0380821115612560578384fd5b818501915085601f830112612573578384fd5b8135602061258082612af9565b60405161258d8282612bb2565b8381528281019150858301600585901b870184018b10156125ac578889fd5b8896505b848710156125d5576125c181612024565b8352600196909601959183019183016125b0565b50965050860135925050808211156125eb578283fd5b506125f885828601612089565b9150509250929050565b600060208284031215612613578081fd5b5035919050565b60006020828403121561262b578081fd5b81356121c481612cc6565b600060208284031215612647578081fd5b81516121c481612cc6565b600080600080600060608688031215612669578283fd5b85356001600160401b038082111561267f578485fd5b61268b89838a016120fd565b909750955060208801359150808211156126a3578485fd5b506126b0888289016120fd565b96999598509660400135949350505050565b6000602082840312156126d3578081fd5b81356001600160401b038111156126e8578182fd5b6126f48482850161213c565b949350505050565b600080600060608486031215612710578081fd5b83356001600160401b03811115612725578182fd5b6127318682870161213c565b93505061274060208501612024565b915061274e60408501612024565b90509250925092565b6000806000806080858703121561276c578182fd5b84356001600160401b0380821115612782578384fd5b61278e8883890161213c565b955060208701359150808211156127a3578384fd5b506127b08782880161213c565b9350506127bf60408601612024565b91506127cd60608601612024565b905092959194509250565b6000815180845260208085019450808401835b83811015612807578151875295820195908201906001016127eb565b509495945050505050565b6000815180845261282a816020860160208601612b4b565b601f01601f19169290920160200192915050565b60008351612850818460208801612b4b565b835190830190612864818360208801612b4b565b01949350505050565b6001600160a01b0386811682528516602082015260a060408201819052600090612899908301866127d8565b82810360608401526128ab81866127d8565b905082810360808401526128bf8185612812565b98975050505050505050565b6001600160a01b03868116825285166020820152604081018490526060810183905260a06080820181905260009061290590830184612812565b979650505050505050565b6020815260006121c460208301846127d8565b60408152600061293660408301856127d8565b8281036020840152611f8281856127d8565b6020815260006121c46020830184612812565b60208082526028908201527f455243313135353a204552433131353552656365697665722072656a656374656040820152676420746f6b656e7360c01b606082015260800190565b60208082526025908201527f455243313135353a207472616e7366657220746f20746865207a65726f206164604082015264647265737360d81b606082015260800190565b6020808252602e908201527f496e697469616c697a61626c653a20636f6e747261637420697320616c72656160408201526d191e481a5b9a5d1a585b1a5e995960921b606082015260800190565b6020808252602a908201527f455243313135353a20696e73756666696369656e742062616c616e636520666f60408201526939103a3930b739b332b960b11b606082015260800190565b6020808252818101527f4f776e61626c653a2063616c6c6572206973206e6f7420746865206f776e6572604082015260600190565b6000808335601e19843603018112612acb578283fd5b8301803591506001600160401b03821115612ae4578283fd5b60200191503681900382131561208257600080fd5b60006001600160401b03821115612b1257612b12612c0f565b5060051b60200190565b60008219821115612b2f57612b2f612bf9565b500190565b600082821015612b4657612b46612bf9565b500390565b60005b83811015612b66578181015183820152602001612b4e565b83811115610ddc5750506000910152565b600181811c90821680612b8b57607f821691505b60208210811415612bac57634e487b7160e01b600052602260045260246000fd5b50919050565b601f8201601f191681016001600160401b0381118282101715612bd757612bd7612c0f565b6040525050565b6000600019821415612bf257612bf2612bf9565b5060010190565b634e487b7160e01b600052601160045260246000fd5b634e487b7160e01b600052604160045260246000fd5b600060033d1115612c3a57600481823e5160e01c5b90565b600060443d1015612c4b5790565b6040516003193d81016004833e81513d6001600160401b038160248401118184111715612c7a57505050505090565b8285019150815181811115612c925750505050505090565b843d8701016020828501011115612cac5750505050505090565b612cbb60208286010187612bb2565b509095945050505050565b6001600160e01b03198116811461054b57600080fdfea2646970667358221220df16ad5f2c69c7f87d76769c0cd7704172e8ac8e73b612a66b08d038b4e1e00864736f6c63430008040033",
  "devdoc": {
    "kind": "dev",
    "methods": {
      "balanceOf(address,uint256)": {
        "details": "See {IERC1155-balanceOf}. Requirements: - `account` cannot be the zero address."
      },
      "balanceOfBatch(address[],uint256[])": {
        "details": "See {IERC1155-balanceOfBatch}. Requirements: - `accounts` and `ids` must have the same length."
      },
      "batchMint(address,uint256[],uint256[],uint256[],bytes[],bytes[])": {
        "details": "Batch mints multiple different existing NFT types",
        "params": {
          "_amounts": "numbers of NFTs of same type to mint",
          "_data": "Data to pass if receiver is contract",
          "_ids": "IDs of the type of NFT to mint",
          "_nonces": "platform nounces to prevent replay",
          "_signatures": "Verified signatures granting _account an NFT",
          "_to": "Account to mint NFT to (i.e. the owner)"
        }
      },
      "create(string,bytes,uint256)": {
        "details": "Creates a new NFT type",
        "params": {
          "_cid": "Content identifier",
          "_data": "Data to pass if receiver is contract"
        },
        "returns": {
          "_id": "The newly created token ID"
        }
      },
      "getMessageHash(address,uint256,uint256,uint256)": {
        "details": "Create message hash to be signed"
      },
      "isApprovedForAll(address,address)": {
        "details": "See {IERC1155-isApprovedForAll}."
      },
      "maxSupply(uint256)": {
        "details": "Returns the max quantity for a token ID",
        "params": {
          "_id": "ID of the token to query"
        },
        "returns": {
          "_0": "amount of token in existence"
        }
      },
      "mint(address,uint256,uint256,uint256,bytes,bytes)": {
        "details": "Mints an existing NFT type",
        "params": {
          "_amount": "number of NFTs of same type to mint",
          "_data": "Data to pass if receiver is contract",
          "_id": "ID (i.e. type) of NFT to mint",
          "_nonce": "platform nounce to prevent replay",
          "_signature": "Verified signature granting _account an NFT",
          "_to": "Account to mint NFT to (i.e. the owner)"
        }
      },
      "owner()": {
        "details": "Returns the address of the current owner."
      },
      "pause()": {
        "details": "Pause or unpause the minting and creation of NFTs"
      },
      "renounceOwnership()": {
        "details": "Leaves the contract without owner. It will not be possible to call `onlyOwner` functions anymore. Can only be called by the current owner. NOTE: Renouncing ownership will leave the contract without an owner, thereby removing any functionality that is only available to the owner."
      },
      "safeBatchTransferFrom(address,address,uint256[],uint256[],bytes)": {
        "details": "See {IERC1155-safeBatchTransferFrom}."
      },
      "safeTransferFrom(address,address,uint256,uint256,bytes)": {
        "details": "See {IERC1155-safeTransferFrom}."
      },
      "setApprovalForAll(address,bool)": {
        "details": "See {IERC1155-setApprovalForAll}."
      },
      "setName(string)": {
        "details": "Sets NFT collection name to `_name`."
      },
      "setURI(string)": {
        "details": "Sets a new URI for all token types"
      },
      "supportsInterface(bytes4)": {
        "details": "See {IERC165-supportsInterface}."
      },
      "totalSupply(uint256)": {
        "details": "Returns the total quantity for a token ID",
        "params": {
          "_id": "ID of the token to query"
        },
        "returns": {
          "_0": "amount of token in existence"
        }
      },
      "transferOwnership(address)": {
        "details": "Transfers ownership of the contract to a new account (`newOwner`). Can only be called by the current owner."
      },
      "updateSigner(address)": {
        "details": "Update the signer"
      },
      "uri(uint256)": {
        "details": "Returns the uri of a token given its ID",
        "params": {
          "_id": "ID of the token to query"
        },
        "returns": {
          "_0": "uri of the token or an empty string if it does not exist"
        }
      }
    },
    "version": 1
  },
  "userdoc": {
    "kind": "user",
    "methods": {
      "batchMint(address,uint256[],uint256[],uint256[],bytes[],bytes[])": {
        "notice": "Enforces a maximum of 1 minting event per account per NFT type"
      },
      "mint(address,uint256,uint256,uint256,bytes,bytes)": {
        "notice": "Enforces a maximum of 1 minting event per NFT type per account"
      }
    },
    "version": 1
  },
  "storageLayout": {
    "storage": [
      {
        "astId": 532,
        "contract": "contracts/CybertinoNFT/CybertinoNFTV0.sol:CybertinoNFTV0",
        "label": "_initialized",
        "offset": 0,
        "slot": "0",
        "type": "t_bool"
      },
      {
        "astId": 535,
        "contract": "contracts/CybertinoNFT/CybertinoNFTV0.sol:CybertinoNFTV0",
        "label": "_initializing",
        "offset": 1,
        "slot": "0",
        "type": "t_bool"
      },
      {
        "astId": 3107,
        "contract": "contracts/CybertinoNFT/CybertinoNFTV0.sol:CybertinoNFTV0",
        "label": "__gap",
        "offset": 0,
        "slot": "1",
        "type": "t_array(t_uint256)50_storage"
      },
      {
        "astId": 3561,
        "contract": "contracts/CybertinoNFT/CybertinoNFTV0.sol:CybertinoNFTV0",
        "label": "__gap",
        "offset": 0,
        "slot": "51",
        "type": "t_array(t_uint256)50_storage"
      },
      {
        "astId": 601,
        "contract": "contracts/CybertinoNFT/CybertinoNFTV0.sol:CybertinoNFTV0",
        "label": "_balances",
        "offset": 0,
        "slot": "101",
        "type": "t_mapping(t_uint256,t_mapping(t_address,t_uint256))"
      },
      {
        "astId": 607,
        "contract": "contracts/CybertinoNFT/CybertinoNFTV0.sol:CybertinoNFTV0",
        "label": "_operatorApprovals",
        "offset": 0,
        "slot": "102",
        "type": "t_mapping(t_address,t_mapping(t_address,t_bool))"
      },
      {
        "astId": 609,
        "contract": "contracts/CybertinoNFT/CybertinoNFTV0.sol:CybertinoNFTV0",
        "label": "_uri",
        "offset": 0,
        "slot": "103",
        "type": "t_string_storage"
      },
      {
        "astId": 1631,
        "contract": "contracts/CybertinoNFT/CybertinoNFTV0.sol:CybertinoNFTV0",
        "label": "__gap",
        "offset": 0,
        "slot": "104",
        "type": "t_array(t_uint256)47_storage"
      },
      {
        "astId": 406,
        "contract": "contracts/CybertinoNFT/CybertinoNFTV0.sol:CybertinoNFTV0",
        "label": "_owner",
        "offset": 0,
        "slot": "151",
        "type": "t_address"
      },
      {
        "astId": 525,
        "contract": "contracts/CybertinoNFT/CybertinoNFTV0.sol:CybertinoNFTV0",
        "label": "__gap",
        "offset": 0,
        "slot": "152",
        "type": "t_array(t_uint256)49_storage"
      },
      {
        "astId": 7073,
        "contract": "contracts/CybertinoNFT/CybertinoNFTV0.sol:CybertinoNFTV0",
        "label": "name",
        "offset": 0,
        "slot": "201",
        "type": "t_string_storage"
      },
      {
        "astId": 7077,
        "contract": "contracts/CybertinoNFT/CybertinoNFTV0.sol:CybertinoNFTV0",
        "label": "id",
        "offset": 0,
        "slot": "202",
        "type": "t_struct(Counter)3114_storage"
      },
      {
        "astId": 7080,
        "contract": "contracts/CybertinoNFT/CybertinoNFTV0.sol:CybertinoNFTV0",
        "label": "signer",
        "offset": 0,
        "slot": "203",
        "type": "t_address"
      },
      {
        "astId": 7085,
        "contract": "contracts/CybertinoNFT/CybertinoNFTV0.sol:CybertinoNFTV0",
        "label": "idToUri",
        "offset": 0,
        "slot": "204",
        "type": "t_mapping(t_uint256,t_string_storage)"
      },
      {
        "astId": 7090,
        "contract": "contracts/CybertinoNFT/CybertinoNFTV0.sol:CybertinoNFTV0",
        "label": "maxTokenSupply",
        "offset": 0,
        "slot": "205",
        "type": "t_mapping(t_uint256,t_uint256)"
      },
      {
        "astId": 7095,
        "contract": "contracts/CybertinoNFT/CybertinoNFTV0.sol:CybertinoNFTV0",
        "label": "tokenSupply",
        "offset": 0,
        "slot": "206",
        "type": "t_mapping(t_uint256,t_uint256)"
      },
      {
        "astId": 7100,
        "contract": "contracts/CybertinoNFT/CybertinoNFTV0.sol:CybertinoNFTV0",
        "label": "executed",
        "offset": 0,
        "slot": "207",
        "type": "t_mapping(t_bytes32,t_bool)"
      },
      {
        "astId": 7104,
        "contract": "contracts/CybertinoNFT/CybertinoNFTV0.sol:CybertinoNFTV0",
        "label": "paused",
        "offset": 0,
        "slot": "208",
        "type": "t_bool"
      }
    ],
    "types": {
      "t_address": {
        "encoding": "inplace",
        "label": "address",
        "numberOfBytes": "20"
      },
      "t_array(t_uint256)47_storage": {
        "base": "t_uint256",
        "encoding": "inplace",
        "label": "uint256[47]",
        "numberOfBytes": "1504"
      },
      "t_array(t_uint256)49_storage": {
        "base": "t_uint256",
        "encoding": "inplace",
        "label": "uint256[49]",
        "numberOfBytes": "1568"
      },
      "t_array(t_uint256)50_storage": {
        "base": "t_uint256",
        "encoding": "inplace",
        "label": "uint256[50]",
        "numberOfBytes": "1600"
      },
      "t_bool": {
        "encoding": "inplace",
        "label": "bool",
        "numberOfBytes": "1"
      },
      "t_bytes32": {
        "encoding": "inplace",
        "label": "bytes32",
        "numberOfBytes": "32"
      },
      "t_mapping(t_address,t_bool)": {
        "encoding": "mapping",
        "key": "t_address",
        "label": "mapping(address => bool)",
        "numberOfBytes": "32",
        "value": "t_bool"
      },
      "t_mapping(t_address,t_mapping(t_address,t_bool))": {
        "encoding": "mapping",
        "key": "t_address",
        "label": "mapping(address => mapping(address => bool))",
        "numberOfBytes": "32",
        "value": "t_mapping(t_address,t_bool)"
      },
      "t_mapping(t_address,t_uint256)": {
        "encoding": "mapping",
        "key": "t_address",
        "label": "mapping(address => uint256)",
        "numberOfBytes": "32",
        "value": "t_uint256"
      },
      "t_mapping(t_bytes32,t_bool)": {
        "encoding": "mapping",
        "key": "t_bytes32",
        "label": "mapping(bytes32 => bool)",
        "numberOfBytes": "32",
        "value": "t_bool"
      },
      "t_mapping(t_uint256,t_mapping(t_address,t_uint256))": {
        "encoding": "mapping",
        "key": "t_uint256",
        "label": "mapping(uint256 => mapping(address => uint256))",
        "numberOfBytes": "32",
        "value": "t_mapping(t_address,t_uint256)"
      },
      "t_mapping(t_uint256,t_string_storage)": {
        "encoding": "mapping",
        "key": "t_uint256",
        "label": "mapping(uint256 => string)",
        "numberOfBytes": "32",
        "value": "t_string_storage"
      },
      "t_mapping(t_uint256,t_uint256)": {
        "encoding": "mapping",
        "key": "t_uint256",
        "label": "mapping(uint256 => uint256)",
        "numberOfBytes": "32",
        "value": "t_uint256"
      },
      "t_string_storage": {
        "encoding": "bytes",
        "label": "string",
        "numberOfBytes": "32"
      },
      "t_struct(Counter)3114_storage": {
        "encoding": "inplace",
        "label": "struct CountersUpgradeable.Counter",
        "members": [
          {
            "astId": 3113,
            "contract": "contracts/CybertinoNFT/CybertinoNFTV0.sol:CybertinoNFTV0",
            "label": "_value",
            "offset": 0,
            "slot": "0",
            "type": "t_uint256"
          }
        ],
        "numberOfBytes": "32"
      },
      "t_uint256": {
        "encoding": "inplace",
        "label": "uint256",
        "numberOfBytes": "32"
      }
    }
  }
}