{
  "address": "0xC67F3A9964fa576a99C352119Ea85d33426A7A4A",
  "abi": [
    {
      "inputs": [
        {
          "internalType": "address",
          "name": "newBeacon",
          "type": "address"
        }
      ],
      "stateMutability": "nonpayable",
      "type": "constructor"
    },
    {
      "anonymous": false,
      "inputs": [
        {
          "indexed": false,
          "internalType": "string",
          "name": "influencerName",
          "type": "string"
        },
        {
          "indexed": false,
          "internalType": "address",
          "name": "contractAddr",
          "type": "address"
        }
      ],
      "name": "InfluencerSigned",
      "type": "event"
    },
    {
      "anonymous": false,
      "inputs": [
        {
          "indexed": true,
          "internalType": "address",
          "name": "previousOwner",
          "type": "address"
        },
        {
          "indexed": true,
          "internalType": "address",
          "name": "newOwner",
          "type": "address"
        }
      ],
      "name": "OwnershipTransferred",
      "type": "event"
    },
    {
      "inputs": [],
      "name": "beacon",
      "outputs": [
        {
          "internalType": "contract IBeacon",
          "name": "",
          "type": "address"
        }
      ],
      "stateMutability": "view",
      "type": "function"
    },
    {
      "inputs": [
        {
          "internalType": "address",
          "name": "addr",
          "type": "address"
        },
        {
          "internalType": "contract IInfluencer",
          "name": "influencer",
          "type": "address"
        }
      ],
      "name": "grantManagerRole",
      "outputs": [],
      "stateMutability": "nonpayable",
      "type": "function"
    },
    {
      "inputs": [
        {
          "internalType": "address",
          "name": "influencer",
          "type": "address"
        }
      ],
      "name": "isSignedInfluencer",
      "outputs": [
        {
          "internalType": "bool",
          "name": "",
          "type": "bool"
        }
      ],
      "stateMutability": "view",
      "type": "function"
    },
    {
      "inputs": [],
      "name": "owner",
      "outputs": [
        {
          "internalType": "address",
          "name": "",
          "type": "address"
        }
      ],
      "stateMutability": "view",
      "type": "function"
    },
    {
      "inputs": [],
      "name": "renounceOwnership",
      "outputs": [],
      "stateMutability": "nonpayable",
      "type": "function"
    },
    {
      "inputs": [
        {
          "internalType": "address",
          "name": "addr",
          "type": "address"
        },
        {
          "internalType": "contract IInfluencer",
          "name": "influencer",
          "type": "address"
        }
      ],
      "name": "revokeManagerRole",
      "outputs": [],
      "stateMutability": "nonpayable",
      "type": "function"
    },
    {
      "inputs": [
        {
          "internalType": "string",
          "name": "name",
          "type": "string"
        },
        {
          "internalType": "string",
          "name": "uri",
          "type": "string"
        }
      ],
      "name": "signInfluencer",
      "outputs": [
        {
          "internalType": "contract BeaconProxy",
          "name": "",
          "type": "address"
        }
      ],
      "stateMutability": "nonpayable",
      "type": "function"
    },
    {
      "inputs": [
        {
          "internalType": "address",
          "name": "newOwner",
          "type": "address"
        }
      ],
      "name": "transferOwnership",
      "outputs": [],
      "stateMutability": "nonpayable",
      "type": "function"
    }
  ],
  "transactionHash": "0x01ba3a6811cb362129f843127f8e5f012481719b71d332ba7f5b4c44e45b5972",
  "args": [
    "0x308D110839E9Fc2AE1368ef1186887730C6eC39c"
  ],
  "solcInputHash": "b4c5c003c7d876c49f776818792f88d9",
  "bytecode": "0x608060405234801561001057600080fd5b5060405161140738038061140783398101604081905261002f916100fe565b600080546001600160a01b031916339081178255604051909182917f8be0079c531659141344cd1fd0a4f28419497f9722a3daafe3b4186f6b6457e0908290a350610083816100f860201b6106961760201c565b6100d35760405162461bcd60e51b815260206004820152601860248201527f626561636f6e206973206e6f74206120636f6e74726163740000000000000000604482015260640160405180910390fd5b600280546001600160a01b0319166001600160a01b039290921691909117905561012c565b3b151590565b60006020828403121561010f578081fd5b81516001600160a01b0381168114610125578182fd5b9392505050565b6112cc8061013b6000396000f3fe60806040523480156200001157600080fd5b5060043610620000935760003560e01c80636961e63a11620000625780636961e63a1462000139578063715018a614620001505780638da5cb5b146200015a578063f2fde38b146200016c57600080fd5b806316e07cff1462000098578063305b634e14620000b157806348c935a014620000c857806359659e90146200010c575b600080fd5b620000af620000a93660046200075f565b62000183565b005b620000af620000c23660046200075f565b620002cc565b620000f7620000d936600462000739565b6001600160a01b031660009081526001602052604090205460ff1690565b60405190151581526020015b60405180910390f35b60025462000120906001600160a01b031681565b6040516001600160a01b03909116815260200162000103565b620001206200014a3660046200079c565b620003d8565b620000af62000530565b6000546001600160a01b031662000120565b620000af6200017d36600462000739565b620005a7565b6000546001600160a01b03163314620001b95760405162461bcd60e51b8152600401620001b090620008b0565b60405180910390fd5b6001600160a01b038116600090815260016020526040902054819060ff166200021e5760405162461bcd60e51b81526020600482015260166024820152757369676e656420696e666c75656e636572206f6e6c7960501b6044820152606401620001b0565b813b620002695760405162461bcd60e51b815260206004820152601860248201527718995858dbdb881a5cc81b9bdd08184818dbdb9d1c9858dd60421b6044820152606401620001b0565b60405163be4dc94f60e01b81526001600160a01b03848116600483015283169063be4dc94f906024015b600060405180830381600087803b158015620002ae57600080fd5b505af1158015620002c3573d6000803e3d6000fd5b50505050505050565b6000546001600160a01b03163314620002f95760405162461bcd60e51b8152600401620001b090620008b0565b6001600160a01b038116600090815260016020526040902054819060ff166200035e5760405162461bcd60e51b81526020600482015260166024820152757369676e656420696e666c75656e636572206f6e6c7960501b6044820152606401620001b0565b813b620003a95760405162461bcd60e51b815260206004820152601860248201527718995858dbdb881a5cc81b9bdd08184818dbdb9d1c9858dd60421b6044820152606401620001b0565b6040516326e885e360e01b81526001600160a01b0384811660048301528316906326e885e39060240162000293565b600080546001600160a01b03163314620004065760405162461bcd60e51b8152600401620001b090620008b0565b6002546040516000916001600160a01b03169062000424906200069c565b6001600160a01b039091168152604060208201819052600090820152606001604051809103906000f08015801562000460573d6000803e3d6000fd5b5060405163a055dad760e01b81529091506001600160a01b0382169063a055dad7906200049490879087906004016200087e565b600060405180830381600087803b158015620004af57600080fd5b505af1158015620004c4573d6000803e3d6000fd5b505050507f5936e8d801894090b0f58436dadf0e1f90008a0f8260732d26fd60b51a2da3d18482604051620004fb92919062000852565b60405180910390a16001600160a01b0381166000908152600160208190526040909120805460ff191690911790559392505050565b6000546001600160a01b031633146200055d5760405162461bcd60e51b8152600401620001b090620008b0565b600080546040516001600160a01b03909116907f8be0079c531659141344cd1fd0a4f28419497f9722a3daafe3b4186f6b6457e0908390a3600080546001600160a01b0319169055565b6000546001600160a01b03163314620005d45760405162461bcd60e51b8152600401620001b090620008b0565b6001600160a01b0381166200063b5760405162461bcd60e51b815260206004820152602660248201527f4f776e61626c653a206e6577206f776e657220697320746865207a65726f206160448201526564647265737360d01b6064820152608401620001b0565b600080546040516001600160a01b03808516939216917f8be0079c531659141344cd1fd0a4f28419497f9722a3daafe3b4186f6b6457e091a3600080546001600160a01b0319166001600160a01b0392909216919091179055565b3b151590565b610982806200091583390190565b600082601f830112620006bb578081fd5b813567ffffffffffffffff80821115620006d957620006d9620008e5565b604051601f8301601f19908116603f01168101908282118183101715620007045762000704620008e5565b816040528381528660208588010111156200071d578485fd5b8360208701602083013792830160200193909352509392505050565b6000602082840312156200074b578081fd5b81356200075881620008fb565b9392505050565b6000806040838503121562000772578081fd5b82356200077f81620008fb565b915060208301356200079181620008fb565b809150509250929050565b60008060408385031215620007af578182fd5b823567ffffffffffffffff80821115620007c7578384fd5b620007d586838701620006aa565b93506020850135915080821115620007eb578283fd5b50620007fa85828601620006aa565b9150509250929050565b60008151808452815b818110156200082b576020818501810151868301820152016200080d565b818111156200083d5782602083870101525b50601f01601f19169290920160200192915050565b60408152600062000867604083018562000804565b905060018060a01b03831660208301529392505050565b60408152600062000893604083018562000804565b8281036020840152620008a7818562000804565b95945050505050565b6020808252818101527f4f776e61626c653a2063616c6c6572206973206e6f7420746865206f776e6572604082015260600190565b634e487b7160e01b600052604160045260246000fd5b6001600160a01b03811681146200091157600080fd5b5056fe60806040526040516109823803806109828339810160408190526100229161047d565b61004d60017fa3f0ad74e5423aebfd80d3ef4346578335a9a72aeaee59ff6cb3582b35133d51610588565b60008051602061093b8339815191521461007757634e487b7160e01b600052600160045260246000fd5b6100838282600061008a565b50506105ed565b61009383610164565b6040516001600160a01b038416907f1cf3b03a6cf19fa2baba4df148e9dcabedea7f8a5c07840e207e5c089be95d3e90600090a26000825111806100d45750805b1561015f5761015d836001600160a01b0316635c60da1b6040518163ffffffff1660e01b815260040160206040518083038186803b15801561011557600080fd5b505afa158015610129573d6000803e3d6000fd5b505050506040513d601f19601f8201168201806040525081019061014d9190610463565b8361030460201b6100291760201c565b505b505050565b6101778161033060201b6100551760201c565b6101d65760405162461bcd60e51b815260206004820152602560248201527f455243313936373a206e657720626561636f6e206973206e6f74206120636f6e6044820152641d1c9858dd60da1b60648201526084015b60405180910390fd5b610259816001600160a01b0316635c60da1b6040518163ffffffff1660e01b815260040160206040518083038186803b15801561021257600080fd5b505afa158015610226573d6000803e3d6000fd5b505050506040513d601f19601f8201168201806040525081019061024a9190610463565b61033060201b6100551760201c565b6102be5760405162461bcd60e51b815260206004820152603060248201527f455243313936373a20626561636f6e20696d706c656d656e746174696f6e206960448201526f1cc81b9bdd08184818dbdb9d1c9858dd60821b60648201526084016101cd565b806102e360008051602061093b83398151915260001b61033660201b61005b1760201c565b80546001600160a01b0319166001600160a01b039290921691909117905550565b6060610329838360405180606001604052806027815260200161095b60279139610339565b9392505050565b3b151590565b90565b6060833b6103985760405162461bcd60e51b815260206004820152602660248201527f416464726573733a2064656c65676174652063616c6c20746f206e6f6e2d636f6044820152651b9d1c9858dd60d21b60648201526084016101cd565b600080856001600160a01b0316856040516103b39190610539565b600060405180830381855af49150503d80600081146103ee576040519150601f19603f3d011682016040523d82523d6000602084013e6103f3565b606091505b50909250905061040482828661040e565b9695505050505050565b6060831561041d575081610329565b82511561042d5782518084602001fd5b8160405162461bcd60e51b81526004016101cd9190610555565b80516001600160a01b038116811461045e57600080fd5b919050565b600060208284031215610474578081fd5b61032982610447565b6000806040838503121561048f578081fd5b61049883610447565b60208401519092506001600160401b03808211156104b4578283fd5b818501915085601f8301126104c7578283fd5b8151818111156104d9576104d96105d7565b604051601f8201601f19908116603f01168101908382118183101715610501576105016105d7565b81604052828152886020848701011115610519578586fd5b61052a8360208301602088016105ab565b80955050505050509250929050565b6000825161054b8184602087016105ab565b9190910192915050565b60208152600082518060208401526105748160408501602087016105ab565b601f01601f19169190910160400192915050565b6000828210156105a657634e487b7160e01b81526011600452602481fd5b500390565b60005b838110156105c65781810151838201526020016105ae565b8381111561015d5750506000910152565b634e487b7160e01b600052604160045260246000fd5b61033f806105fc6000396000f3fe60806040523661001357610011610017565b005b6100115b61002761002261005e565b610106565b565b606061004e83836040518060600160405280602781526020016102e36027913961012a565b9392505050565b3b151590565b90565b60006100917fa3f0ad74e5423aebfd80d3ef4346578335a9a72aeaee59ff6cb3582b35133d50546001600160a01b031690565b6001600160a01b0316635c60da1b6040518163ffffffff1660e01b815260040160206040518083038186803b1580156100c957600080fd5b505afa1580156100dd573d6000803e3d6000fd5b505050506040513d601f19601f82011682018060405250810190610101919061023c565b905090565b3660008037600080366000845af43d6000803e808015610125573d6000f35b3d6000fd5b6060833b61018e5760405162461bcd60e51b815260206004820152602660248201527f416464726573733a2064656c65676174652063616c6c20746f206e6f6e2d636f6044820152651b9d1c9858dd60d21b60648201526084015b60405180910390fd5b600080856001600160a01b0316856040516101a99190610263565b600060405180830381855af49150503d80600081146101e4576040519150601f19603f3d011682016040523d82523d6000602084013e6101e9565b606091505b50915091506101f9828286610203565b9695505050505050565b6060831561021257508161004e565b8251156102225782518084602001fd5b8160405162461bcd60e51b8152600401610185919061027f565b60006020828403121561024d578081fd5b81516001600160a01b038116811461004e578182fd5b600082516102758184602087016102b2565b9190910192915050565b602081526000825180602084015261029e8160408501602087016102b2565b601f01601f19169190910160400192915050565b60005b838110156102cd5781810151838201526020016102b5565b838111156102dc576000848401525b5050505056fe416464726573733a206c6f772d6c6576656c2064656c65676174652063616c6c206661696c6564a2646970667358221220fbc55c02a7e22eee5902fddf745e445603f51c03bea83b02a21f9a88ee265d1664736f6c63430008040033a3f0ad74e5423aebfd80d3ef4346578335a9a72aeaee59ff6cb3582b35133d50416464726573733a206c6f772d6c6576656c2064656c65676174652063616c6c206661696c6564a26469706673582212207a039929d74e9cfa5ba4067dc608f012b4df8e6980adf44f0da75819d3f2683a64736f6c63430008040033",
  "devdoc": {
    "events": {
      "InfluencerSigned(string,address)": {
        "details": "Emitted when new influencer is signed."
      }
    },
    "kind": "dev",
    "methods": {
      "grantManagerRole(address,address)": {
        "details": "Grant `addr` Manager role in `influencer` contract"
      },
      "isSignedInfluencer(address)": {
        "details": "Returns `true` if `influencer` is a signed influencer."
      },
      "owner()": {
        "details": "Returns the address of the current owner."
      },
      "renounceOwnership()": {
        "details": "Leaves the contract without owner. It will not be possible to call `onlyOwner` functions anymore. Can only be called by the current owner. NOTE: Renouncing ownership will leave the contract without an owner, thereby removing any functionality that is only available to the owner."
      },
      "revokeManagerRole(address,address)": {
        "details": "Revoke `addr` Manager role in `influencer` contract"
      },
      "signInfluencer(string,string)": {
        "details": "Create a new ERC1155 token for influencer and emits a {InfluencerSigned} event."
      },
      "transferOwnership(address)": {
        "details": "Transfers ownership of the contract to a new account (`newOwner`). Can only be called by the current owner."
      }
    },
    "stateVariables": {
      "_signedInfluencers": {
        "details": "Stores all influencers contract address."
      },
      "beacon": {
        "details": "stores UpgradeableBeacon that points to Influencer implementation"
      }
    },
    "version": 1
  },
  "userdoc": {
    "kind": "user",
    "methods": {},
    "version": 1
  },
  "storageLayout": {
    "storage": [
      {
        "astId": 3689,
        "contract": "contracts/InfluencerFactory/InfluencerFactory.sol:InfluencerFactory",
        "label": "_owner",
        "offset": 0,
        "slot": "0",
        "type": "t_address"
      },
      {
        "astId": 5686,
        "contract": "contracts/InfluencerFactory/InfluencerFactory.sol:InfluencerFactory",
        "label": "_signedInfluencers",
        "offset": 0,
        "slot": "1",
        "type": "t_mapping(t_address,t_bool)"
      },
      {
        "astId": 5697,
        "contract": "contracts/InfluencerFactory/InfluencerFactory.sol:InfluencerFactory",
        "label": "beacon",
        "offset": 0,
        "slot": "2",
        "type": "t_contract(IBeacon)4345"
      }
    ],
    "types": {
      "t_address": {
        "encoding": "inplace",
        "label": "address",
        "numberOfBytes": "20"
      },
      "t_bool": {
        "encoding": "inplace",
        "label": "bool",
        "numberOfBytes": "1"
      },
      "t_contract(IBeacon)4345": {
        "encoding": "inplace",
        "label": "contract IBeacon",
        "numberOfBytes": "20"
      },
      "t_mapping(t_address,t_bool)": {
        "encoding": "mapping",
        "key": "t_address",
        "label": "mapping(address => bool)",
        "numberOfBytes": "32",
        "value": "t_bool"
      }
    }
  }
}