{
  "address": "0x7e29960f784fd427fA6fA8BdF0071C7012594F91",
  "abi": [
    {
      "anonymous": false,
      "inputs": [
        {
          "indexed": true,
          "internalType": "address",
          "name": "owner",
          "type": "address"
        },
        {
          "indexed": true,
          "internalType": "address",
          "name": "approved",
          "type": "address"
        },
        {
          "indexed": true,
          "internalType": "uint256",
          "name": "tokenId",
          "type": "uint256"
        }
      ],
      "name": "Approval",
      "type": "event"
    },
    {
      "anonymous": false,
      "inputs": [
        {
          "indexed": true,
          "internalType": "address",
          "name": "owner",
          "type": "address"
        },
        {
          "indexed": true,
          "internalType": "address",
          "name": "operator",
          "type": "address"
        },
        {
          "indexed": false,
          "internalType": "bool",
          "name": "approved",
          "type": "bool"
        }
      ],
      "name": "ApprovalForAll",
      "type": "event"
    },
    {
      "anonymous": false,
      "inputs": [
        {
          "indexed": true,
          "internalType": "address",
          "name": "previousOwner",
          "type": "address"
        },
        {
          "indexed": true,
          "internalType": "address",
          "name": "newOwner",
          "type": "address"
        }
      ],
      "name": "OwnershipTransferred",
      "type": "event"
    },
    {
      "anonymous": false,
      "inputs": [
        {
          "indexed": true,
          "internalType": "address",
          "name": "from",
          "type": "address"
        },
        {
          "indexed": true,
          "internalType": "address",
          "name": "to",
          "type": "address"
        },
        {
          "indexed": true,
          "internalType": "uint256",
          "name": "tokenId",
          "type": "uint256"
        }
      ],
      "name": "Transfer",
      "type": "event"
    },
    {
      "inputs": [
        {
          "internalType": "string",
          "name": "name_",
          "type": "string"
        },
        {
          "internalType": "string",
          "name": "symbol_",
          "type": "string"
        },
        {
          "internalType": "string",
          "name": "uri",
          "type": "string"
        }
      ],
      "name": "__Layer_init",
      "outputs": [],
      "stateMutability": "nonpayable",
      "type": "function"
    },
    {
      "inputs": [
        {
          "internalType": "address",
          "name": "to",
          "type": "address"
        },
        {
          "internalType": "uint256",
          "name": "tokenId",
          "type": "uint256"
        }
      ],
      "name": "approve",
      "outputs": [],
      "stateMutability": "nonpayable",
      "type": "function"
    },
    {
      "inputs": [
        {
          "internalType": "address",
          "name": "owner",
          "type": "address"
        }
      ],
      "name": "balanceOf",
      "outputs": [
        {
          "internalType": "uint256",
          "name": "",
          "type": "uint256"
        }
      ],
      "stateMutability": "view",
      "type": "function"
    },
    {
      "inputs": [],
      "name": "baseURI",
      "outputs": [
        {
          "internalType": "string",
          "name": "",
          "type": "string"
        }
      ],
      "stateMutability": "view",
      "type": "function"
    },
    {
      "inputs": [
        {
          "internalType": "uint256",
          "name": "id",
          "type": "uint256"
        }
      ],
      "name": "burn",
      "outputs": [],
      "stateMutability": "nonpayable",
      "type": "function"
    },
    {
      "inputs": [
        {
          "internalType": "uint256",
          "name": "tokenId",
          "type": "uint256"
        }
      ],
      "name": "getApproved",
      "outputs": [
        {
          "internalType": "address",
          "name": "",
          "type": "address"
        }
      ],
      "stateMutability": "view",
      "type": "function"
    },
    {
      "inputs": [
        {
          "internalType": "uint256",
          "name": "id",
          "type": "uint256"
        }
      ],
      "name": "getLayer",
      "outputs": [
        {
          "internalType": "uint32",
          "name": "maxState",
          "type": "uint32"
        },
        {
          "internalType": "uint32",
          "name": "currencyState",
          "type": "uint32"
        }
      ],
      "stateMutability": "view",
      "type": "function"
    },
    {
      "inputs": [
        {
          "internalType": "address",
          "name": "owner",
          "type": "address"
        },
        {
          "internalType": "address",
          "name": "operator",
          "type": "address"
        }
      ],
      "name": "isApprovedForAll",
      "outputs": [
        {
          "internalType": "bool",
          "name": "",
          "type": "bool"
        }
      ],
      "stateMutability": "view",
      "type": "function"
    },
    {
      "inputs": [],
      "name": "layerCount",
      "outputs": [
        {
          "internalType": "uint256",
          "name": "",
          "type": "uint256"
        }
      ],
      "stateMutability": "view",
      "type": "function"
    },
    {
      "inputs": [
        {
          "internalType": "address",
          "name": "to",
          "type": "address"
        },
        {
          "internalType": "bytes",
          "name": "_data",
          "type": "bytes"
        },
        {
          "internalType": "uint32",
          "name": "maxState",
          "type": "uint32"
        },
        {
          "internalType": "uint32",
          "name": "currentState",
          "type": "uint32"
        }
      ],
      "name": "mintLayer",
      "outputs": [],
      "stateMutability": "nonpayable",
      "type": "function"
    },
    {
      "inputs": [
        {
          "internalType": "address",
          "name": "to",
          "type": "address"
        },
        {
          "internalType": "bytes",
          "name": "_data",
          "type": "bytes"
        },
        {
          "internalType": "address",
          "name": "module",
          "type": "address"
        }
      ],
      "name": "mintModuleLayer",
      "outputs": [],
      "stateMutability": "nonpayable",
      "type": "function"
    },
    {
      "inputs": [],
      "name": "name",
      "outputs": [
        {
          "internalType": "string",
          "name": "",
          "type": "string"
        }
      ],
      "stateMutability": "view",
      "type": "function"
    },
    {
      "inputs": [],
      "name": "owner",
      "outputs": [
        {
          "internalType": "address",
          "name": "",
          "type": "address"
        }
      ],
      "stateMutability": "view",
      "type": "function"
    },
    {
      "inputs": [
        {
          "internalType": "uint256",
          "name": "tokenId",
          "type": "uint256"
        }
      ],
      "name": "ownerOf",
      "outputs": [
        {
          "internalType": "address",
          "name": "",
          "type": "address"
        }
      ],
      "stateMutability": "view",
      "type": "function"
    },
    {
      "inputs": [],
      "name": "renounceOwnership",
      "outputs": [],
      "stateMutability": "nonpayable",
      "type": "function"
    },
    {
      "inputs": [
        {
          "internalType": "address",
          "name": "from",
          "type": "address"
        },
        {
          "internalType": "address",
          "name": "to",
          "type": "address"
        },
        {
          "internalType": "uint256",
          "name": "tokenId",
          "type": "uint256"
        }
      ],
      "name": "safeTransferFrom",
      "outputs": [],
      "stateMutability": "nonpayable",
      "type": "function"
    },
    {
      "inputs": [
        {
          "internalType": "address",
          "name": "from",
          "type": "address"
        },
        {
          "internalType": "address",
          "name": "to",
          "type": "address"
        },
        {
          "internalType": "uint256",
          "name": "tokenId",
          "type": "uint256"
        },
        {
          "internalType": "bytes",
          "name": "_data",
          "type": "bytes"
        }
      ],
      "name": "safeTransferFrom",
      "outputs": [],
      "stateMutability": "nonpayable",
      "type": "function"
    },
    {
      "inputs": [
        {
          "internalType": "address",
          "name": "operator",
          "type": "address"
        },
        {
          "internalType": "bool",
          "name": "approved",
          "type": "bool"
        }
      ],
      "name": "setApprovalForAll",
      "outputs": [],
      "stateMutability": "nonpayable",
      "type": "function"
    },
    {
      "inputs": [
        {
          "internalType": "string",
          "name": "uri",
          "type": "string"
        }
      ],
      "name": "setBaseURI",
      "outputs": [],
      "stateMutability": "nonpayable",
      "type": "function"
    },
    {
      "inputs": [
        {
          "internalType": "uint256",
          "name": "id",
          "type": "uint256"
        },
        {
          "internalType": "uint32",
          "name": "maxState",
          "type": "uint32"
        }
      ],
      "name": "setLayerMaxState",
      "outputs": [],
      "stateMutability": "nonpayable",
      "type": "function"
    },
    {
      "inputs": [
        {
          "internalType": "uint256",
          "name": "id",
          "type": "uint256"
        },
        {
          "internalType": "uint32",
          "name": "state",
          "type": "uint32"
        }
      ],
      "name": "setLayerState",
      "outputs": [],
      "stateMutability": "nonpayable",
      "type": "function"
    },
    {
      "inputs": [
        {
          "internalType": "bytes4",
          "name": "interfaceId",
          "type": "bytes4"
        }
      ],
      "name": "supportsInterface",
      "outputs": [
        {
          "internalType": "bool",
          "name": "",
          "type": "bool"
        }
      ],
      "stateMutability": "view",
      "type": "function"
    },
    {
      "inputs": [],
      "name": "symbol",
      "outputs": [
        {
          "internalType": "string",
          "name": "",
          "type": "string"
        }
      ],
      "stateMutability": "view",
      "type": "function"
    },
    {
      "inputs": [
        {
          "internalType": "uint256",
          "name": "tokenId",
          "type": "uint256"
        }
      ],
      "name": "tokenURI",
      "outputs": [
        {
          "internalType": "string",
          "name": "",
          "type": "string"
        }
      ],
      "stateMutability": "view",
      "type": "function"
    },
    {
      "inputs": [
        {
          "internalType": "address",
          "name": "from",
          "type": "address"
        },
        {
          "internalType": "address",
          "name": "to",
          "type": "address"
        },
        {
          "internalType": "uint256",
          "name": "tokenId",
          "type": "uint256"
        }
      ],
      "name": "transferFrom",
      "outputs": [],
      "stateMutability": "nonpayable",
      "type": "function"
    },
    {
      "inputs": [
        {
          "internalType": "address",
          "name": "newOwner",
          "type": "address"
        }
      ],
      "name": "transferOwnership",
      "outputs": [],
      "stateMutability": "nonpayable",
      "type": "function"
    }
  ],
  "transactionHash": "0xe4e1a169a12c78fee76be11349c3c1eff95f6ec6277420a95a413be41dbd6926",
  "args": [],
  "solcInputHash": "b4c5c003c7d876c49f776818792f88d9",
  "bytecode": "0x608060405234801561001057600080fd5b506124ad806100206000396000f3fe608060405234801561001057600080fd5b506004361061018e5760003560e01c80636c0360eb116100de578063a22cb46511610097578063c87b56dd11610071578063c87b56dd14610347578063e985e9c51461035a578063f2fde38b14610396578063f781e3ae146103a957600080fd5b8063a22cb4651461030e578063add26d2014610321578063b88d4fde1461033457600080fd5b80636c0360eb146102bf57806370a08231146102c7578063715018a6146102da5780638da5cb5b146102e25780639360a60e146102f357806395d89b411461030657600080fd5b806323b872dd1161014b57806355f804b31161012557806355f804b31461026f57806356e7f6c7146102825780636352211e14610299578063660c14fd146102ac57600080fd5b806323b872dd1461023657806342842e0e1461024957806342966c681461025c57600080fd5b806301ffc9a71461019357806306fdde03146101bb578063081812fc146101d0578063095ea7b3146101fb578063159ea45a146102105780631aeb482414610223575b600080fd5b6101a66101a1366004611fe4565b6103d9565b60405190151581526020015b60405180910390f35b6101c3610404565b6040516101b291906121c3565b6101e36101de3660046120d3565b610496565b6040516001600160a01b0390911681526020016101b2565b61020e610209366004611f9f565b610530565b005b61020e61021e366004611ed2565b610646565b61020e6102313660046120eb565b61083c565b61020e610244366004611dfb565b61095c565b61020e610257366004611dfb565b61098d565b61020e61026a3660046120d3565b6109a8565b61020e61027d36600461201c565b6109e6565b61028b60ca5481565b6040519081526020016101b2565b6101e36102a73660046120d3565b610a23565b61020e6102ba3660046120eb565b610a9a565b6101c3610bab565b61028b6102d5366004611daf565b610c39565b61020e610cc0565b6033546001600160a01b03166101e3565b61020e61030136600461204f565b610d34565b6101c3610dce565b61020e61031c366004611e9c565b610ddd565b61020e61032f366004611f2e565b610ea2565b61020e610342366004611e36565b610f70565b6101c36103553660046120d3565b610fa2565b6101a6610368366004611dc9565b6001600160a01b039182166000908152609c6020908152604080832093909416825291909152205460ff1690565b61020e6103a4366004611daf565b61107d565b6103bc6103b73660046120d3565b611168565b6040805163ffffffff9384168152929091166020830152016101b2565b60006001600160e01b031982166303270a2d60e51b14806103fe57506103fe826112f6565b92915050565b60606097805461041390612395565b80601f016020809104026020016040519081016040528092919081815260200182805461043f90612395565b801561048c5780601f106104615761010080835404028352916020019161048c565b820191906000526020600020905b81548152906001019060200180831161046f57829003601f168201915b5050505050905090565b6000818152609960205260408120546001600160a01b03166105145760405162461bcd60e51b815260206004820152602c60248201527f4552433732313a20617070726f76656420717565727920666f72206e6f6e657860448201526b34b9ba32b73a103a37b5b2b760a11b60648201526084015b60405180910390fd5b506000908152609b60205260409020546001600160a01b031690565b600061053b82610a23565b9050806001600160a01b0316836001600160a01b031614156105a95760405162461bcd60e51b815260206004820152602160248201527f4552433732313a20617070726f76616c20746f2063757272656e74206f776e656044820152603960f91b606482015260840161050b565b336001600160a01b03821614806105c557506105c58133610368565b6106375760405162461bcd60e51b815260206004820152603860248201527f4552433732313a20617070726f76652063616c6c6572206973206e6f74206f7760448201527f6e6572206e6f7220617070726f76656420666f7220616c6c0000000000000000606482015260840161050b565b6106418383611346565b505050565b60ca546001600160a01b0382163b6106a05760405162461bcd60e51b815260206004820152601e60248201527f6d6f64756c65206973206e6f7420612076616c696420636f6e74726163740000604482015260640161050b565b6040516301ffc9a760e01b815263d893328b60e01b60048201526001600160a01b038316906301ffc9a79060240160206040518083038186803b1580156106e657600080fd5b505afa1580156106fa573d6000803e3d6000fd5b505050506040513d601f19601f8201168201806040525081019061071e9190611fc8565b61077c5760405162461bcd60e51b815260206004820152602960248201527f6d6f64756c6520646f6573206e6f74207361746973667920494d6f64756c6520604482015268696e7465726661636560b81b606482015260840161050b565b6040805160808101825260018152600060208083018281528385018381526001600160a01b038881166060870190815288865260c9909452959093209351845491519351925164ffffffffff1990921690151564ffffffff0019161761010063ffffffff948516021765010000000000600160e81b031916600160281b9390921692909202600160481b600160e81b03191617600160481b919093160291909117905561082a8482856113b4565b80610834816123d0565b505050505050565b813361084782610a23565b6001600160a01b03161461086d5760405162461bcd60e51b815260040161050b906122fc565b600083815260c960205260409020805463ffffffff8481166101009092041614156108c35760405162461bcd60e51b81526020600482015260066024820152656e6f206f707360d01b604482015260640161050b565b805463ffffffff808516600160281b90920416106109395760405162461bcd60e51b815260206004820152602d60248201527f63757272656e74207374617465206d757374206265206c657373207468616e2060448201526c6e6577206d617820737461746560981b606482015260840161050b565b805463ffffffff9093166101000264ffffffff0019909316929092179091555050565b61096633826113e7565b6109825760405162461bcd60e51b815260040161050b906122ab565b6106418383836114de565b61064183838360405180602001604052806000815250610f70565b80336109b382610a23565b6001600160a01b0316146109d95760405162461bcd60e51b815260040161050b906122fc565b6109e28261167e565b5050565b6033546001600160a01b03163314610a105760405162461bcd60e51b815260040161050b90612276565b80516109e29060cb906020840190611c73565b6000818152609960205260408120546001600160a01b0316806103fe5760405162461bcd60e51b815260206004820152602960248201527f4552433732313a206f776e657220717565727920666f72206e6f6e657869737460448201526832b73a103a37b5b2b760b91b606482015260840161050b565b8133610aa582610a23565b6001600160a01b031614610acb5760405162461bcd60e51b815260040161050b906122fc565b600083815260c960205260409020805463ffffffff848116600160281b909204161415610b235760405162461bcd60e51b81526020600482015260066024820152656e6f206f707360d01b604482015260640161050b565b805463ffffffff610100909104811690841610610b825760405162461bcd60e51b815260206004820152601960248201527f6e65772073746174652061626f7665206d617820737461746500000000000000604482015260640161050b565b805463ffffffff909316600160281b0268ffffffff000000000019909316929092179091555050565b60cb8054610bb890612395565b80601f0160208091040260200160405190810160405280929190818152602001828054610be490612395565b8015610c315780601f10610c0657610100808354040283529160200191610c31565b820191906000526020600020905b815481529060010190602001808311610c1457829003601f168201915b505050505081565b60006001600160a01b038216610ca45760405162461bcd60e51b815260206004820152602a60248201527f4552433732313a2062616c616e636520717565727920666f7220746865207a65604482015269726f206164647265737360b01b606482015260840161050b565b506001600160a01b03166000908152609a602052604090205490565b6033546001600160a01b03163314610cea5760405162461bcd60e51b815260040161050b90612276565b6033546040516000916001600160a01b0316907f8be0079c531659141344cd1fd0a4f28419497f9722a3daafe3b4186f6b6457e0908390a3603380546001600160a01b0319169055565b600054610100900460ff1680610d4d575060005460ff16155b610d695760405162461bcd60e51b815260040161050b90612228565b600054610100900460ff16158015610d8b576000805461ffff19166101011790555b610d93611719565b610d9b6117c8565b610da36117c8565b610dad8484611833565b610db6826109e6565b8015610dc8576000805461ff00191690555b50505050565b60606098805461041390612395565b6001600160a01b038216331415610e365760405162461bcd60e51b815260206004820152601960248201527f4552433732313a20617070726f766520746f2063616c6c657200000000000000604482015260640161050b565b336000818152609c602090815260408083206001600160a01b03871680855290835292819020805460ff191686151590811790915590519081529192917f17307eab39ab6107e8899845ad3d59bd9653f200f220920489ca2b5937696c31910160405180910390a35050565b60ca5460408051608081018252600080825263ffffffff86811660208085019182528783168587019081526060860185815288865260c9909252959093209351845491519551935164ffffffffff1990921690151564ffffffff00191617610100958316959095029490941765010000000000600160e81b031916600160281b9290911691909102600160481b600160e81b03191617600160481b6001600160a01b0390931692909202919091179055610f5d8582866113b4565b80610f67816123d0565b50505050505050565b610f7a33836113e7565b610f965760405162461bcd60e51b815260040161050b906122ab565b610dc8848484846118c8565b6000818152609960205260409020546060906001600160a01b03166110215760405162461bcd60e51b815260206004820152602f60248201527f4552433732314d657461646174613a2055524920717565727920666f72206e6f60448201526e3732bc34b9ba32b73a103a37b5b2b760891b606482015260840161050b565b600061102b6118fb565b9050600081511161104b5760405180602001604052806000815250611076565b806110558461190a565b604051602001611066929190612157565b6040516020818303038152906040525b9392505050565b6033546001600160a01b031633146110a75760405162461bcd60e51b815260040161050b90612276565b6001600160a01b03811661110c5760405162461bcd60e51b815260206004820152602660248201527f4f776e61626c653a206e6577206f776e657220697320746865207a65726f206160448201526564647265737360d01b606482015260840161050b565b6033546040516001600160a01b038084169216907f8be0079c531659141344cd1fd0a4f28419497f9722a3daafe3b4186f6b6457e090600090a3603380546001600160a01b0319166001600160a01b0392909216919091179055565b6000808260ca5481106111b45760405162461bcd60e51b81526020600482015260146024820152731b185e595c881a5cc81b9bdd0818dc99585d195960621b604482015260640161050b565b600084815260c960205260409020805460ff16156112d55760008160000160099054906101000a90046001600160a01b03169050806001600160a01b031663c0f6f7f66040518163ffffffff1660e01b815260040160206040518083038186803b15801561122157600080fd5b505afa158015611235573d6000803e3d6000fd5b505050506040513d601f19601f82011682018060405250810190611259919061210f565b816001600160a01b0316631865c57d6040518163ffffffff1660e01b815260040160206040518083038186803b15801561129257600080fd5b505afa1580156112a6573d6000803e3d6000fd5b505050506040513d601f19601f820116820180604052508101906112ca919061210f565b9450945050506112f0565b5463ffffffff610100820481169450600160281b9091041691505b50915091565b60006001600160e01b031982166380ac58cd60e01b148061132757506001600160e01b03198216635b5e139f60e01b145b806103fe57506301ffc9a760e01b6001600160e01b03198316146103fe565b6000818152609b6020526040902080546001600160a01b0319166001600160a01b038416908117909155819061137b82610a23565b6001600160a01b03167f8c5be1e5ebec7d5bd14f71427d1e84f3dd0314c0f7b2291e5b200ac8c7c3b92560405160405180910390a45050565b6113be8383611a24565b6113cb6000848484611b66565b6106415760405162461bcd60e51b815260040161050b906121d6565b6000818152609960205260408120546001600160a01b03166114605760405162461bcd60e51b815260206004820152602c60248201527f4552433732313a206f70657261746f7220717565727920666f72206e6f6e657860448201526b34b9ba32b73a103a37b5b2b760a11b606482015260840161050b565b600061146b83610a23565b9050806001600160a01b0316846001600160a01b031614806114a65750836001600160a01b031661149b84610496565b6001600160a01b0316145b806114d657506001600160a01b038082166000908152609c602090815260408083209388168352929052205460ff165b949350505050565b826001600160a01b03166114f182610a23565b6001600160a01b0316146115595760405162461bcd60e51b815260206004820152602960248201527f4552433732313a207472616e73666572206f6620746f6b656e2074686174206960448201526839903737ba1037bbb760b91b606482015260840161050b565b6001600160a01b0382166115bb5760405162461bcd60e51b8152602060048201526024808201527f4552433732313a207472616e7366657220746f20746865207a65726f206164646044820152637265737360e01b606482015260840161050b565b6115c6600082611346565b6001600160a01b0383166000908152609a602052604081208054600192906115ef908490612352565b90915550506001600160a01b0382166000908152609a6020526040812080546001929061161d908490612326565b909155505060008181526099602052604080822080546001600160a01b0319166001600160a01b0386811691821790925591518493918716917fddf252ad1be2c89b69c2b068fc378daa952ba7f163c4a11628f55a4df523b3ef91a4505050565b600061168982610a23565b9050611696600083611346565b6001600160a01b0381166000908152609a602052604081208054600192906116bf908490612352565b909155505060008281526099602052604080822080546001600160a01b0319169055518391906001600160a01b038416907fddf252ad1be2c89b69c2b068fc378daa952ba7f163c4a11628f55a4df523b3ef908390a45050565b600054610100900460ff1680611732575060005460ff16155b61174e5760405162461bcd60e51b815260040161050b90612228565b600054610100900460ff16158015611770576000805461ffff19166101011790555b603380546001600160a01b0319163390811790915560405181906000907f8be0079c531659141344cd1fd0a4f28419497f9722a3daafe3b4186f6b6457e0908290a35080156117c5576000805461ff00191690555b50565b600054610100900460ff16806117e1575060005460ff16155b6117fd5760405162461bcd60e51b815260040161050b90612228565b600054610100900460ff1615801561181f576000805461ffff19166101011790555b80156117c5576000805461ff001916905550565b600054610100900460ff168061184c575060005460ff16155b6118685760405162461bcd60e51b815260040161050b90612228565b600054610100900460ff1615801561188a576000805461ffff19166101011790555b825161189d906097906020860190611c73565b5081516118b1906098906020850190611c73565b508015610641576000805461ff0019169055505050565b6118d38484846114de565b6118df84848484611b66565b610dc85760405162461bcd60e51b815260040161050b906121d6565b606060cb805461041390612395565b60608161192e5750506040805180820190915260018152600360fc1b602082015290565b8160005b81156119585780611942816123d0565b91506119519050600a8361233e565b9150611932565b60008167ffffffffffffffff81111561198157634e487b7160e01b600052604160045260246000fd5b6040519080825280601f01601f1916602001820160405280156119ab576020820181803683370190505b5090505b84156114d6576119c0600183612352565b91506119cd600a866123eb565b6119d8906030612326565b60f81b8183815181106119fb57634e487b7160e01b600052603260045260246000fd5b60200101906001600160f81b031916908160001a905350611a1d600a8661233e565b94506119af565b6001600160a01b038216611a7a5760405162461bcd60e51b815260206004820181905260248201527f4552433732313a206d696e7420746f20746865207a65726f2061646472657373604482015260640161050b565b6000818152609960205260409020546001600160a01b031615611adf5760405162461bcd60e51b815260206004820152601c60248201527f4552433732313a20746f6b656e20616c7265616479206d696e74656400000000604482015260640161050b565b6001600160a01b0382166000908152609a60205260408120805460019290611b08908490612326565b909155505060008181526099602052604080822080546001600160a01b0319166001600160a01b03861690811790915590518392907fddf252ad1be2c89b69c2b068fc378daa952ba7f163c4a11628f55a4df523b3ef908290a45050565b60006001600160a01b0384163b15611c6857604051630a85bd0160e11b81526001600160a01b0385169063150b7a0290611baa903390899088908890600401612186565b602060405180830381600087803b158015611bc457600080fd5b505af1925050508015611bf4575060408051601f3d908101601f19168201909252611bf191810190612000565b60015b611c4e573d808015611c22576040519150601f19603f3d011682016040523d82523d6000602084013e611c27565b606091505b508051611c465760405162461bcd60e51b815260040161050b906121d6565b805181602001fd5b6001600160e01b031916630a85bd0160e11b1490506114d6565b506001949350505050565b828054611c7f90612395565b90600052602060002090601f016020900481019282611ca15760008555611ce7565b82601f10611cba57805160ff1916838001178555611ce7565b82800160010185558215611ce7579182015b82811115611ce7578251825591602001919060010190611ccc565b50611cf3929150611cf7565b5090565b5b80821115611cf35760008155600101611cf8565b80356001600160a01b0381168114611d2357600080fd5b919050565b600082601f830112611d38578081fd5b813567ffffffffffffffff80821115611d5357611d5361242b565b604051601f8301601f19908116603f01168101908282118183101715611d7b57611d7b61242b565b81604052838152866020858801011115611d93578485fd5b8360208701602083013792830160200193909352509392505050565b600060208284031215611dc0578081fd5b61107682611d0c565b60008060408385031215611ddb578081fd5b611de483611d0c565b9150611df260208401611d0c565b90509250929050565b600080600060608486031215611e0f578081fd5b611e1884611d0c565b9250611e2660208501611d0c565b9150604084013590509250925092565b60008060008060808587031215611e4b578081fd5b611e5485611d0c565b9350611e6260208601611d0c565b925060408501359150606085013567ffffffffffffffff811115611e84578182fd5b611e9087828801611d28565b91505092959194509250565b60008060408385031215611eae578182fd5b611eb783611d0c565b91506020830135611ec781612441565b809150509250929050565b600080600060608486031215611ee6578283fd5b611eef84611d0c565b9250602084013567ffffffffffffffff811115611f0a578283fd5b611f1686828701611d28565b925050611f2560408501611d0c565b90509250925092565b60008060008060808587031215611f43578384fd5b611f4c85611d0c565b9350602085013567ffffffffffffffff811115611f67578384fd5b611f7387828801611d28565b9350506040850135611f8481612465565b91506060850135611f9481612465565b939692955090935050565b60008060408385031215611fb1578182fd5b611fba83611d0c565b946020939093013593505050565b600060208284031215611fd9578081fd5b815161107681612441565b600060208284031215611ff5578081fd5b81356110768161244f565b600060208284031215612011578081fd5b81516110768161244f565b60006020828403121561202d578081fd5b813567ffffffffffffffff811115612043578182fd5b6114d684828501611d28565b600080600060608486031215612063578081fd5b833567ffffffffffffffff8082111561207a578283fd5b61208687838801611d28565b9450602086013591508082111561209b578283fd5b6120a787838801611d28565b935060408601359150808211156120bc578283fd5b506120c986828701611d28565b9150509250925092565b6000602082840312156120e4578081fd5b5035919050565b600080604083850312156120fd578182fd5b823591506020830135611ec781612465565b600060208284031215612120578081fd5b815161107681612465565b60008151808452612143816020860160208601612369565b601f01601f19169290920160200192915050565b60008351612169818460208801612369565b83519083019061217d818360208801612369565b01949350505050565b6001600160a01b03858116825284166020820152604081018390526080606082018190526000906121b99083018461212b565b9695505050505050565b602081526000611076602083018461212b565b60208082526032908201527f4552433732313a207472616e7366657220746f206e6f6e20455243373231526560408201527131b2b4bb32b91034b6b83632b6b2b73a32b960711b606082015260800190565b6020808252602e908201527f496e697469616c697a61626c653a20636f6e747261637420697320616c72656160408201526d191e481a5b9a5d1a585b1a5e995960921b606082015260800190565b6020808252818101527f4f776e61626c653a2063616c6c6572206973206e6f7420746865206f776e6572604082015260600190565b60208082526031908201527f4552433732313a207472616e736665722063616c6c6572206973206e6f74206f6040820152701ddb995c881b9bdc88185c1c1c9bdd9959607a1b606082015260800190565b60208082526010908201526f37b7363c903630bcb2b91037bbb732b960811b604082015260600190565b60008219821115612339576123396123ff565b500190565b60008261234d5761234d612415565b500490565b600082821015612364576123646123ff565b500390565b60005b8381101561238457818101518382015260200161236c565b83811115610dc85750506000910152565b600181811c908216806123a957607f821691505b602082108114156123ca57634e487b7160e01b600052602260045260246000fd5b50919050565b60006000198214156123e4576123e46123ff565b5060010190565b6000826123fa576123fa612415565b500690565b634e487b7160e01b600052601160045260246000fd5b634e487b7160e01b600052601260045260246000fd5b634e487b7160e01b600052604160045260246000fd5b80151581146117c557600080fd5b6001600160e01b0319811681146117c557600080fd5b63ffffffff811681146117c557600080fdfea2646970667358221220a4f4458dcc9564c70fa930a22cdbd9c60596d095be20b91cfcc87359bd599cfe64736f6c63430008040033",
  "devdoc": {
    "kind": "dev",
    "methods": {
      "approve(address,uint256)": {
        "details": "See {IERC721-approve}."
      },
      "balanceOf(address)": {
        "details": "See {IERC721-balanceOf}."
      },
      "burn(uint256)": {
        "details": "Allows layer owner to burn token at id"
      },
      "getApproved(uint256)": {
        "details": "See {IERC721-getApproved}."
      },
      "getLayer(uint256)": {
        "details": "layer getter method"
      },
      "isApprovedForAll(address,address)": {
        "details": "See {IERC721-isApprovedForAll}."
      },
      "mintLayer(address,bytes,uint32,uint32)": {
        "details": "Mints state layer"
      },
      "mintModuleLayer(address,bytes,address)": {
        "details": "Mints module layer"
      },
      "name()": {
        "details": "See {IERC721Metadata-name}."
      },
      "owner()": {
        "details": "Returns the address of the current owner."
      },
      "ownerOf(uint256)": {
        "details": "See {IERC721-ownerOf}."
      },
      "renounceOwnership()": {
        "details": "Leaves the contract without owner. It will not be possible to call `onlyOwner` functions anymore. Can only be called by the current owner. NOTE: Renouncing ownership will leave the contract without an owner, thereby removing any functionality that is only available to the owner."
      },
      "safeTransferFrom(address,address,uint256)": {
        "details": "See {IERC721-safeTransferFrom}."
      },
      "safeTransferFrom(address,address,uint256,bytes)": {
        "details": "See {IERC721-safeTransferFrom}."
      },
      "setApprovalForAll(address,bool)": {
        "details": "See {IERC721-setApprovalForAll}."
      },
      "setBaseURI(string)": {
        "details": "Allow owner to set `baseURI`"
      },
      "setLayerMaxState(uint256,uint32)": {
        "details": "allows layer owner to update layer `id` maxState to `maxState`"
      },
      "setLayerState(uint256,uint32)": {
        "details": "allows layer owner to update layer `id` state to `state`"
      },
      "symbol()": {
        "details": "See {IERC721Metadata-symbol}."
      },
      "tokenURI(uint256)": {
        "details": "See {IERC721Metadata-tokenURI}."
      },
      "transferFrom(address,address,uint256)": {
        "details": "See {IERC721-transferFrom}."
      },
      "transferOwnership(address)": {
        "details": "Transfers ownership of the contract to a new account (`newOwner`). Can only be called by the current owner."
      }
    },
    "version": 1
  },
  "userdoc": {
    "kind": "user",
    "methods": {},
    "version": 1
  },
  "storageLayout": {
    "storage": [
      {
        "astId": 532,
        "contract": "contracts/Layer/LayerV0.sol:LayerV0",
        "label": "_initialized",
        "offset": 0,
        "slot": "0",
        "type": "t_bool"
      },
      {
        "astId": 535,
        "contract": "contracts/Layer/LayerV0.sol:LayerV0",
        "label": "_initializing",
        "offset": 1,
        "slot": "0",
        "type": "t_bool"
      },
      {
        "astId": 3107,
        "contract": "contracts/Layer/LayerV0.sol:LayerV0",
        "label": "__gap",
        "offset": 0,
        "slot": "1",
        "type": "t_array(t_uint256)50_storage"
      },
      {
        "astId": 406,
        "contract": "contracts/Layer/LayerV0.sol:LayerV0",
        "label": "_owner",
        "offset": 0,
        "slot": "51",
        "type": "t_address"
      },
      {
        "astId": 525,
        "contract": "contracts/Layer/LayerV0.sol:LayerV0",
        "label": "__gap",
        "offset": 0,
        "slot": "52",
        "type": "t_array(t_uint256)49_storage"
      },
      {
        "astId": 3356,
        "contract": "contracts/Layer/LayerV0.sol:LayerV0",
        "label": "__gap",
        "offset": 0,
        "slot": "101",
        "type": "t_array(t_uint256)50_storage"
      },
      {
        "astId": 1839,
        "contract": "contracts/Layer/LayerV0.sol:LayerV0",
        "label": "_name",
        "offset": 0,
        "slot": "151",
        "type": "t_string_storage"
      },
      {
        "astId": 1841,
        "contract": "contracts/Layer/LayerV0.sol:LayerV0",
        "label": "_symbol",
        "offset": 0,
        "slot": "152",
        "type": "t_string_storage"
      },
      {
        "astId": 1845,
        "contract": "contracts/Layer/LayerV0.sol:LayerV0",
        "label": "_owners",
        "offset": 0,
        "slot": "153",
        "type": "t_mapping(t_uint256,t_address)"
      },
      {
        "astId": 1849,
        "contract": "contracts/Layer/LayerV0.sol:LayerV0",
        "label": "_balances",
        "offset": 0,
        "slot": "154",
        "type": "t_mapping(t_address,t_uint256)"
      },
      {
        "astId": 1853,
        "contract": "contracts/Layer/LayerV0.sol:LayerV0",
        "label": "_tokenApprovals",
        "offset": 0,
        "slot": "155",
        "type": "t_mapping(t_uint256,t_address)"
      },
      {
        "astId": 1859,
        "contract": "contracts/Layer/LayerV0.sol:LayerV0",
        "label": "_operatorApprovals",
        "offset": 0,
        "slot": "156",
        "type": "t_mapping(t_address,t_mapping(t_address,t_bool))"
      },
      {
        "astId": 2657,
        "contract": "contracts/Layer/LayerV0.sol:LayerV0",
        "label": "__gap",
        "offset": 0,
        "slot": "157",
        "type": "t_array(t_uint256)44_storage"
      },
      {
        "astId": 6506,
        "contract": "contracts/Layer/LayerV0.sol:LayerV0",
        "label": "layers",
        "offset": 0,
        "slot": "201",
        "type": "t_mapping(t_uint256,t_struct(Layer)6500_storage)"
      },
      {
        "astId": 6509,
        "contract": "contracts/Layer/LayerV0.sol:LayerV0",
        "label": "layerCount",
        "offset": 0,
        "slot": "202",
        "type": "t_uint256"
      },
      {
        "astId": 6512,
        "contract": "contracts/Layer/LayerV0.sol:LayerV0",
        "label": "baseURI",
        "offset": 0,
        "slot": "203",
        "type": "t_string_storage"
      }
    ],
    "types": {
      "t_address": {
        "encoding": "inplace",
        "label": "address",
        "numberOfBytes": "20"
      },
      "t_array(t_uint256)44_storage": {
        "base": "t_uint256",
        "encoding": "inplace",
        "label": "uint256[44]",
        "numberOfBytes": "1408"
      },
      "t_array(t_uint256)49_storage": {
        "base": "t_uint256",
        "encoding": "inplace",
        "label": "uint256[49]",
        "numberOfBytes": "1568"
      },
      "t_array(t_uint256)50_storage": {
        "base": "t_uint256",
        "encoding": "inplace",
        "label": "uint256[50]",
        "numberOfBytes": "1600"
      },
      "t_bool": {
        "encoding": "inplace",
        "label": "bool",
        "numberOfBytes": "1"
      },
      "t_mapping(t_address,t_bool)": {
        "encoding": "mapping",
        "key": "t_address",
        "label": "mapping(address => bool)",
        "numberOfBytes": "32",
        "value": "t_bool"
      },
      "t_mapping(t_address,t_mapping(t_address,t_bool))": {
        "encoding": "mapping",
        "key": "t_address",
        "label": "mapping(address => mapping(address => bool))",
        "numberOfBytes": "32",
        "value": "t_mapping(t_address,t_bool)"
      },
      "t_mapping(t_address,t_uint256)": {
        "encoding": "mapping",
        "key": "t_address",
        "label": "mapping(address => uint256)",
        "numberOfBytes": "32",
        "value": "t_uint256"
      },
      "t_mapping(t_uint256,t_address)": {
        "encoding": "mapping",
        "key": "t_uint256",
        "label": "mapping(uint256 => address)",
        "numberOfBytes": "32",
        "value": "t_address"
      },
      "t_mapping(t_uint256,t_struct(Layer)6500_storage)": {
        "encoding": "mapping",
        "key": "t_uint256",
        "label": "mapping(uint256 => struct LayerStorageV0.Layer)",
        "numberOfBytes": "32",
        "value": "t_struct(Layer)6500_storage"
      },
      "t_string_storage": {
        "encoding": "bytes",
        "label": "string",
        "numberOfBytes": "32"
      },
      "t_struct(Layer)6500_storage": {
        "encoding": "inplace",
        "label": "struct LayerStorageV0.Layer",
        "members": [
          {
            "astId": 6493,
            "contract": "contracts/Layer/LayerV0.sol:LayerV0",
            "label": "modularLayer",
            "offset": 0,
            "slot": "0",
            "type": "t_bool"
          },
          {
            "astId": 6495,
            "contract": "contracts/Layer/LayerV0.sol:LayerV0",
            "label": "maxState",
            "offset": 1,
            "slot": "0",
            "type": "t_uint32"
          },
          {
            "astId": 6497,
            "contract": "contracts/Layer/LayerV0.sol:LayerV0",
            "label": "currentState",
            "offset": 5,
            "slot": "0",
            "type": "t_uint32"
          },
          {
            "astId": 6499,
            "contract": "contracts/Layer/LayerV0.sol:LayerV0",
            "label": "module",
            "offset": 9,
            "slot": "0",
            "type": "t_address"
          }
        ],
        "numberOfBytes": "32"
      },
      "t_uint256": {
        "encoding": "inplace",
        "label": "uint256",
        "numberOfBytes": "32"
      },
      "t_uint32": {
        "encoding": "inplace",
        "label": "uint32",
        "numberOfBytes": "4"
      }
    }
  }
}