{
  "address": "0x0dec5A1Bd650C9c4d0aaC2c8C3e49DdaC67a818F",
  "abi": [
    {
      "anonymous": false,
      "inputs": [
        {
          "indexed": true,
          "internalType": "address",
          "name": "owner",
          "type": "address"
        },
        {
          "indexed": true,
          "internalType": "address",
          "name": "approved",
          "type": "address"
        },
        {
          "indexed": true,
          "internalType": "uint256",
          "name": "tokenId",
          "type": "uint256"
        }
      ],
      "name": "Approval",
      "type": "event"
    },
    {
      "anonymous": false,
      "inputs": [
        {
          "indexed": true,
          "internalType": "address",
          "name": "owner",
          "type": "address"
        },
        {
          "indexed": true,
          "internalType": "address",
          "name": "operator",
          "type": "address"
        },
        {
          "indexed": false,
          "internalType": "bool",
          "name": "approved",
          "type": "bool"
        }
      ],
      "name": "ApprovalForAll",
      "type": "event"
    },
    {
      "anonymous": false,
      "inputs": [
        {
          "indexed": true,
          "internalType": "address",
          "name": "previousOwner",
          "type": "address"
        },
        {
          "indexed": true,
          "internalType": "address",
          "name": "newOwner",
          "type": "address"
        }
      ],
      "name": "OwnershipTransferred",
      "type": "event"
    },
    {
      "anonymous": false,
      "inputs": [
        {
          "indexed": true,
          "internalType": "address",
          "name": "from",
          "type": "address"
        },
        {
          "indexed": true,
          "internalType": "address",
          "name": "to",
          "type": "address"
        },
        {
          "indexed": true,
          "internalType": "uint256",
          "name": "tokenId",
          "type": "uint256"
        }
      ],
      "name": "Transfer",
      "type": "event"
    },
    {
      "inputs": [
        {
          "internalType": "string",
          "name": "name_",
          "type": "string"
        },
        {
          "internalType": "string",
          "name": "symbol_",
          "type": "string"
        },
        {
          "internalType": "string",
          "name": "uri",
          "type": "string"
        },
        {
          "internalType": "address",
          "name": "owner",
          "type": "address"
        }
      ],
      "name": "__Layer_init",
      "outputs": [],
      "stateMutability": "nonpayable",
      "type": "function"
    },
    {
      "inputs": [
        {
          "internalType": "address",
          "name": "to",
          "type": "address"
        },
        {
          "internalType": "uint256",
          "name": "tokenId",
          "type": "uint256"
        }
      ],
      "name": "approve",
      "outputs": [],
      "stateMutability": "nonpayable",
      "type": "function"
    },
    {
      "inputs": [
        {
          "internalType": "address",
          "name": "owner",
          "type": "address"
        }
      ],
      "name": "balanceOf",
      "outputs": [
        {
          "internalType": "uint256",
          "name": "",
          "type": "uint256"
        }
      ],
      "stateMutability": "view",
      "type": "function"
    },
    {
      "inputs": [],
      "name": "baseURI",
      "outputs": [
        {
          "internalType": "string",
          "name": "",
          "type": "string"
        }
      ],
      "stateMutability": "view",
      "type": "function"
    },
    {
      "inputs": [
        {
          "internalType": "uint256",
          "name": "id",
          "type": "uint256"
        }
      ],
      "name": "burn",
      "outputs": [],
      "stateMutability": "nonpayable",
      "type": "function"
    },
    {
      "inputs": [
        {
          "internalType": "uint256",
          "name": "tokenId",
          "type": "uint256"
        }
      ],
      "name": "getApproved",
      "outputs": [
        {
          "internalType": "address",
          "name": "",
          "type": "address"
        }
      ],
      "stateMutability": "view",
      "type": "function"
    },
    {
      "inputs": [
        {
          "internalType": "uint256",
          "name": "id",
          "type": "uint256"
        }
      ],
      "name": "getLayer",
      "outputs": [
        {
          "internalType": "uint32",
          "name": "maxState",
          "type": "uint32"
        },
        {
          "internalType": "uint32",
          "name": "currenctState",
          "type": "uint32"
        }
      ],
      "stateMutability": "view",
      "type": "function"
    },
    {
      "inputs": [
        {
          "internalType": "address",
          "name": "owner",
          "type": "address"
        },
        {
          "internalType": "address",
          "name": "operator",
          "type": "address"
        }
      ],
      "name": "isApprovedForAll",
      "outputs": [
        {
          "internalType": "bool",
          "name": "",
          "type": "bool"
        }
      ],
      "stateMutability": "view",
      "type": "function"
    },
    {
      "inputs": [],
      "name": "layerCount",
      "outputs": [
        {
          "internalType": "uint256",
          "name": "",
          "type": "uint256"
        }
      ],
      "stateMutability": "view",
      "type": "function"
    },
    {
      "inputs": [
        {
          "internalType": "address",
          "name": "to",
          "type": "address"
        },
        {
          "internalType": "bytes",
          "name": "_data",
          "type": "bytes"
        },
        {
          "internalType": "uint32",
          "name": "maxState",
          "type": "uint32"
        },
        {
          "internalType": "uint32",
          "name": "currentState",
          "type": "uint32"
        }
      ],
      "name": "mintLayer",
      "outputs": [],
      "stateMutability": "nonpayable",
      "type": "function"
    },
    {
      "inputs": [
        {
          "internalType": "address",
          "name": "to",
          "type": "address"
        },
        {
          "internalType": "bytes",
          "name": "_data",
          "type": "bytes"
        },
        {
          "internalType": "address",
          "name": "module",
          "type": "address"
        }
      ],
      "name": "mintModuleLayer",
      "outputs": [],
      "stateMutability": "nonpayable",
      "type": "function"
    },
    {
      "inputs": [],
      "name": "name",
      "outputs": [
        {
          "internalType": "string",
          "name": "",
          "type": "string"
        }
      ],
      "stateMutability": "view",
      "type": "function"
    },
    {
      "inputs": [],
      "name": "owner",
      "outputs": [
        {
          "internalType": "address",
          "name": "",
          "type": "address"
        }
      ],
      "stateMutability": "view",
      "type": "function"
    },
    {
      "inputs": [
        {
          "internalType": "uint256",
          "name": "tokenId",
          "type": "uint256"
        }
      ],
      "name": "ownerOf",
      "outputs": [
        {
          "internalType": "address",
          "name": "",
          "type": "address"
        }
      ],
      "stateMutability": "view",
      "type": "function"
    },
    {
      "inputs": [],
      "name": "renounceOwnership",
      "outputs": [],
      "stateMutability": "nonpayable",
      "type": "function"
    },
    {
      "inputs": [
        {
          "internalType": "address",
          "name": "from",
          "type": "address"
        },
        {
          "internalType": "address",
          "name": "to",
          "type": "address"
        },
        {
          "internalType": "uint256",
          "name": "tokenId",
          "type": "uint256"
        }
      ],
      "name": "safeTransferFrom",
      "outputs": [],
      "stateMutability": "nonpayable",
      "type": "function"
    },
    {
      "inputs": [
        {
          "internalType": "address",
          "name": "from",
          "type": "address"
        },
        {
          "internalType": "address",
          "name": "to",
          "type": "address"
        },
        {
          "internalType": "uint256",
          "name": "tokenId",
          "type": "uint256"
        },
        {
          "internalType": "bytes",
          "name": "_data",
          "type": "bytes"
        }
      ],
      "name": "safeTransferFrom",
      "outputs": [],
      "stateMutability": "nonpayable",
      "type": "function"
    },
    {
      "inputs": [
        {
          "internalType": "address",
          "name": "operator",
          "type": "address"
        },
        {
          "internalType": "bool",
          "name": "approved",
          "type": "bool"
        }
      ],
      "name": "setApprovalForAll",
      "outputs": [],
      "stateMutability": "nonpayable",
      "type": "function"
    },
    {
      "inputs": [
        {
          "internalType": "string",
          "name": "uri",
          "type": "string"
        }
      ],
      "name": "setBaseURI",
      "outputs": [],
      "stateMutability": "nonpayable",
      "type": "function"
    },
    {
      "inputs": [
        {
          "internalType": "uint256",
          "name": "id",
          "type": "uint256"
        },
        {
          "internalType": "uint32",
          "name": "maxState",
          "type": "uint32"
        }
      ],
      "name": "setLayerMaxState",
      "outputs": [],
      "stateMutability": "nonpayable",
      "type": "function"
    },
    {
      "inputs": [
        {
          "internalType": "uint256",
          "name": "id",
          "type": "uint256"
        },
        {
          "internalType": "uint32",
          "name": "state",
          "type": "uint32"
        }
      ],
      "name": "setLayerState",
      "outputs": [],
      "stateMutability": "nonpayable",
      "type": "function"
    },
    {
      "inputs": [
        {
          "internalType": "bytes4",
          "name": "interfaceId",
          "type": "bytes4"
        }
      ],
      "name": "supportsInterface",
      "outputs": [
        {
          "internalType": "bool",
          "name": "",
          "type": "bool"
        }
      ],
      "stateMutability": "view",
      "type": "function"
    },
    {
      "inputs": [],
      "name": "symbol",
      "outputs": [
        {
          "internalType": "string",
          "name": "",
          "type": "string"
        }
      ],
      "stateMutability": "view",
      "type": "function"
    },
    {
      "inputs": [
        {
          "internalType": "uint256",
          "name": "tokenId",
          "type": "uint256"
        }
      ],
      "name": "tokenURI",
      "outputs": [
        {
          "internalType": "string",
          "name": "",
          "type": "string"
        }
      ],
      "stateMutability": "view",
      "type": "function"
    },
    {
      "inputs": [
        {
          "internalType": "address",
          "name": "from",
          "type": "address"
        },
        {
          "internalType": "address",
          "name": "to",
          "type": "address"
        },
        {
          "internalType": "uint256",
          "name": "tokenId",
          "type": "uint256"
        }
      ],
      "name": "transferFrom",
      "outputs": [],
      "stateMutability": "nonpayable",
      "type": "function"
    },
    {
      "inputs": [
        {
          "internalType": "address",
          "name": "newOwner",
          "type": "address"
        }
      ],
      "name": "transferOwnership",
      "outputs": [],
      "stateMutability": "nonpayable",
      "type": "function"
    }
  ],
  "transactionHash": "0x495a02af1699004aec1ddeeace1fed9d5254aa39c905183b534229c346fa83be",
  "args": [],
  "solcInputHash": "473391cb9f023ec74f64261510b96416",
  "bytecode": "0x608060405234801561001057600080fd5b5061252b806100206000396000f3fe608060405234801561001057600080fd5b506004361061018e5760003560e01c80636c0360eb116100de578063add26d2011610097578063c87b56dd11610071578063c87b56dd14610347578063e985e9c51461035a578063f2fde38b14610396578063f781e3ae146103a957600080fd5b8063add26d201461030e578063b88d4fde14610321578063c77949621461033457600080fd5b80636c0360eb146102bf57806370a08231146102c7578063715018a6146102da5780638da5cb5b146102e257806395d89b41146102f3578063a22cb465146102fb57600080fd5b806323b872dd1161014b57806355f804b31161012557806355f804b31461026f57806356e7f6c7146102825780636352211e14610299578063660c14fd146102ac57600080fd5b806323b872dd1461023657806342842e0e1461024957806342966c681461025c57600080fd5b806301ffc9a71461019357806306fdde03146101bb578063081812fc146101d0578063095ea7b3146101fb578063159ea45a146102105780631aeb482414610223575b600080fd5b6101a66101a1366004612051565b6103d9565b60405190151581526020015b60405180910390f35b6101c3610404565b6040516101b29190612241565b6101e36101de366004612151565b610496565b6040516001600160a01b0390911681526020016101b2565b61020e61020936600461200c565b610530565b005b61020e61021e366004611f3f565b610646565b61020e610231366004612169565b610866565b61020e610244366004611e68565b610986565b61020e610257366004611e68565b6109b7565b61020e61026a366004612151565b6109d2565b61020e61027d366004612089565b610a10565b61028b60ca5481565b6040519081526020016101b2565b6101e36102a7366004612151565b610a4d565b61020e6102ba366004612169565b610ac4565b6101c3610bd5565b61028b6102d5366004611e1c565b610c63565b61020e610cea565b6033546001600160a01b03166101e3565b6101c3610d5e565b61020e610309366004611f09565b610d6d565b61020e61031c366004611f9b565b610e32565b61020e61032f366004611ea3565b610f33565b61020e6103423660046120bc565b610f6b565b6101c3610355366004612151565b61100f565b6101a6610368366004611e36565b6001600160a01b039182166000908152609c6020908152604080832093909416825291909152205460ff1690565b61020e6103a4366004611e1c565b6110ea565b6103bc6103b7366004612151565b6111d5565b6040805163ffffffff9384168152929091166020830152016101b2565b60006001600160e01b03198216637bc0f1d760e11b14806103fe57506103fe82611363565b92915050565b60606097805461041390612413565b80601f016020809104026020016040519081016040528092919081815260200182805461043f90612413565b801561048c5780601f106104615761010080835404028352916020019161048c565b820191906000526020600020905b81548152906001019060200180831161046f57829003601f168201915b5050505050905090565b6000818152609960205260408120546001600160a01b03166105145760405162461bcd60e51b815260206004820152602c60248201527f4552433732313a20617070726f76656420717565727920666f72206e6f6e657860448201526b34b9ba32b73a103a37b5b2b760a11b60648201526084015b60405180910390fd5b506000908152609b60205260409020546001600160a01b031690565b600061053b82610a4d565b9050806001600160a01b0316836001600160a01b031614156105a95760405162461bcd60e51b815260206004820152602160248201527f4552433732313a20617070726f76616c20746f2063757272656e74206f776e656044820152603960f91b606482015260840161050b565b336001600160a01b03821614806105c557506105c58133610368565b6106375760405162461bcd60e51b815260206004820152603860248201527f4552433732313a20617070726f76652063616c6c6572206973206e6f74206f7760448201527f6e6572206e6f7220617070726f76656420666f7220616c6c0000000000000000606482015260840161050b565b61064183836113b3565b505050565b6033546001600160a01b031633146106705760405162461bcd60e51b815260040161050b906122f4565b60ca546001600160a01b0382163b6106ca5760405162461bcd60e51b815260206004820152601e60248201527f6d6f64756c65206973206e6f7420612076616c696420636f6e74726163740000604482015260640161050b565b6040516301ffc9a760e01b815263d893328b60e01b60048201526001600160a01b038316906301ffc9a79060240160206040518083038186803b15801561071057600080fd5b505afa158015610724573d6000803e3d6000fd5b505050506040513d601f19601f820116820180604052508101906107489190612035565b6107a65760405162461bcd60e51b815260206004820152602960248201527f6d6f64756c6520646f6573206e6f74207361746973667920494d6f64756c6520604482015268696e7465726661636560b81b606482015260840161050b565b6040805160808101825260018152600060208083018281528385018381526001600160a01b038881166060870190815288865260c9909452959093209351845491519351925164ffffffffff1990921690151564ffffffff0019161761010063ffffffff948516021765010000000000600160e81b031916600160281b9390921692909202600160481b600160e81b03191617600160481b9190931602919091179055610854848285611421565b8061085e8161244e565b505050505050565b813361087182610a4d565b6001600160a01b0316146108975760405162461bcd60e51b815260040161050b9061237a565b600083815260c960205260409020805463ffffffff8481166101009092041614156108ed5760405162461bcd60e51b81526020600482015260066024820152656e6f206f707360d01b604482015260640161050b565b805463ffffffff808516600160281b90920416106109635760405162461bcd60e51b815260206004820152602d60248201527f63757272656e74207374617465206d757374206265206c657373207468616e2060448201526c6e6577206d617820737461746560981b606482015260840161050b565b805463ffffffff9093166101000264ffffffff0019909316929092179091555050565b6109903382611454565b6109ac5760405162461bcd60e51b815260040161050b90612329565b61064183838361154b565b61064183838360405180602001604052806000815250610f33565b80336109dd82610a4d565b6001600160a01b031614610a035760405162461bcd60e51b815260040161050b9061237a565b610a0c826116eb565b5050565b6033546001600160a01b03163314610a3a5760405162461bcd60e51b815260040161050b906122f4565b8051610a0c9060cb906020840190611ce0565b6000818152609960205260408120546001600160a01b0316806103fe5760405162461bcd60e51b815260206004820152602960248201527f4552433732313a206f776e657220717565727920666f72206e6f6e657869737460448201526832b73a103a37b5b2b760b91b606482015260840161050b565b8133610acf82610a4d565b6001600160a01b031614610af55760405162461bcd60e51b815260040161050b9061237a565b600083815260c960205260409020805463ffffffff848116600160281b909204161415610b4d5760405162461bcd60e51b81526020600482015260066024820152656e6f206f707360d01b604482015260640161050b565b805463ffffffff610100909104811690841610610bac5760405162461bcd60e51b815260206004820152601960248201527f6e65772073746174652061626f7665206d617820737461746500000000000000604482015260640161050b565b805463ffffffff909316600160281b0268ffffffff000000000019909316929092179091555050565b60cb8054610be290612413565b80601f0160208091040260200160405190810160405280929190818152602001828054610c0e90612413565b8015610c5b5780601f10610c3057610100808354040283529160200191610c5b565b820191906000526020600020905b815481529060010190602001808311610c3e57829003601f168201915b505050505081565b60006001600160a01b038216610cce5760405162461bcd60e51b815260206004820152602a60248201527f4552433732313a2062616c616e636520717565727920666f7220746865207a65604482015269726f206164647265737360b01b606482015260840161050b565b506001600160a01b03166000908152609a602052604090205490565b6033546001600160a01b03163314610d145760405162461bcd60e51b815260040161050b906122f4565b6033546040516000916001600160a01b0316907f8be0079c531659141344cd1fd0a4f28419497f9722a3daafe3b4186f6b6457e0908390a3603380546001600160a01b0319169055565b60606098805461041390612413565b6001600160a01b038216331415610dc65760405162461bcd60e51b815260206004820152601960248201527f4552433732313a20617070726f766520746f2063616c6c657200000000000000604482015260640161050b565b336000818152609c602090815260408083206001600160a01b03871680855290835292819020805460ff191686151590811790915590519081529192917f17307eab39ab6107e8899845ad3d59bd9653f200f220920489ca2b5937696c31910160405180910390a35050565b6033546001600160a01b03163314610e5c5760405162461bcd60e51b815260040161050b906122f4565b60ca5460408051608081018252600080825263ffffffff86811660208085019182528783168587019081526060860185815288865260c9909252959093209351845491519551935164ffffffffff1990921690151564ffffffff00191617610100958316959095029490941765010000000000600160e81b031916600160281b9290911691909102600160481b600160e81b03191617600160481b6001600160a01b0390931692909202919091179055610f17858286611421565b60ca8054906000610f278361244e565b91905055505050505050565b610f3d3383611454565b610f595760405162461bcd60e51b815260040161050b90612329565b610f6584848484611786565b50505050565b600054610100900460ff1680610f84575060005460ff16155b610fa05760405162461bcd60e51b815260040161050b906122a6565b600054610100900460ff16158015610fc2576000805461ffff19166101011790555b610fca6117b9565b610fd2611868565b610fda611868565b610fe485856118d3565b610fed83610a10565b610ff6826110ea565b8015611008576000805461ff00191690555b5050505050565b6000818152609960205260409020546060906001600160a01b031661108e5760405162461bcd60e51b815260206004820152602f60248201527f4552433732314d657461646174613a2055524920717565727920666f72206e6f60448201526e3732bc34b9ba32b73a103a37b5b2b760891b606482015260840161050b565b6000611098611968565b905060008151116110b857604051806020016040528060008152506110e3565b806110c284611977565b6040516020016110d39291906121d5565b6040516020818303038152906040525b9392505050565b6033546001600160a01b031633146111145760405162461bcd60e51b815260040161050b906122f4565b6001600160a01b0381166111795760405162461bcd60e51b815260206004820152602660248201527f4f776e61626c653a206e6577206f776e657220697320746865207a65726f206160448201526564647265737360d01b606482015260840161050b565b6033546040516001600160a01b038084169216907f8be0079c531659141344cd1fd0a4f28419497f9722a3daafe3b4186f6b6457e090600090a3603380546001600160a01b0319166001600160a01b0392909216919091179055565b6000808260ca5481106112215760405162461bcd60e51b81526020600482015260146024820152731b185e595c881a5cc81b9bdd0818dc99585d195960621b604482015260640161050b565b600084815260c960205260409020805460ff16156113425760008160000160099054906101000a90046001600160a01b03169050806001600160a01b031663c0f6f7f66040518163ffffffff1660e01b815260040160206040518083038186803b15801561128e57600080fd5b505afa1580156112a2573d6000803e3d6000fd5b505050506040513d601f19601f820116820180604052508101906112c6919061218d565b816001600160a01b0316631865c57d6040518163ffffffff1660e01b815260040160206040518083038186803b1580156112ff57600080fd5b505afa158015611313573d6000803e3d6000fd5b505050506040513d601f19601f82011682018060405250810190611337919061218d565b94509450505061135d565b5463ffffffff610100820481169450600160281b9091041691505b50915091565b60006001600160e01b031982166380ac58cd60e01b148061139457506001600160e01b03198216635b5e139f60e01b145b806103fe57506301ffc9a760e01b6001600160e01b03198316146103fe565b6000818152609b6020526040902080546001600160a01b0319166001600160a01b03841690811790915581906113e882610a4d565b6001600160a01b03167f8c5be1e5ebec7d5bd14f71427d1e84f3dd0314c0f7b2291e5b200ac8c7c3b92560405160405180910390a45050565b61142b8383611a91565b6114386000848484611bd3565b6106415760405162461bcd60e51b815260040161050b90612254565b6000818152609960205260408120546001600160a01b03166114cd5760405162461bcd60e51b815260206004820152602c60248201527f4552433732313a206f70657261746f7220717565727920666f72206e6f6e657860448201526b34b9ba32b73a103a37b5b2b760a11b606482015260840161050b565b60006114d883610a4d565b9050806001600160a01b0316846001600160a01b031614806115135750836001600160a01b031661150884610496565b6001600160a01b0316145b8061154357506001600160a01b038082166000908152609c602090815260408083209388168352929052205460ff165b949350505050565b826001600160a01b031661155e82610a4d565b6001600160a01b0316146115c65760405162461bcd60e51b815260206004820152602960248201527f4552433732313a207472616e73666572206f6620746f6b656e2074686174206960448201526839903737ba1037bbb760b91b606482015260840161050b565b6001600160a01b0382166116285760405162461bcd60e51b8152602060048201526024808201527f4552433732313a207472616e7366657220746f20746865207a65726f206164646044820152637265737360e01b606482015260840161050b565b6116336000826113b3565b6001600160a01b0383166000908152609a6020526040812080546001929061165c9084906123d0565b90915550506001600160a01b0382166000908152609a6020526040812080546001929061168a9084906123a4565b909155505060008181526099602052604080822080546001600160a01b0319166001600160a01b0386811691821790925591518493918716917fddf252ad1be2c89b69c2b068fc378daa952ba7f163c4a11628f55a4df523b3ef91a4505050565b60006116f682610a4d565b90506117036000836113b3565b6001600160a01b0381166000908152609a6020526040812080546001929061172c9084906123d0565b909155505060008281526099602052604080822080546001600160a01b0319169055518391906001600160a01b038416907fddf252ad1be2c89b69c2b068fc378daa952ba7f163c4a11628f55a4df523b3ef908390a45050565b61179184848461154b565b61179d84848484611bd3565b610f655760405162461bcd60e51b815260040161050b90612254565b600054610100900460ff16806117d2575060005460ff16155b6117ee5760405162461bcd60e51b815260040161050b906122a6565b600054610100900460ff16158015611810576000805461ffff19166101011790555b603380546001600160a01b0319163390811790915560405181906000907f8be0079c531659141344cd1fd0a4f28419497f9722a3daafe3b4186f6b6457e0908290a3508015611865576000805461ff00191690555b50565b600054610100900460ff1680611881575060005460ff16155b61189d5760405162461bcd60e51b815260040161050b906122a6565b600054610100900460ff161580156118bf576000805461ffff19166101011790555b8015611865576000805461ff001916905550565b600054610100900460ff16806118ec575060005460ff16155b6119085760405162461bcd60e51b815260040161050b906122a6565b600054610100900460ff1615801561192a576000805461ffff19166101011790555b825161193d906097906020860190611ce0565b508151611951906098906020850190611ce0565b508015610641576000805461ff0019169055505050565b606060cb805461041390612413565b60608161199b5750506040805180820190915260018152600360fc1b602082015290565b8160005b81156119c557806119af8161244e565b91506119be9050600a836123bc565b915061199f565b60008167ffffffffffffffff8111156119ee57634e487b7160e01b600052604160045260246000fd5b6040519080825280601f01601f191660200182016040528015611a18576020820181803683370190505b5090505b841561154357611a2d6001836123d0565b9150611a3a600a86612469565b611a459060306123a4565b60f81b818381518110611a6857634e487b7160e01b600052603260045260246000fd5b60200101906001600160f81b031916908160001a905350611a8a600a866123bc565b9450611a1c565b6001600160a01b038216611ae75760405162461bcd60e51b815260206004820181905260248201527f4552433732313a206d696e7420746f20746865207a65726f2061646472657373604482015260640161050b565b6000818152609960205260409020546001600160a01b031615611b4c5760405162461bcd60e51b815260206004820152601c60248201527f4552433732313a20746f6b656e20616c7265616479206d696e74656400000000604482015260640161050b565b6001600160a01b0382166000908152609a60205260408120805460019290611b759084906123a4565b909155505060008181526099602052604080822080546001600160a01b0319166001600160a01b03861690811790915590518392907fddf252ad1be2c89b69c2b068fc378daa952ba7f163c4a11628f55a4df523b3ef908290a45050565b60006001600160a01b0384163b15611cd557604051630a85bd0160e11b81526001600160a01b0385169063150b7a0290611c17903390899088908890600401612204565b602060405180830381600087803b158015611c3157600080fd5b505af1925050508015611c61575060408051601f3d908101601f19168201909252611c5e9181019061206d565b60015b611cbb573d808015611c8f576040519150601f19603f3d011682016040523d82523d6000602084013e611c94565b606091505b508051611cb35760405162461bcd60e51b815260040161050b90612254565b805181602001fd5b6001600160e01b031916630a85bd0160e11b149050611543565b506001949350505050565b828054611cec90612413565b90600052602060002090601f016020900481019282611d0e5760008555611d54565b82601f10611d2757805160ff1916838001178555611d54565b82800160010185558215611d54579182015b82811115611d54578251825591602001919060010190611d39565b50611d60929150611d64565b5090565b5b80821115611d605760008155600101611d65565b80356001600160a01b0381168114611d9057600080fd5b919050565b600082601f830112611da5578081fd5b813567ffffffffffffffff80821115611dc057611dc06124a9565b604051601f8301601f19908116603f01168101908282118183101715611de857611de86124a9565b81604052838152866020858801011115611e00578485fd5b8360208701602083013792830160200193909352509392505050565b600060208284031215611e2d578081fd5b6110e382611d79565b60008060408385031215611e48578081fd5b611e5183611d79565b9150611e5f60208401611d79565b90509250929050565b600080600060608486031215611e7c578081fd5b611e8584611d79565b9250611e9360208501611d79565b9150604084013590509250925092565b60008060008060808587031215611eb8578081fd5b611ec185611d79565b9350611ecf60208601611d79565b925060408501359150606085013567ffffffffffffffff811115611ef1578182fd5b611efd87828801611d95565b91505092959194509250565b60008060408385031215611f1b578182fd5b611f2483611d79565b91506020830135611f34816124bf565b809150509250929050565b600080600060608486031215611f53578283fd5b611f5c84611d79565b9250602084013567ffffffffffffffff811115611f77578283fd5b611f8386828701611d95565b925050611f9260408501611d79565b90509250925092565b60008060008060808587031215611fb0578384fd5b611fb985611d79565b9350602085013567ffffffffffffffff811115611fd4578384fd5b611fe087828801611d95565b9350506040850135611ff1816124e3565b91506060850135612001816124e3565b939692955090935050565b6000806040838503121561201e578182fd5b61202783611d79565b946020939093013593505050565b600060208284031215612046578081fd5b81516110e3816124bf565b600060208284031215612062578081fd5b81356110e3816124cd565b60006020828403121561207e578081fd5b81516110e3816124cd565b60006020828403121561209a578081fd5b813567ffffffffffffffff8111156120b0578182fd5b61154384828501611d95565b600080600080608085870312156120d1578182fd5b843567ffffffffffffffff808211156120e8578384fd5b6120f488838901611d95565b95506020870135915080821115612109578384fd5b61211588838901611d95565b9450604087013591508082111561212a578384fd5b5061213787828801611d95565b92505061214660608601611d79565b905092959194509250565b600060208284031215612162578081fd5b5035919050565b6000806040838503121561217b578182fd5b823591506020830135611f34816124e3565b60006020828403121561219e578081fd5b81516110e3816124e3565b600081518084526121c18160208601602086016123e7565b601f01601f19169290920160200192915050565b600083516121e78184602088016123e7565b8351908301906121fb8183602088016123e7565b01949350505050565b6001600160a01b0385811682528416602082015260408101839052608060608201819052600090612237908301846121a9565b9695505050505050565b6020815260006110e360208301846121a9565b60208082526032908201527f4552433732313a207472616e7366657220746f206e6f6e20455243373231526560408201527131b2b4bb32b91034b6b83632b6b2b73a32b960711b606082015260800190565b6020808252602e908201527f496e697469616c697a61626c653a20636f6e747261637420697320616c72656160408201526d191e481a5b9a5d1a585b1a5e995960921b606082015260800190565b6020808252818101527f4f776e61626c653a2063616c6c6572206973206e6f7420746865206f776e6572604082015260600190565b60208082526031908201527f4552433732313a207472616e736665722063616c6c6572206973206e6f74206f6040820152701ddb995c881b9bdc88185c1c1c9bdd9959607a1b606082015260800190565b60208082526010908201526f37b7363c903630bcb2b91037bbb732b960811b604082015260600190565b600082198211156123b7576123b761247d565b500190565b6000826123cb576123cb612493565b500490565b6000828210156123e2576123e261247d565b500390565b60005b838110156124025781810151838201526020016123ea565b83811115610f655750506000910152565b600181811c9082168061242757607f821691505b6020821081141561244857634e487b7160e01b600052602260045260246000fd5b50919050565b60006000198214156124625761246261247d565b5060010190565b60008261247857612478612493565b500690565b634e487b7160e01b600052601160045260246000fd5b634e487b7160e01b600052601260045260246000fd5b634e487b7160e01b600052604160045260246000fd5b801515811461186557600080fd5b6001600160e01b03198116811461186557600080fd5b63ffffffff8116811461186557600080fdfea2646970667358221220b43587e1e3c1faa32069ee44572bf34483b8f3d4e8f2afcd9ba3128203f3a8df64736f6c63430008040033",
  "devdoc": {
    "kind": "dev",
    "methods": {
      "approve(address,uint256)": {
        "details": "See {IERC721-approve}."
      },
      "balanceOf(address)": {
        "details": "See {IERC721-balanceOf}."
      },
      "burn(uint256)": {
        "details": "Allows layer owner to burn token at id"
      },
      "getApproved(uint256)": {
        "details": "See {IERC721-getApproved}."
      },
      "getLayer(uint256)": {
        "details": "layer getter method"
      },
      "isApprovedForAll(address,address)": {
        "details": "See {IERC721-isApprovedForAll}."
      },
      "mintLayer(address,bytes,uint32,uint32)": {
        "details": "Mints state layer"
      },
      "mintModuleLayer(address,bytes,address)": {
        "details": "Mints module layer"
      },
      "name()": {
        "details": "See {IERC721Metadata-name}."
      },
      "owner()": {
        "details": "Returns the address of the current owner."
      },
      "ownerOf(uint256)": {
        "details": "See {IERC721-ownerOf}."
      },
      "renounceOwnership()": {
        "details": "Leaves the contract without owner. It will not be possible to call `onlyOwner` functions anymore. Can only be called by the current owner. NOTE: Renouncing ownership will leave the contract without an owner, thereby removing any functionality that is only available to the owner."
      },
      "safeTransferFrom(address,address,uint256)": {
        "details": "See {IERC721-safeTransferFrom}."
      },
      "safeTransferFrom(address,address,uint256,bytes)": {
        "details": "See {IERC721-safeTransferFrom}."
      },
      "setApprovalForAll(address,bool)": {
        "details": "See {IERC721-setApprovalForAll}."
      },
      "setBaseURI(string)": {
        "details": "Allow owner to set `baseURI`"
      },
      "setLayerMaxState(uint256,uint32)": {
        "details": "allows layer owner to update layer `id` maxState to `maxState`"
      },
      "setLayerState(uint256,uint32)": {
        "details": "allows layer owner to update layer `id` state to `state`"
      },
      "supportsInterface(bytes4)": {
        "details": "See {IERC165-supportsInterface}."
      },
      "symbol()": {
        "details": "See {IERC721Metadata-symbol}."
      },
      "tokenURI(uint256)": {
        "details": "See {IERC721Metadata-tokenURI}."
      },
      "transferFrom(address,address,uint256)": {
        "details": "See {IERC721-transferFrom}."
      },
      "transferOwnership(address)": {
        "details": "Transfers ownership of the contract to a new account (`newOwner`). Can only be called by the current owner."
      }
    },
    "version": 1
  },
  "userdoc": {
    "kind": "user",
    "methods": {},
    "version": 1
  },
  "storageLayout": {
    "storage": [
      {
        "astId": 532,
        "contract": "contracts/Layer/LayerV0.sol:LayerV0",
        "label": "_initialized",
        "offset": 0,
        "slot": "0",
        "type": "t_bool"
      },
      {
        "astId": 535,
        "contract": "contracts/Layer/LayerV0.sol:LayerV0",
        "label": "_initializing",
        "offset": 1,
        "slot": "0",
        "type": "t_bool"
      },
      {
        "astId": 3107,
        "contract": "contracts/Layer/LayerV0.sol:LayerV0",
        "label": "__gap",
        "offset": 0,
        "slot": "1",
        "type": "t_array(t_uint256)50_storage"
      },
      {
        "astId": 406,
        "contract": "contracts/Layer/LayerV0.sol:LayerV0",
        "label": "_owner",
        "offset": 0,
        "slot": "51",
        "type": "t_address"
      },
      {
        "astId": 525,
        "contract": "contracts/Layer/LayerV0.sol:LayerV0",
        "label": "__gap",
        "offset": 0,
        "slot": "52",
        "type": "t_array(t_uint256)49_storage"
      },
      {
        "astId": 3356,
        "contract": "contracts/Layer/LayerV0.sol:LayerV0",
        "label": "__gap",
        "offset": 0,
        "slot": "101",
        "type": "t_array(t_uint256)50_storage"
      },
      {
        "astId": 1839,
        "contract": "contracts/Layer/LayerV0.sol:LayerV0",
        "label": "_name",
        "offset": 0,
        "slot": "151",
        "type": "t_string_storage"
      },
      {
        "astId": 1841,
        "contract": "contracts/Layer/LayerV0.sol:LayerV0",
        "label": "_symbol",
        "offset": 0,
        "slot": "152",
        "type": "t_string_storage"
      },
      {
        "astId": 1845,
        "contract": "contracts/Layer/LayerV0.sol:LayerV0",
        "label": "_owners",
        "offset": 0,
        "slot": "153",
        "type": "t_mapping(t_uint256,t_address)"
      },
      {
        "astId": 1849,
        "contract": "contracts/Layer/LayerV0.sol:LayerV0",
        "label": "_balances",
        "offset": 0,
        "slot": "154",
        "type": "t_mapping(t_address,t_uint256)"
      },
      {
        "astId": 1853,
        "contract": "contracts/Layer/LayerV0.sol:LayerV0",
        "label": "_tokenApprovals",
        "offset": 0,
        "slot": "155",
        "type": "t_mapping(t_uint256,t_address)"
      },
      {
        "astId": 1859,
        "contract": "contracts/Layer/LayerV0.sol:LayerV0",
        "label": "_operatorApprovals",
        "offset": 0,
        "slot": "156",
        "type": "t_mapping(t_address,t_mapping(t_address,t_bool))"
      },
      {
        "astId": 2657,
        "contract": "contracts/Layer/LayerV0.sol:LayerV0",
        "label": "__gap",
        "offset": 0,
        "slot": "157",
        "type": "t_array(t_uint256)44_storage"
      },
      {
        "astId": 6416,
        "contract": "contracts/Layer/LayerV0.sol:LayerV0",
        "label": "layers",
        "offset": 0,
        "slot": "201",
        "type": "t_mapping(t_uint256,t_struct(Layer)6410_storage)"
      },
      {
        "astId": 6419,
        "contract": "contracts/Layer/LayerV0.sol:LayerV0",
        "label": "layerCount",
        "offset": 0,
        "slot": "202",
        "type": "t_uint256"
      },
      {
        "astId": 6422,
        "contract": "contracts/Layer/LayerV0.sol:LayerV0",
        "label": "baseURI",
        "offset": 0,
        "slot": "203",
        "type": "t_string_storage"
      }
    ],
    "types": {
      "t_address": {
        "encoding": "inplace",
        "label": "address",
        "numberOfBytes": "20"
      },
      "t_array(t_uint256)44_storage": {
        "base": "t_uint256",
        "encoding": "inplace",
        "label": "uint256[44]",
        "numberOfBytes": "1408"
      },
      "t_array(t_uint256)49_storage": {
        "base": "t_uint256",
        "encoding": "inplace",
        "label": "uint256[49]",
        "numberOfBytes": "1568"
      },
      "t_array(t_uint256)50_storage": {
        "base": "t_uint256",
        "encoding": "inplace",
        "label": "uint256[50]",
        "numberOfBytes": "1600"
      },
      "t_bool": {
        "encoding": "inplace",
        "label": "bool",
        "numberOfBytes": "1"
      },
      "t_mapping(t_address,t_bool)": {
        "encoding": "mapping",
        "key": "t_address",
        "label": "mapping(address => bool)",
        "numberOfBytes": "32",
        "value": "t_bool"
      },
      "t_mapping(t_address,t_mapping(t_address,t_bool))": {
        "encoding": "mapping",
        "key": "t_address",
        "label": "mapping(address => mapping(address => bool))",
        "numberOfBytes": "32",
        "value": "t_mapping(t_address,t_bool)"
      },
      "t_mapping(t_address,t_uint256)": {
        "encoding": "mapping",
        "key": "t_address",
        "label": "mapping(address => uint256)",
        "numberOfBytes": "32",
        "value": "t_uint256"
      },
      "t_mapping(t_uint256,t_address)": {
        "encoding": "mapping",
        "key": "t_uint256",
        "label": "mapping(uint256 => address)",
        "numberOfBytes": "32",
        "value": "t_address"
      },
      "t_mapping(t_uint256,t_struct(Layer)6410_storage)": {
        "encoding": "mapping",
        "key": "t_uint256",
        "label": "mapping(uint256 => struct LayerStorageV0.Layer)",
        "numberOfBytes": "32",
        "value": "t_struct(Layer)6410_storage"
      },
      "t_string_storage": {
        "encoding": "bytes",
        "label": "string",
        "numberOfBytes": "32"
      },
      "t_struct(Layer)6410_storage": {
        "encoding": "inplace",
        "label": "struct LayerStorageV0.Layer",
        "members": [
          {
            "astId": 6403,
            "contract": "contracts/Layer/LayerV0.sol:LayerV0",
            "label": "modularLayer",
            "offset": 0,
            "slot": "0",
            "type": "t_bool"
          },
          {
            "astId": 6405,
            "contract": "contracts/Layer/LayerV0.sol:LayerV0",
            "label": "maxState",
            "offset": 1,
            "slot": "0",
            "type": "t_uint32"
          },
          {
            "astId": 6407,
            "contract": "contracts/Layer/LayerV0.sol:LayerV0",
            "label": "currentState",
            "offset": 5,
            "slot": "0",
            "type": "t_uint32"
          },
          {
            "astId": 6409,
            "contract": "contracts/Layer/LayerV0.sol:LayerV0",
            "label": "module",
            "offset": 9,
            "slot": "0",
            "type": "t_address"
          }
        ],
        "numberOfBytes": "32"
      },
      "t_uint256": {
        "encoding": "inplace",
        "label": "uint256",
        "numberOfBytes": "32"
      },
      "t_uint32": {
        "encoding": "inplace",
        "label": "uint32",
        "numberOfBytes": "4"
      }
    }
  }
}