{
  "address": "0x18f5C1AdF4A32D362b2885D4b00b67e14DB60885",
  "abi": [
    {
      "anonymous": false,
      "inputs": [
        {
          "indexed": true,
          "internalType": "address",
          "name": "owner",
          "type": "address"
        },
        {
          "indexed": true,
          "internalType": "address",
          "name": "approved",
          "type": "address"
        },
        {
          "indexed": true,
          "internalType": "uint256",
          "name": "tokenId",
          "type": "uint256"
        }
      ],
      "name": "Approval",
      "type": "event"
    },
    {
      "anonymous": false,
      "inputs": [
        {
          "indexed": true,
          "internalType": "address",
          "name": "owner",
          "type": "address"
        },
        {
          "indexed": true,
          "internalType": "address",
          "name": "operator",
          "type": "address"
        },
        {
          "indexed": false,
          "internalType": "bool",
          "name": "approved",
          "type": "bool"
        }
      ],
      "name": "ApprovalForAll",
      "type": "event"
    },
    {
      "anonymous": false,
      "inputs": [
        {
          "indexed": true,
          "internalType": "address",
          "name": "previousOwner",
          "type": "address"
        },
        {
          "indexed": true,
          "internalType": "address",
          "name": "newOwner",
          "type": "address"
        }
      ],
      "name": "OwnershipTransferred",
      "type": "event"
    },
    {
      "anonymous": false,
      "inputs": [
        {
          "indexed": true,
          "internalType": "address",
          "name": "from",
          "type": "address"
        },
        {
          "indexed": true,
          "internalType": "address",
          "name": "to",
          "type": "address"
        },
        {
          "indexed": true,
          "internalType": "uint256",
          "name": "tokenId",
          "type": "uint256"
        }
      ],
      "name": "Transfer",
      "type": "event"
    },
    {
      "inputs": [
        {
          "internalType": "string",
          "name": "_name",
          "type": "string"
        },
        {
          "internalType": "string",
          "name": "_symbol",
          "type": "string"
        },
        {
          "internalType": "string",
          "name": "_uri",
          "type": "string"
        },
        {
          "internalType": "uint256",
          "name": "_price",
          "type": "uint256"
        },
        {
          "internalType": "uint256",
          "name": "_whitelistPrice",
          "type": "uint256"
        },
        {
          "internalType": "uint256",
          "name": "_maxPurchaseNum",
          "type": "uint256"
        },
        {
          "internalType": "uint256",
          "name": "_maxSupply",
          "type": "uint256"
        },
        {
          "internalType": "uint256",
          "name": "_reserveNum",
          "type": "uint256"
        },
        {
          "internalType": "address",
          "name": "_owner",
          "type": "address"
        },
        {
          "internalType": "address",
          "name": "_signer",
          "type": "address"
        }
      ],
      "name": "__LaunchNFT_init",
      "outputs": [],
      "stateMutability": "nonpayable",
      "type": "function"
    },
    {
      "inputs": [
        {
          "internalType": "string",
          "name": "_uri",
          "type": "string"
        },
        {
          "internalType": "uint256",
          "name": "_price",
          "type": "uint256"
        },
        {
          "internalType": "uint256",
          "name": "_whitelistPrice",
          "type": "uint256"
        },
        {
          "internalType": "uint256",
          "name": "_maxPurchaseNum",
          "type": "uint256"
        },
        {
          "internalType": "uint256",
          "name": "_maxSupply",
          "type": "uint256"
        },
        {
          "internalType": "uint256",
          "name": "_reserveNum",
          "type": "uint256"
        },
        {
          "internalType": "address",
          "name": "_owner",
          "type": "address"
        },
        {
          "internalType": "address",
          "name": "_signer",
          "type": "address"
        }
      ],
      "name": "__LaunchNFT_init_unchained",
      "outputs": [],
      "stateMutability": "nonpayable",
      "type": "function"
    },
    {
      "inputs": [
        {
          "internalType": "address",
          "name": "to",
          "type": "address"
        },
        {
          "internalType": "uint256",
          "name": "tokenId",
          "type": "uint256"
        }
      ],
      "name": "approve",
      "outputs": [],
      "stateMutability": "nonpayable",
      "type": "function"
    },
    {
      "inputs": [
        {
          "internalType": "address",
          "name": "owner",
          "type": "address"
        }
      ],
      "name": "balanceOf",
      "outputs": [
        {
          "internalType": "uint256",
          "name": "",
          "type": "uint256"
        }
      ],
      "stateMutability": "view",
      "type": "function"
    },
    {
      "inputs": [],
      "name": "baseURI",
      "outputs": [
        {
          "internalType": "string",
          "name": "",
          "type": "string"
        }
      ],
      "stateMutability": "view",
      "type": "function"
    },
    {
      "inputs": [],
      "name": "flipMintingState",
      "outputs": [],
      "stateMutability": "nonpayable",
      "type": "function"
    },
    {
      "inputs": [
        {
          "internalType": "uint256",
          "name": "tokenId",
          "type": "uint256"
        }
      ],
      "name": "getApproved",
      "outputs": [
        {
          "internalType": "address",
          "name": "",
          "type": "address"
        }
      ],
      "stateMutability": "view",
      "type": "function"
    },
    {
      "inputs": [
        {
          "internalType": "address",
          "name": "_account",
          "type": "address"
        },
        {
          "internalType": "uint256",
          "name": "_whitelistID",
          "type": "uint256"
        }
      ],
      "name": "getMessageHash",
      "outputs": [
        {
          "internalType": "bytes32",
          "name": "",
          "type": "bytes32"
        }
      ],
      "stateMutability": "pure",
      "type": "function"
    },
    {
      "inputs": [
        {
          "internalType": "uint256",
          "name": "",
          "type": "uint256"
        }
      ],
      "name": "hasMinted",
      "outputs": [
        {
          "internalType": "bool",
          "name": "",
          "type": "bool"
        }
      ],
      "stateMutability": "view",
      "type": "function"
    },
    {
      "inputs": [],
      "name": "id",
      "outputs": [
        {
          "internalType": "uint256",
          "name": "_value",
          "type": "uint256"
        }
      ],
      "stateMutability": "view",
      "type": "function"
    },
    {
      "inputs": [
        {
          "internalType": "address",
          "name": "owner",
          "type": "address"
        },
        {
          "internalType": "address",
          "name": "operator",
          "type": "address"
        }
      ],
      "name": "isApprovedForAll",
      "outputs": [
        {
          "internalType": "bool",
          "name": "",
          "type": "bool"
        }
      ],
      "stateMutability": "view",
      "type": "function"
    },
    {
      "inputs": [],
      "name": "isMintingActive",
      "outputs": [
        {
          "internalType": "bool",
          "name": "",
          "type": "bool"
        }
      ],
      "stateMutability": "view",
      "type": "function"
    },
    {
      "inputs": [],
      "name": "maxPurchaseNum",
      "outputs": [
        {
          "internalType": "uint256",
          "name": "",
          "type": "uint256"
        }
      ],
      "stateMutability": "view",
      "type": "function"
    },
    {
      "inputs": [],
      "name": "maxSupply",
      "outputs": [
        {
          "internalType": "uint256",
          "name": "",
          "type": "uint256"
        }
      ],
      "stateMutability": "view",
      "type": "function"
    },
    {
      "inputs": [
        {
          "internalType": "uint256",
          "name": "_num",
          "type": "uint256"
        }
      ],
      "name": "mint",
      "outputs": [],
      "stateMutability": "payable",
      "type": "function"
    },
    {
      "inputs": [],
      "name": "mintedReserveNum",
      "outputs": [
        {
          "internalType": "uint256",
          "name": "",
          "type": "uint256"
        }
      ],
      "stateMutability": "view",
      "type": "function"
    },
    {
      "inputs": [],
      "name": "name",
      "outputs": [
        {
          "internalType": "string",
          "name": "",
          "type": "string"
        }
      ],
      "stateMutability": "view",
      "type": "function"
    },
    {
      "inputs": [],
      "name": "owner",
      "outputs": [
        {
          "internalType": "address",
          "name": "",
          "type": "address"
        }
      ],
      "stateMutability": "view",
      "type": "function"
    },
    {
      "inputs": [
        {
          "internalType": "uint256",
          "name": "tokenId",
          "type": "uint256"
        }
      ],
      "name": "ownerOf",
      "outputs": [
        {
          "internalType": "address",
          "name": "",
          "type": "address"
        }
      ],
      "stateMutability": "view",
      "type": "function"
    },
    {
      "inputs": [],
      "name": "price",
      "outputs": [
        {
          "internalType": "uint256",
          "name": "",
          "type": "uint256"
        }
      ],
      "stateMutability": "view",
      "type": "function"
    },
    {
      "inputs": [],
      "name": "renounceOwnership",
      "outputs": [],
      "stateMutability": "nonpayable",
      "type": "function"
    },
    {
      "inputs": [],
      "name": "reserve",
      "outputs": [],
      "stateMutability": "nonpayable",
      "type": "function"
    },
    {
      "inputs": [],
      "name": "reserveBatchNum",
      "outputs": [
        {
          "internalType": "uint256",
          "name": "",
          "type": "uint256"
        }
      ],
      "stateMutability": "view",
      "type": "function"
    },
    {
      "inputs": [],
      "name": "reserveNum",
      "outputs": [
        {
          "internalType": "uint256",
          "name": "",
          "type": "uint256"
        }
      ],
      "stateMutability": "view",
      "type": "function"
    },
    {
      "inputs": [
        {
          "internalType": "address",
          "name": "from",
          "type": "address"
        },
        {
          "internalType": "address",
          "name": "to",
          "type": "address"
        },
        {
          "internalType": "uint256",
          "name": "tokenId",
          "type": "uint256"
        }
      ],
      "name": "safeTransferFrom",
      "outputs": [],
      "stateMutability": "nonpayable",
      "type": "function"
    },
    {
      "inputs": [
        {
          "internalType": "address",
          "name": "from",
          "type": "address"
        },
        {
          "internalType": "address",
          "name": "to",
          "type": "address"
        },
        {
          "internalType": "uint256",
          "name": "tokenId",
          "type": "uint256"
        },
        {
          "internalType": "bytes",
          "name": "_data",
          "type": "bytes"
        }
      ],
      "name": "safeTransferFrom",
      "outputs": [],
      "stateMutability": "nonpayable",
      "type": "function"
    },
    {
      "inputs": [
        {
          "internalType": "address",
          "name": "_admin",
          "type": "address"
        }
      ],
      "name": "setAdmin",
      "outputs": [],
      "stateMutability": "nonpayable",
      "type": "function"
    },
    {
      "inputs": [
        {
          "internalType": "address",
          "name": "operator",
          "type": "address"
        },
        {
          "internalType": "bool",
          "name": "approved",
          "type": "bool"
        }
      ],
      "name": "setApprovalForAll",
      "outputs": [],
      "stateMutability": "nonpayable",
      "type": "function"
    },
    {
      "inputs": [
        {
          "internalType": "string",
          "name": "_uri",
          "type": "string"
        }
      ],
      "name": "setBaseURI",
      "outputs": [],
      "stateMutability": "nonpayable",
      "type": "function"
    },
    {
      "inputs": [
        {
          "internalType": "uint256",
          "name": "_price",
          "type": "uint256"
        }
      ],
      "name": "setPrice",
      "outputs": [],
      "stateMutability": "nonpayable",
      "type": "function"
    },
    {
      "inputs": [
        {
          "internalType": "address",
          "name": "_signer",
          "type": "address"
        }
      ],
      "name": "setSigner",
      "outputs": [],
      "stateMutability": "nonpayable",
      "type": "function"
    },
    {
      "inputs": [
        {
          "internalType": "bytes4",
          "name": "interfaceId",
          "type": "bytes4"
        }
      ],
      "name": "supportsInterface",
      "outputs": [
        {
          "internalType": "bool",
          "name": "",
          "type": "bool"
        }
      ],
      "stateMutability": "view",
      "type": "function"
    },
    {
      "inputs": [],
      "name": "symbol",
      "outputs": [
        {
          "internalType": "string",
          "name": "",
          "type": "string"
        }
      ],
      "stateMutability": "view",
      "type": "function"
    },
    {
      "inputs": [
        {
          "internalType": "uint256",
          "name": "tokenId",
          "type": "uint256"
        }
      ],
      "name": "tokenURI",
      "outputs": [
        {
          "internalType": "string",
          "name": "",
          "type": "string"
        }
      ],
      "stateMutability": "view",
      "type": "function"
    },
    {
      "inputs": [
        {
          "internalType": "address",
          "name": "from",
          "type": "address"
        },
        {
          "internalType": "address",
          "name": "to",
          "type": "address"
        },
        {
          "internalType": "uint256",
          "name": "tokenId",
          "type": "uint256"
        }
      ],
      "name": "transferFrom",
      "outputs": [],
      "stateMutability": "nonpayable",
      "type": "function"
    },
    {
      "inputs": [
        {
          "internalType": "address",
          "name": "newOwner",
          "type": "address"
        }
      ],
      "name": "transferOwnership",
      "outputs": [],
      "stateMutability": "nonpayable",
      "type": "function"
    },
    {
      "inputs": [
        {
          "internalType": "uint256[]",
          "name": "_whitelistIDs",
          "type": "uint256[]"
        },
        {
          "internalType": "bytes[]",
          "name": "_signatures",
          "type": "bytes[]"
        }
      ],
      "name": "whitelistMint",
      "outputs": [],
      "stateMutability": "payable",
      "type": "function"
    },
    {
      "inputs": [],
      "name": "whitelistPrice",
      "outputs": [
        {
          "internalType": "uint256",
          "name": "",
          "type": "uint256"
        }
      ],
      "stateMutability": "view",
      "type": "function"
    },
    {
      "inputs": [],
      "name": "whitelistSigner",
      "outputs": [
        {
          "internalType": "address",
          "name": "",
          "type": "address"
        }
      ],
      "stateMutability": "view",
      "type": "function"
    },
    {
      "inputs": [],
      "name": "withdraw",
      "outputs": [],
      "stateMutability": "nonpayable",
      "type": "function"
    }
  ],
  "transactionHash": "0xd0a489aea09b8f6f0078253a7db5ad389b6257e1edb46523b0e9c96a8eb02a35",
  "args": [],
  "solcInputHash": "c780c1f507f8f1148ecf58d9a6451991",
  "bytecode": "0x608060405260d1805460ff1916905534801561001a57600080fd5b50612df88061002a6000396000f3fe60806040526004361061023b5760003560e01c80638da5cb5b1161012e578063b88d4fde116100ab578063e985e9c51161006f578063e985e9c514610650578063ef81b4d414610699578063f2fde38b146106be578063f655ff22146106de578063fc1a1c36146106f357600080fd5b8063b88d4fde146105b5578063c87b56dd146105d5578063cd3293de146105f5578063d5abeb011461060a578063e5b955951461062057600080fd5b806395d89b41116100f257806395d89b4114610540578063a035b1fe14610555578063a0712d681461056b578063a22cb4651461057e578063af640d0f1461059e57600080fd5b80638da5cb5b146104c357806390b180d3146104e157806391b7f5ed146104f4578063925b8e021461051457806392a046211461052a57600080fd5b8063512c91df116101bc5780636c0360eb116101805780636c0360eb146104395780636c19e7831461044e578063704b6c021461046e57806370a082311461048e578063715018a6146104ae57600080fd5b8063512c91df1461039f57806355f804b3146103bf5780635d6e1b90146103df5780636352211e146103ff5780636ac437b01461041f57600080fd5b8063123fecf811610203578063123fecf81461031557806323b872dd1461032a578063378cbf241461034a5780633ccfd60b1461036a57806342842e0e1461037f57600080fd5b806301ffc9a71461024057806306fdde0314610275578063081812fc14610297578063095ea7b3146102cf5780630a32c276146102f1575b600080fd5b34801561024c57600080fd5b5061026061025b366004612865565b610709565b60405190151581526020015b60405180910390f35b34801561028157600080fd5b5061028a61075b565b60405161026c9190612af4565b3480156102a357600080fd5b506102b76102b2366004612a35565b6107ed565b6040516001600160a01b03909116815260200161026c565b3480156102db57600080fd5b506102ef6102ea3660046127d3565b610887565b005b3480156102fd57600080fd5b5061030760ce5481565b60405190815260200161026c565b34801561032157600080fd5b50610307601e81565b34801561033657600080fd5b506102ef6103453660046126e5565b61099d565b34801561035657600080fd5b506102ef6103653660046129a8565b6109ce565b34801561037657600080fd5b506102ef610a98565b34801561038b57600080fd5b506102ef61039a3660046126e5565b610af5565b3480156103ab57600080fd5b506103076103ba3660046127d3565b610b10565b3480156103cb57600080fd5b506102ef6103da36600461289d565b610b57565b3480156103eb57600080fd5b506102ef6103fa3660046128d0565b610b94565b34801561040b57600080fd5b506102b761041a366004612a35565b610c2c565b34801561042b57600080fd5b5060d1546102609060ff1681565b34801561044557600080fd5b5061028a610ca3565b34801561045a57600080fd5b506102ef610469366004612699565b610d31565b34801561047a57600080fd5b506102ef610489366004612699565b610d83565b34801561049a57600080fd5b506103076104a9366004612699565b610db9565b3480156104ba57600080fd5b506102ef610e40565b3480156104cf57600080fd5b506097546001600160a01b03166102b7565b6102ef6104ef3660046127fc565b610eb4565b34801561050057600080fd5b506102ef61050f366004612a35565b611172565b34801561052057600080fd5b5061030760cf5481565b34801561053657600080fd5b5061030760cb5481565b34801561054c57600080fd5b5061028a6111a1565b34801561056157600080fd5b5061030760c95481565b6102ef610579366004612a35565b6111b0565b34801561058a57600080fd5b506102ef610599366004612799565b611334565b3480156105aa57600080fd5b5060d0546103079081565b3480156105c157600080fd5b506102ef6105d0366004612720565b6113f9565b3480156105e157600080fd5b5061028a6105f0366004612a35565b611431565b34801561060157600080fd5b506102ef61150c565b34801561061657600080fd5b5061030760cc5481565b34801561062c57600080fd5b5061026061063b366004612a35565b60d26020526000908152604090205460ff1681565b34801561065c57600080fd5b5061026061066b3660046126b3565b6001600160a01b039182166000908152606a6020908152604080832093909416825291909152205460ff1690565b3480156106a557600080fd5b5060d1546102b79061010090046001600160a01b031681565b3480156106ca57600080fd5b506102ef6106d9366004612699565b61162b565b3480156106ea57600080fd5b506102ef611716565b3480156106ff57600080fd5b5061030760ca5481565b60006001600160e01b031982166380ac58cd60e01b148061073a57506001600160e01b03198216635b5e139f60e01b145b8061075557506301ffc9a760e01b6001600160e01b03198316145b92915050565b60606065805461076a90612d00565b80601f016020809104026020016040519081016040528092919081815260200182805461079690612d00565b80156107e35780601f106107b8576101008083540402835291602001916107e3565b820191906000526020600020905b8154815290600101906020018083116107c657829003601f168201915b5050505050905090565b6000818152606760205260408120546001600160a01b031661086b5760405162461bcd60e51b815260206004820152602c60248201527f4552433732313a20617070726f76656420717565727920666f72206e6f6e657860448201526b34b9ba32b73a103a37b5b2b760a11b60648201526084015b60405180910390fd5b506000908152606960205260409020546001600160a01b031690565b600061089282610c2c565b9050806001600160a01b0316836001600160a01b031614156109005760405162461bcd60e51b815260206004820152602160248201527f4552433732313a20617070726f76616c20746f2063757272656e74206f776e656044820152603960f91b6064820152608401610862565b336001600160a01b038216148061091c575061091c813361066b565b61098e5760405162461bcd60e51b815260206004820152603860248201527f4552433732313a20617070726f76652063616c6c6572206973206e6f74206f7760448201527f6e6572206e6f7220617070726f76656420666f7220616c6c00000000000000006064820152608401610862565b6109988383611754565b505050565b6109a733826117c2565b6109c35760405162461bcd60e51b815260040161086290612bdc565b6109988383836118b9565b600054610100900460ff16806109e7575060005460ff16155b610a035760405162461bcd60e51b815260040161086290612b59565b600054610100900460ff16158015610a25576000805461ffff19166101011790555b8851610a389060cd9060208c0190612505565b5060c988905560ca87905560cb86905560cc85905560ce84905560d18054610100600160a81b0319166101006001600160a01b03851602179055610a7b8361162b565b8015610a8d576000805461ff00191690555b505050505050505050565b6097546001600160a01b03163314610ac25760405162461bcd60e51b815260040161086290612ba7565b6040514790339082156108fc029083906000818181858888f19350505050158015610af1573d6000803e3d6000fd5b5050565b610998838383604051806020016040528060008152506113f9565b6040516bffffffffffffffffffffffff19606084901b1660208201526034810182905260009060540160405160208183030381529060405280519060200120905092915050565b6097546001600160a01b03163314610b815760405162461bcd60e51b815260040161086290612ba7565b8051610af19060cd906020840190612505565b600054610100900460ff1680610bad575060005460ff16155b610bc95760405162461bcd60e51b815260040161086290612b59565b600054610100900460ff16158015610beb576000805461ffff19166101011790555b610bf58b8b611a59565b610bfd611ae0565b610c0d89898989898989896109ce565b8015610c1f576000805461ff00191690555b5050505050505050505050565b6000818152606760205260408120546001600160a01b0316806107555760405162461bcd60e51b815260206004820152602960248201527f4552433732313a206f776e657220717565727920666f72206e6f6e657869737460448201526832b73a103a37b5b2b760b91b6064820152608401610862565b60cd8054610cb090612d00565b80601f0160208091040260200160405190810160405280929190818152602001828054610cdc90612d00565b8015610d295780601f10610cfe57610100808354040283529160200191610d29565b820191906000526020600020905b815481529060010190602001808311610d0c57829003601f168201915b505050505081565b6097546001600160a01b03163314610d5b5760405162461bcd60e51b815260040161086290612ba7565b60d180546001600160a01b0390921661010002610100600160a81b0319909216919091179055565b6097546001600160a01b03163314610dad5760405162461bcd60e51b815260040161086290612ba7565b610db68161162b565b50565b60006001600160a01b038216610e245760405162461bcd60e51b815260206004820152602a60248201527f4552433732313a2062616c616e636520717565727920666f7220746865207a65604482015269726f206164647265737360b01b6064820152608401610862565b506001600160a01b031660009081526068602052604090205490565b6097546001600160a01b03163314610e6a5760405162461bcd60e51b815260040161086290612ba7565b6097546040516000916001600160a01b0316907f8be0079c531659141344cd1fd0a4f28419497f9722a3daafe3b4186f6b6457e0908390a3609780546001600160a01b0319169055565b828114610ef95760405162461bcd60e51b8152602060048201526013602482015272084c2e8c6d040e6d2f4ca40dad2e6dac2e8c6d606b1b6044820152606401610862565b60cc5483610f0660d05490565b610f109190612c72565b1115610f5e5760405162461bcd60e51b815260206004820152601f60248201527f4d696e74696e6720776f756c6420657863656564206d617820737570706c79006044820152606401610862565b60ca543490610f6e908590612c9e565b1115610fbc5760405162461bcd60e51b815260206004820152601f60248201527f45746865722076616c75652073656e74206973206e6f7420636f7272656374006044820152606401610862565b60005b8381101561116b5760d26000868684818110610feb57634e487b7160e01b600052603260045260246000fd5b602090810292909201358352508101919091526040016000205460ff16156110555760405162461bcd60e51b815260206004820152601960248201527f57686974656c69737420616c726561647920636c61696d6564000000000000006044820152606401610862565b6110bf6110883387878581811061107c57634e487b7160e01b600052603260045260246000fd5b90506020020135610b10565b8484848181106110a857634e487b7160e01b600052603260045260246000fd5b90506020028101906110ba9190612c2d565b611b8e565b6110ff5760405162461bcd60e51b8152602060048201526011602482015270496e76616c6964205369676e617475726560781b6044820152606401610862565b600160d2600087878581811061112557634e487b7160e01b600052603260045260246000fd5b90506020020135815260200190815260200160002060006101000a81548160ff021916908315150217905550611159611c43565b8061116381612d3b565b915050610fbf565b5050505050565b6097546001600160a01b0316331461119c5760405162461bcd60e51b815260040161086290612ba7565b60c955565b60606066805461076a90612d00565b60d15460ff166111fb5760405162461bcd60e51b81526020600482015260166024820152754d696e74696e67206d7573742062652061637469766560501b6044820152606401610862565b60cb5481111561124d5760405162461bcd60e51b815260206004820152601f60248201527f43616e6e6f74206d696e742074686973206d616e7920617420612074696d65006044820152606401610862565b60cc548161125a60d05490565b6112649190612c72565b11156112b25760405162461bcd60e51b815260206004820152601f60248201527f4d696e74696e6720776f756c6420657863656564206d617820737570706c79006044820152606401610862565b348160c9546112c19190612c9e565b111561130f5760405162461bcd60e51b815260206004820152601f60248201527f45746865722076616c75652073656e74206973206e6f7420636f7272656374006044820152606401610862565b60005b81811015610af157611322611c43565b8061132c81612d3b565b915050611312565b6001600160a01b03821633141561138d5760405162461bcd60e51b815260206004820152601960248201527f4552433732313a20617070726f766520746f2063616c6c6572000000000000006044820152606401610862565b336000818152606a602090815260408083206001600160a01b03871680855290835292819020805460ff191686151590811790915590519081529192917f17307eab39ab6107e8899845ad3d59bd9653f200f220920489ca2b5937696c31910160405180910390a35050565b61140333836117c2565b61141f5760405162461bcd60e51b815260040161086290612bdc565b61142b84848484611c67565b50505050565b6000818152606760205260409020546060906001600160a01b03166114b05760405162461bcd60e51b815260206004820152602f60248201527f4552433732314d657461646174613a2055524920717565727920666f72206e6f60448201526e3732bc34b9ba32b73a103a37b5b2b760891b6064820152608401610862565b60006114ba611c9a565b905060008151116114da5760405180602001604052806000815250611505565b806114e484611ca9565b6040516020016114f5929190612a79565b6040516020818303038152906040525b9392505050565b6097546001600160a01b031633146115365760405162461bcd60e51b815260040161086290612ba7565b600060cf5460ce546115489190612cbd565b9050600081601e1061155a578161155d565b601e5b9050600061156a60d05490565b60cc5490915061157a8383612c72565b11156115d25760405162461bcd60e51b815260206004820152602160248201527f526573657276696e6720776f756c6420657863656564206d617820737570706c6044820152607960f81b6064820152608401610862565b60005b828110156115f7576115e5611c43565b806115ef81612d3b565b9150506115d5565b50600061160360d05490565b905061160f8282612cbd565b60cf60008282546116209190612c72565b909155505050505050565b6097546001600160a01b031633146116555760405162461bcd60e51b815260040161086290612ba7565b6001600160a01b0381166116ba5760405162461bcd60e51b815260206004820152602660248201527f4f776e61626c653a206e6577206f776e657220697320746865207a65726f206160448201526564647265737360d01b6064820152608401610862565b6097546040516001600160a01b038084169216907f8be0079c531659141344cd1fd0a4f28419497f9722a3daafe3b4186f6b6457e090600090a3609780546001600160a01b0319166001600160a01b0392909216919091179055565b6097546001600160a01b031633146117405760405162461bcd60e51b815260040161086290612ba7565b60d1805460ff19811660ff90911615179055565b600081815260696020526040902080546001600160a01b0319166001600160a01b038416908117909155819061178982610c2c565b6001600160a01b03167f8c5be1e5ebec7d5bd14f71427d1e84f3dd0314c0f7b2291e5b200ac8c7c3b92560405160405180910390a45050565b6000818152606760205260408120546001600160a01b031661183b5760405162461bcd60e51b815260206004820152602c60248201527f4552433732313a206f70657261746f7220717565727920666f72206e6f6e657860448201526b34b9ba32b73a103a37b5b2b760a11b6064820152608401610862565b600061184683610c2c565b9050806001600160a01b0316846001600160a01b031614806118815750836001600160a01b0316611876846107ed565b6001600160a01b0316145b806118b157506001600160a01b038082166000908152606a602090815260408083209388168352929052205460ff165b949350505050565b826001600160a01b03166118cc82610c2c565b6001600160a01b0316146119345760405162461bcd60e51b815260206004820152602960248201527f4552433732313a207472616e73666572206f6620746f6b656e2074686174206960448201526839903737ba1037bbb760b91b6064820152608401610862565b6001600160a01b0382166119965760405162461bcd60e51b8152602060048201526024808201527f4552433732313a207472616e7366657220746f20746865207a65726f206164646044820152637265737360e01b6064820152608401610862565b6119a1600082611754565b6001600160a01b03831660009081526068602052604081208054600192906119ca908490612cbd565b90915550506001600160a01b03821660009081526068602052604081208054600192906119f8908490612c72565b909155505060008181526067602052604080822080546001600160a01b0319166001600160a01b0386811691821790925591518493918716917fddf252ad1be2c89b69c2b068fc378daa952ba7f163c4a11628f55a4df523b3ef91a4505050565b600054610100900460ff1680611a72575060005460ff16155b611a8e5760405162461bcd60e51b815260040161086290612b59565b600054610100900460ff16158015611ab0576000805461ffff19166101011790555b611ab8611dc3565b611ac0611dc3565b611aca8383611e2e565b8015610998576000805461ff0019169055505050565b600054610100900460ff1680611af9575060005460ff16155b611b155760405162461bcd60e51b815260040161086290612b59565b600054610100900460ff16158015611b37576000805461ffff19166101011790555b609780546001600160a01b0319163390811790915560405181906000907f8be0079c531659141344cd1fd0a4f28419497f9722a3daafe3b4186f6b6457e0908290a3508015610db6576000805461ff001916905550565b6000611b9984611ec3565b6118b1611bf3856040517f19457468657265756d205369676e6564204d6573736167653a0a3332000000006020820152603c8101829052600090605c01604051602081830303815290604052805190602001209050919050565b84848080601f0160208091040260200160405190810160405280939291908181526020018383808284376000920191909152505060d1546001600160a01b03610100909104169392915050611f08565b60cc5460d0541015611c65576000611c59611fd2565b9050610db63382611fe9565b565b611c728484846118b9565b611c7e84848484612003565b61142b5760405162461bcd60e51b815260040161086290612b07565b606060cd805461076a90612d00565b606081611ccd5750506040805180820190915260018152600360fc1b602082015290565b8160005b8115611cf75780611ce181612d3b565b9150611cf09050600a83612c8a565b9150611cd1565b60008167ffffffffffffffff811115611d2057634e487b7160e01b600052604160045260246000fd5b6040519080825280601f01601f191660200182016040528015611d4a576020820181803683370190505b5090505b84156118b157611d5f600183612cbd565b9150611d6c600a86612d56565b611d77906030612c72565b60f81b818381518110611d9a57634e487b7160e01b600052603260045260246000fd5b60200101906001600160f81b031916908160001a905350611dbc600a86612c8a565b9450611d4e565b600054610100900460ff1680611ddc575060005460ff16155b611df85760405162461bcd60e51b815260040161086290612b59565b600054610100900460ff16158015611e1a576000805461ffff19166101011790555b8015610db6576000805461ff001916905550565b600054610100900460ff1680611e47575060005460ff16155b611e635760405162461bcd60e51b815260040161086290612b59565b600054610100900460ff16158015611e85576000805461ffff19166101011790555b8251611e98906065906020860190612505565b508151611eac906066906020850190612505565b508015610998576000805461ff0019169055505050565b610db681604051602401611ed991815260200190565b60408051601f198184030181529190526020810180516001600160e01b03166327b7cf8560e01b179052612110565b6000833b15611fad57604051630b135d3f60e11b81526001600160a01b03851690631626ba7e90611f3f9086908690600401612adb565b60206040518083038186803b158015611f5757600080fd5b505afa925050508015611f87575060408051601f3d908101601f19168201909252611f8491810190612881565b60015b611f9357506000611505565b6001600160e01b031916630b135d3f60e11b149050611505565b836001600160a01b0316611fc18484612131565b6001600160a01b0316149050611505565b6000611fe260d080546001019055565b5060d05490565b610af18282604051806020016040528060008152506121e7565b60006001600160a01b0384163b1561210557604051630a85bd0160e11b81526001600160a01b0385169063150b7a0290612047903390899088908890600401612aa8565b602060405180830381600087803b15801561206157600080fd5b505af1925050508015612091575060408051601f3d908101601f1916820190925261208e91810190612881565b60015b6120eb573d8080156120bf576040519150601f19603f3d011682016040523d82523d6000602084013e6120c4565b606091505b5080516120e35760405162461bcd60e51b815260040161086290612b07565b805181602001fd5b6001600160e01b031916630a85bd0160e11b1490506118b1565b506001949350505050565b80516a636f6e736f6c652e6c6f67602083016000808483855afa5050505050565b60008060008084516041141561215b5750505060208201516040830151606084015160001a6121d1565b8451604014156121895750505060408201516020830151906001600160ff1b0381169060ff1c601b016121d1565b60405162461bcd60e51b815260206004820152601f60248201527f45434453413a20696e76616c6964207369676e6174757265206c656e677468006044820152606401610862565b6121dd8682858561221a565b9695505050505050565b6121f183836123c3565b6121fe6000848484612003565b6109985760405162461bcd60e51b815260040161086290612b07565b60007f7fffffffffffffffffffffffffffffff5d576e7357a4501ddfe92f46681b20a08211156122975760405162461bcd60e51b815260206004820152602260248201527f45434453413a20696e76616c6964207369676e6174757265202773272076616c604482015261756560f01b6064820152608401610862565b8360ff16601b14806122ac57508360ff16601c145b6123035760405162461bcd60e51b815260206004820152602260248201527f45434453413a20696e76616c6964207369676e6174757265202776272076616c604482015261756560f01b6064820152608401610862565b6040805160008082526020820180845288905260ff871692820192909252606081018590526080810184905260019060a0016020604051602081039080840390855afa158015612357573d6000803e3d6000fd5b5050604051601f1901519150506001600160a01b0381166123ba5760405162461bcd60e51b815260206004820152601860248201527f45434453413a20696e76616c6964207369676e617475726500000000000000006044820152606401610862565b95945050505050565b6001600160a01b0382166124195760405162461bcd60e51b815260206004820181905260248201527f4552433732313a206d696e7420746f20746865207a65726f20616464726573736044820152606401610862565b6000818152606760205260409020546001600160a01b03161561247e5760405162461bcd60e51b815260206004820152601c60248201527f4552433732313a20746f6b656e20616c7265616479206d696e746564000000006044820152606401610862565b6001600160a01b03821660009081526068602052604081208054600192906124a7908490612c72565b909155505060008181526067602052604080822080546001600160a01b0319166001600160a01b03861690811790915590518392907fddf252ad1be2c89b69c2b068fc378daa952ba7f163c4a11628f55a4df523b3ef908290a45050565b82805461251190612d00565b90600052602060002090601f0160209004810192826125335760008555612579565b82601f1061254c57805160ff1916838001178555612579565b82800160010185558215612579579182015b8281111561257957825182559160200191906001019061255e565b50612585929150612589565b5090565b5b80821115612585576000815560010161258a565b600067ffffffffffffffff808411156125b9576125b9612d96565b604051601f8501601f19908116603f011681019082821181831017156125e1576125e1612d96565b816040528093508581528686860111156125fa57600080fd5b858560208301376000602087830101525050509392505050565b80356001600160a01b038116811461262b57600080fd5b919050565b60008083601f840112612641578081fd5b50813567ffffffffffffffff811115612658578182fd5b6020830191508360208260051b850101111561267357600080fd5b9250929050565b600082601f83011261268a578081fd5b6115058383356020850161259e565b6000602082840312156126aa578081fd5b61150582612614565b600080604083850312156126c5578081fd5b6126ce83612614565b91506126dc60208401612614565b90509250929050565b6000806000606084860312156126f9578081fd5b61270284612614565b925061271060208501612614565b9150604084013590509250925092565b60008060008060808587031215612735578081fd5b61273e85612614565b935061274c60208601612614565b925060408501359150606085013567ffffffffffffffff81111561276e578182fd5b8501601f8101871361277e578182fd5b61278d8782356020840161259e565b91505092959194509250565b600080604083850312156127ab578182fd5b6127b483612614565b9150602083013580151581146127c8578182fd5b809150509250929050565b600080604083850312156127e5578182fd5b6127ee83612614565b946020939093013593505050565b60008060008060408587031215612811578384fd5b843567ffffffffffffffff80821115612828578586fd5b61283488838901612630565b9096509450602087013591508082111561284c578384fd5b5061285987828801612630565b95989497509550505050565b600060208284031215612876578081fd5b813561150581612dac565b600060208284031215612892578081fd5b815161150581612dac565b6000602082840312156128ae578081fd5b813567ffffffffffffffff8111156128c4578182fd5b6118b18482850161267a565b6000806000806000806000806000806101408b8d0312156128ef578586fd5b8a3567ffffffffffffffff80821115612906578788fd5b6129128e838f0161267a565b9b5060208d0135915080821115612927578788fd5b6129338e838f0161267a565b9a5060408d0135915080821115612948578788fd5b506129558d828e0161267a565b98505060608b0135965060808b0135955060a08b0135945060c08b0135935060e08b013592506129886101008c01612614565b91506129976101208c01612614565b90509295989b9194979a5092959850565b600080600080600080600080610100898b0312156129c4578182fd5b883567ffffffffffffffff8111156129da578283fd5b6129e68b828c0161267a565b9850506020890135965060408901359550606089013594506080890135935060a08901359250612a1860c08a01612614565b9150612a2660e08a01612614565b90509295985092959890939650565b600060208284031215612a46578081fd5b5035919050565b60008151808452612a65816020860160208601612cd4565b601f01601f19169290920160200192915050565b60008351612a8b818460208801612cd4565b835190830190612a9f818360208801612cd4565b01949350505050565b6001600160a01b03858116825284166020820152604081018390526080606082018190526000906121dd90830184612a4d565b8281526040602082015260006118b16040830184612a4d565b6020815260006115056020830184612a4d565b60208082526032908201527f4552433732313a207472616e7366657220746f206e6f6e20455243373231526560408201527131b2b4bb32b91034b6b83632b6b2b73a32b960711b606082015260800190565b6020808252602e908201527f496e697469616c697a61626c653a20636f6e747261637420697320616c72656160408201526d191e481a5b9a5d1a585b1a5e995960921b606082015260800190565b6020808252818101527f4f776e61626c653a2063616c6c6572206973206e6f7420746865206f776e6572604082015260600190565b60208082526031908201527f4552433732313a207472616e736665722063616c6c6572206973206e6f74206f6040820152701ddb995c881b9bdc88185c1c1c9bdd9959607a1b606082015260800190565b6000808335601e19843603018112612c43578283fd5b83018035915067ffffffffffffffff821115612c5d578283fd5b60200191503681900382131561267357600080fd5b60008219821115612c8557612c85612d6a565b500190565b600082612c9957612c99612d80565b500490565b6000816000190483118215151615612cb857612cb8612d6a565b500290565b600082821015612ccf57612ccf612d6a565b500390565b60005b83811015612cef578181015183820152602001612cd7565b8381111561142b5750506000910152565b600181811c90821680612d1457607f821691505b60208210811415612d3557634e487b7160e01b600052602260045260246000fd5b50919050565b6000600019821415612d4f57612d4f612d6a565b5060010190565b600082612d6557612d65612d80565b500690565b634e487b7160e01b600052601160045260246000fd5b634e487b7160e01b600052601260045260246000fd5b634e487b7160e01b600052604160045260246000fd5b6001600160e01b031981168114610db657600080fdfea2646970667358221220857795e43b4853c373877c699cc022982732a0bd62da29b57524fd3beb62b7d964736f6c63430008040033",
  "devdoc": {
    "kind": "dev",
    "methods": {
      "approve(address,uint256)": {
        "details": "See {IERC721-approve}."
      },
      "balanceOf(address)": {
        "details": "See {IERC721-balanceOf}."
      },
      "getApproved(uint256)": {
        "details": "See {IERC721-getApproved}."
      },
      "isApprovedForAll(address,address)": {
        "details": "See {IERC721-isApprovedForAll}."
      },
      "mint(uint256)": {
        "details": "mint multiple"
      },
      "name()": {
        "details": "See {IERC721Metadata-name}."
      },
      "owner()": {
        "details": "Returns the address of the current owner."
      },
      "ownerOf(uint256)": {
        "details": "See {IERC721-ownerOf}."
      },
      "renounceOwnership()": {
        "details": "Leaves the contract without owner. It will not be possible to call `onlyOwner` functions anymore. Can only be called by the current owner. NOTE: Renouncing ownership will leave the contract without an owner, thereby removing any functionality that is only available to the owner."
      },
      "reserve()": {
        "details": "reserve some NFTs aside"
      },
      "safeTransferFrom(address,address,uint256)": {
        "details": "See {IERC721-safeTransferFrom}."
      },
      "safeTransferFrom(address,address,uint256,bytes)": {
        "details": "See {IERC721-safeTransferFrom}."
      },
      "setApprovalForAll(address,bool)": {
        "details": "See {IERC721-setApprovalForAll}."
      },
      "setBaseURI(string)": {
        "details": "set base URI"
      },
      "supportsInterface(bytes4)": {
        "details": "See {IERC165-supportsInterface}."
      },
      "symbol()": {
        "details": "See {IERC721Metadata-symbol}."
      },
      "tokenURI(uint256)": {
        "details": "See {IERC721Metadata-tokenURI}."
      },
      "transferFrom(address,address,uint256)": {
        "details": "See {IERC721-transferFrom}."
      },
      "transferOwnership(address)": {
        "details": "Transfers ownership of the contract to a new account (`newOwner`). Can only be called by the current owner."
      },
      "whitelistMint(uint256[],bytes[])": {
        "details": "whiltelist claim"
      },
      "withdraw()": {
        "details": "withdraw eth paid in mint and presale"
      }
    },
    "version": 1
  },
  "userdoc": {
    "kind": "user",
    "methods": {},
    "version": 1
  },
  "storageLayout": {
    "storage": [
      {
        "astId": 196,
        "contract": "contracts/CybertinoLaunch/LaunchNFTV0.sol:LaunchNFTV0",
        "label": "_initialized",
        "offset": 0,
        "slot": "0",
        "type": "t_bool"
      },
      {
        "astId": 199,
        "contract": "contracts/CybertinoLaunch/LaunchNFTV0.sol:LaunchNFTV0",
        "label": "_initializing",
        "offset": 1,
        "slot": "0",
        "type": "t_bool"
      },
      {
        "astId": 2771,
        "contract": "contracts/CybertinoLaunch/LaunchNFTV0.sol:LaunchNFTV0",
        "label": "__gap",
        "offset": 0,
        "slot": "1",
        "type": "t_array(t_uint256)50_storage"
      },
      {
        "astId": 3284,
        "contract": "contracts/CybertinoLaunch/LaunchNFTV0.sol:LaunchNFTV0",
        "label": "__gap",
        "offset": 0,
        "slot": "51",
        "type": "t_array(t_uint256)50_storage"
      },
      {
        "astId": 1503,
        "contract": "contracts/CybertinoLaunch/LaunchNFTV0.sol:LaunchNFTV0",
        "label": "_name",
        "offset": 0,
        "slot": "101",
        "type": "t_string_storage"
      },
      {
        "astId": 1505,
        "contract": "contracts/CybertinoLaunch/LaunchNFTV0.sol:LaunchNFTV0",
        "label": "_symbol",
        "offset": 0,
        "slot": "102",
        "type": "t_string_storage"
      },
      {
        "astId": 1509,
        "contract": "contracts/CybertinoLaunch/LaunchNFTV0.sol:LaunchNFTV0",
        "label": "_owners",
        "offset": 0,
        "slot": "103",
        "type": "t_mapping(t_uint256,t_address)"
      },
      {
        "astId": 1513,
        "contract": "contracts/CybertinoLaunch/LaunchNFTV0.sol:LaunchNFTV0",
        "label": "_balances",
        "offset": 0,
        "slot": "104",
        "type": "t_mapping(t_address,t_uint256)"
      },
      {
        "astId": 1517,
        "contract": "contracts/CybertinoLaunch/LaunchNFTV0.sol:LaunchNFTV0",
        "label": "_tokenApprovals",
        "offset": 0,
        "slot": "105",
        "type": "t_mapping(t_uint256,t_address)"
      },
      {
        "astId": 1523,
        "contract": "contracts/CybertinoLaunch/LaunchNFTV0.sol:LaunchNFTV0",
        "label": "_operatorApprovals",
        "offset": 0,
        "slot": "106",
        "type": "t_mapping(t_address,t_mapping(t_address,t_bool))"
      },
      {
        "astId": 2321,
        "contract": "contracts/CybertinoLaunch/LaunchNFTV0.sol:LaunchNFTV0",
        "label": "__gap",
        "offset": 0,
        "slot": "107",
        "type": "t_array(t_uint256)44_storage"
      },
      {
        "astId": 56,
        "contract": "contracts/CybertinoLaunch/LaunchNFTV0.sol:LaunchNFTV0",
        "label": "_owner",
        "offset": 0,
        "slot": "151",
        "type": "t_address"
      },
      {
        "astId": 175,
        "contract": "contracts/CybertinoLaunch/LaunchNFTV0.sol:LaunchNFTV0",
        "label": "__gap",
        "offset": 0,
        "slot": "152",
        "type": "t_array(t_uint256)49_storage"
      },
      {
        "astId": 5632,
        "contract": "contracts/CybertinoLaunch/LaunchNFTV0.sol:LaunchNFTV0",
        "label": "price",
        "offset": 0,
        "slot": "201",
        "type": "t_uint256"
      },
      {
        "astId": 5635,
        "contract": "contracts/CybertinoLaunch/LaunchNFTV0.sol:LaunchNFTV0",
        "label": "whitelistPrice",
        "offset": 0,
        "slot": "202",
        "type": "t_uint256"
      },
      {
        "astId": 5637,
        "contract": "contracts/CybertinoLaunch/LaunchNFTV0.sol:LaunchNFTV0",
        "label": "maxPurchaseNum",
        "offset": 0,
        "slot": "203",
        "type": "t_uint256"
      },
      {
        "astId": 5640,
        "contract": "contracts/CybertinoLaunch/LaunchNFTV0.sol:LaunchNFTV0",
        "label": "maxSupply",
        "offset": 0,
        "slot": "204",
        "type": "t_uint256"
      },
      {
        "astId": 5643,
        "contract": "contracts/CybertinoLaunch/LaunchNFTV0.sol:LaunchNFTV0",
        "label": "baseURI",
        "offset": 0,
        "slot": "205",
        "type": "t_string_storage"
      },
      {
        "astId": 5646,
        "contract": "contracts/CybertinoLaunch/LaunchNFTV0.sol:LaunchNFTV0",
        "label": "reserveNum",
        "offset": 0,
        "slot": "206",
        "type": "t_uint256"
      },
      {
        "astId": 5649,
        "contract": "contracts/CybertinoLaunch/LaunchNFTV0.sol:LaunchNFTV0",
        "label": "mintedReserveNum",
        "offset": 0,
        "slot": "207",
        "type": "t_uint256"
      },
      {
        "astId": 5653,
        "contract": "contracts/CybertinoLaunch/LaunchNFTV0.sol:LaunchNFTV0",
        "label": "id",
        "offset": 0,
        "slot": "208",
        "type": "t_struct(Counter)2778_storage"
      },
      {
        "astId": 5657,
        "contract": "contracts/CybertinoLaunch/LaunchNFTV0.sol:LaunchNFTV0",
        "label": "isMintingActive",
        "offset": 0,
        "slot": "209",
        "type": "t_bool"
      },
      {
        "astId": 5660,
        "contract": "contracts/CybertinoLaunch/LaunchNFTV0.sol:LaunchNFTV0",
        "label": "whitelistSigner",
        "offset": 1,
        "slot": "209",
        "type": "t_address"
      },
      {
        "astId": 5665,
        "contract": "contracts/CybertinoLaunch/LaunchNFTV0.sol:LaunchNFTV0",
        "label": "hasMinted",
        "offset": 0,
        "slot": "210",
        "type": "t_mapping(t_uint256,t_bool)"
      }
    ],
    "types": {
      "t_address": {
        "encoding": "inplace",
        "label": "address",
        "numberOfBytes": "20"
      },
      "t_array(t_uint256)44_storage": {
        "base": "t_uint256",
        "encoding": "inplace",
        "label": "uint256[44]",
        "numberOfBytes": "1408"
      },
      "t_array(t_uint256)49_storage": {
        "base": "t_uint256",
        "encoding": "inplace",
        "label": "uint256[49]",
        "numberOfBytes": "1568"
      },
      "t_array(t_uint256)50_storage": {
        "base": "t_uint256",
        "encoding": "inplace",
        "label": "uint256[50]",
        "numberOfBytes": "1600"
      },
      "t_bool": {
        "encoding": "inplace",
        "label": "bool",
        "numberOfBytes": "1"
      },
      "t_mapping(t_address,t_bool)": {
        "encoding": "mapping",
        "key": "t_address",
        "label": "mapping(address => bool)",
        "numberOfBytes": "32",
        "value": "t_bool"
      },
      "t_mapping(t_address,t_mapping(t_address,t_bool))": {
        "encoding": "mapping",
        "key": "t_address",
        "label": "mapping(address => mapping(address => bool))",
        "numberOfBytes": "32",
        "value": "t_mapping(t_address,t_bool)"
      },
      "t_mapping(t_address,t_uint256)": {
        "encoding": "mapping",
        "key": "t_address",
        "label": "mapping(address => uint256)",
        "numberOfBytes": "32",
        "value": "t_uint256"
      },
      "t_mapping(t_uint256,t_address)": {
        "encoding": "mapping",
        "key": "t_uint256",
        "label": "mapping(uint256 => address)",
        "numberOfBytes": "32",
        "value": "t_address"
      },
      "t_mapping(t_uint256,t_bool)": {
        "encoding": "mapping",
        "key": "t_uint256",
        "label": "mapping(uint256 => bool)",
        "numberOfBytes": "32",
        "value": "t_bool"
      },
      "t_string_storage": {
        "encoding": "bytes",
        "label": "string",
        "numberOfBytes": "32"
      },
      "t_struct(Counter)2778_storage": {
        "encoding": "inplace",
        "label": "struct CountersUpgradeable.Counter",
        "members": [
          {
            "astId": 2777,
            "contract": "contracts/CybertinoLaunch/LaunchNFTV0.sol:LaunchNFTV0",
            "label": "_value",
            "offset": 0,
            "slot": "0",
            "type": "t_uint256"
          }
        ],
        "numberOfBytes": "32"
      },
      "t_uint256": {
        "encoding": "inplace",
        "label": "uint256",
        "numberOfBytes": "32"
      }
    }
  }
}